{
  "_format": "hh-sol-artifact-1",
  "contractName": "RegulatoryOracle",
  "sourceName": "contracts/RegulatoryOracle.sol",
  "abi": [
    {
      "inputs": [
        {
          "internalType": "address",
          "name": "initialOwner",
          "type": "address"
        }
      ],
      "stateMutability": "nonpayable",
      "type": "constructor"
    },
    {
      "inputs": [
        {
          "internalType": "address",
          "name": "owner",
          "type": "address"
        }
      ],
      "name": "OwnableInvalidOwner",
      "type": "error"
    },
    {
      "inputs": [
        {
          "internalType": "address",
          "name": "account",
          "type": "address"
        }
      ],
      "name": "OwnableUnauthorizedAccount",
      "type": "error"
    },
    {
      "inputs": [],
      "name": "ReentrancyGuardReentrantCall",
      "type": "error"
    },
    {
      "anonymous": false,
      "inputs": [
        {
          "indexed": true,
          "internalType": "address",
          "name": "account",
          "type": "address"
        },
        {
          "indexed": false,
          "internalType": "uint256",
          "name": "newScore",
          "type": "uint256"
        }
      ],
      "name": "AMLRiskScoreUpdated",
      "type": "event"
    },
    {
      "anonymous": false,
      "inputs": [
        {
          "indexed": true,
          "internalType": "uint256",
          "name": "reportId",
          "type": "uint256"
        },
        {
          "indexed": true,
          "internalType": "address",
          "name": "institution",
          "type": "address"
        }
      ],
      "name": "ComplianceReportGenerated",
      "type": "event"
    },
    {
      "anonymous": false,
      "inputs": [
        {
          "indexed": true,
          "internalType": "uint256",
          "name": "ruleId",
          "type": "uint256"
        },
        {
          "indexed": false,
          "internalType": "enum RegulatoryOracle.ComplianceRegion",
          "name": "region",
          "type": "uint8"
        },
        {
          "indexed": false,
          "internalType": "enum RegulatoryOracle.RiskLevel",
          "name": "riskLevel",
          "type": "uint8"
        }
      ],
      "name": "ComplianceRuleCreated",
      "type": "event"
    },
    {
      "anonymous": false,
      "inputs": [
        {
          "indexed": true,
          "internalType": "address",
          "name": "institution",
          "type": "address"
        },
        {
          "indexed": false,
          "internalType": "string",
          "name": "reason",
          "type": "string"
        }
      ],
      "name": "EmergencyFreezeActivated",
      "type": "event"
    },
    {
      "anonymous": false,
      "inputs": [
        {
          "indexed": true,
          "internalType": "address",
          "name": "institution",
          "type": "address"
        },
        {
          "indexed": false,
          "internalType": "enum RegulatoryOracle.ComplianceRegion[]",
          "name": "regions",
          "type": "uint8[]"
        }
      ],
      "name": "InstitutionAuthorized",
      "type": "event"
    },
    {
      "anonymous": false,
      "inputs": [
        {
          "indexed": false,
          "internalType": "string",
          "name": "jurisdiction",
          "type": "string"
        },
        {
          "indexed": false,
          "internalType": "bool",
          "name": "restricted",
          "type": "bool"
        }
      ],
      "name": "JurisdictionRestricted",
      "type": "event"
    },
    {
      "anonymous": false,
      "inputs": [
        {
          "indexed": true,
          "internalType": "address",
          "name": "previousOwner",
          "type": "address"
        },
        {
          "indexed": true,
          "internalType": "address",
          "name": "newOwner",
          "type": "address"
        }
      ],
      "name": "OwnershipTransferred",
      "type": "event"
    },
    {
      "anonymous": false,
      "inputs": [
        {
          "indexed": true,
          "internalType": "address",
          "name": "institution",
          "type": "address"
        },
        {
          "indexed": true,
          "internalType": "address",
          "name": "protocol",
          "type": "address"
        },
        {
          "indexed": false,
          "internalType": "bool",
          "name": "whitelisted",
          "type": "bool"
        }
      ],
      "name": "ProtocolWhitelisted",
      "type": "event"
    },
    {
      "anonymous": false,
      "inputs": [
        {
          "indexed": true,
          "internalType": "uint256",
          "name": "violationId",
          "type": "uint256"
        },
        {
          "indexed": true,
          "internalType": "address",
          "name": "entity",
          "type": "address"
        },
        {
          "indexed": false,
          "internalType": "enum RegulatoryOracle.ViolationType",
          "name": "violationType",
          "type": "uint8"
        }
      ],
      "name": "ViolationDetected",
      "type": "event"
    },
    {
      "inputs": [
        {
          "internalType": "address",
          "name": "",
          "type": "address"
        }
      ],
      "name": "amlRiskScores",
      "outputs": [
        {
          "internalType": "uint256",
          "name": "",
          "type": "uint256"
        }
      ],
      "stateMutability": "view",
      "type": "function"
    },
    {
      "inputs": [
        {
          "internalType": "address",
          "name": "institution",
          "type": "address"
        },
        {
          "internalType": "enum RegulatoryOracle.ComplianceRegion[]",
          "name": "regions",
          "type": "uint8[]"
        }
      ],
      "name": "authorizeInstitution",
      "outputs": [],
      "stateMutability": "nonpayable",
      "type": "function"
    },
    {
      "inputs": [
        {
          "internalType": "address",
          "name": "",
          "type": "address"
        }
      ],
      "name": "authorizedInstitutions",
      "outputs": [
        {
          "internalType": "bool",
          "name": "",
          "type": "bool"
        }
      ],
      "stateMutability": "view",
      "type": "function"
    },
    {
      "inputs": [
        {
          "internalType": "address",
          "name": "from",
          "type": "address"
        },
        {
          "internalType": "address",
          "name": "to",
          "type": "address"
        },
        {
          "internalType": "uint256",
          "name": "amount",
          "type": "uint256"
        },
        {
          "internalType": "address",
          "name": "protocol",
          "type": "address"
        }
      ],
      "name": "checkTransactionCompliance",
      "outputs": [
        {
          "internalType": "bool",
          "name": "compliant",
          "type": "bool"
        },
        {
          "internalType": "string",
          "name": "reason",
          "type": "string"
        }
      ],
      "stateMutability": "view",
      "type": "function"
    },
    {
      "inputs": [
        {
          "internalType": "uint256",
          "name": "",
          "type": "uint256"
        }
      ],
      "name": "complianceReports",
      "outputs": [
        {
          "internalType": "uint256",
          "name": "reportId",
          "type": "uint256"
        },
        {
          "internalType": "address",
          "name": "institution",
          "type": "address"
        },
        {
          "internalType": "uint256",
          "name": "startTimestamp",
          "type": "uint256"
        },
        {
          "internalType": "uint256",
          "name": "endTimestamp",
          "type": "uint256"
        },
        {
          "internalType": "uint256",
          "name": "totalTransactions",
          "type": "uint256"
        },
        {
          "internalType": "uint256",
          "name": "flaggedTransactions",
          "type": "uint256"
        },
        {
          "internalType": "uint256",
          "name": "violationCount",
          "type": "uint256"
        },
        {
          "internalType": "bool",
          "name": "submitted",
          "type": "bool"
        }
      ],
      "stateMutability": "view",
      "type": "function"
    },
    {
      "inputs": [
        {
          "internalType": "uint256",
          "name": "",
          "type": "uint256"
        }
      ],
      "name": "complianceRules",
      "outputs": [
        {
          "internalType": "uint256",
          "name": "ruleId",
          "type": "uint256"
        },
        {
          "internalType": "string",
          "name": "ruleName",
          "type": "string"
        },
        {
          "internalType": "enum RegulatoryOracle.ComplianceRegion",
          "name": "region",
          "type": "uint8"
        },
        {
          "internalType": "enum RegulatoryOracle.RiskLevel",
          "name": "riskLevel",
          "type": "uint8"
        },
        {
          "internalType": "bool",
          "name": "isActive",
          "type": "bool"
        },
        {
          "internalType": "uint256",
          "name": "createdAt",
          "type": "uint256"
        },
        {
          "internalType": "uint256",
          "name": "lastUpdated",
          "type": "uint256"
        },
        {
          "internalType": "string",
          "name": "ruleDescription",
          "type": "string"
        }
      ],
      "stateMutability": "view",
      "type": "function"
    },
    {
      "inputs": [
        {
          "internalType": "string",
          "name": "ruleName",
          "type": "string"
        },
        {
          "internalType": "enum RegulatoryOracle.ComplianceRegion",
          "name": "region",
          "type": "uint8"
        },
        {
          "internalType": "enum RegulatoryOracle.RiskLevel",
          "name": "riskLevel",
          "type": "uint8"
        },
        {
          "internalType": "string",
          "name": "ruleDescription",
          "type": "string"
        }
      ],
      "name": "createComplianceRule",
      "outputs": [
        {
          "internalType": "uint256",
          "name": "",
          "type": "uint256"
        }
      ],
      "stateMutability": "nonpayable",
      "type": "function"
    },
    {
      "inputs": [
        {
          "internalType": "address",
          "name": "entity",
          "type": "address"
        },
        {
          "internalType": "string",
          "name": "reason",
          "type": "string"
        }
      ],
      "name": "emergencyFreeze",
      "outputs": [],
      "stateMutability": "nonpayable",
      "type": "function"
    },
    {
      "inputs": [
        {
          "internalType": "address",
          "name": "institution",
          "type": "address"
        },
        {
          "internalType": "uint256",
          "name": "startTimestamp",
          "type": "uint256"
        },
        {
          "internalType": "uint256",
          "name": "endTimestamp",
          "type": "uint256"
        }
      ],
      "name": "generateComplianceReport",
      "outputs": [
        {
          "internalType": "uint256",
          "name": "",
          "type": "uint256"
        }
      ],
      "stateMutability": "nonpayable",
      "type": "function"
    },
    {
      "inputs": [
        {
          "internalType": "address",
          "name": "account",
          "type": "address"
        }
      ],
      "name": "getAMLRiskScore",
      "outputs": [
        {
          "internalType": "uint256",
          "name": "",
          "type": "uint256"
        }
      ],
      "stateMutability": "view",
      "type": "function"
    },
    {
      "inputs": [
        {
          "internalType": "address",
          "name": "institution",
          "type": "address"
        }
      ],
      "name": "getComplianceScore",
      "outputs": [
        {
          "internalType": "uint256",
          "name": "score",
          "type": "uint256"
        }
      ],
      "stateMutability": "view",
      "type": "function"
    },
    {
      "inputs": [
        {
          "internalType": "address",
          "name": "",
          "type": "address"
        },
        {
          "internalType": "uint256",
          "name": "",
          "type": "uint256"
        }
      ],
      "name": "institutionRegions",
      "outputs": [
        {
          "internalType": "enum RegulatoryOracle.ComplianceRegion",
          "name": "",
          "type": "uint8"
        }
      ],
      "stateMutability": "view",
      "type": "function"
    },
    {
      "inputs": [
        {
          "internalType": "string",
          "name": "jurisdiction",
          "type": "string"
        }
      ],
      "name": "isJurisdictionRestricted",
      "outputs": [
        {
          "internalType": "bool",
          "name": "",
          "type": "bool"
        }
      ],
      "stateMutability": "view",
      "type": "function"
    },
    {
      "inputs": [
        {
          "internalType": "address",
          "name": "institution",
          "type": "address"
        },
        {
          "internalType": "address",
          "name": "protocol",
          "type": "address"
        }
      ],
      "name": "isProtocolWhitelisted",
      "outputs": [
        {
          "internalType": "bool",
          "name": "",
          "type": "bool"
        }
      ],
      "stateMutability": "view",
      "type": "function"
    },
    {
      "inputs": [
        {
          "internalType": "address",
          "name": "",
          "type": "address"
        }
      ],
      "name": "lastTransactionTime",
      "outputs": [
        {
          "internalType": "uint256",
          "name": "",
          "type": "uint256"
        }
      ],
      "stateMutability": "view",
      "type": "function"
    },
    {
      "inputs": [],
      "name": "owner",
      "outputs": [
        {
          "internalType": "address",
          "name": "",
          "type": "address"
        }
      ],
      "stateMutability": "view",
      "type": "function"
    },
    {
      "inputs": [
        {
          "internalType": "address",
          "name": "",
          "type": "address"
        },
        {
          "internalType": "address",
          "name": "",
          "type": "address"
        }
      ],
      "name": "protocolWhitelist",
      "outputs": [
        {
          "internalType": "bool",
          "name": "",
          "type": "bool"
        }
      ],
      "stateMutability": "view",
      "type": "function"
    },
    {
      "inputs": [],
      "name": "renounceOwnership",
      "outputs": [],
      "stateMutability": "nonpayable",
      "type": "function"
    },
    {
      "inputs": [
        {
          "internalType": "uint256",
          "name": "ruleId",
          "type": "uint256"
        },
        {
          "internalType": "address",
          "name": "violatingEntity",
          "type": "address"
        },
        {
          "internalType": "enum RegulatoryOracle.ViolationType",
          "name": "violationType",
          "type": "uint8"
        },
        {
          "internalType": "string",
          "name": "details",
          "type": "string"
        }
      ],
      "name": "reportViolation",
      "outputs": [
        {
          "internalType": "uint256",
          "name": "",
          "type": "uint256"
        }
      ],
      "stateMutability": "nonpayable",
      "type": "function"
    },
    {
      "inputs": [
        {
          "internalType": "string",
          "name": "jurisdiction",
          "type": "string"
        },
        {
          "internalType": "bool",
          "name": "restricted",
          "type": "bool"
        }
      ],
      "name": "restrictJurisdiction",
      "outputs": [],
      "stateMutability": "nonpayable",
      "type": "function"
    },
    {
      "inputs": [
        {
          "internalType": "string",
          "name": "",
          "type": "string"
        }
      ],
      "name": "restrictedJurisdictions",
      "outputs": [
        {
          "internalType": "bool",
          "name": "",
          "type": "bool"
        }
      ],
      "stateMutability": "view",
      "type": "function"
    },
    {
      "inputs": [
        {
          "internalType": "address",
          "name": "account",
          "type": "address"
        },
        {
          "internalType": "uint256",
          "name": "riskScore",
          "type": "uint256"
        }
      ],
      "name": "setAMLRiskScore",
      "outputs": [],
      "stateMutability": "nonpayable",
      "type": "function"
    },
    {
      "inputs": [
        {
          "internalType": "address",
          "name": "newOwner",
          "type": "address"
        }
      ],
      "name": "transferOwnership",
      "outputs": [],
      "stateMutability": "nonpayable",
      "type": "function"
    },
    {
      "inputs": [
        {
          "internalType": "uint256",
          "name": "",
          "type": "uint256"
        }
      ],
      "name": "violations",
      "outputs": [
        {
          "internalType": "uint256",
          "name": "violationId",
          "type": "uint256"
        },
        {
          "internalType": "uint256",
          "name": "ruleId",
          "type": "uint256"
        },
        {
          "internalType": "address",
          "name": "violatingEntity",
          "type": "address"
        },
        {
          "internalType": "enum RegulatoryOracle.ViolationType",
          "name": "violationType",
          "type": "uint8"
        },
        {
          "internalType": "enum RegulatoryOracle.RiskLevel",
          "name": "severity",
          "type": "uint8"
        },
        {
          "internalType": "uint256",
          "name": "timestamp",
          "type": "uint256"
        },
        {
          "internalType": "string",
          "name": "details",
          "type": "string"
        },
        {
          "internalType": "bool",
          "name": "resolved",
          "type": "bool"
        },
        {
          "internalType": "uint256",
          "name": "penaltyAmount",
          "type": "uint256"
        }
      ],
      "stateMutability": "view",
      "type": "function"
    },
    {
      "inputs": [
        {
          "internalType": "address",
          "name": "institution",
          "type": "address"
        },
        {
          "internalType": "address",
          "name": "protocol",
          "type": "address"
        },
        {
          "internalType": "bool",
          "name": "whitelisted",
          "type": "bool"
        }
      ],
      "name": "whitelistProtocolForInstitution",
      "outputs": [],
      "stateMutability": "nonpayable",
      "type": "function"
    }
  ],
  "bytecode": "0x60806040523480156200001157600080fd5b50604051620023c1380380620023c18339810160408190526200003491620000da565b806001600160a01b0381166200006457604051631e4fbdf760e01b81526000600482015260240160405180910390fd5b6200006f816200008a565b5050600180556000600281905560038190556004556200010c565b600080546001600160a01b038381166001600160a01b0319831681178455604051919092169283917f8be0079c531659141344cd1fd0a4f28419497f9722a3daafe3b4186f6b6457e09190a35050565b600060208284031215620000ed57600080fd5b81516001600160a01b03811681146200010557600080fd5b9392505050565b6122a5806200011c6000396000f3fe608060405234801561001057600080fd5b50600436106101735760003560e01c8063715018a6116100de578063b995bb9511610097578063e0a07fdf11610071578063e0a07fdf14610484578063e724f5d114610497578063e75b2073146104b7578063f2fde38b146104d757600080fd5b8063b995bb9514610436578063c35e52931461045e578063d281dbe11461047157600080fd5b8063715018a6146103915780638a1b7bf0146103995780638da5cb5b146103ac5780639bb6caa8146103c7578063a36a3d05146103f5578063ab01a76e1461041557600080fd5b806349f3ed5c1161013057806349f3ed5c146102725780634a34a02114610285578063551bece6146102985780635f266b48146102c657806367b09a07146102d957806367d49ede1461037e57600080fd5b8063125565261461017857806313a1853e1461018d57806316b784fe146101c95780631c15b4fa146101fc578063469f6e1a146102385780634797f9b61461024b575b600080fd5b61018b610186366004611a6f565b6104ea565b005b6101b661019b366004611abd565b6001600160a01b03166000908152600b602052604090205490565b6040519081526020015b60405180910390f35b6101ec6101d7366004611abd565b60086020526000908152604090205460ff1681565b60405190151581526020016101c0565b6101ec61020a366004611ad8565b6001600160a01b039182166000908152600a6020908152604080832093909416825291909152205460ff1690565b61018b610246366004611b18565b610790565b61025e610259366004611bdd565b6108c0565b6040516101c0989796959493929190611c80565b6101ec610280366004611ced565b610a1d565b61018b610293366004611d2a565b610a48565b6101ec6102a6366004611ced565b8051602081830181018051600c8252928201919093012091525460ff1681565b6101b66102d4366004611d54565b610b36565b6103396102e7366004611bdd565b60076020819052600091825260409091208054600182015460028301546003840154600485015460058601546006870154969097015494966001600160a01b0390941695929491939092909160ff1688565b604080519889526001600160a01b039097166020890152958701949094526060860192909252608085015260a084015260c0830152151560e0820152610100016101c0565b6101b661038c366004611abd565b610d17565b61018b610d5d565b6101b66103a7366004611d87565b610d71565b6000546040516001600160a01b0390911681526020016101c0565b6101ec6103d5366004611ad8565b600a60209081526000928352604080842090915290825290205460ff1681565b610408610403366004611d2a565b610fa1565b6040516101c09190611e18565b610428610423366004611e2b565b610fe4565b6040516101c0929190611e78565b610449610444366004611bdd565b6111a8565b6040516101c099989796959493929190611e93565b61018b61046c366004611f0f565b611290565b61018b61047f366004611f54565b61134d565b6101b6610492366004611f97565b61148f565b6101b66104a5366004611abd565b600b6020526000908152604090205481565b6101b66104c5366004611abd565b600d6020526000908152604090205481565b61018b6104e5366004611abd565b61179d565b6104f26117db565b6001600160a01b03821661053e5760405162461bcd60e51b815260206004820152600e60248201526d496e76616c696420656e7469747960901b60448201526064015b60405180910390fd5b60008151116105885760405162461bcd60e51b8152602060048201526016602482015275526561736f6e2063616e6e6f7420626520656d70747960501b6044820152606401610535565b6001600160a01b0382166000908152600860205260408120805460ff1916905560038054916105b683611ff5565b9190505550604051806101200160405280600354815260200160008152602001836001600160a01b031681526020016004808111156105f7576105f7611c46565b81526020016003815260200142815260200160405180604001604052806012815260200171022b6b2b933b2b731bc90333932b2bd329d160751b8152508360405160200161064692919061201c565b60408051601f1981840301815291815290825260006020838101829052928201819052600354815260068352819020835181559183015160018301558201516002820180546001600160a01b039092166001600160a01b03198316811782556060850151926001600160a81b03191617600160a01b8360048111156106cd576106cd611c46565b0217905550608082015160028201805460ff60a81b1916600160a81b8360038111156106fb576106fb611c46565b021790555060a0820151600382015560c0820151600482019061071e90826120ce565b5060e082015160058201805460ff1916911515919091179055610100909101516006909101556003546040516001600160a01b03841691907f48b6fb4ccc1b8a5d69d476e83da46a256cd3e4fbd2b7de53a144aabbed5c69f99061078490600490611e18565b60405180910390a35050565b6107986117db565b6001600160a01b0382166107ee5760405162461bcd60e51b815260206004820152601b60248201527f496e76616c696420696e737469747574696f6e206164647265737300000000006044820152606401610535565b600081511161083f5760405162461bcd60e51b815260206004820181905260248201527f4d7573742073706563696679206174206c65617374206f6e6520726567696f6e6044820152606401610535565b6001600160a01b0382166000908152600860209081526040808320805460ff1916600117905560098252909120825161087a928401906118d3565b50816001600160a01b03167f9a49f04f42b707d9b8c731c4fdab2a4aee782f4cb436115a23669a56bfd67147826040516108b4919061218e565b60405180910390a25050565b600560205260009081526040902080546001820180549192916108e29061204b565b80601f016020809104026020016040519081016040528092919081815260200182805461090e9061204b565b801561095b5780601f106109305761010080835404028352916020019161095b565b820191906000526020600020905b81548152906001019060200180831161093e57829003601f168201915b50505050600283015460038401546004850154600586018054959660ff8086169761010087048216975062010000909604169490919061099a9061204b565b80601f01602080910402602001604051908101604052809291908181526020018280546109c69061204b565b8015610a135780601f106109e857610100808354040283529160200191610a13565b820191906000526020600020905b8154815290600101906020018083116109f657829003601f168201915b5050505050905088565b6000600c82604051610a2f91906121db565b9081526040519081900360200190205460ff1692915050565b610a506117db565b6001600160a01b038216610a985760405162461bcd60e51b815260206004820152600f60248201526e125b9d985b1a59081858d8dbdd5b9d608a1b6044820152606401610535565b6064811115610ae95760405162461bcd60e51b815260206004820152601c60248201527f5269736b2073636f72652063616e6e6f742065786365656420313030000000006044820152606401610535565b6001600160a01b0382166000818152600b602052604090819020839055517f63e1914166f99aee81c87d08d1b34b35b349340007436943dddc7ea48c61c37b906108b49084815260200190565b6001600160a01b03831660009081526008602052604081205460ff16610b6e5760405162461bcd60e51b8152600401610535906121f7565b818310610bb25760405162461bcd60e51b8152602060048201526012602482015271496e76616c69642074696d652072616e676560701b6044820152606401610535565b42821115610c025760405162461bcd60e51b815260206004820152601c60248201527f456e642074696d652063616e6e6f7420626520696e20667574757265000000006044820152606401610535565b60048054906000610c1283611ff5565b909155505060045460408051610100810182528281526001600160a01b03871660208201529081018590526060810184905260808101606481526020016002815260200160018152600060209182018190528381526007808352604080832085518155938501516001850180546001600160a01b0319166001600160a01b03928316179055858201516002860155606086015160038601556080860151600486015560a0860151600586015560c0860151600686015560e09095015193909101805460ff19169315159390931790925590519187169183917f78a81337f7c1354d581de6ea7cd77ceef6b8ac2b101fcbd5298400f15210119091a390505b9392505050565b6001600160a01b03811660009081526008602052604081205460ff16610d4f5760405162461bcd60e51b8152600401610535906121f7565b606492915050565b50919050565b610d656117db565b610d6f6000611808565b565b6000610d7b6117db565b6000855111610dcc5760405162461bcd60e51b815260206004820152601960248201527f52756c65206e616d652063616e6e6f7420626520656d707479000000000000006044820152606401610535565b6000825111610e1d5760405162461bcd60e51b815260206004820181905260248201527f52756c65206465736372697074696f6e2063616e6e6f7420626520656d7074796044820152606401610535565b60028054906000610e2d83611ff5565b9091555050600254604080516101008101825282815260208101889052908101866004811115610e5f57610e5f611c46565b8152602001856003811115610e7657610e76611c46565b8152600160208083018290524260408085018290526060850191909152608090930187905260008581526005825292909220835181559183015190820190610ebe90826120ce565b50604082015160028201805460ff19166001836004811115610ee257610ee2611c46565b0217905550606082015160028201805461ff001916610100836003811115610f0c57610f0c611c46565b02179055506080820151600282018054911515620100000262ff00001990921691909117905560a0820151600382015560c0820151600482015560e08201516005820190610f5a90826120ce565b50905050807f1f2019fd9e44153d0ea694d09f090d1999e078c13d139b4e107be44769b5e4f98686604051610f9092919061222e565b60405180910390a295945050505050565b60096020528160005260406000208181548110610fbd57600080fd5b9060005260206000209060209182820401919006915091509054906101000a900460ff1681565b600060606001600160a01b038616158061100557506001600160a01b038516155b1561103c575050604080518082019091526011815270496e76616c69642061646472657373657360781b602082015260009061119f565b836000036110855760006040518060400160405280602081526020017f416d6f756e74206d7573742062652067726561746572207468616e207a65726f8152509150915061119f565b6001600160a01b03861660009081526008602052604090205460ff166110e357505060408051808201909152601a81527f496e737469747574696f6e206e6f7420617574686f72697a6564000000000000602082015260009061119f565b64e8d4a5100084111561112e57505060408051808201909152601981527f5472616e73616374696f6e2065786365656473206c696d697400000000000000602082015260009061119f565b6001600160a01b03831661116d57505060408051808201909152601081526f125b9d985b1a59081c1c9bdd1bd8dbdb60821b602082015260009061119f565b5050604080518082019091526015815274151c985b9cd858dd1a5bdb8818dbdb5c1b1a585b9d605a1b60208201526001905b94509492505050565b60066020526000908152604090208054600182015460028301546003840154600485018054949593946001600160a01b0384169460ff600160a01b8604811695600160a81b900416939290916111fd9061204b565b80601f01602080910402602001604051908101604052809291908181526020018280546112299061204b565b80156112765780601f1061124b57610100808354040283529160200191611276565b820191906000526020600020905b81548152906001019060200180831161125957829003601f168201915b505050506005830154600690930154919260ff1691905089565b6112986117db565b60008251116112e05760405162461bcd60e51b815260206004820152601460248201527324b73b30b634b210353ab934b9b234b1ba34b7b760611b6044820152606401610535565b80600c836040516112f191906121db565b908152604051908190036020018120805492151560ff19909316929092179091557f50fdcd54f3cebc857625e559a68c8b36bde495d5774b806a9a2292d9e21a7a6a90611341908490849061224b565b60405180910390a15050565b6113556117db565b6001600160a01b0383166113a15760405162461bcd60e51b815260206004820152601360248201527224b73b30b634b21034b739ba34ba3aba34b7b760691b6044820152606401610535565b6001600160a01b0382166113ea5760405162461bcd60e51b815260206004820152601060248201526f125b9d985b1a59081c1c9bdd1bd8dbdb60821b6044820152606401610535565b6001600160a01b03831660009081526008602052604090205460ff166114225760405162461bcd60e51b8152600401610535906121f7565b6001600160a01b038381166000818152600a6020908152604080832094871680845294825291829020805460ff191686151590811790915591519182527fdb54c48b95a61b803ad779b2bda85ee6b7b5d426a44abc9ea6612b85075aa0fa910160405180910390a3505050565b60008481526005602052604081206002015462010000900460ff166114f65760405162461bcd60e51b815260206004820152601f60248201527f52756c6520646f6573206e6f74206578697374206f7220696e616374697665006044820152606401610535565b6001600160a01b03841661154c5760405162461bcd60e51b815260206004820152601860248201527f496e76616c69642076696f6c6174696e6720656e7469747900000000000000006044820152606401610535565b600082511161159d5760405162461bcd60e51b815260206004820152601760248201527f44657461696c732063616e6e6f7420626520656d7074790000000000000000006044820152606401610535565b600380549060006115ad83611ff5565b919050555060006003549050604051806101200160405280828152602001878152602001866001600160a01b031681526020018560048111156115f2576115f2611c46565b8152600088815260056020908152604090912060020154910190610100900460ff16600381111561162557611625611c46565b815260200142815260200184815260200160001515815260200161166b600560008a815260200190815260200160002060020160019054906101000a900460ff16611858565b905260008281526006602090815260409182902083518155908301516001820155908201516002820180546001600160a01b039092166001600160a01b03198316811782556060850151926001600160a81b03191617600160a01b8360048111156116d8576116d8611c46565b0217905550608082015160028201805460ff60a81b1916600160a81b83600381111561170657611706611c46565b021790555060a0820151600382015560c0820151600482019061172990826120ce565b5060e082015160058201805460ff1916911515919091179055610100909101516006909101556040516001600160a01b0386169082907f48b6fb4ccc1b8a5d69d476e83da46a256cd3e4fbd2b7de53a144aabbed5c69f99061178c908890611e18565b60405180910390a395945050505050565b6117a56117db565b6001600160a01b0381166117cf57604051631e4fbdf760e01b815260006004820152602401610535565b6117d881611808565b50565b6000546001600160a01b03163314610d6f5760405163118cdaa760e01b8152336004820152602401610535565b600080546001600160a01b038381166001600160a01b0319831681178455604051919092169283917f8be0079c531659141344cd1fd0a4f28419497f9722a3daafe3b4186f6b6457e09190a35050565b60008082600381111561186d5761186d611c46565b0361187d5750633b9aca00919050565b600182600381111561189157611891611c46565b036118a257506402540be400919050565b60028260038111156118b6576118b6611c46565b036118c7575064174876e800919050565b5064e8d4a51000919050565b82805482825590600052602060002090601f016020900481019282156119775791602002820160005b8382111561194857835183826101000a81548160ff0219169083600481111561192757611927611c46565b021790555092602001926001016020816000010492830192600103026118fc565b80156119755782816101000a81549060ff0219169055600101602081600001049283019260010302611948565b505b50611983929150611987565b5090565b5b808211156119835760008155600101611988565b80356001600160a01b03811681146119b357600080fd5b919050565b634e487b7160e01b600052604160045260246000fd5b604051601f8201601f1916810167ffffffffffffffff811182821017156119f7576119f76119b8565b604052919050565b600082601f830112611a1057600080fd5b813567ffffffffffffffff811115611a2a57611a2a6119b8565b611a3d601f8201601f19166020016119ce565b818152846020838601011115611a5257600080fd5b816020850160208301376000918101602001919091529392505050565b60008060408385031215611a8257600080fd5b611a8b8361199c565b9150602083013567ffffffffffffffff811115611aa757600080fd5b611ab3858286016119ff565b9150509250929050565b600060208284031215611acf57600080fd5b610d108261199c565b60008060408385031215611aeb57600080fd5b611af48361199c565b9150611b026020840161199c565b90509250929050565b600581106117d857600080fd5b60008060408385031215611b2b57600080fd5b611b348361199c565b915060208084013567ffffffffffffffff80821115611b5257600080fd5b818601915086601f830112611b6657600080fd5b813581811115611b7857611b786119b8565b8060051b9150611b898483016119ce565b8181529183018401918481019089841115611ba357600080fd5b938501935b83851015611bcd5784359250611bbd83611b0b565b8282529385019390850190611ba8565b8096505050505050509250929050565b600060208284031215611bef57600080fd5b5035919050565b60005b83811015611c11578181015183820152602001611bf9565b50506000910152565b60008151808452611c32816020860160208601611bf6565b601f01601f19169290920160200192915050565b634e487b7160e01b600052602160045260246000fd5b600581106117d8576117d8611c46565b60048110611c7c57611c7c611c46565b9052565b60006101008a8352806020840152611c9a8184018b611c1a565b9050611ca589611c5c565b886040840152611cb86060840189611c6c565b86151560808401528560a08401528460c084015282810360e0840152611cde8185611c1a565b9b9a5050505050505050505050565b600060208284031215611cff57600080fd5b813567ffffffffffffffff811115611d1657600080fd5b611d22848285016119ff565b949350505050565b60008060408385031215611d3d57600080fd5b611d468361199c565b946020939093013593505050565b600080600060608486031215611d6957600080fd5b611d728461199c565b95602085013595506040909401359392505050565b60008060008060808587031215611d9d57600080fd5b843567ffffffffffffffff80821115611db557600080fd5b611dc1888389016119ff565b955060208701359150611dd382611b0b565b90935060408601359060048210611de957600080fd5b90925060608601359080821115611dff57600080fd5b50611e0c878288016119ff565b91505092959194509250565b60208101611e2583611c5c565b91905290565b60008060008060808587031215611e4157600080fd5b611e4a8561199c565b9350611e586020860161199c565b925060408501359150611e6d6060860161199c565b905092959194509250565b8215158152604060208201526000611d226040830184611c1a565b898152602081018990526001600160a01b03881660408201526000610120611eba89611c5c565b886060840152611ecd6080840189611c6c565b8660a08401528060c0840152611ee581840187611c1a565b94151560e084015250506101000152979650505050505050565b803580151581146119b357600080fd5b60008060408385031215611f2257600080fd5b823567ffffffffffffffff811115611f3957600080fd5b611f45858286016119ff565b925050611b0260208401611eff565b600080600060608486031215611f6957600080fd5b611f728461199c565b9250611f806020850161199c565b9150611f8e60408501611eff565b90509250925092565b60008060008060808587031215611fad57600080fd5b84359350611fbd6020860161199c565b92506040850135611fcd81611b0b565b9150606085013567ffffffffffffffff811115611fe957600080fd5b611e0c878288016119ff565b60006001820161201557634e487b7160e01b600052601160045260246000fd5b5060010190565b6000835161202e818460208801611bf6565b835190830190612042818360208801611bf6565b01949350505050565b600181811c9082168061205f57607f821691505b602082108103610d5757634e487b7160e01b600052602260045260246000fd5b601f8211156120c957600081815260208120601f850160051c810160208610156120a65750805b601f850160051c820191505b818110156120c5578281556001016120b2565b5050505b505050565b815167ffffffffffffffff8111156120e8576120e86119b8565b6120fc816120f6845461204b565b8461207f565b602080601f83116001811461213157600084156121195750858301515b600019600386901b1c1916600185901b1785556120c5565b600085815260208120601f198616915b8281101561216057888601518255948401946001909101908401612141565b508582101561217e5787850151600019600388901b60f8161c191681555b5050505050600190811b01905550565b6020808252825182820181905260009190848201906040850190845b818110156121cf5783516121bd81611c5c565b835292840192918401916001016121aa565b50909695505050505050565b600082516121ed818460208701611bf6565b9190910192915050565b6020808252601a908201527f496e737469747574696f6e206e6f7420617574686f72697a6564000000000000604082015260600190565b6040810161223b84611c5c565b838252610d106020830184611c6c565b60408152600061225e6040830185611c1a565b90508215156020830152939250505056fea26469706673582212200e00b34261c4079bd8c34513cbe7a1f2e645b3aafcabf9a486087d0a7cdf275c64736f6c63430008140033",
  "linkReferences": {},
  "deployedLinkReferences": {}
}