{"contracts/TransactionMonitor.sol":{"TransactionMonitor":{"abi":[{"inputs":[{"internalType":"address","name":"initialOwner","type":"address"}],"stateMutability":"nonpayable","type":"constructor"},{"inputs":[{"internalType":"address","name":"owner","type":"address"}],"name":"OwnableInvalidOwner","type":"error"},{"inputs":[{"internalType":"address","name":"account","type":"address"}],"name":"OwnableUnauthorizedAccount","type":"error"},{"anonymous":false,"inputs":[{"indexed":true,"internalType":"address","name":"account","type":"address"},{"indexed":false,"internalType":"string","name":"reason","type":"string"}],"name":"AddressBlacklisted","type":"event"},{"anonymous":false,"inputs":[{"indexed":true,"internalType":"address","name":"previousOwner","type":"address"},{"indexed":true,"internalType":"address","name":"newOwner","type":"address"}],"name":"OwnershipTransferred","type":"event"},{"anonymous":false,"inputs":[{"indexed":true,"internalType":"address","name":"protocol","type":"address"},{"indexed":false,"internalType":"string","name":"name","type":"string"}],"name":"ProtocolWhitelisted","type":"event"},{"anonymous":false,"inputs":[{"indexed":true,"internalType":"uint256","name":"alertId","type":"uint256"},{"indexed":true,"internalType":"address","name":"fromAddress","type":"address"},{"indexed":false,"internalType":"enum TransactionMonitor.AlertType","name":"alertType","type":"uint8"}],"name":"TransactionFlagged","type":"event"},{"inputs":[{"internalType":"uint256","name":"","type":"uint256"}],"name":"alerts","outputs":[{"internalType":"uint256","name":"alertId","type":"uint256"},{"internalType":"address","name":"fromAddress","type":"address"},{"internalType":"address","name":"toAddress","type":"address"},{"internalType":"uint256","name":"amount","type":"uint256"},{"internalType":"address","name":"protocol","type":"address"},{"internalType":"enum TransactionMonitor.AlertType","name":"alertType","type":"uint8"},{"internalType":"enum TransactionMonitor.AlertSeverity","name":"severity","type":"uint8"},{"internalType":"uint256","name":"timestamp","type":"uint256"},{"internalType":"bool","name":"investigated","type":"bool"},{"internalType":"string","name":"notes","type":"string"}],"stateMutability":"view","type":"function"},{"inputs":[{"internalType":"address","name":"from","type":"address"},{"internalType":"address","name":"to","type":"address"},{"internalType":"uint256","name":"amount","type":"uint256"},{"internalType":"address","name":"protocol","type":"address"}],"name":"analyzeTransaction","outputs":[{"internalType":"uint256","name":"riskScore","type":"uint256"},{"internalType":"bool","name":"requiresKYC","type":"bool"},{"internalType":"bool","name":"isCompliant","type":"bool"},{"internalType":"string","name":"analysis","type":"string"}],"stateMutability":"view","type":"function"},{"inputs":[{"internalType":"address","name":"account","type":"address"},{"internalType":"string","name":"reason","type":"string"}],"name":"blacklistAddress","outputs":[],"stateMutability":"nonpayable","type":"function"},{"inputs":[{"internalType":"address","name":"","type":"address"}],"name":"blacklistedAddresses","outputs":[{"internalType":"bool","name":"","type":"bool"}],"stateMutability":"view","type":"function"},{"inputs":[{"internalType":"address","name":"fromAddress","type":"address"},{"internalType":"address","name":"toAddress","type":"address"},{"internalType":"uint256","name":"amount","type":"uint256"},{"internalType":"address","name":"protocol","type":"address"},{"internalType":"enum TransactionMonitor.AlertType","name":"alertType","type":"uint8"},{"internalType":"enum TransactionMonitor.AlertSeverity","name":"severity","type":"uint8"}],"name":"createAlert","outputs":[{"internalType":"uint256","name":"","type":"uint256"}],"stateMutability":"nonpayable","type":"function"},{"inputs":[{"internalType":"address","name":"","type":"address"}],"name":"dailyTransactionVolume","outputs":[{"internalType":"uint256","name":"","type":"uint256"}],"stateMutability":"view","type":"function"},{"inputs":[{"internalType":"address","name":"account","type":"address"}],"name":"getAlertsForAddress","outputs":[{"internalType":"uint256[]","name":"alertIds","type":"uint256[]"}],"stateMutability":"view","type":"function"},{"inputs":[{"internalType":"address","name":"","type":"address"}],"name":"lastResetTime","outputs":[{"internalType":"uint256","name":"","type":"uint256"}],"stateMutability":"view","type":"function"},{"inputs":[{"internalType":"uint256","name":"alertId","type":"uint256"},{"internalType":"string","name":"notes","type":"string"}],"name":"markAlertInvestigated","outputs":[],"stateMutability":"nonpayable","type":"function"},{"inputs":[{"internalType":"address","name":"from","type":"address"},{"internalType":"address","name":"to","type":"address"},{"internalType":"uint256","name":"amount","type":"uint256"},{"internalType":"address","name":"protocol","type":"address"},{"internalType":"bytes","name":"","type":"bytes"}],"name":"monitorTransaction","outputs":[{"internalType":"bool","name":"shouldFlag","type":"bool"},{"internalType":"enum TransactionMonitor.AlertType","name":"alertType","type":"uint8"}],"stateMutability":"nonpayable","type":"function"},{"inputs":[],"name":"owner","outputs":[{"internalType":"address","name":"","type":"address"}],"stateMutability":"view","type":"function"},{"inputs":[{"internalType":"address","name":"","type":"address"},{"internalType":"address","name":"","type":"address"}],"name":"pairTransactionCount","outputs":[{"internalType":"uint256","name":"","type":"uint256"}],"stateMutability":"view","type":"function"},{"inputs":[],"name":"renounceOwnership","outputs":[],"stateMutability":"nonpayable","type":"function"},{"inputs":[{"internalType":"address","name":"","type":"address"}],"name":"riskScores","outputs":[{"internalType":"uint256","name":"","type":"uint256"}],"stateMutability":"view","type":"function"},{"inputs":[{"internalType":"address","name":"","type":"address"}],"name":"totalTransactionCount","outputs":[{"internalType":"uint256","name":"","type":"uint256"}],"stateMutability":"view","type":"function"},{"inputs":[{"internalType":"address","name":"newOwner","type":"address"}],"name":"transferOwnership","outputs":[],"stateMutability":"nonpayable","type":"function"},{"inputs":[{"internalType":"address","name":"account","type":"address"},{"internalType":"uint256","name":"newScore","type":"uint256"}],"name":"updateRiskScore","outputs":[],"stateMutability":"nonpayable","type":"function"},{"inputs":[{"internalType":"address","name":"protocol","type":"address"},{"internalType":"string","name":"name","type":"string"}],"name":"whitelistProtocol","outputs":[],"stateMutability":"nonpayable","type":"function"},{"inputs":[{"internalType":"address","name":"","type":"address"}],"name":"whitelistedProtocols","outputs":[{"internalType":"bool","name":"","type":"bool"}],"stateMutability":"view","type":"function"}],"evm":{"bytecode":{"linkReferences":{},"object":"608060405234801561001057600080fd5b50604051620019fc380380620019fc833981016040819052610031916100c5565b806001600160a01b03811661006057604051631e4fbdf760e01b81526000600482015260240160405180910390fd5b61006981610075565b505060006001556100f5565b600080546001600160a01b038381166001600160a01b0319831681178455604051919092169283917f8be0079c531659141344cd1fd0a4f28419497f9722a3daafe3b4186f6b6457e09190a35050565b6000602082840312156100d757600080fd5b81516001600160a01b03811681146100ee57600080fd5b9392505050565b6118f780620001056000396000f3fe608060405234801561001057600080fd5b50600436106101215760003560e01c806384361c07116100ad578063d5749d4211610071578063d5749d42146102d8578063dda5f1ed146102fb578063f2fde38b1461031b578063f353741e1461032e578063f560155e1461034f57600080fd5b806384361c07146102445780638da5cb5b14610277578063959e90ff146102925780639cf110e2146102b25780639ff1192d146102c557600080fd5b80635e5b8752116100f45780635e5b8752146101c45780635f0d14ae146101e4578063715018a61461020757806371f8fa04146102115780637780f6c81461022457600080fd5b8063171d073a1461012657806320b0ce6a146101585780633e92ef2614610178578063476ee471146101b1575b600080fd5b6101396101343660046111ea565b610362565b60405161014f9a99989796959493929190611273565b60405180910390f35b61016b610166366004611313565b610456565b60405161014f9190611335565b6101a3610186366004611379565b600960209081526000928352604080842090915290825290205481565b60405190815260200161014f565b6101a36101bf3660046113ac565b6105dc565b6101a36101d2366004611313565b60066020526000908152604090205481565b6101f76101f2366004611427565b6105ff565b60405161014f9493929190611474565b61020f6107bd565b005b61020f61021f36600461154a565b6107d1565b6101a3610232366004611313565b60076020526000908152604090205481565b610267610252366004611313565b60046020526000908152604090205460ff1681565b604051901515815260200161014f565b6000546040516001600160a01b03909116815260200161014f565b6101a36102a0366004611313565b60086020526000908152604090205481565b61020f6102c036600461154a565b6108dd565b61020f6102d3366004611598565b6109c9565b6102676102e6366004611313565b60036020526000908152604090205460ff1681565b6101a3610309366004611313565b60056020526000908152604090205481565b61020f610329366004611313565b610aa4565b61034161033c3660046115c2565b610ae2565b60405161014f92919061166f565b61020f61035d366004611685565b610d98565b60026020819052600091825260409091208054600182015492820154600383015460048401546005850154600686015460078701805496986001600160a01b03908116989681169795969085169560ff600160a01b8704811696600160a81b9004811695941692906103d3906116b6565b80601f01602080910402602001604051908101604052809291908181526020018280546103ff906116b6565b801561044c5780601f106104215761010080835404028352916020019161044c565b820191906000526020600020905b81548152906001019060200180831161042f57829003601f168201915b505050505090508a565b6060600060015467ffffffffffffffff811115610475576104756114a7565b60405190808252806020026020018201604052801561049e578160200160208202803683370190505b509050600060015b600154811161053a576000818152600260205260409020600101546001600160a01b03868116911614806104f75750600081815260026020819052604090912001546001600160a01b038681169116145b15610528578083838151811061050f5761050f6116f0565b6020908102919091010152816105248161171c565b9250505b806105328161171c565b9150506104a6565b508067ffffffffffffffff811115610554576105546114a7565b60405190808252806020026020018201604052801561057d578160200160208202803683370190505b50925060005b818110156105d45782818151811061059d5761059d6116f0565b60200260200101518482815181106105b7576105b76116f0565b6020908102919091010152806105cc8161171c565b915050610583565b505050919050565b60006105e6610e80565b6105f4878787878787610ead565b979650505050505050565b6001600160a01b03808516600090815260066020908152604080832054878516845281842054948616845260049092528220549192839283926060929091849060ff1661064d576032610650565b600a5b60ff169050600064174876e8008a1161066a57600a61066d565b601e5b60ff1690506000600482846106828789611735565b61068c9190611735565b6106969190611735565b6106a0919061174e565b6001600160a01b038e166000908152600360205260408120549192509060ff161580156106e657506001600160a01b038d1660009081526003602052604090205460ff16155b80156106f25750604682105b9050600060328311806107095750640ba43b74008d115b90506060601e84101561074757506040805180820190915260148152732637bb903934b9b5903a3930b739b0b1ba34b7b760611b60208201526107a6565b604684101561078a575060408051808201909152601d81527f4d656469756d207269736b202d206d6f6e69746f7220636c6f73656c7900000060208201526107a6565b6040518060600160405280602281526020016118a06022913990505b929f909e50909c50909a5098505050505050505050565b6107c5610e80565b6107cf600061119a565b565b6107d9610e80565b6001600160a01b0382166108265760405162461bcd60e51b815260206004820152600f60248201526e125b9d985b1a59081858d8dbdd5b9d608a1b60448201526064015b60405180910390fd5b60008151116108705760405162461bcd60e51b8152602060048201526016602482015275526561736f6e2063616e6e6f7420626520656d70747960501b604482015260640161081d565b6001600160a01b0382166000818152600360209081526040808320805460ff1916600117905560069091529081902060649055517fddbfcbca8a6ec25cc3e99e3a7ddc04420eaa6749c91bffcd405e0c3ecc42d9f4906108d1908490611770565b60405180910390a25050565b6108e5610e80565b6001600160a01b03821661092e5760405162461bcd60e51b815260206004820152601060248201526f125b9d985b1a59081c1c9bdd1bd8dbdb60821b604482015260640161081d565b60008151116109765760405162461bcd60e51b81526020600482015260146024820152734e616d652063616e6e6f7420626520656d70747960601b604482015260640161081d565b6001600160a01b03821660008181526004602052604090819020805460ff19166001179055517f73bdf89e59edfb29506faba5617b5a05784f35f90f1652bdc33be18659eebfaf906108d1908490611770565b6109d1610e80565b6001600160a01b038216610a195760405162461bcd60e51b815260206004820152600f60248201526e125b9d985b1a59081858d8dbdd5b9d608a1b604482015260640161081d565b6064811115610a6a5760405162461bcd60e51b815260206004820152601c60248201527f5269736b2073636f72652063616e6e6f74206578636565642031303000000000604482015260640161081d565b6001600160a01b038216600090815260066020526040902081905560508110610aa057610a9e826000806000600180610ead565b505b5050565b610aac610e80565b6001600160a01b038116610ad657604051631e4fbdf760e01b81526000600482015260240161081d565b610adf8161119a565b50565b6000806001600160a01b03881615801590610b0557506001600160a01b03871615155b610b455760405162461bcd60e51b8152602060048201526011602482015270496e76616c69642061646472657373657360781b604482015260640161081d565b60008611610b955760405162461bcd60e51b815260206004820181905260248201527f416d6f756e74206d7573742062652067726561746572207468616e207a65726f604482015260640161081d565b64174876e800861115610bc057610bb28888888860006001610ead565b506001600091509150610d8d565b6001600160a01b03881660009081526003602052604090205460ff1680610bff57506001600160a01b03871660009081526003602052604090205460ff165b15610c2157610c1388888888600280610ead565b506001600291509150610d8d565b6001600160a01b03851660009081526004602052604090205460ff16610c5d57610c5088888888600180610ead565b5060018091509150610d8d565b6001600160a01b038816600090815260056020526040812054610c81908890611735565b905064e8d4a51000811115610cae57610ca08989898960016002610ead565b506001809250925050610d8d565b6001600160a01b03808a166000908152600960209081526040808320938c168352929052908120805491610ce18361171c565b90915550506001600160a01b03808a166000908152600960209081526040808320938c1683529290522054600a1015610d2557610d2389898989600180610ead565b505b6001600160a01b038916600090815260056020908152604080832084905560089091528120805491610d568361171c565b90915550506001600160a01b0388166000908152600860205260408120805491610d7f8361171c565b919050555060008092509250505b965096945050505050565b610da0610e80565b6000828152600260205260408120549003610df45760405162461bcd60e51b8152602060048201526014602482015273105b195c9d08191bd95cc81b9bdd08195e1a5cdd60621b604482015260640161081d565b60008281526002602052604090206006015460ff1615610e565760405162461bcd60e51b815260206004820152601a60248201527f416c65727420616c726561647920696e76657374696761746564000000000000604482015260640161081d565b600082815260026020526040902060068101805460ff19166001179055600701610a9e82826117d1565b6000546001600160a01b031633146107cf5760405163118cdaa760e01b815233600482015260240161081d565b60006001600160a01b038716610efc5760405162461bcd60e51b8152602060048201526014602482015273496e76616c69642066726f6d206164647265737360601b604482015260640161081d565b6001600160a01b038616610f475760405162461bcd60e51b8152602060048201526012602482015271496e76616c696420746f206164647265737360701b604482015260640161081d565b60008511610f975760405162461bcd60e51b815260206004820181905260248201527f416d6f756e74206d7573742062652067726561746572207468616e207a65726f604482015260640161081d565b60018054906000610fa78361171c565b919050555060006001549050604051806101400160405280828152602001896001600160a01b03168152602001886001600160a01b03168152602001878152602001866001600160a01b0316815260200185600481111561100a5761100a611203565b815260200184600381111561102157611021611203565b815242602080830191909152600060408084018290528051808401825282815260609485015285825260028084529181902085518155928501516001840180546001600160a01b03199081166001600160a01b039384161790915591860151928401805483169382169390931790925592840151600383015560808401516004808401805495861692909316918217835560a086015193946001600160a81b03191690911790600160a01b9084908111156110de576110de611203565b021790555060c082015160048201805460ff60a81b1916600160a81b83600381111561110c5761110c611203565b021790555060e0820151600582015561010082015160068201805460ff1916911515919091179055610120820151600782019061114990826117d1565b50905050876001600160a01b0316817f9d5843466e04e379601c7ea25c8794d2e6df6346b5469097be76f0c709b09602866040516111879190611891565b60405180910390a3979650505050505050565b600080546001600160a01b038381166001600160a01b0319831681178455604051919092169283917f8be0079c531659141344cd1fd0a4f28419497f9722a3daafe3b4186f6b6457e09190a35050565b6000602082840312156111fc57600080fd5b5035919050565b634e487b7160e01b600052602160045260246000fd5b6005811061122957611229611203565b9052565b6000815180845260005b8181101561125357602081850181015186830182015201611237565b506000602082860101526020601f19601f83011685010191505092915050565b8a81526001600160a01b038a811660208301528981166040830152606082018990528716608082015260006101406112ae60a0840189611219565b600487106112be576112be611203565b8660c08401528560e0840152841515610100840152806101208401526112e68184018561122d565b9d9c50505050505050505050505050565b80356001600160a01b038116811461130e57600080fd5b919050565b60006020828403121561132557600080fd5b61132e826112f7565b9392505050565b6020808252825182820181905260009190848201906040850190845b8181101561136d57835183529284019291840191600101611351565b50909695505050505050565b6000806040838503121561138c57600080fd5b611395836112f7565b91506113a3602084016112f7565b90509250929050565b60008060008060008060c087890312156113c557600080fd5b6113ce876112f7565b95506113dc602088016112f7565b9450604087013593506113f1606088016112f7565b925060808701356005811061140557600080fd5b915060a08701356004811061141957600080fd5b809150509295509295509295565b6000806000806080858703121561143d57600080fd5b611446856112f7565b9350611454602086016112f7565b925060408501359150611469606086016112f7565b905092959194509250565b8481528315156020820152821515604082015260806060820152600061149d608083018461122d565b9695505050505050565b634e487b7160e01b600052604160045260246000fd5b600082601f8301126114ce57600080fd5b813567ffffffffffffffff808211156114e9576114e96114a7565b604051601f8301601f19908116603f01168101908282118183101715611511576115116114a7565b8160405283815286602085880101111561152a57600080fd5b836020870160208301376000602085830101528094505050505092915050565b6000806040838503121561155d57600080fd5b611566836112f7565b9150602083013567ffffffffffffffff81111561158257600080fd5b61158e858286016114bd565b9150509250929050565b600080604083850312156115ab57600080fd5b6115b4836112f7565b946020939093013593505050565b60008060008060008060a087890312156115db57600080fd5b6115e4876112f7565b95506115f2602088016112f7565b945060408701359350611607606088016112f7565b9250608087013567ffffffffffffffff8082111561162457600080fd5b818901915089601f83011261163857600080fd5b81358181111561164757600080fd5b8a602082850101111561165957600080fd5b6020830194508093505050509295509295509295565b82151581526040810161132e6020830184611219565b6000806040838503121561169857600080fd5b82359150602083013567ffffffffffffffff81111561158257600080fd5b600181811c908216806116ca57607f821691505b6020821081036116ea57634e487b7160e01b600052602260045260246000fd5b50919050565b634e487b7160e01b600052603260045260246000fd5b634e487b7160e01b600052601160045260246000fd5b60006001820161172e5761172e611706565b5060010190565b8082018082111561174857611748611706565b92915050565b60008261176b57634e487b7160e01b600052601260045260246000fd5b500490565b60208152600061132e602083018461122d565b601f821115610a9e57600081815260208120601f850160051c810160208610156117aa5750805b601f850160051c820191505b818110156117c9578281556001016117b6565b505050505050565b815167ffffffffffffffff8111156117eb576117eb6114a7565b6117ff816117f984546116b6565b84611783565b602080601f831160018114611834576000841561181c5750858301515b600019600386901b1c1916600185901b1785556117c9565b600085815260208120601f198616915b8281101561186357888601518255948401946001909101908401611844565b50858210156118815787850151600019600388901b60f8161c191681555b5050505050600190811b01905550565b60208101611748828461121956fe48696768207269736b202d20726571756972657320696e7665737469676174696f6ea26469706673582212207abf7cda78745ff9b3c115a60f1620e5982573d052e14b71ee3e5b23b3d0025b64736f6c63430008140033","opcodes":"PUSH1 0x80 PUSH1 0x40 MSTORE CALLVALUE DUP1 ISZERO PUSH2 0x10 JUMPI PUSH1 0x0 DUP1 REVERT JUMPDEST POP PUSH1 0x40 MLOAD PUSH3 0x19FC CODESIZE SUB DUP1 PUSH3 0x19FC DUP4 CODECOPY DUP2 ADD PUSH1 0x40 DUP2 SWAP1 MSTORE PUSH2 0x31 SWAP2 PUSH2 0xC5 JUMP JUMPDEST DUP1 PUSH1 0x1 PUSH1 0x1 PUSH1 0xA0 SHL SUB DUP2 AND PUSH2 0x60 JUMPI PUSH1 0x40 MLOAD PUSH4 0x1E4FBDF7 PUSH1 0xE0 SHL DUP2 MSTORE PUSH1 0x0 PUSH1 0x4 DUP3 ADD MSTORE PUSH1 0x24 ADD PUSH1 0x40 MLOAD DUP1 SWAP2 SUB SWAP1 REVERT JUMPDEST PUSH2 0x69 DUP2 PUSH2 0x75 JUMP JUMPDEST POP POP PUSH1 0x0 PUSH1 0x1 SSTORE PUSH2 0xF5 JUMP JUMPDEST PUSH1 0x0 DUP1 SLOAD PUSH1 0x1 PUSH1 0x1 PUSH1 0xA0 SHL SUB DUP4 DUP2 AND PUSH1 0x1 PUSH1 0x1 PUSH1 0xA0 SHL SUB NOT DUP4 AND DUP2 OR DUP5 SSTORE PUSH1 0x40 MLOAD SWAP2 SWAP1 SWAP3 AND SWAP3 DUP4 SWAP2 PUSH32 0x8BE0079C531659141344CD1FD0A4F28419497F9722A3DAAFE3B4186F6B6457E0 SWAP2 SWAP1 LOG3 POP POP JUMP JUMPDEST PUSH1 0x0 PUSH1 0x20 DUP3 DUP5 SUB SLT ISZERO PUSH2 0xD7 JUMPI PUSH1 0x0 DUP1 REVERT JUMPDEST DUP2 MLOAD PUSH1 0x1 PUSH1 0x1 PUSH1 0xA0 SHL SUB DUP2 AND DUP2 EQ PUSH2 0xEE JUMPI PUSH1 0x0 DUP1 REVERT JUMPDEST SWAP4 SWAP3 POP POP POP JUMP JUMPDEST PUSH2 0x18F7 DUP1 PUSH3 0x105 PUSH1 0x0 CODECOPY PUSH1 0x0 RETURN INVALID PUSH1 0x80 PUSH1 0x40 MSTORE CALLVALUE DUP1 ISZERO PUSH2 0x10 JUMPI PUSH1 0x0 DUP1 REVERT JUMPDEST POP PUSH1 0x4 CALLDATASIZE LT PUSH2 0x121 JUMPI PUSH1 0x0 CALLDATALOAD PUSH1 0xE0 SHR DUP1 PUSH4 0x84361C07 GT PUSH2 0xAD JUMPI DUP1 PUSH4 0xD5749D42 GT PUSH2 0x71 JUMPI DUP1 PUSH4 0xD5749D42 EQ PUSH2 0x2D8 JUMPI DUP1 PUSH4 0xDDA5F1ED EQ PUSH2 0x2FB JUMPI DUP1 PUSH4 0xF2FDE38B EQ PUSH2 0x31B JUMPI DUP1 PUSH4 0xF353741E EQ PUSH2 0x32E JUMPI DUP1 PUSH4 0xF560155E EQ PUSH2 0x34F JUMPI PUSH1 0x0 DUP1 REVERT JUMPDEST DUP1 PUSH4 0x84361C07 EQ PUSH2 0x244 JUMPI DUP1 PUSH4 0x8DA5CB5B EQ PUSH2 0x277 JUMPI DUP1 PUSH4 0x959E90FF EQ PUSH2 0x292 JUMPI DUP1 PUSH4 0x9CF110E2 EQ PUSH2 0x2B2 JUMPI DUP1 PUSH4 0x9FF1192D EQ PUSH2 0x2C5 JUMPI PUSH1 0x0 DUP1 REVERT JUMPDEST DUP1 PUSH4 0x5E5B8752 GT PUSH2 0xF4 JUMPI DUP1 PUSH4 0x5E5B8752 EQ PUSH2 0x1C4 JUMPI DUP1 PUSH4 0x5F0D14AE EQ PUSH2 0x1E4 JUMPI DUP1 PUSH4 0x715018A6 EQ PUSH2 0x207 JUMPI DUP1 PUSH4 0x71F8FA04 EQ PUSH2 0x211 JUMPI DUP1 PUSH4 0x7780F6C8 EQ PUSH2 0x224 JUMPI PUSH1 0x0 DUP1 REVERT JUMPDEST DUP1 PUSH4 0x171D073A EQ PUSH2 0x126 JUMPI DUP1 PUSH4 0x20B0CE6A EQ PUSH2 0x158 JUMPI DUP1 PUSH4 0x3E92EF26 EQ PUSH2 0x178 JUMPI DUP1 PUSH4 0x476EE471 EQ PUSH2 0x1B1 JUMPI JUMPDEST PUSH1 0x0 DUP1 REVERT JUMPDEST PUSH2 0x139 PUSH2 0x134 CALLDATASIZE PUSH1 0x4 PUSH2 0x11EA JUMP JUMPDEST PUSH2 0x362 JUMP JUMPDEST PUSH1 0x40 MLOAD PUSH2 0x14F SWAP11 SWAP10 SWAP9 SWAP8 SWAP7 SWAP6 SWAP5 SWAP4 SWAP3 SWAP2 SWAP1 PUSH2 0x1273 JUMP JUMPDEST PUSH1 0x40 MLOAD DUP1 SWAP2 SUB SWAP1 RETURN JUMPDEST PUSH2 0x16B PUSH2 0x166 CALLDATASIZE PUSH1 0x4 PUSH2 0x1313 JUMP JUMPDEST PUSH2 0x456 JUMP JUMPDEST PUSH1 0x40 MLOAD PUSH2 0x14F SWAP2 SWAP1 PUSH2 0x1335 JUMP JUMPDEST PUSH2 0x1A3 PUSH2 0x186 CALLDATASIZE PUSH1 0x4 PUSH2 0x1379 JUMP JUMPDEST PUSH1 0x9 PUSH1 0x20 SWAP1 DUP2 MSTORE PUSH1 0x0 SWAP3 DUP4 MSTORE PUSH1 0x40 DUP1 DUP5 KECCAK256 SWAP1 SWAP2 MSTORE SWAP1 DUP3 MSTORE SWAP1 KECCAK256 SLOAD DUP2 JUMP JUMPDEST PUSH1 0x40 MLOAD SWAP1 DUP2 MSTORE PUSH1 0x20 ADD PUSH2 0x14F JUMP JUMPDEST PUSH2 0x1A3 PUSH2 0x1BF CALLDATASIZE PUSH1 0x4 PUSH2 0x13AC JUMP JUMPDEST PUSH2 0x5DC JUMP JUMPDEST PUSH2 0x1A3 PUSH2 0x1D2 CALLDATASIZE PUSH1 0x4 PUSH2 0x1313 JUMP JUMPDEST PUSH1 0x6 PUSH1 0x20 MSTORE PUSH1 0x0 SWAP1 DUP2 MSTORE PUSH1 0x40 SWAP1 KECCAK256 SLOAD DUP2 JUMP JUMPDEST PUSH2 0x1F7 PUSH2 0x1F2 CALLDATASIZE PUSH1 0x4 PUSH2 0x1427 JUMP JUMPDEST PUSH2 0x5FF JUMP JUMPDEST PUSH1 0x40 MLOAD PUSH2 0x14F SWAP5 SWAP4 SWAP3 SWAP2 SWAP1 PUSH2 0x1474 JUMP JUMPDEST PUSH2 0x20F PUSH2 0x7BD JUMP JUMPDEST STOP JUMPDEST PUSH2 0x20F PUSH2 0x21F CALLDATASIZE PUSH1 0x4 PUSH2 0x154A JUMP JUMPDEST PUSH2 0x7D1 JUMP JUMPDEST PUSH2 0x1A3 PUSH2 0x232 CALLDATASIZE PUSH1 0x4 PUSH2 0x1313 JUMP JUMPDEST PUSH1 0x7 PUSH1 0x20 MSTORE PUSH1 0x0 SWAP1 DUP2 MSTORE PUSH1 0x40 SWAP1 KECCAK256 SLOAD DUP2 JUMP JUMPDEST PUSH2 0x267 PUSH2 0x252 CALLDATASIZE PUSH1 0x4 PUSH2 0x1313 JUMP JUMPDEST PUSH1 0x4 PUSH1 0x20 MSTORE PUSH1 0x0 SWAP1 DUP2 MSTORE PUSH1 0x40 SWAP1 KECCAK256 SLOAD PUSH1 0xFF AND DUP2 JUMP JUMPDEST PUSH1 0x40 MLOAD SWAP1 ISZERO ISZERO DUP2 MSTORE PUSH1 0x20 ADD PUSH2 0x14F JUMP JUMPDEST PUSH1 0x0 SLOAD PUSH1 0x40 MLOAD PUSH1 0x1 PUSH1 0x1 PUSH1 0xA0 SHL SUB SWAP1 SWAP2 AND DUP2 MSTORE PUSH1 0x20 ADD PUSH2 0x14F JUMP JUMPDEST PUSH2 0x1A3 PUSH2 0x2A0 CALLDATASIZE PUSH1 0x4 PUSH2 0x1313 JUMP JUMPDEST PUSH1 0x8 PUSH1 0x20 MSTORE PUSH1 0x0 SWAP1 DUP2 MSTORE PUSH1 0x40 SWAP1 KECCAK256 SLOAD DUP2 JUMP JUMPDEST PUSH2 0x20F PUSH2 0x2C0 CALLDATASIZE PUSH1 0x4 PUSH2 0x154A JUMP JUMPDEST PUSH2 0x8DD JUMP JUMPDEST PUSH2 0x20F PUSH2 0x2D3 CALLDATASIZE PUSH1 0x4 PUSH2 0x1598 JUMP JUMPDEST PUSH2 0x9C9 JUMP JUMPDEST PUSH2 0x267 PUSH2 0x2E6 CALLDATASIZE PUSH1 0x4 PUSH2 0x1313 JUMP JUMPDEST PUSH1 0x3 PUSH1 0x20 MSTORE PUSH1 0x0 SWAP1 DUP2 MSTORE PUSH1 0x40 SWAP1 KECCAK256 SLOAD PUSH1 0xFF AND DUP2 JUMP JUMPDEST PUSH2 0x1A3 PUSH2 0x309 CALLDATASIZE PUSH1 0x4 PUSH2 0x1313 JUMP JUMPDEST PUSH1 0x5 PUSH1 0x20 MSTORE PUSH1 0x0 SWAP1 DUP2 MSTORE PUSH1 0x40 SWAP1 KECCAK256 SLOAD DUP2 JUMP JUMPDEST PUSH2 0x20F PUSH2 0x329 CALLDATASIZE PUSH1 0x4 PUSH2 0x1313 JUMP JUMPDEST PUSH2 0xAA4 JUMP JUMPDEST PUSH2 0x341 PUSH2 0x33C CALLDATASIZE PUSH1 0x4 PUSH2 0x15C2 JUMP JUMPDEST PUSH2 0xAE2 JUMP JUMPDEST PUSH1 0x40 MLOAD PUSH2 0x14F SWAP3 SWAP2 SWAP1 PUSH2 0x166F JUMP JUMPDEST PUSH2 0x20F PUSH2 0x35D CALLDATASIZE PUSH1 0x4 PUSH2 0x1685 JUMP JUMPDEST PUSH2 0xD98 JUMP JUMPDEST PUSH1 0x2 PUSH1 0x20 DUP2 SWAP1 MSTORE PUSH1 0x0 SWAP2 DUP3 MSTORE PUSH1 0x40 SWAP1 SWAP2 KECCAK256 DUP1 SLOAD PUSH1 0x1 DUP3 ADD SLOAD SWAP3 DUP3 ADD SLOAD PUSH1 0x3 DUP4 ADD SLOAD PUSH1 0x4 DUP5 ADD SLOAD PUSH1 0x5 DUP6 ADD SLOAD PUSH1 0x6 DUP7 ADD SLOAD PUSH1 0x7 DUP8 ADD DUP1 SLOAD SWAP7 SWAP9 PUSH1 0x1 PUSH1 0x1 PUSH1 0xA0 SHL SUB SWAP1 DUP2 AND SWAP9 SWAP7 DUP2 AND SWAP8 SWAP6 SWAP7 SWAP1 DUP6 AND SWAP6 PUSH1 0xFF PUSH1 0x1 PUSH1 0xA0 SHL DUP8 DIV DUP2 AND SWAP7 PUSH1 0x1 PUSH1 0xA8 SHL SWAP1 DIV DUP2 AND SWAP6 SWAP5 AND SWAP3 SWAP1 PUSH2 0x3D3 SWAP1 PUSH2 0x16B6 JUMP JUMPDEST DUP1 PUSH1 0x1F ADD PUSH1 0x20 DUP1 SWAP2 DIV MUL PUSH1 0x20 ADD PUSH1 0x40 MLOAD SWAP1 DUP2 ADD PUSH1 0x40 MSTORE DUP1 SWAP3 SWAP2 SWAP1 DUP2 DUP2 MSTORE PUSH1 0x20 ADD DUP3 DUP1 SLOAD PUSH2 0x3FF SWAP1 PUSH2 0x16B6 JUMP JUMPDEST DUP1 ISZERO PUSH2 0x44C JUMPI DUP1 PUSH1 0x1F LT PUSH2 0x421 JUMPI PUSH2 0x100 DUP1 DUP4 SLOAD DIV MUL DUP4 MSTORE SWAP2 PUSH1 0x20 ADD SWAP2 PUSH2 0x44C JUMP JUMPDEST DUP3 ADD SWAP2 SWAP1 PUSH1 0x0 MSTORE PUSH1 0x20 PUSH1 0x0 KECCAK256 SWAP1 JUMPDEST DUP2 SLOAD DUP2 MSTORE SWAP1 PUSH1 0x1 ADD SWAP1 PUSH1 0x20 ADD DUP1 DUP4 GT PUSH2 0x42F JUMPI DUP3 SWAP1 SUB PUSH1 0x1F AND DUP3 ADD SWAP2 JUMPDEST POP POP POP POP POP SWAP1 POP DUP11 JUMP JUMPDEST PUSH1 0x60 PUSH1 0x0 PUSH1 0x1 SLOAD PUSH8 0xFFFFFFFFFFFFFFFF DUP2 GT ISZERO PUSH2 0x475 JUMPI PUSH2 0x475 PUSH2 0x14A7 JUMP JUMPDEST PUSH1 0x40 MLOAD SWAP1 DUP1 DUP3 MSTORE DUP1 PUSH1 0x20 MUL PUSH1 0x20 ADD DUP3 ADD PUSH1 0x40 MSTORE DUP1 ISZERO PUSH2 0x49E JUMPI DUP2 PUSH1 0x20 ADD PUSH1 0x20 DUP3 MUL DUP1 CALLDATASIZE DUP4 CALLDATACOPY ADD SWAP1 POP JUMPDEST POP SWAP1 POP PUSH1 0x0 PUSH1 0x1 JUMPDEST PUSH1 0x1 SLOAD DUP2 GT PUSH2 0x53A JUMPI PUSH1 0x0 DUP2 DUP2 MSTORE PUSH1 0x2 PUSH1 0x20 MSTORE PUSH1 0x40 SWAP1 KECCAK256 PUSH1 0x1 ADD SLOAD PUSH1 0x1 PUSH1 0x1 PUSH1 0xA0 SHL SUB DUP7 DUP2 AND SWAP2 AND EQ DUP1 PUSH2 0x4F7 JUMPI POP PUSH1 0x0 DUP2 DUP2 MSTORE PUSH1 0x2 PUSH1 0x20 DUP2 SWAP1 MSTORE PUSH1 0x40 SWAP1 SWAP2 KECCAK256 ADD SLOAD PUSH1 0x1 PUSH1 0x1 PUSH1 0xA0 SHL SUB DUP7 DUP2 AND SWAP2 AND EQ JUMPDEST ISZERO PUSH2 0x528 JUMPI DUP1 DUP4 DUP4 DUP2 MLOAD DUP2 LT PUSH2 0x50F JUMPI PUSH2 0x50F PUSH2 0x16F0 JUMP JUMPDEST PUSH1 0x20 SWAP1 DUP2 MUL SWAP2 SWAP1 SWAP2 ADD ADD MSTORE DUP2 PUSH2 0x524 DUP2 PUSH2 0x171C JUMP JUMPDEST SWAP3 POP POP JUMPDEST DUP1 PUSH2 0x532 DUP2 PUSH2 0x171C JUMP JUMPDEST SWAP2 POP POP PUSH2 0x4A6 JUMP JUMPDEST POP DUP1 PUSH8 0xFFFFFFFFFFFFFFFF DUP2 GT ISZERO PUSH2 0x554 JUMPI PUSH2 0x554 PUSH2 0x14A7 JUMP JUMPDEST PUSH1 0x40 MLOAD SWAP1 DUP1 DUP3 MSTORE DUP1 PUSH1 0x20 MUL PUSH1 0x20 ADD DUP3 ADD PUSH1 0x40 MSTORE DUP1 ISZERO PUSH2 0x57D JUMPI DUP2 PUSH1 0x20 ADD PUSH1 0x20 DUP3 MUL DUP1 CALLDATASIZE DUP4 CALLDATACOPY ADD SWAP1 POP JUMPDEST POP SWAP3 POP PUSH1 0x0 JUMPDEST DUP2 DUP2 LT ISZERO PUSH2 0x5D4 JUMPI DUP3 DUP2 DUP2 MLOAD DUP2 LT PUSH2 0x59D JUMPI PUSH2 0x59D PUSH2 0x16F0 JUMP JUMPDEST PUSH1 0x20 MUL PUSH1 0x20 ADD ADD MLOAD DUP5 DUP3 DUP2 MLOAD DUP2 LT PUSH2 0x5B7 JUMPI PUSH2 0x5B7 PUSH2 0x16F0 JUMP JUMPDEST PUSH1 0x20 SWAP1 DUP2 MUL SWAP2 SWAP1 SWAP2 ADD ADD MSTORE DUP1 PUSH2 0x5CC DUP2 PUSH2 0x171C JUMP JUMPDEST SWAP2 POP POP PUSH2 0x583 JUMP JUMPDEST POP POP POP SWAP2 SWAP1 POP JUMP JUMPDEST PUSH1 0x0 PUSH2 0x5E6 PUSH2 0xE80 JUMP JUMPDEST PUSH2 0x5F4 DUP8 DUP8 DUP8 DUP8 DUP8 DUP8 PUSH2 0xEAD JUMP JUMPDEST SWAP8 SWAP7 POP POP POP POP POP POP POP JUMP JUMPDEST PUSH1 0x1 PUSH1 0x1 PUSH1 0xA0 SHL SUB DUP1 DUP6 AND PUSH1 0x0 SWAP1 DUP2 MSTORE PUSH1 0x6 PUSH1 0x20 SWAP1 DUP2 MSTORE PUSH1 0x40 DUP1 DUP4 KECCAK256 SLOAD DUP8 DUP6 AND DUP5 MSTORE DUP2 DUP5 KECCAK256 SLOAD SWAP5 DUP7 AND DUP5 MSTORE PUSH1 0x4 SWAP1 SWAP3 MSTORE DUP3 KECCAK256 SLOAD SWAP2 SWAP3 DUP4 SWAP3 DUP4 SWAP3 PUSH1 0x60 SWAP3 SWAP1 SWAP2 DUP5 SWAP1 PUSH1 0xFF AND PUSH2 0x64D JUMPI PUSH1 0x32 PUSH2 0x650 JUMP JUMPDEST PUSH1 0xA JUMPDEST PUSH1 0xFF AND SWAP1 POP PUSH1 0x0 PUSH5 0x174876E800 DUP11 GT PUSH2 0x66A JUMPI PUSH1 0xA PUSH2 0x66D JUMP JUMPDEST PUSH1 0x1E JUMPDEST PUSH1 0xFF AND SWAP1 POP PUSH1 0x0 PUSH1 0x4 DUP3 DUP5 PUSH2 0x682 DUP8 DUP10 PUSH2 0x1735 JUMP JUMPDEST PUSH2 0x68C SWAP2 SWAP1 PUSH2 0x1735 JUMP JUMPDEST PUSH2 0x696 SWAP2 SWAP1 PUSH2 0x1735 JUMP JUMPDEST PUSH2 0x6A0 SWAP2 SWAP1 PUSH2 0x174E JUMP JUMPDEST PUSH1 0x1 PUSH1 0x1 PUSH1 0xA0 SHL SUB DUP15 AND PUSH1 0x0 SWAP1 DUP2 MSTORE PUSH1 0x3 PUSH1 0x20 MSTORE PUSH1 0x40 DUP2 KECCAK256 SLOAD SWAP2 SWAP3 POP SWAP1 PUSH1 0xFF AND ISZERO DUP1 ISZERO PUSH2 0x6E6 JUMPI POP PUSH1 0x1 PUSH1 0x1 PUSH1 0xA0 SHL SUB DUP14 AND PUSH1 0x0 SWAP1 DUP2 MSTORE PUSH1 0x3 PUSH1 0x20 MSTORE PUSH1 0x40 SWAP1 KECCAK256 SLOAD PUSH1 0xFF AND ISZERO JUMPDEST DUP1 ISZERO PUSH2 0x6F2 JUMPI POP PUSH1 0x46 DUP3 LT JUMPDEST SWAP1 POP PUSH1 0x0 PUSH1 0x32 DUP4 GT DUP1 PUSH2 0x709 JUMPI POP PUSH5 0xBA43B7400 DUP14 GT JUMPDEST SWAP1 POP PUSH1 0x60 PUSH1 0x1E DUP5 LT ISZERO PUSH2 0x747 JUMPI POP PUSH1 0x40 DUP1 MLOAD DUP1 DUP3 ADD SWAP1 SWAP2 MSTORE PUSH1 0x14 DUP2 MSTORE PUSH20 0x2637BB903934B9B5903A3930B739B0B1BA34B7B7 PUSH1 0x61 SHL PUSH1 0x20 DUP3 ADD MSTORE PUSH2 0x7A6 JUMP JUMPDEST PUSH1 0x46 DUP5 LT ISZERO PUSH2 0x78A JUMPI POP PUSH1 0x40 DUP1 MLOAD DUP1 DUP3 ADD SWAP1 SWAP2 MSTORE PUSH1 0x1D DUP2 MSTORE PUSH32 0x4D656469756D207269736B202D206D6F6E69746F7220636C6F73656C79000000 PUSH1 0x20 DUP3 ADD MSTORE PUSH2 0x7A6 JUMP JUMPDEST PUSH1 0x40 MLOAD DUP1 PUSH1 0x60 ADD PUSH1 0x40 MSTORE DUP1 PUSH1 0x22 DUP2 MSTORE PUSH1 0x20 ADD PUSH2 0x18A0 PUSH1 0x22 SWAP2 CODECOPY SWAP1 POP JUMPDEST SWAP3 SWAP16 SWAP1 SWAP15 POP SWAP1 SWAP13 POP SWAP1 SWAP11 POP SWAP9 POP POP POP POP POP POP POP POP POP JUMP JUMPDEST PUSH2 0x7C5 PUSH2 0xE80 JUMP JUMPDEST PUSH2 0x7CF PUSH1 0x0 PUSH2 0x119A JUMP JUMPDEST JUMP JUMPDEST PUSH2 0x7D9 PUSH2 0xE80 JUMP JUMPDEST PUSH1 0x1 PUSH1 0x1 PUSH1 0xA0 SHL SUB DUP3 AND PUSH2 0x826 JUMPI PUSH1 0x40 MLOAD PUSH3 0x461BCD PUSH1 0xE5 SHL DUP2 MSTORE PUSH1 0x20 PUSH1 0x4 DUP3 ADD MSTORE PUSH1 0xF PUSH1 0x24 DUP3 ADD MSTORE PUSH15 0x125B9D985B1A59081858D8DBDD5B9D PUSH1 0x8A SHL PUSH1 0x44 DUP3 ADD MSTORE PUSH1 0x64 ADD JUMPDEST PUSH1 0x40 MLOAD DUP1 SWAP2 SUB SWAP1 REVERT JUMPDEST PUSH1 0x0 DUP2 MLOAD GT PUSH2 0x870 JUMPI PUSH1 0x40 MLOAD PUSH3 0x461BCD PUSH1 0xE5 SHL DUP2 MSTORE PUSH1 0x20 PUSH1 0x4 DUP3 ADD MSTORE PUSH1 0x16 PUSH1 0x24 DUP3 ADD MSTORE PUSH22 0x526561736F6E2063616E6E6F7420626520656D707479 PUSH1 0x50 SHL PUSH1 0x44 DUP3 ADD MSTORE PUSH1 0x64 ADD PUSH2 0x81D JUMP JUMPDEST PUSH1 0x1 PUSH1 0x1 PUSH1 0xA0 SHL SUB DUP3 AND PUSH1 0x0 DUP2 DUP2 MSTORE PUSH1 0x3 PUSH1 0x20 SWAP1 DUP2 MSTORE PUSH1 0x40 DUP1 DUP4 KECCAK256 DUP1 SLOAD PUSH1 0xFF NOT AND PUSH1 0x1 OR SWAP1 SSTORE PUSH1 0x6 SWAP1 SWAP2 MSTORE SWAP1 DUP2 SWAP1 KECCAK256 PUSH1 0x64 SWAP1 SSTORE MLOAD PUSH32 0xDDBFCBCA8A6EC25CC3E99E3A7DDC04420EAA6749C91BFFCD405E0C3ECC42D9F4 SWAP1 PUSH2 0x8D1 SWAP1 DUP5 SWAP1 PUSH2 0x1770 JUMP JUMPDEST PUSH1 0x40 MLOAD DUP1 SWAP2 SUB SWAP1 LOG2 POP POP JUMP JUMPDEST PUSH2 0x8E5 PUSH2 0xE80 JUMP JUMPDEST PUSH1 0x1 PUSH1 0x1 PUSH1 0xA0 SHL SUB DUP3 AND PUSH2 0x92E JUMPI PUSH1 0x40 MLOAD PUSH3 0x461BCD PUSH1 0xE5 SHL DUP2 MSTORE PUSH1 0x20 PUSH1 0x4 DUP3 ADD MSTORE PUSH1 0x10 PUSH1 0x24 DUP3 ADD MSTORE PUSH16 0x125B9D985B1A59081C1C9BDD1BD8DBDB PUSH1 0x82 SHL PUSH1 0x44 DUP3 ADD MSTORE PUSH1 0x64 ADD PUSH2 0x81D JUMP JUMPDEST PUSH1 0x0 DUP2 MLOAD GT PUSH2 0x976 JUMPI PUSH1 0x40 MLOAD PUSH3 0x461BCD PUSH1 0xE5 SHL DUP2 MSTORE PUSH1 0x20 PUSH1 0x4 DUP3 ADD MSTORE PUSH1 0x14 PUSH1 0x24 DUP3 ADD MSTORE PUSH20 0x4E616D652063616E6E6F7420626520656D707479 PUSH1 0x60 SHL PUSH1 0x44 DUP3 ADD MSTORE PUSH1 0x64 ADD PUSH2 0x81D JUMP JUMPDEST PUSH1 0x1 PUSH1 0x1 PUSH1 0xA0 SHL SUB DUP3 AND PUSH1 0x0 DUP2 DUP2 MSTORE PUSH1 0x4 PUSH1 0x20 MSTORE PUSH1 0x40 SWAP1 DUP2 SWAP1 KECCAK256 DUP1 SLOAD PUSH1 0xFF NOT AND PUSH1 0x1 OR SWAP1 SSTORE MLOAD PUSH32 0x73BDF89E59EDFB29506FABA5617B5A05784F35F90F1652BDC33BE18659EEBFAF SWAP1 PUSH2 0x8D1 SWAP1 DUP5 SWAP1 PUSH2 0x1770 JUMP JUMPDEST PUSH2 0x9D1 PUSH2 0xE80 JUMP JUMPDEST PUSH1 0x1 PUSH1 0x1 PUSH1 0xA0 SHL SUB DUP3 AND PUSH2 0xA19 JUMPI PUSH1 0x40 MLOAD PUSH3 0x461BCD PUSH1 0xE5 SHL DUP2 MSTORE PUSH1 0x20 PUSH1 0x4 DUP3 ADD MSTORE PUSH1 0xF PUSH1 0x24 DUP3 ADD MSTORE PUSH15 0x125B9D985B1A59081858D8DBDD5B9D PUSH1 0x8A SHL PUSH1 0x44 DUP3 ADD MSTORE PUSH1 0x64 ADD PUSH2 0x81D JUMP JUMPDEST PUSH1 0x64 DUP2 GT ISZERO PUSH2 0xA6A JUMPI PUSH1 0x40 MLOAD PUSH3 0x461BCD PUSH1 0xE5 SHL DUP2 MSTORE PUSH1 0x20 PUSH1 0x4 DUP3 ADD MSTORE PUSH1 0x1C PUSH1 0x24 DUP3 ADD MSTORE PUSH32 0x5269736B2073636F72652063616E6E6F74206578636565642031303000000000 PUSH1 0x44 DUP3 ADD MSTORE PUSH1 0x64 ADD PUSH2 0x81D JUMP JUMPDEST PUSH1 0x1 PUSH1 0x1 PUSH1 0xA0 SHL SUB DUP3 AND PUSH1 0x0 SWAP1 DUP2 MSTORE PUSH1 0x6 PUSH1 0x20 MSTORE PUSH1 0x40 SWAP1 KECCAK256 DUP2 SWAP1 SSTORE PUSH1 0x50 DUP2 LT PUSH2 0xAA0 JUMPI PUSH2 0xA9E DUP3 PUSH1 0x0 DUP1 PUSH1 0x0 PUSH1 0x1 DUP1 PUSH2 0xEAD JUMP JUMPDEST POP JUMPDEST POP POP JUMP JUMPDEST PUSH2 0xAAC PUSH2 0xE80 JUMP JUMPDEST PUSH1 0x1 PUSH1 0x1 PUSH1 0xA0 SHL SUB DUP2 AND PUSH2 0xAD6 JUMPI PUSH1 0x40 MLOAD PUSH4 0x1E4FBDF7 PUSH1 0xE0 SHL DUP2 MSTORE PUSH1 0x0 PUSH1 0x4 DUP3 ADD MSTORE PUSH1 0x24 ADD PUSH2 0x81D JUMP JUMPDEST PUSH2 0xADF DUP2 PUSH2 0x119A JUMP JUMPDEST POP JUMP JUMPDEST PUSH1 0x0 DUP1 PUSH1 0x1 PUSH1 0x1 PUSH1 0xA0 SHL SUB DUP9 AND ISZERO DUP1 ISZERO SWAP1 PUSH2 0xB05 JUMPI POP PUSH1 0x1 PUSH1 0x1 PUSH1 0xA0 SHL SUB DUP8 AND ISZERO ISZERO JUMPDEST PUSH2 0xB45 JUMPI PUSH1 0x40 MLOAD PUSH3 0x461BCD PUSH1 0xE5 SHL DUP2 MSTORE PUSH1 0x20 PUSH1 0x4 DUP3 ADD MSTORE PUSH1 0x11 PUSH1 0x24 DUP3 ADD MSTORE PUSH17 0x496E76616C696420616464726573736573 PUSH1 0x78 SHL PUSH1 0x44 DUP3 ADD MSTORE PUSH1 0x64 ADD PUSH2 0x81D JUMP JUMPDEST PUSH1 0x0 DUP7 GT PUSH2 0xB95 JUMPI PUSH1 0x40 MLOAD PUSH3 0x461BCD PUSH1 0xE5 SHL DUP2 MSTORE PUSH1 0x20 PUSH1 0x4 DUP3 ADD DUP2 SWAP1 MSTORE PUSH1 0x24 DUP3 ADD MSTORE PUSH32 0x416D6F756E74206D7573742062652067726561746572207468616E207A65726F PUSH1 0x44 DUP3 ADD MSTORE PUSH1 0x64 ADD PUSH2 0x81D JUMP JUMPDEST PUSH5 0x174876E800 DUP7 GT ISZERO PUSH2 0xBC0 JUMPI PUSH2 0xBB2 DUP9 DUP9 DUP9 DUP9 PUSH1 0x0 PUSH1 0x1 PUSH2 0xEAD JUMP JUMPDEST POP PUSH1 0x1 PUSH1 0x0 SWAP2 POP SWAP2 POP PUSH2 0xD8D JUMP JUMPDEST PUSH1 0x1 PUSH1 0x1 PUSH1 0xA0 SHL SUB DUP9 AND PUSH1 0x0 SWAP1 DUP2 MSTORE PUSH1 0x3 PUSH1 0x20 MSTORE PUSH1 0x40 SWAP1 KECCAK256 SLOAD PUSH1 0xFF AND DUP1 PUSH2 0xBFF JUMPI POP PUSH1 0x1 PUSH1 0x1 PUSH1 0xA0 SHL SUB DUP8 AND PUSH1 0x0 SWAP1 DUP2 MSTORE PUSH1 0x3 PUSH1 0x20 MSTORE PUSH1 0x40 SWAP1 KECCAK256 SLOAD PUSH1 0xFF AND JUMPDEST ISZERO PUSH2 0xC21 JUMPI PUSH2 0xC13 DUP9 DUP9 DUP9 DUP9 PUSH1 0x2 DUP1 PUSH2 0xEAD JUMP JUMPDEST POP PUSH1 0x1 PUSH1 0x2 SWAP2 POP SWAP2 POP PUSH2 0xD8D JUMP JUMPDEST PUSH1 0x1 PUSH1 0x1 PUSH1 0xA0 SHL SUB DUP6 AND PUSH1 0x0 SWAP1 DUP2 MSTORE PUSH1 0x4 PUSH1 0x20 MSTORE PUSH1 0x40 SWAP1 KECCAK256 SLOAD PUSH1 0xFF AND PUSH2 0xC5D JUMPI PUSH2 0xC50 DUP9 DUP9 DUP9 DUP9 PUSH1 0x1 DUP1 PUSH2 0xEAD JUMP JUMPDEST POP PUSH1 0x1 DUP1 SWAP2 POP SWAP2 POP PUSH2 0xD8D JUMP JUMPDEST PUSH1 0x1 PUSH1 0x1 PUSH1 0xA0 SHL SUB DUP9 AND PUSH1 0x0 SWAP1 DUP2 MSTORE PUSH1 0x5 PUSH1 0x20 MSTORE PUSH1 0x40 DUP2 KECCAK256 SLOAD PUSH2 0xC81 SWAP1 DUP9 SWAP1 PUSH2 0x1735 JUMP JUMPDEST SWAP1 POP PUSH5 0xE8D4A51000 DUP2 GT ISZERO PUSH2 0xCAE JUMPI PUSH2 0xCA0 DUP10 DUP10 DUP10 DUP10 PUSH1 0x1 PUSH1 0x2 PUSH2 0xEAD JUMP JUMPDEST POP PUSH1 0x1 DUP1 SWAP3 POP SWAP3 POP POP PUSH2 0xD8D JUMP JUMPDEST PUSH1 0x1 PUSH1 0x1 PUSH1 0xA0 SHL SUB DUP1 DUP11 AND PUSH1 0x0 SWAP1 DUP2 MSTORE PUSH1 0x9 PUSH1 0x20 SWAP1 DUP2 MSTORE PUSH1 0x40 DUP1 DUP4 KECCAK256 SWAP4 DUP13 AND DUP4 MSTORE SWAP3 SWAP1 MSTORE SWAP1 DUP2 KECCAK256 DUP1 SLOAD SWAP2 PUSH2 0xCE1 DUP4 PUSH2 0x171C JUMP JUMPDEST SWAP1 SWAP2 SSTORE POP POP PUSH1 0x1 PUSH1 0x1 PUSH1 0xA0 SHL SUB DUP1 DUP11 AND PUSH1 0x0 SWAP1 DUP2 MSTORE PUSH1 0x9 PUSH1 0x20 SWAP1 DUP2 MSTORE PUSH1 0x40 DUP1 DUP4 KECCAK256 SWAP4 DUP13 AND DUP4 MSTORE SWAP3 SWAP1 MSTORE KECCAK256 SLOAD PUSH1 0xA LT ISZERO PUSH2 0xD25 JUMPI PUSH2 0xD23 DUP10 DUP10 DUP10 DUP10 PUSH1 0x1 DUP1 PUSH2 0xEAD JUMP JUMPDEST POP JUMPDEST PUSH1 0x1 PUSH1 0x1 PUSH1 0xA0 SHL SUB DUP10 AND PUSH1 0x0 SWAP1 DUP2 MSTORE PUSH1 0x5 PUSH1 0x20 SWAP1 DUP2 MSTORE PUSH1 0x40 DUP1 DUP4 KECCAK256 DUP5 SWAP1 SSTORE PUSH1 0x8 SWAP1 SWAP2 MSTORE DUP2 KECCAK256 DUP1 SLOAD SWAP2 PUSH2 0xD56 DUP4 PUSH2 0x171C JUMP JUMPDEST SWAP1 SWAP2 SSTORE POP POP PUSH1 0x1 PUSH1 0x1 PUSH1 0xA0 SHL SUB DUP9 AND PUSH1 0x0 SWAP1 DUP2 MSTORE PUSH1 0x8 PUSH1 0x20 MSTORE PUSH1 0x40 DUP2 KECCAK256 DUP1 SLOAD SWAP2 PUSH2 0xD7F DUP4 PUSH2 0x171C JUMP JUMPDEST SWAP2 SWAP1 POP SSTORE POP PUSH1 0x0 DUP1 SWAP3 POP SWAP3 POP POP JUMPDEST SWAP7 POP SWAP7 SWAP5 POP POP POP POP POP JUMP JUMPDEST PUSH2 0xDA0 PUSH2 0xE80 JUMP JUMPDEST PUSH1 0x0 DUP3 DUP2 MSTORE PUSH1 0x2 PUSH1 0x20 MSTORE PUSH1 0x40 DUP2 KECCAK256 SLOAD SWAP1 SUB PUSH2 0xDF4 JUMPI PUSH1 0x40 MLOAD PUSH3 0x461BCD PUSH1 0xE5 SHL DUP2 MSTORE PUSH1 0x20 PUSH1 0x4 DUP3 ADD MSTORE PUSH1 0x14 PUSH1 0x24 DUP3 ADD MSTORE PUSH20 0x105B195C9D08191BD95CC81B9BDD08195E1A5CDD PUSH1 0x62 SHL PUSH1 0x44 DUP3 ADD MSTORE PUSH1 0x64 ADD PUSH2 0x81D JUMP JUMPDEST PUSH1 0x0 DUP3 DUP2 MSTORE PUSH1 0x2 PUSH1 0x20 MSTORE PUSH1 0x40 SWAP1 KECCAK256 PUSH1 0x6 ADD SLOAD PUSH1 0xFF AND ISZERO PUSH2 0xE56 JUMPI PUSH1 0x40 MLOAD PUSH3 0x461BCD PUSH1 0xE5 SHL DUP2 MSTORE PUSH1 0x20 PUSH1 0x4 DUP3 ADD MSTORE PUSH1 0x1A PUSH1 0x24 DUP3 ADD MSTORE PUSH32 0x416C65727420616C726561647920696E76657374696761746564000000000000 PUSH1 0x44 DUP3 ADD MSTORE PUSH1 0x64 ADD PUSH2 0x81D JUMP JUMPDEST PUSH1 0x0 DUP3 DUP2 MSTORE PUSH1 0x2 PUSH1 0x20 MSTORE PUSH1 0x40 SWAP1 KECCAK256 PUSH1 0x6 DUP2 ADD DUP1 SLOAD PUSH1 0xFF NOT AND PUSH1 0x1 OR SWAP1 SSTORE PUSH1 0x7 ADD PUSH2 0xA9E DUP3 DUP3 PUSH2 0x17D1 JUMP JUMPDEST PUSH1 0x0 SLOAD PUSH1 0x1 PUSH1 0x1 PUSH1 0xA0 SHL SUB AND CALLER EQ PUSH2 0x7CF JUMPI PUSH1 0x40 MLOAD PUSH4 0x118CDAA7 PUSH1 0xE0 SHL DUP2 MSTORE CALLER PUSH1 0x4 DUP3 ADD MSTORE PUSH1 0x24 ADD PUSH2 0x81D JUMP JUMPDEST PUSH1 0x0 PUSH1 0x1 PUSH1 0x1 PUSH1 0xA0 SHL SUB DUP8 AND PUSH2 0xEFC JUMPI PUSH1 0x40 MLOAD PUSH3 0x461BCD PUSH1 0xE5 SHL DUP2 MSTORE PUSH1 0x20 PUSH1 0x4 DUP3 ADD MSTORE PUSH1 0x14 PUSH1 0x24 DUP3 ADD MSTORE PUSH20 0x496E76616C69642066726F6D2061646472657373 PUSH1 0x60 SHL PUSH1 0x44 DUP3 ADD MSTORE PUSH1 0x64 ADD PUSH2 0x81D JUMP JUMPDEST PUSH1 0x1 PUSH1 0x1 PUSH1 0xA0 SHL SUB DUP7 AND PUSH2 0xF47 JUMPI PUSH1 0x40 MLOAD PUSH3 0x461BCD PUSH1 0xE5 SHL DUP2 MSTORE PUSH1 0x20 PUSH1 0x4 DUP3 ADD MSTORE PUSH1 0x12 PUSH1 0x24 DUP3 ADD MSTORE PUSH18 0x496E76616C696420746F2061646472657373 PUSH1 0x70 SHL PUSH1 0x44 DUP3 ADD MSTORE PUSH1 0x64 ADD PUSH2 0x81D JUMP JUMPDEST PUSH1 0x0 DUP6 GT PUSH2 0xF97 JUMPI PUSH1 0x40 MLOAD PUSH3 0x461BCD PUSH1 0xE5 SHL DUP2 MSTORE PUSH1 0x20 PUSH1 0x4 DUP3 ADD DUP2 SWAP1 MSTORE PUSH1 0x24 DUP3 ADD MSTORE PUSH32 0x416D6F756E74206D7573742062652067726561746572207468616E207A65726F PUSH1 0x44 DUP3 ADD MSTORE PUSH1 0x64 ADD PUSH2 0x81D JUMP JUMPDEST PUSH1 0x1 DUP1 SLOAD SWAP1 PUSH1 0x0 PUSH2 0xFA7 DUP4 PUSH2 0x171C JUMP JUMPDEST SWAP2 SWAP1 POP SSTORE POP PUSH1 0x0 PUSH1 0x1 SLOAD SWAP1 POP PUSH1 0x40 MLOAD DUP1 PUSH2 0x140 ADD PUSH1 0x40 MSTORE DUP1 DUP3 DUP2 MSTORE PUSH1 0x20 ADD DUP10 PUSH1 0x1 PUSH1 0x1 PUSH1 0xA0 SHL SUB AND DUP2 MSTORE PUSH1 0x20 ADD DUP9 PUSH1 0x1 PUSH1 0x1 PUSH1 0xA0 SHL SUB AND DUP2 MSTORE PUSH1 0x20 ADD DUP8 DUP2 MSTORE PUSH1 0x20 ADD DUP7 PUSH1 0x1 PUSH1 0x1 PUSH1 0xA0 SHL SUB AND DUP2 MSTORE PUSH1 0x20 ADD DUP6 PUSH1 0x4 DUP2 GT ISZERO PUSH2 0x100A JUMPI PUSH2 0x100A PUSH2 0x1203 JUMP JUMPDEST DUP2 MSTORE PUSH1 0x20 ADD DUP5 PUSH1 0x3 DUP2 GT ISZERO PUSH2 0x1021 JUMPI PUSH2 0x1021 PUSH2 0x1203 JUMP JUMPDEST DUP2 MSTORE TIMESTAMP PUSH1 0x20 DUP1 DUP4 ADD SWAP2 SWAP1 SWAP2 MSTORE PUSH1 0x0 PUSH1 0x40 DUP1 DUP5 ADD DUP3 SWAP1 MSTORE DUP1 MLOAD DUP1 DUP5 ADD DUP3 MSTORE DUP3 DUP2 MSTORE PUSH1 0x60 SWAP5 DUP6 ADD MSTORE DUP6 DUP3 MSTORE PUSH1 0x2 DUP1 DUP5 MSTORE SWAP2 DUP2 SWAP1 KECCAK256 DUP6 MLOAD DUP2 SSTORE SWAP3 DUP6 ADD MLOAD PUSH1 0x1 DUP5 ADD DUP1 SLOAD PUSH1 0x1 PUSH1 0x1 PUSH1 0xA0 SHL SUB NOT SWAP1 DUP2 AND PUSH1 0x1 PUSH1 0x1 PUSH1 0xA0 SHL SUB SWAP4 DUP5 AND OR SWAP1 SWAP2 SSTORE SWAP2 DUP7 ADD MLOAD SWAP3 DUP5 ADD DUP1 SLOAD DUP4 AND SWAP4 DUP3 AND SWAP4 SWAP1 SWAP4 OR SWAP1 SWAP3 SSTORE SWAP3 DUP5 ADD MLOAD PUSH1 0x3 DUP4 ADD SSTORE PUSH1 0x80 DUP5 ADD MLOAD PUSH1 0x4 DUP1 DUP5 ADD DUP1 SLOAD SWAP6 DUP7 AND SWAP3 SWAP1 SWAP4 AND SWAP2 DUP3 OR DUP4 SSTORE PUSH1 0xA0 DUP7 ADD MLOAD SWAP4 SWAP5 PUSH1 0x1 PUSH1 0x1 PUSH1 0xA8 SHL SUB NOT AND SWAP1 SWAP2 OR SWAP1 PUSH1 0x1 PUSH1 0xA0 SHL SWAP1 DUP5 SWAP1 DUP2 GT ISZERO PUSH2 0x10DE JUMPI PUSH2 0x10DE PUSH2 0x1203 JUMP JUMPDEST MUL OR SWAP1 SSTORE POP PUSH1 0xC0 DUP3 ADD MLOAD PUSH1 0x4 DUP3 ADD DUP1 SLOAD PUSH1 0xFF PUSH1 0xA8 SHL NOT AND PUSH1 0x1 PUSH1 0xA8 SHL DUP4 PUSH1 0x3 DUP2 GT ISZERO PUSH2 0x110C JUMPI PUSH2 0x110C PUSH2 0x1203 JUMP JUMPDEST MUL OR SWAP1 SSTORE POP PUSH1 0xE0 DUP3 ADD MLOAD PUSH1 0x5 DUP3 ADD SSTORE PUSH2 0x100 DUP3 ADD MLOAD PUSH1 0x6 DUP3 ADD DUP1 SLOAD PUSH1 0xFF NOT AND SWAP2 ISZERO ISZERO SWAP2 SWAP1 SWAP2 OR SWAP1 SSTORE PUSH2 0x120 DUP3 ADD MLOAD PUSH1 0x7 DUP3 ADD SWAP1 PUSH2 0x1149 SWAP1 DUP3 PUSH2 0x17D1 JUMP JUMPDEST POP SWAP1 POP POP DUP8 PUSH1 0x1 PUSH1 0x1 PUSH1 0xA0 SHL SUB AND DUP2 PUSH32 0x9D5843466E04E379601C7EA25C8794D2E6DF6346B5469097BE76F0C709B09602 DUP7 PUSH1 0x40 MLOAD PUSH2 0x1187 SWAP2 SWAP1 PUSH2 0x1891 JUMP JUMPDEST PUSH1 0x40 MLOAD DUP1 SWAP2 SUB SWAP1 LOG3 SWAP8 SWAP7 POP POP POP POP POP POP POP JUMP JUMPDEST PUSH1 0x0 DUP1 SLOAD PUSH1 0x1 PUSH1 0x1 PUSH1 0xA0 SHL SUB DUP4 DUP2 AND PUSH1 0x1 PUSH1 0x1 PUSH1 0xA0 SHL SUB NOT DUP4 AND DUP2 OR DUP5 SSTORE PUSH1 0x40 MLOAD SWAP2 SWAP1 SWAP3 AND SWAP3 DUP4 SWAP2 PUSH32 0x8BE0079C531659141344CD1FD0A4F28419497F9722A3DAAFE3B4186F6B6457E0 SWAP2 SWAP1 LOG3 POP POP JUMP JUMPDEST PUSH1 0x0 PUSH1 0x20 DUP3 DUP5 SUB SLT ISZERO PUSH2 0x11FC JUMPI PUSH1 0x0 DUP1 REVERT JUMPDEST POP CALLDATALOAD SWAP2 SWAP1 POP JUMP JUMPDEST PUSH4 0x4E487B71 PUSH1 0xE0 SHL PUSH1 0x0 MSTORE PUSH1 0x21 PUSH1 0x4 MSTORE PUSH1 0x24 PUSH1 0x0 REVERT JUMPDEST PUSH1 0x5 DUP2 LT PUSH2 0x1229 JUMPI PUSH2 0x1229 PUSH2 0x1203 JUMP JUMPDEST SWAP1 MSTORE JUMP JUMPDEST PUSH1 0x0 DUP2 MLOAD DUP1 DUP5 MSTORE PUSH1 0x0 JUMPDEST DUP2 DUP2 LT ISZERO PUSH2 0x1253 JUMPI PUSH1 0x20 DUP2 DUP6 ADD DUP2 ADD MLOAD DUP7 DUP4 ADD DUP3 ADD MSTORE ADD PUSH2 0x1237 JUMP JUMPDEST POP PUSH1 0x0 PUSH1 0x20 DUP3 DUP7 ADD ADD MSTORE PUSH1 0x20 PUSH1 0x1F NOT PUSH1 0x1F DUP4 ADD AND DUP6 ADD ADD SWAP2 POP POP SWAP3 SWAP2 POP POP JUMP JUMPDEST DUP11 DUP2 MSTORE PUSH1 0x1 PUSH1 0x1 PUSH1 0xA0 SHL SUB DUP11 DUP2 AND PUSH1 0x20 DUP4 ADD MSTORE DUP10 DUP2 AND PUSH1 0x40 DUP4 ADD MSTORE PUSH1 0x60 DUP3 ADD DUP10 SWAP1 MSTORE DUP8 AND PUSH1 0x80 DUP3 ADD MSTORE PUSH1 0x0 PUSH2 0x140 PUSH2 0x12AE PUSH1 0xA0 DUP5 ADD DUP10 PUSH2 0x1219 JUMP JUMPDEST PUSH1 0x4 DUP8 LT PUSH2 0x12BE JUMPI PUSH2 0x12BE PUSH2 0x1203 JUMP JUMPDEST DUP7 PUSH1 0xC0 DUP5 ADD MSTORE DUP6 PUSH1 0xE0 DUP5 ADD MSTORE DUP5 ISZERO ISZERO PUSH2 0x100 DUP5 ADD MSTORE DUP1 PUSH2 0x120 DUP5 ADD MSTORE PUSH2 0x12E6 DUP2 DUP5 ADD DUP6 PUSH2 0x122D JUMP JUMPDEST SWAP14 SWAP13 POP POP POP POP POP POP POP POP POP POP POP POP POP JUMP JUMPDEST DUP1 CALLDATALOAD PUSH1 0x1 PUSH1 0x1 PUSH1 0xA0 SHL SUB DUP2 AND DUP2 EQ PUSH2 0x130E JUMPI PUSH1 0x0 DUP1 REVERT JUMPDEST SWAP2 SWAP1 POP JUMP JUMPDEST PUSH1 0x0 PUSH1 0x20 DUP3 DUP5 SUB SLT ISZERO PUSH2 0x1325 JUMPI PUSH1 0x0 DUP1 REVERT JUMPDEST PUSH2 0x132E DUP3 PUSH2 0x12F7 JUMP JUMPDEST SWAP4 SWAP3 POP POP POP JUMP JUMPDEST PUSH1 0x20 DUP1 DUP3 MSTORE DUP3 MLOAD DUP3 DUP3 ADD DUP2 SWAP1 MSTORE PUSH1 0x0 SWAP2 SWAP1 DUP5 DUP3 ADD SWAP1 PUSH1 0x40 DUP6 ADD SWAP1 DUP5 JUMPDEST DUP2 DUP2 LT ISZERO PUSH2 0x136D JUMPI DUP4 MLOAD DUP4 MSTORE SWAP3 DUP5 ADD SWAP3 SWAP2 DUP5 ADD SWAP2 PUSH1 0x1 ADD PUSH2 0x1351 JUMP JUMPDEST POP SWAP1 SWAP7 SWAP6 POP POP POP POP POP POP JUMP JUMPDEST PUSH1 0x0 DUP1 PUSH1 0x40 DUP4 DUP6 SUB SLT ISZERO PUSH2 0x138C JUMPI PUSH1 0x0 DUP1 REVERT JUMPDEST PUSH2 0x1395 DUP4 PUSH2 0x12F7 JUMP JUMPDEST SWAP2 POP PUSH2 0x13A3 PUSH1 0x20 DUP5 ADD PUSH2 0x12F7 JUMP JUMPDEST SWAP1 POP SWAP3 POP SWAP3 SWAP1 POP JUMP JUMPDEST PUSH1 0x0 DUP1 PUSH1 0x0 DUP1 PUSH1 0x0 DUP1 PUSH1 0xC0 DUP8 DUP10 SUB SLT ISZERO PUSH2 0x13C5 JUMPI PUSH1 0x0 DUP1 REVERT JUMPDEST PUSH2 0x13CE DUP8 PUSH2 0x12F7 JUMP JUMPDEST SWAP6 POP PUSH2 0x13DC PUSH1 0x20 DUP9 ADD PUSH2 0x12F7 JUMP JUMPDEST SWAP5 POP PUSH1 0x40 DUP8 ADD CALLDATALOAD SWAP4 POP PUSH2 0x13F1 PUSH1 0x60 DUP9 ADD PUSH2 0x12F7 JUMP JUMPDEST SWAP3 POP PUSH1 0x80 DUP8 ADD CALLDATALOAD PUSH1 0x5 DUP2 LT PUSH2 0x1405 JUMPI PUSH1 0x0 DUP1 REVERT JUMPDEST SWAP2 POP PUSH1 0xA0 DUP8 ADD CALLDATALOAD PUSH1 0x4 DUP2 LT PUSH2 0x1419 JUMPI PUSH1 0x0 DUP1 REVERT JUMPDEST DUP1 SWAP2 POP POP SWAP3 SWAP6 POP SWAP3 SWAP6 POP SWAP3 SWAP6 JUMP JUMPDEST PUSH1 0x0 DUP1 PUSH1 0x0 DUP1 PUSH1 0x80 DUP6 DUP8 SUB SLT ISZERO PUSH2 0x143D JUMPI PUSH1 0x0 DUP1 REVERT JUMPDEST PUSH2 0x1446 DUP6 PUSH2 0x12F7 JUMP JUMPDEST SWAP4 POP PUSH2 0x1454 PUSH1 0x20 DUP7 ADD PUSH2 0x12F7 JUMP JUMPDEST SWAP3 POP PUSH1 0x40 DUP6 ADD CALLDATALOAD SWAP2 POP PUSH2 0x1469 PUSH1 0x60 DUP7 ADD PUSH2 0x12F7 JUMP JUMPDEST SWAP1 POP SWAP3 SWAP6 SWAP2 SWAP5 POP SWAP3 POP JUMP JUMPDEST DUP5 DUP2 MSTORE DUP4 ISZERO ISZERO PUSH1 0x20 DUP3 ADD MSTORE DUP3 ISZERO ISZERO PUSH1 0x40 DUP3 ADD MSTORE PUSH1 0x80 PUSH1 0x60 DUP3 ADD MSTORE PUSH1 0x0 PUSH2 0x149D PUSH1 0x80 DUP4 ADD DUP5 PUSH2 0x122D JUMP JUMPDEST SWAP7 SWAP6 POP POP POP POP POP POP JUMP JUMPDEST PUSH4 0x4E487B71 PUSH1 0xE0 SHL PUSH1 0x0 MSTORE PUSH1 0x41 PUSH1 0x4 MSTORE PUSH1 0x24 PUSH1 0x0 REVERT JUMPDEST PUSH1 0x0 DUP3 PUSH1 0x1F DUP4 ADD SLT PUSH2 0x14CE JUMPI PUSH1 0x0 DUP1 REVERT JUMPDEST DUP2 CALLDATALOAD PUSH8 0xFFFFFFFFFFFFFFFF DUP1 DUP3 GT ISZERO PUSH2 0x14E9 JUMPI PUSH2 0x14E9 PUSH2 0x14A7 JUMP JUMPDEST PUSH1 0x40 MLOAD PUSH1 0x1F DUP4 ADD PUSH1 0x1F NOT SWAP1 DUP2 AND PUSH1 0x3F ADD AND DUP2 ADD SWAP1 DUP3 DUP3 GT DUP2 DUP4 LT OR ISZERO PUSH2 0x1511 JUMPI PUSH2 0x1511 PUSH2 0x14A7 JUMP JUMPDEST DUP2 PUSH1 0x40 MSTORE DUP4 DUP2 MSTORE DUP7 PUSH1 0x20 DUP6 DUP9 ADD ADD GT ISZERO PUSH2 0x152A JUMPI PUSH1 0x0 DUP1 REVERT JUMPDEST DUP4 PUSH1 0x20 DUP8 ADD PUSH1 0x20 DUP4 ADD CALLDATACOPY PUSH1 0x0 PUSH1 0x20 DUP6 DUP4 ADD ADD MSTORE DUP1 SWAP5 POP POP POP POP POP SWAP3 SWAP2 POP POP JUMP JUMPDEST PUSH1 0x0 DUP1 PUSH1 0x40 DUP4 DUP6 SUB SLT ISZERO PUSH2 0x155D JUMPI PUSH1 0x0 DUP1 REVERT JUMPDEST PUSH2 0x1566 DUP4 PUSH2 0x12F7 JUMP JUMPDEST SWAP2 POP PUSH1 0x20 DUP4 ADD CALLDATALOAD PUSH8 0xFFFFFFFFFFFFFFFF DUP2 GT ISZERO PUSH2 0x1582 JUMPI PUSH1 0x0 DUP1 REVERT JUMPDEST PUSH2 0x158E DUP6 DUP3 DUP7 ADD PUSH2 0x14BD JUMP JUMPDEST SWAP2 POP POP SWAP3 POP SWAP3 SWAP1 POP JUMP JUMPDEST PUSH1 0x0 DUP1 PUSH1 0x40 DUP4 DUP6 SUB SLT ISZERO PUSH2 0x15AB JUMPI PUSH1 0x0 DUP1 REVERT JUMPDEST PUSH2 0x15B4 DUP4 PUSH2 0x12F7 JUMP JUMPDEST SWAP5 PUSH1 0x20 SWAP4 SWAP1 SWAP4 ADD CALLDATALOAD SWAP4 POP POP POP JUMP JUMPDEST PUSH1 0x0 DUP1 PUSH1 0x0 DUP1 PUSH1 0x0 DUP1 PUSH1 0xA0 DUP8 DUP10 SUB SLT ISZERO PUSH2 0x15DB JUMPI PUSH1 0x0 DUP1 REVERT JUMPDEST PUSH2 0x15E4 DUP8 PUSH2 0x12F7 JUMP JUMPDEST SWAP6 POP PUSH2 0x15F2 PUSH1 0x20 DUP9 ADD PUSH2 0x12F7 JUMP JUMPDEST SWAP5 POP PUSH1 0x40 DUP8 ADD CALLDATALOAD SWAP4 POP PUSH2 0x1607 PUSH1 0x60 DUP9 ADD PUSH2 0x12F7 JUMP JUMPDEST SWAP3 POP PUSH1 0x80 DUP8 ADD CALLDATALOAD PUSH8 0xFFFFFFFFFFFFFFFF DUP1 DUP3 GT ISZERO PUSH2 0x1624 JUMPI PUSH1 0x0 DUP1 REVERT JUMPDEST DUP2 DUP10 ADD SWAP2 POP DUP10 PUSH1 0x1F DUP4 ADD SLT PUSH2 0x1638 JUMPI PUSH1 0x0 DUP1 REVERT JUMPDEST DUP2 CALLDATALOAD DUP2 DUP2 GT ISZERO PUSH2 0x1647 JUMPI PUSH1 0x0 DUP1 REVERT JUMPDEST DUP11 PUSH1 0x20 DUP3 DUP6 ADD ADD GT ISZERO PUSH2 0x1659 JUMPI PUSH1 0x0 DUP1 REVERT JUMPDEST PUSH1 0x20 DUP4 ADD SWAP5 POP DUP1 SWAP4 POP POP POP POP SWAP3 SWAP6 POP SWAP3 SWAP6 POP SWAP3 SWAP6 JUMP JUMPDEST DUP3 ISZERO ISZERO DUP2 MSTORE PUSH1 0x40 DUP2 ADD PUSH2 0x132E PUSH1 0x20 DUP4 ADD DUP5 PUSH2 0x1219 JUMP JUMPDEST PUSH1 0x0 DUP1 PUSH1 0x40 DUP4 DUP6 SUB SLT ISZERO PUSH2 0x1698 JUMPI PUSH1 0x0 DUP1 REVERT JUMPDEST DUP3 CALLDATALOAD SWAP2 POP PUSH1 0x20 DUP4 ADD CALLDATALOAD PUSH8 0xFFFFFFFFFFFFFFFF DUP2 GT ISZERO PUSH2 0x1582 JUMPI PUSH1 0x0 DUP1 REVERT JUMPDEST PUSH1 0x1 DUP2 DUP2 SHR SWAP1 DUP3 AND DUP1 PUSH2 0x16CA JUMPI PUSH1 0x7F DUP3 AND SWAP2 POP JUMPDEST PUSH1 0x20 DUP3 LT DUP2 SUB PUSH2 0x16EA JUMPI PUSH4 0x4E487B71 PUSH1 0xE0 SHL PUSH1 0x0 MSTORE PUSH1 0x22 PUSH1 0x4 MSTORE PUSH1 0x24 PUSH1 0x0 REVERT JUMPDEST POP SWAP2 SWAP1 POP JUMP JUMPDEST PUSH4 0x4E487B71 PUSH1 0xE0 SHL PUSH1 0x0 MSTORE PUSH1 0x32 PUSH1 0x4 MSTORE PUSH1 0x24 PUSH1 0x0 REVERT JUMPDEST PUSH4 0x4E487B71 PUSH1 0xE0 SHL PUSH1 0x0 MSTORE PUSH1 0x11 PUSH1 0x4 MSTORE PUSH1 0x24 PUSH1 0x0 REVERT JUMPDEST PUSH1 0x0 PUSH1 0x1 DUP3 ADD PUSH2 0x172E JUMPI PUSH2 0x172E PUSH2 0x1706 JUMP JUMPDEST POP PUSH1 0x1 ADD SWAP1 JUMP JUMPDEST DUP1 DUP3 ADD DUP1 DUP3 GT ISZERO PUSH2 0x1748 JUMPI PUSH2 0x1748 PUSH2 0x1706 JUMP JUMPDEST SWAP3 SWAP2 POP POP JUMP JUMPDEST PUSH1 0x0 DUP3 PUSH2 0x176B JUMPI PUSH4 0x4E487B71 PUSH1 0xE0 SHL PUSH1 0x0 MSTORE PUSH1 0x12 PUSH1 0x4 MSTORE PUSH1 0x24 PUSH1 0x0 REVERT JUMPDEST POP DIV SWAP1 JUMP JUMPDEST PUSH1 0x20 DUP2 MSTORE PUSH1 0x0 PUSH2 0x132E PUSH1 0x20 DUP4 ADD DUP5 PUSH2 0x122D JUMP JUMPDEST PUSH1 0x1F DUP3 GT ISZERO PUSH2 0xA9E JUMPI PUSH1 0x0 DUP2 DUP2 MSTORE PUSH1 0x20 DUP2 KECCAK256 PUSH1 0x1F DUP6 ADD PUSH1 0x5 SHR DUP2 ADD PUSH1 0x20 DUP7 LT ISZERO PUSH2 0x17AA JUMPI POP DUP1 JUMPDEST PUSH1 0x1F DUP6 ADD PUSH1 0x5 SHR DUP3 ADD SWAP2 POP JUMPDEST DUP2 DUP2 LT ISZERO PUSH2 0x17C9 JUMPI DUP3 DUP2 SSTORE PUSH1 0x1 ADD PUSH2 0x17B6 JUMP JUMPDEST POP POP POP POP POP POP JUMP JUMPDEST DUP2 MLOAD PUSH8 0xFFFFFFFFFFFFFFFF DUP2 GT ISZERO PUSH2 0x17EB JUMPI PUSH2 0x17EB PUSH2 0x14A7 JUMP JUMPDEST PUSH2 0x17FF DUP2 PUSH2 0x17F9 DUP5 SLOAD PUSH2 0x16B6 JUMP JUMPDEST DUP5 PUSH2 0x1783 JUMP JUMPDEST PUSH1 0x20 DUP1 PUSH1 0x1F DUP4 GT PUSH1 0x1 DUP2 EQ PUSH2 0x1834 JUMPI PUSH1 0x0 DUP5 ISZERO PUSH2 0x181C JUMPI POP DUP6 DUP4 ADD MLOAD JUMPDEST PUSH1 0x0 NOT PUSH1 0x3 DUP7 SWAP1 SHL SHR NOT AND PUSH1 0x1 DUP6 SWAP1 SHL OR DUP6 SSTORE PUSH2 0x17C9 JUMP JUMPDEST PUSH1 0x0 DUP6 DUP2 MSTORE PUSH1 0x20 DUP2 KECCAK256 PUSH1 0x1F NOT DUP7 AND SWAP2 JUMPDEST DUP3 DUP2 LT ISZERO PUSH2 0x1863 JUMPI DUP9 DUP7 ADD MLOAD DUP3 SSTORE SWAP5 DUP5 ADD SWAP5 PUSH1 0x1 SWAP1 SWAP2 ADD SWAP1 DUP5 ADD PUSH2 0x1844 JUMP JUMPDEST POP DUP6 DUP3 LT ISZERO PUSH2 0x1881 JUMPI DUP8 DUP6 ADD MLOAD PUSH1 0x0 NOT PUSH1 0x3 DUP9 SWAP1 SHL PUSH1 0xF8 AND SHR NOT AND DUP2 SSTORE JUMPDEST POP POP POP POP POP PUSH1 0x1 SWAP1 DUP2 SHL ADD SWAP1 SSTORE POP JUMP JUMPDEST PUSH1 0x20 DUP2 ADD PUSH2 0x1748 DUP3 DUP5 PUSH2 0x1219 JUMP INVALID BASEFEE PUSH10 0x6768207269736B202D20 PUSH19 0x6571756972657320696E766573746967617469 PUSH16 0x6EA26469706673582212207ABF7CDA78 PUSH21 0x5FF9B3C115A60F1620E5982573D052E14B71EE3E5B 0x23 0xB3 0xD0 MUL JUMPDEST PUSH5 0x736F6C6343 STOP ADDMOD EQ STOP CALLER "},"methodIdentifiers":{"alerts(uint256)":"171d073a","analyzeTransaction(address,address,uint256,address)":"5f0d14ae","blacklistAddress(address,string)":"71f8fa04","blacklistedAddresses(address)":"d5749d42","createAlert(address,address,uint256,address,uint8,uint8)":"476ee471","dailyTransactionVolume(address)":"dda5f1ed","getAlertsForAddress(address)":"20b0ce6a","lastResetTime(address)":"7780f6c8","markAlertInvestigated(uint256,string)":"f560155e","monitorTransaction(address,address,uint256,address,bytes)":"f353741e","owner()":"8da5cb5b","pairTransactionCount(address,address)":"3e92ef26","renounceOwnership()":"715018a6","riskScores(address)":"5e5b8752","totalTransactionCount(address)":"959e90ff","transferOwnership(address)":"f2fde38b","updateRiskScore(address,uint256)":"9ff1192d","whitelistProtocol(address,string)":"9cf110e2","whitelistedProtocols(address)":"84361c07"}}}}}