{"contracts/InstitutionalTreasury.sol":{"InstitutionalTreasury":{"abi":[{"inputs":[{"internalType":"address","name":"initialOwner","type":"address"}],"stateMutability":"nonpayable","type":"constructor"},{"inputs":[{"internalType":"address","name":"owner","type":"address"}],"name":"OwnableInvalidOwner","type":"error"},{"inputs":[{"internalType":"address","name":"account","type":"address"}],"name":"OwnableUnauthorizedAccount","type":"error"},{"inputs":[],"name":"ReentrancyGuardReentrantCall","type":"error"},{"inputs":[{"internalType":"address","name":"token","type":"address"}],"name":"SafeERC20FailedOperation","type":"error"},{"anonymous":false,"inputs":[{"indexed":true,"internalType":"address","name":"newOracle","type":"address"}],"name":"ComplianceOracleUpdated","type":"event"},{"anonymous":false,"inputs":[{"indexed":true,"internalType":"address","name":"token","type":"address"},{"indexed":true,"internalType":"address","name":"to","type":"address"},{"indexed":false,"internalType":"uint256","name":"amount","type":"uint256"}],"name":"EmergencyWithdrawal","type":"event"},{"anonymous":false,"inputs":[{"indexed":true,"internalType":"address","name":"investor","type":"address"},{"indexed":true,"internalType":"address","name":"token","type":"address"},{"indexed":false,"internalType":"uint256","name":"amount","type":"uint256"}],"name":"FundsDeposited","type":"event"},{"anonymous":false,"inputs":[{"indexed":true,"internalType":"address","name":"investor","type":"address"},{"indexed":true,"internalType":"address","name":"token","type":"address"},{"indexed":false,"internalType":"uint256","name":"amount","type":"uint256"}],"name":"FundsWithdrawn","type":"event"},{"anonymous":false,"inputs":[{"indexed":true,"internalType":"uint256","name":"investmentId","type":"uint256"},{"indexed":false,"internalType":"address","name":"protocol","type":"address"},{"indexed":false,"internalType":"uint256","name":"amount","type":"uint256"}],"name":"InvestmentExecuted","type":"event"},{"anonymous":false,"inputs":[{"indexed":true,"internalType":"address","name":"protocol","type":"address"},{"indexed":true,"internalType":"address","name":"token","type":"address"},{"indexed":false,"internalType":"uint256","name":"amount","type":"uint256"}],"name":"InvestmentMade","type":"event"},{"anonymous":false,"inputs":[{"indexed":true,"internalType":"address","name":"protocol","type":"address"},{"indexed":true,"internalType":"address","name":"token","type":"address"},{"indexed":false,"internalType":"uint256","name":"amount","type":"uint256"}],"name":"InvestmentWithdrawn","type":"event"},{"anonymous":false,"inputs":[{"indexed":true,"internalType":"address","name":"investor","type":"address"},{"indexed":false,"internalType":"uint256","name":"kycLevel","type":"uint256"},{"indexed":false,"internalType":"string","name":"jurisdiction","type":"string"}],"name":"InvestorAuthorized","type":"event"},{"anonymous":false,"inputs":[{"indexed":true,"internalType":"address","name":"investor","type":"address"},{"indexed":false,"internalType":"string","name":"reason","type":"string"}],"name":"InvestorRevoked","type":"event"},{"anonymous":false,"inputs":[{"indexed":true,"internalType":"address","name":"previousOwner","type":"address"},{"indexed":true,"internalType":"address","name":"newOwner","type":"address"}],"name":"OwnershipTransferred","type":"event"},{"anonymous":false,"inputs":[{"indexed":true,"internalType":"uint256","name":"proposalId","type":"uint256"},{"indexed":false,"internalType":"enum InstitutionalTreasury.InvestmentType","name":"investmentType","type":"uint8"},{"indexed":false,"internalType":"uint256","name":"amount","type":"uint256"}],"name":"ProposalCreated","type":"event"},{"anonymous":false,"inputs":[{"indexed":true,"internalType":"address","name":"protocol","type":"address"},{"indexed":false,"internalType":"string","name":"name","type":"string"}],"name":"ProtocolApproved","type":"event"},{"anonymous":false,"inputs":[{"indexed":true,"internalType":"address","name":"protocol","type":"address"},{"indexed":false,"internalType":"string","name":"name","type":"string"}],"name":"ProtocolWhitelisted","type":"event"},{"anonymous":false,"inputs":[{"indexed":false,"internalType":"enum InstitutionalTreasury.RiskTier","name":"tier","type":"uint8"},{"indexed":false,"internalType":"uint256","name":"newLimit","type":"uint256"}],"name":"RiskLimitUpdated","type":"event"},{"anonymous":false,"inputs":[{"indexed":true,"internalType":"address","name":"token","type":"address"},{"indexed":false,"internalType":"uint256","name":"withdrawalLimit","type":"uint256"}],"name":"TokenWhitelisted","type":"event"},{"inputs":[{"internalType":"uint256","name":"proposalId","type":"uint256"}],"name":"approveProposal","outputs":[],"stateMutability":"nonpayable","type":"function"},{"inputs":[{"internalType":"address","name":"protocol","type":"address"},{"internalType":"string","name":"name","type":"string"}],"name":"approveProtocol","outputs":[],"stateMutability":"nonpayable","type":"function"},{"inputs":[{"internalType":"address","name":"","type":"address"}],"name":"approvedProtocols","outputs":[{"internalType":"bool","name":"","type":"bool"}],"stateMutability":"view","type":"function"},{"inputs":[{"internalType":"address","name":"investor","type":"address"},{"internalType":"uint256","name":"kycLevel","type":"uint256"},{"internalType":"string","name":"jurisdiction","type":"string"}],"name":"authorizeInvestor","outputs":[],"stateMutability":"nonpayable","type":"function"},{"inputs":[{"internalType":"address","name":"manager","type":"address"}],"name":"authorizeManager","outputs":[],"stateMutability":"nonpayable","type":"function"},{"inputs":[{"internalType":"address","name":"","type":"address"}],"name":"authorizedManagers","outputs":[{"internalType":"bool","name":"","type":"bool"}],"stateMutability":"view","type":"function"},{"inputs":[],"name":"calculatePortfolioRisk","outputs":[{"internalType":"uint256","name":"totalRisk","type":"uint256"},{"internalType":"uint256[]","name":"riskBreakdown","type":"uint256[]"}],"stateMutability":"view","type":"function"},{"inputs":[{"internalType":"address","name":"investor","type":"address"},{"internalType":"address","name":"token","type":"address"},{"internalType":"uint256","name":"amount","type":"uint256"},{"internalType":"string","name":"operation","type":"string"}],"name":"checkCompliance","outputs":[{"internalType":"bool","name":"","type":"bool"}],"stateMutability":"view","type":"function"},{"inputs":[],"name":"complianceOracle","outputs":[{"internalType":"contract IRegulatoryOracle","name":"","type":"address"}],"stateMutability":"view","type":"function"},{"inputs":[{"internalType":"enum InstitutionalTreasury.InvestmentType","name":"investmentType","type":"uint8"},{"internalType":"address","name":"protocol","type":"address"},{"internalType":"uint256","name":"amount","type":"uint256"},{"internalType":"enum InstitutionalTreasury.RiskTier","name":"riskTier","type":"uint8"},{"internalType":"uint256","name":"expectedYield","type":"uint256"},{"internalType":"string","name":"riskAssessment","type":"string"}],"name":"createProposal","outputs":[{"internalType":"uint256","name":"","type":"uint256"}],"stateMutability":"nonpayable","type":"function"},{"inputs":[{"internalType":"address","name":"token","type":"address"},{"internalType":"uint256","name":"amount","type":"uint256"}],"name":"deposit","outputs":[],"stateMutability":"nonpayable","type":"function"},{"inputs":[{"internalType":"address","name":"token","type":"address"},{"internalType":"address","name":"to","type":"address"},{"internalType":"uint256","name":"amount","type":"uint256"}],"name":"emergencyTokenWithdraw","outputs":[],"stateMutability":"nonpayable","type":"function"},{"inputs":[{"internalType":"uint256","name":"investmentId","type":"uint256"},{"internalType":"string","name":"reason","type":"string"}],"name":"emergencyWithdraw","outputs":[],"stateMutability":"nonpayable","type":"function"},{"inputs":[{"internalType":"uint256","name":"proposalId","type":"uint256"}],"name":"executeInvestment","outputs":[{"internalType":"uint256","name":"","type":"uint256"}],"stateMutability":"nonpayable","type":"function"},{"inputs":[{"internalType":"uint256","name":"startTimestamp","type":"uint256"},{"internalType":"uint256","name":"endTimestamp","type":"uint256"}],"name":"generateYieldReport","outputs":[{"internalType":"uint256","name":"totalYield","type":"uint256"},{"internalType":"uint256","name":"realizedGains","type":"uint256"},{"internalType":"uint256","name":"unrealizedGains","type":"uint256"},{"internalType":"uint256","name":"fees","type":"uint256"}],"stateMutability":"view","type":"function"},{"inputs":[{"internalType":"uint256","name":"investmentId","type":"uint256"}],"name":"getInvestment","outputs":[{"components":[{"internalType":"uint256","name":"investmentId","type":"uint256"},{"internalType":"enum InstitutionalTreasury.InvestmentType","name":"investmentType","type":"uint8"},{"internalType":"address","name":"protocol","type":"address"},{"internalType":"uint256","name":"amount","type":"uint256"},{"internalType":"enum InstitutionalTreasury.RiskTier","name":"riskTier","type":"uint8"},{"internalType":"uint256","name":"expectedYield","type":"uint256"},{"internalType":"uint256","name":"actualYield","type":"uint256"},{"internalType":"uint256","name":"startTime","type":"uint256"},{"internalType":"uint256","name":"endTime","type":"uint256"},{"internalType":"bool","name":"isActive","type":"bool"},{"internalType":"bool","name":"complianceApproved","type":"bool"}],"internalType":"struct InstitutionalTreasury.Investment","name":"","type":"tuple"}],"stateMutability":"view","type":"function"},{"inputs":[{"internalType":"address","name":"investor","type":"address"}],"name":"getInvestorInfo","outputs":[{"internalType":"bool","name":"authorized","type":"bool"},{"internalType":"bool","name":"isActive","type":"bool"},{"internalType":"uint256","name":"kycLevel","type":"uint256"},{"internalType":"string","name":"jurisdiction","type":"string"},{"internalType":"uint256","name":"investorTotalInvested","type":"uint256"},{"internalType":"uint256","name":"totalWithdrawn","type":"uint256"}],"stateMutability":"view","type":"function"},{"inputs":[{"internalType":"address","name":"manager","type":"address"}],"name":"getManagerProposals","outputs":[{"internalType":"uint256[]","name":"","type":"uint256[]"}],"stateMutability":"view","type":"function"},{"inputs":[{"internalType":"uint256","name":"proposalId","type":"uint256"}],"name":"getProposal","outputs":[{"components":[{"internalType":"uint256","name":"proposalId","type":"uint256"},{"internalType":"enum InstitutionalTreasury.InvestmentType","name":"investmentType","type":"uint8"},{"internalType":"address","name":"protocol","type":"address"},{"internalType":"uint256","name":"amount","type":"uint256"},{"internalType":"enum InstitutionalTreasury.RiskTier","name":"riskTier","type":"uint8"},{"internalType":"uint256","name":"expectedYield","type":"uint256"},{"internalType":"address","name":"proposer","type":"address"},{"internalType":"enum InstitutionalTreasury.ProposalStatus","name":"status","type":"uint8"},{"internalType":"uint256","name":"createdAt","type":"uint256"},{"internalType":"string","name":"riskAssessment","type":"string"},{"internalType":"bool","name":"requiresBoard","type":"bool"}],"internalType":"struct InstitutionalTreasury.InvestmentProposal","name":"","type":"tuple"}],"stateMutability":"view","type":"function"},{"inputs":[{"internalType":"address","name":"protocol","type":"address"},{"internalType":"address","name":"token","type":"address"}],"name":"getProtocolInvestment","outputs":[{"internalType":"uint256","name":"","type":"uint256"}],"stateMutability":"view","type":"function"},{"inputs":[{"internalType":"address","name":"token","type":"address"}],"name":"getTokenBalance","outputs":[{"internalType":"uint256","name":"","type":"uint256"}],"stateMutability":"view","type":"function"},{"inputs":[],"name":"getTreasuryStats","outputs":[{"internalType":"uint256","name":"totalValue","type":"uint256"},{"internalType":"uint256","name":"totalInvestedAmount","type":"uint256"},{"internalType":"uint256","name":"numberOfInvestors","type":"uint256"}],"stateMutability":"view","type":"function"},{"inputs":[{"internalType":"address","name":"protocol","type":"address"},{"internalType":"address","name":"token","type":"address"},{"internalType":"uint256","name":"amount","type":"uint256"},{"internalType":"bytes","name":"data","type":"bytes"}],"name":"investInProtocol","outputs":[],"stateMutability":"nonpayable","type":"function"},{"inputs":[{"internalType":"uint256","name":"","type":"uint256"}],"name":"investmentToProposal","outputs":[{"internalType":"uint256","name":"","type":"uint256"}],"stateMutability":"view","type":"function"},{"inputs":[{"internalType":"uint256","name":"","type":"uint256"}],"name":"investments","outputs":[{"internalType":"uint256","name":"investmentId","type":"uint256"},{"internalType":"enum InstitutionalTreasury.InvestmentType","name":"investmentType","type":"uint8"},{"internalType":"address","name":"protocol","type":"address"},{"internalType":"uint256","name":"amount","type":"uint256"},{"internalType":"enum InstitutionalTreasury.RiskTier","name":"riskTier","type":"uint8"},{"internalType":"uint256","name":"expectedYield","type":"uint256"},{"internalType":"uint256","name":"actualYield","type":"uint256"},{"internalType":"uint256","name":"startTime","type":"uint256"},{"internalType":"uint256","name":"endTime","type":"uint256"},{"internalType":"bool","name":"isActive","type":"bool"},{"internalType":"bool","name":"complianceApproved","type":"bool"}],"stateMutability":"view","type":"function"},{"inputs":[{"internalType":"address","name":"","type":"address"}],"name":"investors","outputs":[{"internalType":"bool","name":"authorized","type":"bool"},{"internalType":"bool","name":"isActive","type":"bool"},{"internalType":"uint256","name":"kycLevel","type":"uint256"},{"internalType":"string","name":"jurisdiction","type":"string"},{"internalType":"uint256","name":"totalInvested","type":"uint256"},{"internalType":"uint256","name":"totalWithdrawn","type":"uint256"},{"internalType":"uint256","name":"lastActivity","type":"uint256"}],"stateMutability":"view","type":"function"},{"inputs":[{"internalType":"address","name":"","type":"address"},{"internalType":"uint256","name":"","type":"uint256"}],"name":"managerProposals","outputs":[{"internalType":"uint256","name":"","type":"uint256"}],"stateMutability":"view","type":"function"},{"inputs":[],"name":"owner","outputs":[{"internalType":"address","name":"","type":"address"}],"stateMutability":"view","type":"function"},{"inputs":[{"internalType":"uint256","name":"","type":"uint256"}],"name":"proposals","outputs":[{"internalType":"uint256","name":"proposalId","type":"uint256"},{"internalType":"enum InstitutionalTreasury.InvestmentType","name":"investmentType","type":"uint8"},{"internalType":"address","name":"protocol","type":"address"},{"internalType":"uint256","name":"amount","type":"uint256"},{"internalType":"enum InstitutionalTreasury.RiskTier","name":"riskTier","type":"uint8"},{"internalType":"uint256","name":"expectedYield","type":"uint256"},{"internalType":"address","name":"proposer","type":"address"},{"internalType":"enum InstitutionalTreasury.ProposalStatus","name":"status","type":"uint8"},{"internalType":"uint256","name":"createdAt","type":"uint256"},{"internalType":"string","name":"riskAssessment","type":"string"},{"internalType":"bool","name":"requiresBoard","type":"bool"}],"stateMutability":"view","type":"function"},{"inputs":[{"internalType":"address","name":"","type":"address"}],"name":"protocolAllocations","outputs":[{"internalType":"uint256","name":"","type":"uint256"}],"stateMutability":"view","type":"function"},{"inputs":[{"internalType":"address","name":"","type":"address"},{"internalType":"address","name":"","type":"address"}],"name":"protocolInvestments","outputs":[{"internalType":"uint256","name":"","type":"uint256"}],"stateMutability":"view","type":"function"},{"inputs":[{"internalType":"address","name":"","type":"address"}],"name":"protocolNames","outputs":[{"internalType":"string","name":"","type":"string"}],"stateMutability":"view","type":"function"},{"inputs":[{"internalType":"address","name":"","type":"address"}],"name":"protocolRiskScores","outputs":[{"internalType":"uint256","name":"","type":"uint256"}],"stateMutability":"view","type":"function"},{"inputs":[],"name":"renounceOwnership","outputs":[],"stateMutability":"nonpayable","type":"function"},{"inputs":[{"internalType":"address","name":"investor","type":"address"},{"internalType":"string","name":"reason","type":"string"}],"name":"revokeInvestor","outputs":[],"stateMutability":"nonpayable","type":"function"},{"inputs":[{"internalType":"address","name":"manager","type":"address"}],"name":"revokeManager","outputs":[],"stateMutability":"nonpayable","type":"function"},{"inputs":[{"internalType":"enum InstitutionalTreasury.RiskTier","name":"","type":"uint8"}],"name":"riskLimits","outputs":[{"internalType":"uint256","name":"","type":"uint256"}],"stateMutability":"view","type":"function"},{"inputs":[{"internalType":"address","name":"newOracle","type":"address"}],"name":"setComplianceOracle","outputs":[],"stateMutability":"nonpayable","type":"function"},{"inputs":[{"internalType":"address","name":"protocol","type":"address"},{"internalType":"uint256","name":"riskScore","type":"uint256"}],"name":"setProtocolRiskScore","outputs":[],"stateMutability":"nonpayable","type":"function"},{"inputs":[{"internalType":"enum InstitutionalTreasury.RiskTier","name":"tier","type":"uint8"},{"internalType":"uint256","name":"limit","type":"uint256"}],"name":"setRiskLimit","outputs":[],"stateMutability":"nonpayable","type":"function"},{"inputs":[{"internalType":"address","name":"","type":"address"}],"name":"tokenBalances","outputs":[{"internalType":"uint256","name":"","type":"uint256"}],"stateMutability":"view","type":"function"},{"inputs":[],"name":"totalInvested","outputs":[{"internalType":"uint256","name":"","type":"uint256"}],"stateMutability":"view","type":"function"},{"inputs":[{"internalType":"address","name":"newOwner","type":"address"}],"name":"transferOwnership","outputs":[],"stateMutability":"nonpayable","type":"function"},{"inputs":[{"internalType":"address","name":"protocol","type":"address"},{"internalType":"string","name":"name","type":"string"}],"name":"whitelistProtocol","outputs":[],"stateMutability":"nonpayable","type":"function"},{"inputs":[{"internalType":"address","name":"token","type":"address"},{"internalType":"uint256","name":"withdrawalLimit","type":"uint256"}],"name":"whitelistToken","outputs":[],"stateMutability":"nonpayable","type":"function"},{"inputs":[{"internalType":"address","name":"","type":"address"}],"name":"whitelistedProtocols","outputs":[{"internalType":"bool","name":"","type":"bool"}],"stateMutability":"view","type":"function"},{"inputs":[{"internalType":"address","name":"","type":"address"}],"name":"whitelistedTokens","outputs":[{"internalType":"bool","name":"","type":"bool"}],"stateMutability":"view","type":"function"},{"inputs":[{"internalType":"address","name":"token","type":"address"},{"internalType":"uint256","name":"amount","type":"uint256"}],"name":"withdraw","outputs":[],"stateMutability":"nonpayable","type":"function"},{"inputs":[{"internalType":"address","name":"protocol","type":"address"},{"internalType":"address","name":"token","type":"address"},{"internalType":"uint256","name":"amount","type":"uint256"},{"internalType":"bytes","name":"data","type":"bytes"}],"name":"withdrawFromProtocol","outputs":[],"stateMutability":"nonpayable","type":"function"},{"inputs":[{"internalType":"address","name":"","type":"address"}],"name":"withdrawalLimits","outputs":[{"internalType":"uint256","name":"","type":"uint256"}],"stateMutability":"view","type":"function"}],"evm":{"bytecode":{"linkReferences":{},"object":"60806040523480156200001157600080fd5b50604051620047b0380380620047b08339810160408190526200003491620000d5565b806001600160a01b0381166200006457604051631e4fbdf760e01b81526000600482015260240160405180910390fd5b6200006f8162000085565b5050600180556000600281905560035562000107565b600080546001600160a01b038381166001600160a01b0319831681178455604051919092169283917f8be0079c531659141344cd1fd0a4f28419497f9722a3daafe3b4186f6b6457e09190a35050565b600060208284031215620000e857600080fd5b81516001600160a01b03811681146200010057600080fd5b9392505050565b61469980620001176000396000f3fe608060405234801561001057600080fd5b50600436106102d65760003560e01c80638da5cb5b11610182578063c8692e3f116100e9578063e0959a59116100a2578063f3fef3a31161007c578063f3fef3a3146107cb578063fbee5b85146107de578063fd345c8a146107f1578063fef860b81461087657600080fd5b8063e0959a5914610778578063f08ab47214610798578063f2fde38b146107b857600080fd5b8063c8692e3f146106d1578063c895a942146106f1578063d6e2cf1914610704578063d777e4251461072f578063daf9c21014610742578063dc9e81f31461076557600080fd5b8063a5e5d1c91161013b578063a5e5d1c914610615578063a8c2267514610648578063ade0d01d1461066b578063c470d7a01461067e578063c4e16b7d1461069e578063c7f758a8146106b157600080fd5b80638da5cb5b1461058b57806393e36b251461059c57806398951b56146105af5780639cf110e2146105c2578063a0f24fb1146105d5578063a19cc5f2146105f557600080fd5b80633cbb4668116102415780635cde857d116101fa5780636bef2289116101d45780636bef2289146105275780636f7bc9be1461053a578063715018a61461056057806384361c071461056857600080fd5b80635cde857d146104e1578063687dda081461050157806369d9479c1461051457600080fd5b80633cbb466814610454578063410239bf1461046757806347e7ef24146104925780635216aeec146104a5578063523fba7f146104ae5780635bfcdf68146104ce57600080fd5b80631fc6dbff116102935780631fc6dbff146103b157806322ae634f146103c4578063267c8507146103e457806333ee4628146103f7578063377e32e61461040a5780633aecd0e31461041d57600080fd5b8063013cf08b146102db5780630707873c1461030e578063092807c0146103335780630a3cb21b146103485780631131bd601461037b5780631ca55e701461039b575b600080fd5b6102ee6102e936600461398f565b610889565b6040516103059b9a99989796959493929190613a31565b60405180910390f35b61032161031c366004613ad7565b61097f565b60405161030596959493929190613af9565b610346610341366004613b37565b610ac4565b005b61036b610356366004613ad7565b60116020526000908152604090205460ff1681565b6040519015158152602001610305565b61038e610389366004613ad7565b610da0565b6040516103059190613c0d565b6103a3610e0c565b604051610305929190613c20565b6103466103bf366004613c39565b610fff565b6103d76103d236600461398f565b6110fa565b6040516103059190613c63565b6103466103f2366004613ad7565b611247565b610346610405366004613dac565b6112c9565b610346610418366004613ad7565b6113cf565b61044661042b366004613ad7565b6001600160a01b031660009081526004602052604090205490565b604051908152602001610305565b610346610462366004613dfa565b6113f8565b600a5461047a906001600160a01b031681565b6040516001600160a01b039091168152602001610305565b6103466104a0366004613c39565b61155c565b610446600b5481565b6104466104bc366004613ad7565b60046020526000908152604090205481565b6103466104dc366004613dac565b611774565b6104466104ef366004613ad7565b600f6020526000908152604090205481565b61034661050f366004613b37565b6118a0565b61044661052236600461398f565b611bbf565b610446610535366004613e3a565b6120e2565b61054d610548366004613ad7565b612544565b6040516103059796959493929190613ec1565b61034661260d565b61036b610576366004613ad7565b60076020526000908152604090205460ff1681565b6000546001600160a01b031661047a565b61036b6105aa366004613f09565b612621565b6103466105bd36600461398f565b6126e9565b6103466105d0366004613dac565b612922565b6105e86105e3366004613ad7565b6129eb565b6040516103059190613f71565b610446610603366004613ad7565b60136020526000908152604090205481565b610628610623366004613f84565b612a85565b604080519485526020850193909352918301526060820152608001610305565b61036b610656366004613ad7565b600e6020526000908152604090205460ff1681565b610346610679366004613fa6565b612cba565b61044661068c36600461398f565b60146020526000908152604090205481565b6103466106ac366004613c39565b612eb1565b6106c46106bf36600461398f565b612f97565b6040516103059190613ffd565b600b54604080518281526020810192909252600090820152606001610305565b6104466106ff3660046140c8565b61319b565b6104466107123660046140c8565b600860209081526000928352604080842090915290825290205481565b61034661073d366004613ad7565b6131c8565b61036b610750366004613ad7565b60056020526000908152604090205460ff1681565b610446610773366004613c39565b613269565b610446610786366004613ad7565b60066020526000908152604090205481565b6104466107a63660046140fb565b60106020526000908152604090205481565b6103466107c6366004613ad7565b61329a565b6103466107d9366004613c39565b6132d8565b6103466107ec366004614116565b6135a1565b61085f6107ff36600461398f565b600c60205260009081526040902080546001820154600283015460038401546004850154600586015460068701546007880154600890980154969760ff808816986001600160a01b03610100998a9004169896821696818316929104168b565b6040516103059b9a99989796959493929190614132565b6103466108843660046141a8565b613669565b600d6020526000908152604090208054600182015460028301546003840154600485015460058601546006870154600788018054979860ff808916996001600160a01b03610100909a048a169997821697861695600160a01b90049091169392906108f3906141e4565b80601f016020809104026020016040519081016040528092919081815260200182805461091f906141e4565b801561096c5780601f106109415761010080835404028352916020019161096c565b820191906000526020600020905b81548152906001019060200180831161094f57829003601f168201915b5050506008909301549192505060ff168b565b6001600160a01b0381166000908152600960209081526040808320815160e081018352815460ff8082161515835261010090910416151593810193909352600181015491830191909152600281018054849384936060938593849384939092909183880191906109ee906141e4565b80601f0160208091040260200160405190810160405280929190818152602001828054610a1a906141e4565b8015610a675780601f10610a3c57610100808354040283529160200191610a67565b820191906000526020600020905b815481529060010190602001808311610a4a57829003601f168201915b5050505050815260200160038201548152602001600482015481526020016005820154815250509050806000015181602001518260400151836060015184608001518560a001519650965096509650965096505091939550919395565b610acc6137d9565b610ad4613806565b6001600160a01b038516610b035760405162461bcd60e51b8152600401610afa9061421e565b60405180910390fd5b6001600160a01b038416610b295760405162461bcd60e51b8152600401610afa90614255565b60008311610b495760405162461bcd60e51b8152600401610afa90614284565b6001600160a01b03851660009081526007602052604090205460ff16610bac5760405162461bcd60e51b8152602060048201526018602482015277141c9bdd1bd8dbdb081b9bdd081dda1a5d195b1a5cdd195960421b6044820152606401610afa565b6001600160a01b03808616600090815260086020908152604080832093881683529290522054831115610c215760405162461bcd60e51b815260206004820152601760248201527f496e73756666696369656e7420696e766573746d656e740000000000000000006044820152606401610afa565b6001600160a01b03808616600090815260086020908152604080832093881683529290529081208054859290610c589084906142cf565b90915550508015610d14576000856001600160a01b03168383604051610c7f9291906142e2565b6000604051808303816000865af19150503d8060008114610cbc576040519150601f19603f3d011682016040523d82523d6000602084013e610cc1565b606091505b5050905080610d125760405162461bcd60e51b815260206004820152601a60248201527f50726f746f636f6c207769746864726177616c206661696c65640000000000006044820152606401610afa565b505b6001600160a01b03841660009081526004602052604081208054859290610d3c9084906142f2565b92505081905550836001600160a01b0316856001600160a01b03167f501556786c1d2fd567ef1688c69826c95d16dfb216c158eb0e72f297331304dc85604051610d8891815260200190565b60405180910390a3610d9960018055565b5050505050565b6001600160a01b038116600090815260156020908152604091829020805483518184028101840190945280845260609392830182828015610e0057602002820191906000526020600020905b815481526020019060010190808311610dec575b50505050509050919050565b60408051600480825260a082019092526000916060918391602082016080803683375050600b54919250506000819003610e4b57506000939092509050565b600060015b6002548111610ff4576000818152600c602052604090206008015460ff1615610fe2576000818152600c60205260408120600201548490610e92906064614305565b610e9c919061431c565b90506000806000848152600c6020526040902060039081015460ff1690811115610ec857610ec86139a8565b03610f0157601490508186600081518110610ee557610ee561433e565b60200260200101818151610ef991906142f2565b905250610fbd565b60016000848152600c6020526040902060039081015460ff1690811115610f2a57610f2a6139a8565b03610f4757602890508186600181518110610ee557610ee561433e565b60026000848152600c6020526040902060039081015460ff1690811115610f7057610f706139a8565b03610f8d57604690508186600281518110610ee557610ee561433e565b605a90508186600381518110610fa557610fa561433e565b60200260200101818151610fb991906142f2565b9052505b6064610fc98383614305565b610fd3919061431c565b610fdd90856142f2565b935050505b80610fec81614354565b915050610e50565b509491935090915050565b6110076137d9565b6001600160a01b03821661102d5760405162461bcd60e51b8152600401610afa9061421e565b6001600160a01b0382166000908152600e602052604090205460ff1661108d5760405162461bcd60e51b8152602060048201526015602482015274141c9bdd1bd8dbdb081b9bdd08185c1c1c9bdd9959605a1b6044820152606401610afa565b60648111156110de5760405162461bcd60e51b815260206004820152601c60248201527f5269736b2073636f72652063616e6e6f742065786365656420313030000000006044820152606401610afa565b6001600160a01b03909116600090815260136020526040902055565b6040805161016081018252600080825260208201819052918101829052606081018290526080810182905260a0810182905260c0810182905260e08101829052610100810182905261012081018290526101408101919091526000828152600c602090815260409182902082516101608101909352805483526001810154909183019060ff166004811115611191576111916139a8565b60048111156111a2576111a26139a8565b8152600182015461010090046001600160a01b031660208201526002820154604082015260038083015460609092019160ff16908111156111e5576111e56139a8565b60038111156111f6576111f66139a8565b81526004820154602082015260058201546040820152600682015460608201526007820154608082015260089091015460ff808216151560a084015261010090910416151560c09091015292915050565b61124f6137d9565b6001600160a01b0381166112a55760405162461bcd60e51b815260206004820152601760248201527f496e76616c6964206d616e6167657220616464726573730000000000000000006044820152606401610afa565b6001600160a01b03166000908152601160205260409020805460ff19166001179055565b6112d16137d9565b6001600160a01b0382166112f75760405162461bcd60e51b8152600401610afa9061421e565b600081511161133f5760405162461bcd60e51b81526020600482015260146024820152734e616d652063616e6e6f7420626520656d70747960601b6044820152606401610afa565b6001600160a01b0382166000908152600e60209081526040808320805460ff191660011790556012909152902061137682826143bb565b506001600160a01b0382166000818152601360205260409081902060329055517ffd19732d9df8f811ae6e9119c35d8ef4965a50d8c3c31993cf463f860208b980906113c3908490613f71565b60405180910390a25050565b6113d76137d9565b6001600160a01b03166000908152601160205260409020805460ff19169055565b6114006137d9565b6000828152600c6020526040812054900361145d5760405162461bcd60e51b815260206004820152601960248201527f496e766573746d656e7420646f6573206e6f74206578697374000000000000006044820152606401610afa565b6000828152600c602052604090206008015460ff166114b65760405162461bcd60e51b8152602060048201526015602482015274496e766573746d656e74206e6f742061637469766560581b6044820152606401610afa565b60008151116114f95760405162461bcd60e51b815260206004820152600f60248201526e1499585cdbdb881c995c5d5a5c9959608a1b6044820152606401610afa565b6000828152600c6020908152604080832060088101805460ff19169055426007820155600281015460019091015461010090046001600160a01b0316808552600f9093529083208054919384926115519084906142cf565b909155505050505050565b6001600160a01b0382166115825760405162461bcd60e51b8152600401610afa90614255565b600081116115a25760405162461bcd60e51b8152600401610afa90614284565b6001600160a01b03821660009081526005602052604090205460ff166115da5760405162461bcd60e51b8152600401610afa9061447b565b3360009081526009602052604090205460ff166116095760405162461bcd60e51b8152600401610afa906144aa565b33600090815260096020526040902054610100900460ff166116695760405162461bcd60e51b8152602060048201526019602482015278496e766573746f72206163636f756e7420696e61637469766560381b6044820152606401610afa565b6116943383836040518060400160405280600781526020016611115413d4d25560ca1b815250612621565b6116b05760405162461bcd60e51b8152600401610afa906144e1565b6001600160a01b038216600090815260046020526040812080548392906116d89084906142f2565b909155505033600090815260096020526040812060030180548392906116ff9084906142f2565b909155505033600081815260096020526040902042600590910155611730906001600160a01b038416903084613830565b6040518181526001600160a01b0383169033907ff0d0e99cae184d0187b093b48894117462462379674a6e11d89c3fbb618e96b09060200160405180910390a35050565b61177c6137d9565b6001600160a01b0382166117cd5760405162461bcd60e51b8152602060048201526018602482015277496e76616c696420696e766573746f72206164647265737360401b6044820152606401610afa565b6001600160a01b03821660009081526009602052604090205460ff166118055760405162461bcd60e51b8152600401610afa906144aa565b600081511161184f5760405162461bcd60e51b8152602060048201526016602482015275526561736f6e2063616e6e6f7420626520656d70747960501b6044820152606401610afa565b6001600160a01b03821660008181526009602052604090819020805461ffff19169055517f410da6c1cea5cbe0ccf5771ac0e8d6101d870cb84fe2847c49d7a40e18d348fd906113c3908490613f71565b6118a86137d9565b6118b0613806565b6001600160a01b0385166118d65760405162461bcd60e51b8152600401610afa9061421e565b6001600160a01b0384166118fc5760405162461bcd60e51b8152600401610afa90614255565b6000831161191c5760405162461bcd60e51b8152600401610afa90614284565b6001600160a01b03851660009081526007602052604090205460ff1661197f5760405162461bcd60e51b8152602060048201526018602482015277141c9bdd1bd8dbdb081b9bdd081dda1a5d195b1a5cdd195960421b6044820152606401610afa565b6001600160a01b03841660009081526005602052604090205460ff166119b75760405162461bcd60e51b8152600401610afa9061447b565b6001600160a01b0384166000908152600460205260409020548311156119ef5760405162461bcd60e51b8152600401610afa90614518565b611a19308585604051806040016040528060068152602001651253959154d560d21b815250612621565b611a355760405162461bcd60e51b8152600401610afa906144e1565b6001600160a01b03808616600090815260086020908152604080832093881683529290529081208054859290611a6c9084906142f2565b90915550506001600160a01b03841660009081526004602052604081208054859290611a999084906142cf565b9250508190555082600b6000828254611ab291906142f2565b90915550611acc90506001600160a01b038516868561389d565b8015611b7a576000856001600160a01b03168383604051611aee9291906142e2565b6000604051808303816000865af19150503d8060008114611b2b576040519150601f19603f3d011682016040523d82523d6000602084013e611b30565b606091505b5050905080611b785760405162461bcd60e51b8152602060048201526014602482015273141c9bdd1bd8dbdb0818d85b1b0819985a5b195960621b6044820152606401610afa565b505b836001600160a01b0316856001600160a01b03167fb826c83e0c6778bf4e6accf36f92992ce435eb7ea7e4b214fdd77cc46e418baa85604051610d8891815260200190565b6000611bc96137d9565b611bd1613806565b6000828152600d60205260408120549003611c285760405162461bcd60e51b8152602060048201526017602482015276141c9bdc1bdcd85b08191bd95cc81b9bdd08195e1a5cdd604a1b6044820152606401610afa565b60016000838152600d6020526040902060050154600160a01b900460ff166004811115611c5757611c576139a8565b14611c9c5760405162461bcd60e51b8152602060048201526015602482015274141c9bdc1bdcd85b081b9bdd08185c1c1c9bdd9959605a1b6044820152606401610afa565b6000828152600d6020908152604080832081516101608101909252805482526001810154919290919083019060ff166004811115611cdc57611cdc6139a8565b6004811115611ced57611ced6139a8565b8152600182015461010090046001600160a01b031660208201526002820154604082015260038083015460609092019160ff1690811115611d3057611d306139a8565b6003811115611d4157611d416139a8565b8152600482810154602083015260058301546001600160a01b0381166040840152606090920191600160a01b900460ff1690811115611d8257611d826139a8565b6004811115611d9357611d936139a8565b815260200160068201548152602001600782018054611db1906141e4565b80601f0160208091040260200160405190810160405280929190818152602001828054611ddd906141e4565b8015611e2a5780601f10611dff57610100808354040283529160200191611e2a565b820191906000526020600020905b815481529060010190602001808311611e0d57829003601f168201915b50505091835250506008919091015460ff161515602090910152600280549192506000611e5683614354565b91905055506000600254905060405180610160016040528082815260200183602001516004811115611e8a57611e8a6139a8565b815260200183604001516001600160a01b031681526020018360600151815260200183608001516003811115611ec257611ec26139a8565b815260a0808501516020808401919091526000604080850182905242606086015260808501829052600193850184905260c0909401839052858152600c825292909220835181559183015182820180549192909160ff191690836004811115611f2d57611f2d6139a8565b021790555060408201518160010160016101000a8154816001600160a01b0302191690836001600160a01b031602179055506060820151816002015560808201518160030160006101000a81548160ff02191690836003811115611f9357611f936139a8565b021790555060a0820151600482015560c082015160058083019190915560e08301516006830155610100808401516007840155610120840151600890930180546101409095015161ffff1990951693151561ff00191693909317931515029290921790556000858152600d602052604090200180546003919060ff60a01b1916600160a01b83021790555060608201516040808401516001600160a01b03166000908152600f602052908120805490919061204f9084906142f2565b90915550506060820151600b805460009061206b9084906142f2565b909155505060008181526014602090815260409182902086905583820151606085015183516001600160a01b0390921682529181019190915282917f35dd29c496d368ffa400a4635c4e88793bdc538d9a23754d66aad0e25534c70d910160405180910390a29150506120dd60018055565b919050565b3360009081526011602052604081205460ff168061210a57506000546001600160a01b031633145b6121615760405162461bcd60e51b815260206004820152602260248201527f4e6f7420617574686f72697a656420746f206372656174652070726f706f73616044820152616c7360f01b6064820152608401610afa565b6001600160a01b0386166121875760405162461bcd60e51b8152600401610afa9061421e565b600085116121a75760405162461bcd60e51b8152600401610afa90614284565b6001600160a01b0386166000908152600e602052604090205460ff166122075760405162461bcd60e51b8152602060048201526015602482015274141c9bdd1bd8dbdb081b9bdd08185c1c1c9bdd9959605a1b6044820152606401610afa565b60008251116122585760405162461bcd60e51b815260206004820152601860248201527f5269736b206173736573736d656e7420726571756972656400000000000000006044820152606401610afa565b6010600085600381111561226e5761226e6139a8565b600381111561227f5761227f6139a8565b8152602001908152602001600020548511156122dd5760405162461bcd60e51b815260206004820152601960248201527f416d6f756e742065786365656473207269736b206c696d6974000000000000006044820152606401610afa565b600380549060006122ed83614354565b90915550506003546040805161016081019091528181526020810189600481111561231a5761231a6139a8565b8152602001886001600160a01b03168152602001878152602001866003811115612346576123466139a8565b8152602081018690523360408201526060016000815260200142815260200184815260200164e8d4a510008811806123905750600287600381111561238d5761238d6139a8565b10155b151590526000828152600d60209081526040909120825181559082015160018083018054909160ff19909116908360048111156123cf576123cf6139a8565b021790555060408201518160010160016101000a8154816001600160a01b0302191690836001600160a01b031602179055506060820151816002015560808201518160030160006101000a81548160ff02191690836003811115612435576124356139a8565b021790555060a082015160048083019190915560c08301516005830180546001600160a01b039092166001600160a01b031983168117825560e08601519391926001600160a81b0319161790600160a01b908490811115612498576124986139a8565b0217905550610100820151600682015561012082015160078201906124bd90826143bb565b5061014091909101516008909101805460ff1916911515919091179055336000908152601560209081526040808320805460018101825590845291909220018290555181907f28dceb9730b2c28f69e60f580eb1c4fa31aa52c182a114044aa1459fe17f3d0b90612531908b908a90614546565b60405180910390a2979650505050505050565b60096020526000908152604090208054600182015460028301805460ff8085169561010090950416939190612578906141e4565b80601f01602080910402602001604051908101604052809291908181526020018280546125a4906141e4565b80156125f15780601f106125c6576101008083540402835291602001916125f1565b820191906000526020600020905b8154815290600101906020018083116125d457829003601f168201915b5050505050908060030154908060040154908060050154905087565b6126156137d9565b61261f60006138ce565b565b600a546000906001600160a01b031661263c575060016126e1565b6000858585854260405160200161265795949392919061455d565b60408051601f1981840301815290829052600a546367a34f8360e01b83529092506001600160a01b0316906367a34f839061269c9089903090899087906004016145a2565b602060405180830381865afa1580156126b9573d6000803e3d6000fd5b505050506040513d601f19601f820116820180604052508101906126dd91906145df565b9150505b949350505050565b6126f16137d9565b6000818152600d602052604081205490036127485760405162461bcd60e51b8152602060048201526017602482015276141c9bdc1bdcd85b08191bd95cc81b9bdd08195e1a5cdd604a1b6044820152606401610afa565b600080828152600d6020526040902060050154600160a01b900460ff166004811115612776576127766139a8565b146127ba5760405162461bcd60e51b815260206004820152601460248201527350726f706f73616c206e6f742070656e64696e6760601b6044820152606401610afa565b6000818152600d60209081526040808320600181015460029091015491516127f6936001600160a01b03610100840416939260ff169101614601565b60408051601f19818403018152919052600a549091506001906001600160a01b0316156128b757600a546000848152600d602052604090819020600181015460029091015491516367a34f8360e01b81526001600160a01b03938416936367a34f83936128739330936101009091049092169188906004016145a2565b602060405180830381865afa158015612890573d6000803e3d6000fd5b505050506040513d601f19601f820116820180604052508101906128b491906145df565b90505b80156128e35750506000908152600d60205260409020600501805460ff60a01b1916600160a01b179055565b6000838152600d602052604090819020600501805460ff60a01b1916600160a11b1790555162461bcd60e51b8152610afa906004016144e1565b505050565b61292a6137d9565b6001600160a01b0382166129505760405162461bcd60e51b8152600401610afa9061421e565b60008151116129985760405162461bcd60e51b81526020600482015260146024820152734e616d652063616e6e6f7420626520656d70747960601b6044820152606401610afa565b6001600160a01b03821660008181526007602052604090819020805460ff19166001179055517f73bdf89e59edfb29506faba5617b5a05784f35f90f1652bdc33be18659eebfaf906113c3908490613f71565b60126020526000908152604090208054612a04906141e4565b80601f0160208091040260200160405190810160405280929190818152602001828054612a30906141e4565b8015612a7d5780601f10612a5257610100808354040283529160200191612a7d565b820191906000526020600020905b815481529060010190602001808311612a6057829003601f168201915b505050505081565b600080600080858511612ada5760405162461bcd60e51b815260206004820152601760248201527f496e76616c69642074696d657374616d702072616e67650000000000000000006044820152606401610afa565b6000808060015b6002548111612c6c576000818152600c6020908152604080832081516101608101909252805482526001810154919290919083019060ff166004811115612b2a57612b2a6139a8565b6004811115612b3b57612b3b6139a8565b8152600182015461010090046001600160a01b031660208201526002820154604082015260038083015460609092019160ff1690811115612b7e57612b7e6139a8565b6003811115612b8f57612b8f6139a8565b81526004820154602082015260058201546040820152600682015460608201526007820154608082015260089091015460ff808216151560a084015261010090910416151560c09091015260e08101519091508b11801590612c10575089816101000151111580612c105750610100810151158015612c1057508061012001515b15612c595760c0810151612c2490866142f2565b945080610120015115612c475760c0810151612c4090846142f2565b9250612c59565b60c0810151612c5690856142f2565b93505b5080612c6481614354565b915050612ae1565b506000612c798a8a6142cf565b9050600063bbf81e0082600b546002612c929190614305565b612c9c9190614305565b612ca6919061431c565b949b939a5091985092965090945050505050565b612cc26137d9565b6001600160a01b038316612d135760405162461bcd60e51b8152602060048201526018602482015277496e76616c696420696e766573746f72206164647265737360401b6044820152606401610afa565b600082118015612d24575060038211155b612d645760405162461bcd60e51b8152602060048201526011602482015270125b9d985b1a590812d650c81b195d995b607a1b6044820152606401610afa565b6000815111612db55760405162461bcd60e51b815260206004820152601c60248201527f4a7572697364696374696f6e2063616e6e6f7420626520656d707479000000006044820152606401610afa565b6040805160e081018252600180825260208083018281528385018781526060850187815260006080870181905260a087018190524260c08801526001600160a01b038b16815260099094529590922084518154925161ffff1990931690151561ff001916176101009215159290920291909117815590519181019190915591519091906002820190612e4790826143bb565b506080820151816003015560a0820151816004015560c08201518160050155905050826001600160a01b03167f02aae2cb11a8581bfe1ad55ffecce1af2d43a998b73e2f3a6aec6feb4153c0258383604051612ea492919061462f565b60405180910390a2505050565b612eb96137d9565b6001600160a01b038216612edf5760405162461bcd60e51b8152600401610afa90614255565b60008111612f395760405162461bcd60e51b815260206004820152602160248201527f5769746864726177616c206c696d6974206d75737420626520706f73697469766044820152606560f81b6064820152608401610afa565b6001600160a01b0382166000818152600560209081526040808320805460ff19166001179055600682529182902084905590518381527fe184914670d9e097e90729e2a9159866b30b1203952f0586bedca1d6fcf130a891016113c3565b604080516101608101825260008082526020820181905291810182905260608082018390526080820183905260a0820183905260c0820183905260e0820183905261010082018390526101208201526101408101919091526000828152600d602090815260409182902082516101608101909352805483526001810154909183019060ff16600481111561302d5761302d6139a8565b600481111561303e5761303e6139a8565b8152600182015461010090046001600160a01b031660208201526002820154604082015260038083015460609092019160ff1690811115613081576130816139a8565b6003811115613092576130926139a8565b8152600482810154602083015260058301546001600160a01b0381166040840152606090920191600160a01b900460ff16908111156130d3576130d36139a8565b60048111156130e4576130e46139a8565b815260200160068201548152602001600782018054613102906141e4565b80601f016020809104026020016040519081016040528092919081815260200182805461312e906141e4565b801561317b5780601f106131505761010080835404028352916020019161317b565b820191906000526020600020905b81548152906001019060200180831161315e57829003601f168201915b50505091835250506008919091015460ff16151560209091015292915050565b6001600160a01b038083166000908152600860209081526040808320938516835292905220545b92915050565b6131d06137d9565b6001600160a01b03811661321f5760405162461bcd60e51b8152602060048201526016602482015275496e76616c6964206f7261636c65206164647265737360501b6044820152606401610afa565b600a80546001600160a01b0319166001600160a01b0383169081179091556040517f240019488a3687c988f12b52d1923202d7c5619914c6d60850f76dc5482f7ff390600090a250565b6015602052816000526040600020818154811061328557600080fd5b90600052602060002001600091509150505481565b6132a26137d9565b6001600160a01b0381166132cc57604051631e4fbdf760e01b815260006004820152602401610afa565b6132d5816138ce565b50565b6132e0613806565b6001600160a01b0382166133065760405162461bcd60e51b8152600401610afa90614255565b600081116133265760405162461bcd60e51b8152600401610afa90614284565b6001600160a01b03821660009081526005602052604090205460ff1661335e5760405162461bcd60e51b8152600401610afa9061447b565b6001600160a01b0382166000908152600460205260409020548111156133965760405162461bcd60e51b8152600401610afa90614518565b3360009081526009602052604090205460ff166133c55760405162461bcd60e51b8152600401610afa906144aa565b33600090815260096020526040902054610100900460ff166134255760405162461bcd60e51b8152602060048201526019602482015278496e766573746f72206163636f756e7420696e61637469766560381b6044820152606401610afa565b61345133838360405180604001604052806008815260200167574954484452415760c01b815250612621565b61346d5760405162461bcd60e51b8152600401610afa906144e1565b6001600160a01b0382166000908152600660205260409020548111156134d55760405162461bcd60e51b815260206004820152601860248201527f45786365656473207769746864726177616c206c696d697400000000000000006044820152606401610afa565b6001600160a01b038216600090815260046020526040812080548392906134fd9084906142cf565b909155505033600090815260096020526040812060040180548392906135249084906142f2565b909155505033600081815260096020526040902042600590910155613554906001600160a01b038416908361389d565b6040518181526001600160a01b0383169033907fa92ff919b850e4909ab2261d907ef955f11bc1716733a6cbece38d163a69af8a9060200160405180910390a361359d60018055565b5050565b6135a96137d9565b600081116135f25760405162461bcd60e51b81526020600482015260166024820152754c696d6974206d75737420626520706f73697469766560501b6044820152606401610afa565b8060106000846003811115613609576136096139a8565b600381111561361a5761361a6139a8565b8152602001908152602001600020819055507f64ffa65079a2de6e488576d53b97af2bd9b94bf6ee853152e0cff78d3bb4df1c828260405161365d929190614648565b60405180910390a15050565b6136716137d9565b6001600160a01b0383166136975760405162461bcd60e51b8152600401610afa90614255565b6001600160a01b0382166136ed5760405162461bcd60e51b815260206004820152601960248201527f496e76616c696420726563697069656e742061646472657373000000000000006044820152606401610afa565b6000811161370d5760405162461bcd60e51b8152600401610afa90614284565b6001600160a01b0383166000908152600460205260409020548111156137455760405162461bcd60e51b8152600401610afa90614518565b6001600160a01b0383166000908152600460205260408120805483929061376d9084906142cf565b9091555061378790506001600160a01b038416838361389d565b816001600160a01b0316836001600160a01b03167f9495d03190a79a43e534c9e328ff322f6283261383f5f19c809564f6ad5a57b3836040516137cc91815260200190565b60405180910390a3505050565b6000546001600160a01b0316331461261f5760405163118cdaa760e01b8152336004820152602401610afa565b60026001540361382957604051633ee5aeb560e01b815260040160405180910390fd5b6002600155565b6040516001600160a01b0384811660248301528381166044830152606482018390526138979186918216906323b872dd906084015b604051602081830303815290604052915060e01b6020820180516001600160e01b03838183161783525050505061391e565b50505050565b6040516001600160a01b0383811660248301526044820183905261291d91859182169063a9059cbb90606401613865565b600080546001600160a01b038381166001600160a01b0319831681178455604051919092169283917f8be0079c531659141344cd1fd0a4f28419497f9722a3daafe3b4186f6b6457e09190a35050565b600080602060008451602086016000885af180613941576040513d6000823e3d81fd5b50506000513d91508115613959578060011415613966565b6001600160a01b0384163b155b1561389757604051635274afe760e01b81526001600160a01b0385166004820152602401610afa565b6000602082840312156139a157600080fd5b5035919050565b634e487b7160e01b600052602160045260246000fd5b600581106132d5576132d56139a8565b6139d7816139be565b9052565b600481106139d7576139d76139a8565b6000815180845260005b81811015613a11576020818501810151868301820152016139f5565b506000602082860101526020601f19601f83011685010191505092915050565b60006101608d8352613a428d6139be565b602083018d90526001600160a01b038c81166040850152606084018c9052613a6d608085018c6139db565b60a084018a9052881660c0840152613a84876139be565b8660e08401528561010084015280610120840152613aa4818401866139eb565b9150508215156101408301529c9b505050505050505050505050565b80356001600160a01b03811681146120dd57600080fd5b600060208284031215613ae957600080fd5b613af282613ac0565b9392505050565b8615158152851515602082015284604082015260c060608201526000613b2260c08301866139eb565b60808301949094525060a00152949350505050565b600080600080600060808688031215613b4f57600080fd5b613b5886613ac0565b9450613b6660208701613ac0565b935060408601359250606086013567ffffffffffffffff80821115613b8a57600080fd5b818801915088601f830112613b9e57600080fd5b813581811115613bad57600080fd5b896020828501011115613bbf57600080fd5b9699959850939650602001949392505050565b600081518084526020808501945080840160005b83811015613c0257815187529582019590820190600101613be6565b509495945050505050565b602081526000613af26020830184613bd2565b8281526040602082015260006126e16040830184613bd2565b60008060408385031215613c4c57600080fd5b613c5583613ac0565b946020939093013593505050565b81518152602080830151610160830191613c7f908401826139ce565b506040830151613c9a60408401826001600160a01b03169052565b50606083015160608301526080830151613cb760808401826139db565b5060a083015160a083015260c083015160c083015260e083015160e083015261010080840151818401525061012080840151613cf68285018215159052565b5050610140928301511515919092015290565b634e487b7160e01b600052604160045260246000fd5b600082601f830112613d3057600080fd5b813567ffffffffffffffff80821115613d4b57613d4b613d09565b604051601f8301601f19908116603f01168101908282118183101715613d7357613d73613d09565b81604052838152866020858801011115613d8c57600080fd5b836020870160208301376000602085830101528094505050505092915050565b60008060408385031215613dbf57600080fd5b613dc883613ac0565b9150602083013567ffffffffffffffff811115613de457600080fd5b613df085828601613d1f565b9150509250929050565b60008060408385031215613e0d57600080fd5b82359150602083013567ffffffffffffffff811115613de457600080fd5b8035600481106120dd57600080fd5b60008060008060008060c08789031215613e5357600080fd5b863560058110613e6257600080fd5b9550613e7060208801613ac0565b945060408701359350613e8560608801613e2b565b92506080870135915060a087013567ffffffffffffffff811115613ea857600080fd5b613eb489828a01613d1f565b9150509295509295509295565b8715158152861515602082015285604082015260e060608201526000613eea60e08301876139eb565b60808301959095525060a081019290925260c090910152949350505050565b60008060008060808587031215613f1f57600080fd5b613f2885613ac0565b9350613f3660208601613ac0565b925060408501359150606085013567ffffffffffffffff811115613f5957600080fd5b613f6587828801613d1f565b91505092959194509250565b602081526000613af260208301846139eb565b60008060408385031215613f9757600080fd5b50508035926020909101359150565b600080600060608486031215613fbb57600080fd5b613fc484613ac0565b925060208401359150604084013567ffffffffffffffff811115613fe757600080fd5b613ff386828701613d1f565b9150509250925092565b60208152815160208201526000602083015161401c60408401826139ce565b5060408301516001600160a01b03811660608401525060608301516080830152608083015161404e60a08401826139db565b5060a083015160c083015260c083015161407360e08401826001600160a01b03169052565b5060e0830151610100614088818501836139ce565b84015161012084810191909152840151610160610140808601829052919250906140b66101808601846139eb565b95015115159301929092525090919050565b600080604083850312156140db57600080fd5b6140e483613ac0565b91506140f260208401613ac0565b90509250929050565b60006020828403121561410d57600080fd5b613af282613e2b565b6000806040838503121561412957600080fd5b613c5583613e2b565b8b815261016081016141438c6139be565b602082018c90526001600160a01b038b166040830152606082018a905261416d608083018a6139db565b8760a08301528660c08301528560e0830152846101008301528315156101208301528215156101408301529c9b505050505050505050505050565b6000806000606084860312156141bd57600080fd5b6141c684613ac0565b92506141d460208501613ac0565b9150604084013590509250925092565b600181811c908216806141f857607f821691505b60208210810361421857634e487b7160e01b600052602260045260246000fd5b50919050565b60208082526018908201527f496e76616c69642070726f746f636f6c20616464726573730000000000000000604082015260600190565b602080825260159082015274496e76616c696420746f6b656e206164647265737360581b604082015260600190565b6020808252818101527f416d6f756e74206d7573742062652067726561746572207468616e207a65726f604082015260600190565b634e487b7160e01b600052601160045260246000fd5b818103818111156131c2576131c26142b9565b8183823760009101908152919050565b808201808211156131c2576131c26142b9565b80820281158282048414176131c2576131c26142b9565b60008261433957634e487b7160e01b600052601260045260246000fd5b500490565b634e487b7160e01b600052603260045260246000fd5b600060018201614366576143666142b9565b5060010190565b601f82111561291d57600081815260208120601f850160051c810160208610156143945750805b601f850160051c820191505b818110156143b3578281556001016143a0565b505050505050565b815167ffffffffffffffff8111156143d5576143d5613d09565b6143e9816143e384546141e4565b8461436d565b602080601f83116001811461441e57600084156144065750858301515b600019600386901b1c1916600185901b1785556143b3565b600085815260208120601f198616915b8281101561444d5788860151825594840194600190910190840161442e565b508582101561446b5787850151600019600388901b60f8161c191681555b5050505050600190811b01905550565b602080825260159082015274151bdad95b881b9bdd081dda1a5d195b1a5cdd1959605a1b604082015260600190565b60208082526017908201527f496e766573746f72206e6f7420617574686f72697a6564000000000000000000604082015260600190565b60208082526017908201527f436f6d706c69616e636520636865636b206661696c6564000000000000000000604082015260600190565b602080825260149082015273496e73756666696369656e742062616c616e636560601b604082015260600190565b60408101614553846139be565b9281526020015290565b6001600160a01b038681168252851660208201526040810184905260a060608201819052600090614590908301856139eb565b90508260808301529695505050505050565b6001600160a01b03858116825284166020820152604081018390526080606082018190526000906145d5908301846139eb565b9695505050505050565b6000602082840312156145f157600080fd5b81518015158114613af257600080fd5b6001600160a01b03841681526020810183905260608101614621836139be565b826040830152949350505050565b8281526040602082015260006126e160408301846139eb565b6040810161465682856139db565b826020830152939250505056fea26469706673582212205c9cdefc4d3ac8e55465eb97bd68f271faddc0f3d07301419404e19d9022b3ed64736f6c63430008140033","opcodes":"PUSH1 0x80 PUSH1 0x40 MSTORE CALLVALUE DUP1 ISZERO PUSH3 0x11 JUMPI PUSH1 0x0 DUP1 REVERT JUMPDEST POP PUSH1 0x40 MLOAD PUSH3 0x47B0 CODESIZE SUB DUP1 PUSH3 0x47B0 DUP4 CODECOPY DUP2 ADD PUSH1 0x40 DUP2 SWAP1 MSTORE PUSH3 0x34 SWAP2 PUSH3 0xD5 JUMP JUMPDEST DUP1 PUSH1 0x1 PUSH1 0x1 PUSH1 0xA0 SHL SUB DUP2 AND PUSH3 0x64 JUMPI PUSH1 0x40 MLOAD PUSH4 0x1E4FBDF7 PUSH1 0xE0 SHL DUP2 MSTORE PUSH1 0x0 PUSH1 0x4 DUP3 ADD MSTORE PUSH1 0x24 ADD PUSH1 0x40 MLOAD DUP1 SWAP2 SUB SWAP1 REVERT JUMPDEST PUSH3 0x6F DUP2 PUSH3 0x85 JUMP JUMPDEST POP POP PUSH1 0x1 DUP1 SSTORE PUSH1 0x0 PUSH1 0x2 DUP2 SWAP1 SSTORE PUSH1 0x3 SSTORE PUSH3 0x107 JUMP JUMPDEST PUSH1 0x0 DUP1 SLOAD PUSH1 0x1 PUSH1 0x1 PUSH1 0xA0 SHL SUB DUP4 DUP2 AND PUSH1 0x1 PUSH1 0x1 PUSH1 0xA0 SHL SUB NOT DUP4 AND DUP2 OR DUP5 SSTORE PUSH1 0x40 MLOAD SWAP2 SWAP1 SWAP3 AND SWAP3 DUP4 SWAP2 PUSH32 0x8BE0079C531659141344CD1FD0A4F28419497F9722A3DAAFE3B4186F6B6457E0 SWAP2 SWAP1 LOG3 POP POP JUMP JUMPDEST PUSH1 0x0 PUSH1 0x20 DUP3 DUP5 SUB SLT ISZERO PUSH3 0xE8 JUMPI PUSH1 0x0 DUP1 REVERT JUMPDEST DUP2 MLOAD PUSH1 0x1 PUSH1 0x1 PUSH1 0xA0 SHL SUB DUP2 AND DUP2 EQ PUSH3 0x100 JUMPI PUSH1 0x0 DUP1 REVERT JUMPDEST SWAP4 SWAP3 POP POP POP JUMP JUMPDEST PUSH2 0x4699 DUP1 PUSH3 0x117 PUSH1 0x0 CODECOPY PUSH1 0x0 RETURN INVALID PUSH1 0x80 PUSH1 0x40 MSTORE CALLVALUE DUP1 ISZERO PUSH2 0x10 JUMPI PUSH1 0x0 DUP1 REVERT JUMPDEST POP PUSH1 0x4 CALLDATASIZE LT PUSH2 0x2D6 JUMPI PUSH1 0x0 CALLDATALOAD PUSH1 0xE0 SHR DUP1 PUSH4 0x8DA5CB5B GT PUSH2 0x182 JUMPI DUP1 PUSH4 0xC8692E3F GT PUSH2 0xE9 JUMPI DUP1 PUSH4 0xE0959A59 GT PUSH2 0xA2 JUMPI DUP1 PUSH4 0xF3FEF3A3 GT PUSH2 0x7C JUMPI DUP1 PUSH4 0xF3FEF3A3 EQ PUSH2 0x7CB JUMPI DUP1 PUSH4 0xFBEE5B85 EQ PUSH2 0x7DE JUMPI DUP1 PUSH4 0xFD345C8A EQ PUSH2 0x7F1 JUMPI DUP1 PUSH4 0xFEF860B8 EQ PUSH2 0x876 JUMPI PUSH1 0x0 DUP1 REVERT JUMPDEST DUP1 PUSH4 0xE0959A59 EQ PUSH2 0x778 JUMPI DUP1 PUSH4 0xF08AB472 EQ PUSH2 0x798 JUMPI DUP1 PUSH4 0xF2FDE38B EQ PUSH2 0x7B8 JUMPI PUSH1 0x0 DUP1 REVERT JUMPDEST DUP1 PUSH4 0xC8692E3F EQ PUSH2 0x6D1 JUMPI DUP1 PUSH4 0xC895A942 EQ PUSH2 0x6F1 JUMPI DUP1 PUSH4 0xD6E2CF19 EQ PUSH2 0x704 JUMPI DUP1 PUSH4 0xD777E425 EQ PUSH2 0x72F JUMPI DUP1 PUSH4 0xDAF9C210 EQ PUSH2 0x742 JUMPI DUP1 PUSH4 0xDC9E81F3 EQ PUSH2 0x765 JUMPI PUSH1 0x0 DUP1 REVERT JUMPDEST DUP1 PUSH4 0xA5E5D1C9 GT PUSH2 0x13B JUMPI DUP1 PUSH4 0xA5E5D1C9 EQ PUSH2 0x615 JUMPI DUP1 PUSH4 0xA8C22675 EQ PUSH2 0x648 JUMPI DUP1 PUSH4 0xADE0D01D EQ PUSH2 0x66B JUMPI DUP1 PUSH4 0xC470D7A0 EQ PUSH2 0x67E JUMPI DUP1 PUSH4 0xC4E16B7D EQ PUSH2 0x69E JUMPI DUP1 PUSH4 0xC7F758A8 EQ PUSH2 0x6B1 JUMPI PUSH1 0x0 DUP1 REVERT JUMPDEST DUP1 PUSH4 0x8DA5CB5B EQ PUSH2 0x58B JUMPI DUP1 PUSH4 0x93E36B25 EQ PUSH2 0x59C JUMPI DUP1 PUSH4 0x98951B56 EQ PUSH2 0x5AF JUMPI DUP1 PUSH4 0x9CF110E2 EQ PUSH2 0x5C2 JUMPI DUP1 PUSH4 0xA0F24FB1 EQ PUSH2 0x5D5 JUMPI DUP1 PUSH4 0xA19CC5F2 EQ PUSH2 0x5F5 JUMPI PUSH1 0x0 DUP1 REVERT JUMPDEST DUP1 PUSH4 0x3CBB4668 GT PUSH2 0x241 JUMPI DUP1 PUSH4 0x5CDE857D GT PUSH2 0x1FA JUMPI DUP1 PUSH4 0x6BEF2289 GT PUSH2 0x1D4 JUMPI DUP1 PUSH4 0x6BEF2289 EQ PUSH2 0x527 JUMPI DUP1 PUSH4 0x6F7BC9BE EQ PUSH2 0x53A JUMPI DUP1 PUSH4 0x715018A6 EQ PUSH2 0x560 JUMPI DUP1 PUSH4 0x84361C07 EQ PUSH2 0x568 JUMPI PUSH1 0x0 DUP1 REVERT JUMPDEST DUP1 PUSH4 0x5CDE857D EQ PUSH2 0x4E1 JUMPI DUP1 PUSH4 0x687DDA08 EQ PUSH2 0x501 JUMPI DUP1 PUSH4 0x69D9479C EQ PUSH2 0x514 JUMPI PUSH1 0x0 DUP1 REVERT JUMPDEST DUP1 PUSH4 0x3CBB4668 EQ PUSH2 0x454 JUMPI DUP1 PUSH4 0x410239BF EQ PUSH2 0x467 JUMPI DUP1 PUSH4 0x47E7EF24 EQ PUSH2 0x492 JUMPI DUP1 PUSH4 0x5216AEEC EQ PUSH2 0x4A5 JUMPI DUP1 PUSH4 0x523FBA7F EQ PUSH2 0x4AE JUMPI DUP1 PUSH4 0x5BFCDF68 EQ PUSH2 0x4CE JUMPI PUSH1 0x0 DUP1 REVERT JUMPDEST DUP1 PUSH4 0x1FC6DBFF GT PUSH2 0x293 JUMPI DUP1 PUSH4 0x1FC6DBFF EQ PUSH2 0x3B1 JUMPI DUP1 PUSH4 0x22AE634F EQ PUSH2 0x3C4 JUMPI DUP1 PUSH4 0x267C8507 EQ PUSH2 0x3E4 JUMPI DUP1 PUSH4 0x33EE4628 EQ PUSH2 0x3F7 JUMPI DUP1 PUSH4 0x377E32E6 EQ PUSH2 0x40A JUMPI DUP1 PUSH4 0x3AECD0E3 EQ PUSH2 0x41D JUMPI PUSH1 0x0 DUP1 REVERT JUMPDEST DUP1 PUSH4 0x13CF08B EQ PUSH2 0x2DB JUMPI DUP1 PUSH4 0x707873C EQ PUSH2 0x30E JUMPI DUP1 PUSH4 0x92807C0 EQ PUSH2 0x333 JUMPI DUP1 PUSH4 0xA3CB21B EQ PUSH2 0x348 JUMPI DUP1 PUSH4 0x1131BD60 EQ PUSH2 0x37B JUMPI DUP1 PUSH4 0x1CA55E70 EQ PUSH2 0x39B JUMPI JUMPDEST PUSH1 0x0 DUP1 REVERT JUMPDEST PUSH2 0x2EE PUSH2 0x2E9 CALLDATASIZE PUSH1 0x4 PUSH2 0x398F JUMP JUMPDEST PUSH2 0x889 JUMP JUMPDEST PUSH1 0x40 MLOAD PUSH2 0x305 SWAP12 SWAP11 SWAP10 SWAP9 SWAP8 SWAP7 SWAP6 SWAP5 SWAP4 SWAP3 SWAP2 SWAP1 PUSH2 0x3A31 JUMP JUMPDEST PUSH1 0x40 MLOAD DUP1 SWAP2 SUB SWAP1 RETURN JUMPDEST PUSH2 0x321 PUSH2 0x31C CALLDATASIZE PUSH1 0x4 PUSH2 0x3AD7 JUMP JUMPDEST PUSH2 0x97F JUMP JUMPDEST PUSH1 0x40 MLOAD PUSH2 0x305 SWAP7 SWAP6 SWAP5 SWAP4 SWAP3 SWAP2 SWAP1 PUSH2 0x3AF9 JUMP JUMPDEST PUSH2 0x346 PUSH2 0x341 CALLDATASIZE PUSH1 0x4 PUSH2 0x3B37 JUMP JUMPDEST PUSH2 0xAC4 JUMP JUMPDEST STOP JUMPDEST PUSH2 0x36B PUSH2 0x356 CALLDATASIZE PUSH1 0x4 PUSH2 0x3AD7 JUMP JUMPDEST PUSH1 0x11 PUSH1 0x20 MSTORE PUSH1 0x0 SWAP1 DUP2 MSTORE PUSH1 0x40 SWAP1 KECCAK256 SLOAD PUSH1 0xFF AND DUP2 JUMP JUMPDEST PUSH1 0x40 MLOAD SWAP1 ISZERO ISZERO DUP2 MSTORE PUSH1 0x20 ADD PUSH2 0x305 JUMP JUMPDEST PUSH2 0x38E PUSH2 0x389 CALLDATASIZE PUSH1 0x4 PUSH2 0x3AD7 JUMP JUMPDEST PUSH2 0xDA0 JUMP JUMPDEST PUSH1 0x40 MLOAD PUSH2 0x305 SWAP2 SWAP1 PUSH2 0x3C0D JUMP JUMPDEST PUSH2 0x3A3 PUSH2 0xE0C JUMP JUMPDEST PUSH1 0x40 MLOAD PUSH2 0x305 SWAP3 SWAP2 SWAP1 PUSH2 0x3C20 JUMP JUMPDEST PUSH2 0x346 PUSH2 0x3BF CALLDATASIZE PUSH1 0x4 PUSH2 0x3C39 JUMP JUMPDEST PUSH2 0xFFF JUMP JUMPDEST PUSH2 0x3D7 PUSH2 0x3D2 CALLDATASIZE PUSH1 0x4 PUSH2 0x398F JUMP JUMPDEST PUSH2 0x10FA JUMP JUMPDEST PUSH1 0x40 MLOAD PUSH2 0x305 SWAP2 SWAP1 PUSH2 0x3C63 JUMP JUMPDEST PUSH2 0x346 PUSH2 0x3F2 CALLDATASIZE PUSH1 0x4 PUSH2 0x3AD7 JUMP JUMPDEST PUSH2 0x1247 JUMP JUMPDEST PUSH2 0x346 PUSH2 0x405 CALLDATASIZE PUSH1 0x4 PUSH2 0x3DAC JUMP JUMPDEST PUSH2 0x12C9 JUMP JUMPDEST PUSH2 0x346 PUSH2 0x418 CALLDATASIZE PUSH1 0x4 PUSH2 0x3AD7 JUMP JUMPDEST PUSH2 0x13CF JUMP JUMPDEST PUSH2 0x446 PUSH2 0x42B CALLDATASIZE PUSH1 0x4 PUSH2 0x3AD7 JUMP JUMPDEST PUSH1 0x1 PUSH1 0x1 PUSH1 0xA0 SHL SUB AND PUSH1 0x0 SWAP1 DUP2 MSTORE PUSH1 0x4 PUSH1 0x20 MSTORE PUSH1 0x40 SWAP1 KECCAK256 SLOAD SWAP1 JUMP JUMPDEST PUSH1 0x40 MLOAD SWAP1 DUP2 MSTORE PUSH1 0x20 ADD PUSH2 0x305 JUMP JUMPDEST PUSH2 0x346 PUSH2 0x462 CALLDATASIZE PUSH1 0x4 PUSH2 0x3DFA JUMP JUMPDEST PUSH2 0x13F8 JUMP JUMPDEST PUSH1 0xA SLOAD PUSH2 0x47A SWAP1 PUSH1 0x1 PUSH1 0x1 PUSH1 0xA0 SHL SUB AND DUP2 JUMP JUMPDEST PUSH1 0x40 MLOAD PUSH1 0x1 PUSH1 0x1 PUSH1 0xA0 SHL SUB SWAP1 SWAP2 AND DUP2 MSTORE PUSH1 0x20 ADD PUSH2 0x305 JUMP JUMPDEST PUSH2 0x346 PUSH2 0x4A0 CALLDATASIZE PUSH1 0x4 PUSH2 0x3C39 JUMP JUMPDEST PUSH2 0x155C JUMP JUMPDEST PUSH2 0x446 PUSH1 0xB SLOAD DUP2 JUMP JUMPDEST PUSH2 0x446 PUSH2 0x4BC CALLDATASIZE PUSH1 0x4 PUSH2 0x3AD7 JUMP JUMPDEST PUSH1 0x4 PUSH1 0x20 MSTORE PUSH1 0x0 SWAP1 DUP2 MSTORE PUSH1 0x40 SWAP1 KECCAK256 SLOAD DUP2 JUMP JUMPDEST PUSH2 0x346 PUSH2 0x4DC CALLDATASIZE PUSH1 0x4 PUSH2 0x3DAC JUMP JUMPDEST PUSH2 0x1774 JUMP JUMPDEST PUSH2 0x446 PUSH2 0x4EF CALLDATASIZE PUSH1 0x4 PUSH2 0x3AD7 JUMP JUMPDEST PUSH1 0xF PUSH1 0x20 MSTORE PUSH1 0x0 SWAP1 DUP2 MSTORE PUSH1 0x40 SWAP1 KECCAK256 SLOAD DUP2 JUMP JUMPDEST PUSH2 0x346 PUSH2 0x50F CALLDATASIZE PUSH1 0x4 PUSH2 0x3B37 JUMP JUMPDEST PUSH2 0x18A0 JUMP JUMPDEST PUSH2 0x446 PUSH2 0x522 CALLDATASIZE PUSH1 0x4 PUSH2 0x398F JUMP JUMPDEST PUSH2 0x1BBF JUMP JUMPDEST PUSH2 0x446 PUSH2 0x535 CALLDATASIZE PUSH1 0x4 PUSH2 0x3E3A JUMP JUMPDEST PUSH2 0x20E2 JUMP JUMPDEST PUSH2 0x54D PUSH2 0x548 CALLDATASIZE PUSH1 0x4 PUSH2 0x3AD7 JUMP JUMPDEST PUSH2 0x2544 JUMP JUMPDEST PUSH1 0x40 MLOAD PUSH2 0x305 SWAP8 SWAP7 SWAP6 SWAP5 SWAP4 SWAP3 SWAP2 SWAP1 PUSH2 0x3EC1 JUMP JUMPDEST PUSH2 0x346 PUSH2 0x260D JUMP JUMPDEST PUSH2 0x36B PUSH2 0x576 CALLDATASIZE PUSH1 0x4 PUSH2 0x3AD7 JUMP JUMPDEST PUSH1 0x7 PUSH1 0x20 MSTORE PUSH1 0x0 SWAP1 DUP2 MSTORE PUSH1 0x40 SWAP1 KECCAK256 SLOAD PUSH1 0xFF AND DUP2 JUMP JUMPDEST PUSH1 0x0 SLOAD PUSH1 0x1 PUSH1 0x1 PUSH1 0xA0 SHL SUB AND PUSH2 0x47A JUMP JUMPDEST PUSH2 0x36B PUSH2 0x5AA CALLDATASIZE PUSH1 0x4 PUSH2 0x3F09 JUMP JUMPDEST PUSH2 0x2621 JUMP JUMPDEST PUSH2 0x346 PUSH2 0x5BD CALLDATASIZE PUSH1 0x4 PUSH2 0x398F JUMP JUMPDEST PUSH2 0x26E9 JUMP JUMPDEST PUSH2 0x346 PUSH2 0x5D0 CALLDATASIZE PUSH1 0x4 PUSH2 0x3DAC JUMP JUMPDEST PUSH2 0x2922 JUMP JUMPDEST PUSH2 0x5E8 PUSH2 0x5E3 CALLDATASIZE PUSH1 0x4 PUSH2 0x3AD7 JUMP JUMPDEST PUSH2 0x29EB JUMP JUMPDEST PUSH1 0x40 MLOAD PUSH2 0x305 SWAP2 SWAP1 PUSH2 0x3F71 JUMP JUMPDEST PUSH2 0x446 PUSH2 0x603 CALLDATASIZE PUSH1 0x4 PUSH2 0x3AD7 JUMP JUMPDEST PUSH1 0x13 PUSH1 0x20 MSTORE PUSH1 0x0 SWAP1 DUP2 MSTORE PUSH1 0x40 SWAP1 KECCAK256 SLOAD DUP2 JUMP JUMPDEST PUSH2 0x628 PUSH2 0x623 CALLDATASIZE PUSH1 0x4 PUSH2 0x3F84 JUMP JUMPDEST PUSH2 0x2A85 JUMP JUMPDEST PUSH1 0x40 DUP1 MLOAD SWAP5 DUP6 MSTORE PUSH1 0x20 DUP6 ADD SWAP4 SWAP1 SWAP4 MSTORE SWAP2 DUP4 ADD MSTORE PUSH1 0x60 DUP3 ADD MSTORE PUSH1 0x80 ADD PUSH2 0x305 JUMP JUMPDEST PUSH2 0x36B PUSH2 0x656 CALLDATASIZE PUSH1 0x4 PUSH2 0x3AD7 JUMP JUMPDEST PUSH1 0xE PUSH1 0x20 MSTORE PUSH1 0x0 SWAP1 DUP2 MSTORE PUSH1 0x40 SWAP1 KECCAK256 SLOAD PUSH1 0xFF AND DUP2 JUMP JUMPDEST PUSH2 0x346 PUSH2 0x679 CALLDATASIZE PUSH1 0x4 PUSH2 0x3FA6 JUMP JUMPDEST PUSH2 0x2CBA JUMP JUMPDEST PUSH2 0x446 PUSH2 0x68C CALLDATASIZE PUSH1 0x4 PUSH2 0x398F JUMP JUMPDEST PUSH1 0x14 PUSH1 0x20 MSTORE PUSH1 0x0 SWAP1 DUP2 MSTORE PUSH1 0x40 SWAP1 KECCAK256 SLOAD DUP2 JUMP JUMPDEST PUSH2 0x346 PUSH2 0x6AC CALLDATASIZE PUSH1 0x4 PUSH2 0x3C39 JUMP JUMPDEST PUSH2 0x2EB1 JUMP JUMPDEST PUSH2 0x6C4 PUSH2 0x6BF CALLDATASIZE PUSH1 0x4 PUSH2 0x398F JUMP JUMPDEST PUSH2 0x2F97 JUMP JUMPDEST PUSH1 0x40 MLOAD PUSH2 0x305 SWAP2 SWAP1 PUSH2 0x3FFD JUMP JUMPDEST PUSH1 0xB SLOAD PUSH1 0x40 DUP1 MLOAD DUP3 DUP2 MSTORE PUSH1 0x20 DUP2 ADD SWAP3 SWAP1 SWAP3 MSTORE PUSH1 0x0 SWAP1 DUP3 ADD MSTORE PUSH1 0x60 ADD PUSH2 0x305 JUMP JUMPDEST PUSH2 0x446 PUSH2 0x6FF CALLDATASIZE PUSH1 0x4 PUSH2 0x40C8 JUMP JUMPDEST PUSH2 0x319B JUMP JUMPDEST PUSH2 0x446 PUSH2 0x712 CALLDATASIZE PUSH1 0x4 PUSH2 0x40C8 JUMP JUMPDEST PUSH1 0x8 PUSH1 0x20 SWAP1 DUP2 MSTORE PUSH1 0x0 SWAP3 DUP4 MSTORE PUSH1 0x40 DUP1 DUP5 KECCAK256 SWAP1 SWAP2 MSTORE SWAP1 DUP3 MSTORE SWAP1 KECCAK256 SLOAD DUP2 JUMP JUMPDEST PUSH2 0x346 PUSH2 0x73D CALLDATASIZE PUSH1 0x4 PUSH2 0x3AD7 JUMP JUMPDEST PUSH2 0x31C8 JUMP JUMPDEST PUSH2 0x36B PUSH2 0x750 CALLDATASIZE PUSH1 0x4 PUSH2 0x3AD7 JUMP JUMPDEST PUSH1 0x5 PUSH1 0x20 MSTORE PUSH1 0x0 SWAP1 DUP2 MSTORE PUSH1 0x40 SWAP1 KECCAK256 SLOAD PUSH1 0xFF AND DUP2 JUMP JUMPDEST PUSH2 0x446 PUSH2 0x773 CALLDATASIZE PUSH1 0x4 PUSH2 0x3C39 JUMP JUMPDEST PUSH2 0x3269 JUMP JUMPDEST PUSH2 0x446 PUSH2 0x786 CALLDATASIZE PUSH1 0x4 PUSH2 0x3AD7 JUMP JUMPDEST PUSH1 0x6 PUSH1 0x20 MSTORE PUSH1 0x0 SWAP1 DUP2 MSTORE PUSH1 0x40 SWAP1 KECCAK256 SLOAD DUP2 JUMP JUMPDEST PUSH2 0x446 PUSH2 0x7A6 CALLDATASIZE PUSH1 0x4 PUSH2 0x40FB JUMP JUMPDEST PUSH1 0x10 PUSH1 0x20 MSTORE PUSH1 0x0 SWAP1 DUP2 MSTORE PUSH1 0x40 SWAP1 KECCAK256 SLOAD DUP2 JUMP JUMPDEST PUSH2 0x346 PUSH2 0x7C6 CALLDATASIZE PUSH1 0x4 PUSH2 0x3AD7 JUMP JUMPDEST PUSH2 0x329A JUMP JUMPDEST PUSH2 0x346 PUSH2 0x7D9 CALLDATASIZE PUSH1 0x4 PUSH2 0x3C39 JUMP JUMPDEST PUSH2 0x32D8 JUMP JUMPDEST PUSH2 0x346 PUSH2 0x7EC CALLDATASIZE PUSH1 0x4 PUSH2 0x4116 JUMP JUMPDEST PUSH2 0x35A1 JUMP JUMPDEST PUSH2 0x85F PUSH2 0x7FF CALLDATASIZE PUSH1 0x4 PUSH2 0x398F JUMP JUMPDEST PUSH1 0xC PUSH1 0x20 MSTORE PUSH1 0x0 SWAP1 DUP2 MSTORE PUSH1 0x40 SWAP1 KECCAK256 DUP1 SLOAD PUSH1 0x1 DUP3 ADD SLOAD PUSH1 0x2 DUP4 ADD SLOAD PUSH1 0x3 DUP5 ADD SLOAD PUSH1 0x4 DUP6 ADD SLOAD PUSH1 0x5 DUP7 ADD SLOAD PUSH1 0x6 DUP8 ADD SLOAD PUSH1 0x7 DUP9 ADD SLOAD PUSH1 0x8 SWAP1 SWAP9 ADD SLOAD SWAP7 SWAP8 PUSH1 0xFF DUP1 DUP9 AND SWAP9 PUSH1 0x1 PUSH1 0x1 PUSH1 0xA0 SHL SUB PUSH2 0x100 SWAP10 DUP11 SWAP1 DIV AND SWAP9 SWAP7 DUP3 AND SWAP7 DUP2 DUP4 AND SWAP3 SWAP2 DIV AND DUP12 JUMP JUMPDEST PUSH1 0x40 MLOAD PUSH2 0x305 SWAP12 SWAP11 SWAP10 SWAP9 SWAP8 SWAP7 SWAP6 SWAP5 SWAP4 SWAP3 SWAP2 SWAP1 PUSH2 0x4132 JUMP JUMPDEST PUSH2 0x346 PUSH2 0x884 CALLDATASIZE PUSH1 0x4 PUSH2 0x41A8 JUMP JUMPDEST PUSH2 0x3669 JUMP JUMPDEST PUSH1 0xD PUSH1 0x20 MSTORE PUSH1 0x0 SWAP1 DUP2 MSTORE PUSH1 0x40 SWAP1 KECCAK256 DUP1 SLOAD PUSH1 0x1 DUP3 ADD SLOAD PUSH1 0x2 DUP4 ADD SLOAD PUSH1 0x3 DUP5 ADD SLOAD PUSH1 0x4 DUP6 ADD SLOAD PUSH1 0x5 DUP7 ADD SLOAD PUSH1 0x6 DUP8 ADD SLOAD PUSH1 0x7 DUP9 ADD DUP1 SLOAD SWAP8 SWAP9 PUSH1 0xFF DUP1 DUP10 AND SWAP10 PUSH1 0x1 PUSH1 0x1 PUSH1 0xA0 SHL SUB PUSH2 0x100 SWAP1 SWAP11 DIV DUP11 AND SWAP10 SWAP8 DUP3 AND SWAP8 DUP7 AND SWAP6 PUSH1 0x1 PUSH1 0xA0 SHL SWAP1 DIV SWAP1 SWAP2 AND SWAP4 SWAP3 SWAP1 PUSH2 0x8F3 SWAP1 PUSH2 0x41E4 JUMP JUMPDEST DUP1 PUSH1 0x1F ADD PUSH1 0x20 DUP1 SWAP2 DIV MUL PUSH1 0x20 ADD PUSH1 0x40 MLOAD SWAP1 DUP2 ADD PUSH1 0x40 MSTORE DUP1 SWAP3 SWAP2 SWAP1 DUP2 DUP2 MSTORE PUSH1 0x20 ADD DUP3 DUP1 SLOAD PUSH2 0x91F SWAP1 PUSH2 0x41E4 JUMP JUMPDEST DUP1 ISZERO PUSH2 0x96C JUMPI DUP1 PUSH1 0x1F LT PUSH2 0x941 JUMPI PUSH2 0x100 DUP1 DUP4 SLOAD DIV MUL DUP4 MSTORE SWAP2 PUSH1 0x20 ADD SWAP2 PUSH2 0x96C JUMP JUMPDEST DUP3 ADD SWAP2 SWAP1 PUSH1 0x0 MSTORE PUSH1 0x20 PUSH1 0x0 KECCAK256 SWAP1 JUMPDEST DUP2 SLOAD DUP2 MSTORE SWAP1 PUSH1 0x1 ADD SWAP1 PUSH1 0x20 ADD DUP1 DUP4 GT PUSH2 0x94F JUMPI DUP3 SWAP1 SUB PUSH1 0x1F AND DUP3 ADD SWAP2 JUMPDEST POP POP POP PUSH1 0x8 SWAP1 SWAP4 ADD SLOAD SWAP2 SWAP3 POP POP PUSH1 0xFF AND DUP12 JUMP JUMPDEST PUSH1 0x1 PUSH1 0x1 PUSH1 0xA0 SHL SUB DUP2 AND PUSH1 0x0 SWAP1 DUP2 MSTORE PUSH1 0x9 PUSH1 0x20 SWAP1 DUP2 MSTORE PUSH1 0x40 DUP1 DUP4 KECCAK256 DUP2 MLOAD PUSH1 0xE0 DUP2 ADD DUP4 MSTORE DUP2 SLOAD PUSH1 0xFF DUP1 DUP3 AND ISZERO ISZERO DUP4 MSTORE PUSH2 0x100 SWAP1 SWAP2 DIV AND ISZERO ISZERO SWAP4 DUP2 ADD SWAP4 SWAP1 SWAP4 MSTORE PUSH1 0x1 DUP2 ADD SLOAD SWAP2 DUP4 ADD SWAP2 SWAP1 SWAP2 MSTORE PUSH1 0x2 DUP2 ADD DUP1 SLOAD DUP5 SWAP4 DUP5 SWAP4 PUSH1 0x60 SWAP4 DUP6 SWAP4 DUP5 SWAP4 DUP5 SWAP4 SWAP1 SWAP3 SWAP1 SWAP2 DUP4 DUP9 ADD SWAP2 SWAP1 PUSH2 0x9EE SWAP1 PUSH2 0x41E4 JUMP JUMPDEST DUP1 PUSH1 0x1F ADD PUSH1 0x20 DUP1 SWAP2 DIV MUL PUSH1 0x20 ADD PUSH1 0x40 MLOAD SWAP1 DUP2 ADD PUSH1 0x40 MSTORE DUP1 SWAP3 SWAP2 SWAP1 DUP2 DUP2 MSTORE PUSH1 0x20 ADD DUP3 DUP1 SLOAD PUSH2 0xA1A SWAP1 PUSH2 0x41E4 JUMP JUMPDEST DUP1 ISZERO PUSH2 0xA67 JUMPI DUP1 PUSH1 0x1F LT PUSH2 0xA3C JUMPI PUSH2 0x100 DUP1 DUP4 SLOAD DIV MUL DUP4 MSTORE SWAP2 PUSH1 0x20 ADD SWAP2 PUSH2 0xA67 JUMP JUMPDEST DUP3 ADD SWAP2 SWAP1 PUSH1 0x0 MSTORE PUSH1 0x20 PUSH1 0x0 KECCAK256 SWAP1 JUMPDEST DUP2 SLOAD DUP2 MSTORE SWAP1 PUSH1 0x1 ADD SWAP1 PUSH1 0x20 ADD DUP1 DUP4 GT PUSH2 0xA4A JUMPI DUP3 SWAP1 SUB PUSH1 0x1F AND DUP3 ADD SWAP2 JUMPDEST POP POP POP POP POP DUP2 MSTORE PUSH1 0x20 ADD PUSH1 0x3 DUP3 ADD SLOAD DUP2 MSTORE PUSH1 0x20 ADD PUSH1 0x4 DUP3 ADD SLOAD DUP2 MSTORE PUSH1 0x20 ADD PUSH1 0x5 DUP3 ADD SLOAD DUP2 MSTORE POP POP SWAP1 POP DUP1 PUSH1 0x0 ADD MLOAD DUP2 PUSH1 0x20 ADD MLOAD DUP3 PUSH1 0x40 ADD MLOAD DUP4 PUSH1 0x60 ADD MLOAD DUP5 PUSH1 0x80 ADD MLOAD DUP6 PUSH1 0xA0 ADD MLOAD SWAP7 POP SWAP7 POP SWAP7 POP SWAP7 POP SWAP7 POP SWAP7 POP POP SWAP2 SWAP4 SWAP6 POP SWAP2 SWAP4 SWAP6 JUMP JUMPDEST PUSH2 0xACC PUSH2 0x37D9 JUMP JUMPDEST PUSH2 0xAD4 PUSH2 0x3806 JUMP JUMPDEST PUSH1 0x1 PUSH1 0x1 PUSH1 0xA0 SHL SUB DUP6 AND PUSH2 0xB03 JUMPI PUSH1 0x40 MLOAD PUSH3 0x461BCD PUSH1 0xE5 SHL DUP2 MSTORE PUSH1 0x4 ADD PUSH2 0xAFA SWAP1 PUSH2 0x421E JUMP JUMPDEST PUSH1 0x40 MLOAD DUP1 SWAP2 SUB SWAP1 REVERT JUMPDEST PUSH1 0x1 PUSH1 0x1 PUSH1 0xA0 SHL SUB DUP5 AND PUSH2 0xB29 JUMPI PUSH1 0x40 MLOAD PUSH3 0x461BCD PUSH1 0xE5 SHL DUP2 MSTORE PUSH1 0x4 ADD PUSH2 0xAFA SWAP1 PUSH2 0x4255 JUMP JUMPDEST PUSH1 0x0 DUP4 GT PUSH2 0xB49 JUMPI PUSH1 0x40 MLOAD PUSH3 0x461BCD PUSH1 0xE5 SHL DUP2 MSTORE PUSH1 0x4 ADD PUSH2 0xAFA SWAP1 PUSH2 0x4284 JUMP JUMPDEST PUSH1 0x1 PUSH1 0x1 PUSH1 0xA0 SHL SUB DUP6 AND PUSH1 0x0 SWAP1 DUP2 MSTORE PUSH1 0x7 PUSH1 0x20 MSTORE PUSH1 0x40 SWAP1 KECCAK256 SLOAD PUSH1 0xFF AND PUSH2 0xBAC JUMPI PUSH1 0x40 MLOAD PUSH3 0x461BCD PUSH1 0xE5 SHL DUP2 MSTORE PUSH1 0x20 PUSH1 0x4 DUP3 ADD MSTORE PUSH1 0x18 PUSH1 0x24 DUP3 ADD MSTORE PUSH24 0x141C9BDD1BD8DBDB081B9BDD081DDA1A5D195B1A5CDD1959 PUSH1 0x42 SHL PUSH1 0x44 DUP3 ADD MSTORE PUSH1 0x64 ADD PUSH2 0xAFA JUMP JUMPDEST PUSH1 0x1 PUSH1 0x1 PUSH1 0xA0 SHL SUB DUP1 DUP7 AND PUSH1 0x0 SWAP1 DUP2 MSTORE PUSH1 0x8 PUSH1 0x20 SWAP1 DUP2 MSTORE PUSH1 0x40 DUP1 DUP4 KECCAK256 SWAP4 DUP9 AND DUP4 MSTORE SWAP3 SWAP1 MSTORE KECCAK256 SLOAD DUP4 GT ISZERO PUSH2 0xC21 JUMPI PUSH1 0x40 MLOAD PUSH3 0x461BCD PUSH1 0xE5 SHL DUP2 MSTORE PUSH1 0x20 PUSH1 0x4 DUP3 ADD MSTORE PUSH1 0x17 PUSH1 0x24 DUP3 ADD MSTORE PUSH32 0x496E73756666696369656E7420696E766573746D656E74000000000000000000 PUSH1 0x44 DUP3 ADD MSTORE PUSH1 0x64 ADD PUSH2 0xAFA JUMP JUMPDEST PUSH1 0x1 PUSH1 0x1 PUSH1 0xA0 SHL SUB DUP1 DUP7 AND PUSH1 0x0 SWAP1 DUP2 MSTORE PUSH1 0x8 PUSH1 0x20 SWAP1 DUP2 MSTORE PUSH1 0x40 DUP1 DUP4 KECCAK256 SWAP4 DUP9 AND DUP4 MSTORE SWAP3 SWAP1 MSTORE SWAP1 DUP2 KECCAK256 DUP1 SLOAD DUP6 SWAP3 SWAP1 PUSH2 0xC58 SWAP1 DUP5 SWAP1 PUSH2 0x42CF JUMP JUMPDEST SWAP1 SWAP2 SSTORE POP POP DUP1 ISZERO PUSH2 0xD14 JUMPI PUSH1 0x0 DUP6 PUSH1 0x1 PUSH1 0x1 PUSH1 0xA0 SHL SUB AND DUP4 DUP4 PUSH1 0x40 MLOAD PUSH2 0xC7F SWAP3 SWAP2 SWAP1 PUSH2 0x42E2 JUMP JUMPDEST PUSH1 0x0 PUSH1 0x40 MLOAD DUP1 DUP4 SUB DUP2 PUSH1 0x0 DUP7 GAS CALL SWAP2 POP POP RETURNDATASIZE DUP1 PUSH1 0x0 DUP2 EQ PUSH2 0xCBC JUMPI PUSH1 0x40 MLOAD SWAP2 POP PUSH1 0x1F NOT PUSH1 0x3F RETURNDATASIZE ADD AND DUP3 ADD PUSH1 0x40 MSTORE RETURNDATASIZE DUP3 MSTORE RETURNDATASIZE PUSH1 0x0 PUSH1 0x20 DUP5 ADD RETURNDATACOPY PUSH2 0xCC1 JUMP JUMPDEST PUSH1 0x60 SWAP2 POP JUMPDEST POP POP SWAP1 POP DUP1 PUSH2 0xD12 JUMPI PUSH1 0x40 MLOAD PUSH3 0x461BCD PUSH1 0xE5 SHL DUP2 MSTORE PUSH1 0x20 PUSH1 0x4 DUP3 ADD MSTORE PUSH1 0x1A PUSH1 0x24 DUP3 ADD MSTORE PUSH32 0x50726F746F636F6C207769746864726177616C206661696C6564000000000000 PUSH1 0x44 DUP3 ADD MSTORE PUSH1 0x64 ADD PUSH2 0xAFA JUMP JUMPDEST POP JUMPDEST PUSH1 0x1 PUSH1 0x1 PUSH1 0xA0 SHL SUB DUP5 AND PUSH1 0x0 SWAP1 DUP2 MSTORE PUSH1 0x4 PUSH1 0x20 MSTORE PUSH1 0x40 DUP2 KECCAK256 DUP1 SLOAD DUP6 SWAP3 SWAP1 PUSH2 0xD3C SWAP1 DUP5 SWAP1 PUSH2 0x42F2 JUMP JUMPDEST SWAP3 POP POP DUP2 SWAP1 SSTORE POP DUP4 PUSH1 0x1 PUSH1 0x1 PUSH1 0xA0 SHL SUB AND DUP6 PUSH1 0x1 PUSH1 0x1 PUSH1 0xA0 SHL SUB AND PUSH32 0x501556786C1D2FD567EF1688C69826C95D16DFB216C158EB0E72F297331304DC DUP6 PUSH1 0x40 MLOAD PUSH2 0xD88 SWAP2 DUP2 MSTORE PUSH1 0x20 ADD SWAP1 JUMP JUMPDEST PUSH1 0x40 MLOAD DUP1 SWAP2 SUB SWAP1 LOG3 PUSH2 0xD99 PUSH1 0x1 DUP1 SSTORE JUMP JUMPDEST POP POP POP POP POP JUMP JUMPDEST PUSH1 0x1 PUSH1 0x1 PUSH1 0xA0 SHL SUB DUP2 AND PUSH1 0x0 SWAP1 DUP2 MSTORE PUSH1 0x15 PUSH1 0x20 SWAP1 DUP2 MSTORE PUSH1 0x40 SWAP2 DUP3 SWAP1 KECCAK256 DUP1 SLOAD DUP4 MLOAD DUP2 DUP5 MUL DUP2 ADD DUP5 ADD SWAP1 SWAP5 MSTORE DUP1 DUP5 MSTORE PUSH1 0x60 SWAP4 SWAP3 DUP4 ADD DUP3 DUP3 DUP1 ISZERO PUSH2 0xE00 JUMPI PUSH1 0x20 MUL DUP3 ADD SWAP2 SWAP1 PUSH1 0x0 MSTORE PUSH1 0x20 PUSH1 0x0 KECCAK256 SWAP1 JUMPDEST DUP2 SLOAD DUP2 MSTORE PUSH1 0x20 ADD SWAP1 PUSH1 0x1 ADD SWAP1 DUP1 DUP4 GT PUSH2 0xDEC JUMPI JUMPDEST POP POP POP POP POP SWAP1 POP SWAP2 SWAP1 POP JUMP JUMPDEST PUSH1 0x40 DUP1 MLOAD PUSH1 0x4 DUP1 DUP3 MSTORE PUSH1 0xA0 DUP3 ADD SWAP1 SWAP3 MSTORE PUSH1 0x0 SWAP2 PUSH1 0x60 SWAP2 DUP4 SWAP2 PUSH1 0x20 DUP3 ADD PUSH1 0x80 DUP1 CALLDATASIZE DUP4 CALLDATACOPY POP POP PUSH1 0xB SLOAD SWAP2 SWAP3 POP POP PUSH1 0x0 DUP2 SWAP1 SUB PUSH2 0xE4B JUMPI POP PUSH1 0x0 SWAP4 SWAP1 SWAP3 POP SWAP1 POP JUMP JUMPDEST PUSH1 0x0 PUSH1 0x1 JUMPDEST PUSH1 0x2 SLOAD DUP2 GT PUSH2 0xFF4 JUMPI PUSH1 0x0 DUP2 DUP2 MSTORE PUSH1 0xC PUSH1 0x20 MSTORE PUSH1 0x40 SWAP1 KECCAK256 PUSH1 0x8 ADD SLOAD PUSH1 0xFF AND ISZERO PUSH2 0xFE2 JUMPI PUSH1 0x0 DUP2 DUP2 MSTORE PUSH1 0xC PUSH1 0x20 MSTORE PUSH1 0x40 DUP2 KECCAK256 PUSH1 0x2 ADD SLOAD DUP5 SWAP1 PUSH2 0xE92 SWAP1 PUSH1 0x64 PUSH2 0x4305 JUMP JUMPDEST PUSH2 0xE9C SWAP2 SWAP1 PUSH2 0x431C JUMP JUMPDEST SWAP1 POP PUSH1 0x0 DUP1 PUSH1 0x0 DUP5 DUP2 MSTORE PUSH1 0xC PUSH1 0x20 MSTORE PUSH1 0x40 SWAP1 KECCAK256 PUSH1 0x3 SWAP1 DUP2 ADD SLOAD PUSH1 0xFF AND SWAP1 DUP2 GT ISZERO PUSH2 0xEC8 JUMPI PUSH2 0xEC8 PUSH2 0x39A8 JUMP JUMPDEST SUB PUSH2 0xF01 JUMPI PUSH1 0x14 SWAP1 POP DUP2 DUP7 PUSH1 0x0 DUP2 MLOAD DUP2 LT PUSH2 0xEE5 JUMPI PUSH2 0xEE5 PUSH2 0x433E JUMP JUMPDEST PUSH1 0x20 MUL PUSH1 0x20 ADD ADD DUP2 DUP2 MLOAD PUSH2 0xEF9 SWAP2 SWAP1 PUSH2 0x42F2 JUMP JUMPDEST SWAP1 MSTORE POP PUSH2 0xFBD JUMP JUMPDEST PUSH1 0x1 PUSH1 0x0 DUP5 DUP2 MSTORE PUSH1 0xC PUSH1 0x20 MSTORE PUSH1 0x40 SWAP1 KECCAK256 PUSH1 0x3 SWAP1 DUP2 ADD SLOAD PUSH1 0xFF AND SWAP1 DUP2 GT ISZERO PUSH2 0xF2A JUMPI PUSH2 0xF2A PUSH2 0x39A8 JUMP JUMPDEST SUB PUSH2 0xF47 JUMPI PUSH1 0x28 SWAP1 POP DUP2 DUP7 PUSH1 0x1 DUP2 MLOAD DUP2 LT PUSH2 0xEE5 JUMPI PUSH2 0xEE5 PUSH2 0x433E JUMP JUMPDEST PUSH1 0x2 PUSH1 0x0 DUP5 DUP2 MSTORE PUSH1 0xC PUSH1 0x20 MSTORE PUSH1 0x40 SWAP1 KECCAK256 PUSH1 0x3 SWAP1 DUP2 ADD SLOAD PUSH1 0xFF AND SWAP1 DUP2 GT ISZERO PUSH2 0xF70 JUMPI PUSH2 0xF70 PUSH2 0x39A8 JUMP JUMPDEST SUB PUSH2 0xF8D JUMPI PUSH1 0x46 SWAP1 POP DUP2 DUP7 PUSH1 0x2 DUP2 MLOAD DUP2 LT PUSH2 0xEE5 JUMPI PUSH2 0xEE5 PUSH2 0x433E JUMP JUMPDEST PUSH1 0x5A SWAP1 POP DUP2 DUP7 PUSH1 0x3 DUP2 MLOAD DUP2 LT PUSH2 0xFA5 JUMPI PUSH2 0xFA5 PUSH2 0x433E JUMP JUMPDEST PUSH1 0x20 MUL PUSH1 0x20 ADD ADD DUP2 DUP2 MLOAD PUSH2 0xFB9 SWAP2 SWAP1 PUSH2 0x42F2 JUMP JUMPDEST SWAP1 MSTORE POP JUMPDEST PUSH1 0x64 PUSH2 0xFC9 DUP4 DUP4 PUSH2 0x4305 JUMP JUMPDEST PUSH2 0xFD3 SWAP2 SWAP1 PUSH2 0x431C JUMP JUMPDEST PUSH2 0xFDD SWAP1 DUP6 PUSH2 0x42F2 JUMP JUMPDEST SWAP4 POP POP POP JUMPDEST DUP1 PUSH2 0xFEC DUP2 PUSH2 0x4354 JUMP JUMPDEST SWAP2 POP POP PUSH2 0xE50 JUMP JUMPDEST POP SWAP5 SWAP2 SWAP4 POP SWAP1 SWAP2 POP POP JUMP JUMPDEST PUSH2 0x1007 PUSH2 0x37D9 JUMP JUMPDEST PUSH1 0x1 PUSH1 0x1 PUSH1 0xA0 SHL SUB DUP3 AND PUSH2 0x102D JUMPI PUSH1 0x40 MLOAD PUSH3 0x461BCD PUSH1 0xE5 SHL DUP2 MSTORE PUSH1 0x4 ADD PUSH2 0xAFA SWAP1 PUSH2 0x421E JUMP JUMPDEST PUSH1 0x1 PUSH1 0x1 PUSH1 0xA0 SHL SUB DUP3 AND PUSH1 0x0 SWAP1 DUP2 MSTORE PUSH1 0xE PUSH1 0x20 MSTORE PUSH1 0x40 SWAP1 KECCAK256 SLOAD PUSH1 0xFF AND PUSH2 0x108D JUMPI PUSH1 0x40 MLOAD PUSH3 0x461BCD PUSH1 0xE5 SHL DUP2 MSTORE PUSH1 0x20 PUSH1 0x4 DUP3 ADD MSTORE PUSH1 0x15 PUSH1 0x24 DUP3 ADD MSTORE PUSH21 0x141C9BDD1BD8DBDB081B9BDD08185C1C1C9BDD9959 PUSH1 0x5A SHL PUSH1 0x44 DUP3 ADD MSTORE PUSH1 0x64 ADD PUSH2 0xAFA JUMP JUMPDEST PUSH1 0x64 DUP2 GT ISZERO PUSH2 0x10DE JUMPI PUSH1 0x40 MLOAD PUSH3 0x461BCD PUSH1 0xE5 SHL DUP2 MSTORE PUSH1 0x20 PUSH1 0x4 DUP3 ADD MSTORE PUSH1 0x1C PUSH1 0x24 DUP3 ADD MSTORE PUSH32 0x5269736B2073636F72652063616E6E6F74206578636565642031303000000000 PUSH1 0x44 DUP3 ADD MSTORE PUSH1 0x64 ADD PUSH2 0xAFA JUMP JUMPDEST PUSH1 0x1 PUSH1 0x1 PUSH1 0xA0 SHL SUB SWAP1 SWAP2 AND PUSH1 0x0 SWAP1 DUP2 MSTORE PUSH1 0x13 PUSH1 0x20 MSTORE PUSH1 0x40 SWAP1 KECCAK256 SSTORE JUMP JUMPDEST PUSH1 0x40 DUP1 MLOAD PUSH2 0x160 DUP2 ADD DUP3 MSTORE PUSH1 0x0 DUP1 DUP3 MSTORE PUSH1 0x20 DUP3 ADD DUP2 SWAP1 MSTORE SWAP2 DUP2 ADD DUP3 SWAP1 MSTORE PUSH1 0x60 DUP2 ADD DUP3 SWAP1 MSTORE PUSH1 0x80 DUP2 ADD DUP3 SWAP1 MSTORE PUSH1 0xA0 DUP2 ADD DUP3 SWAP1 MSTORE PUSH1 0xC0 DUP2 ADD DUP3 SWAP1 MSTORE PUSH1 0xE0 DUP2 ADD DUP3 SWAP1 MSTORE PUSH2 0x100 DUP2 ADD DUP3 SWAP1 MSTORE PUSH2 0x120 DUP2 ADD DUP3 SWAP1 MSTORE PUSH2 0x140 DUP2 ADD SWAP2 SWAP1 SWAP2 MSTORE PUSH1 0x0 DUP3 DUP2 MSTORE PUSH1 0xC PUSH1 0x20 SWAP1 DUP2 MSTORE PUSH1 0x40 SWAP2 DUP3 SWAP1 KECCAK256 DUP3 MLOAD PUSH2 0x160 DUP2 ADD SWAP1 SWAP4 MSTORE DUP1 SLOAD DUP4 MSTORE PUSH1 0x1 DUP2 ADD SLOAD SWAP1 SWAP2 DUP4 ADD SWAP1 PUSH1 0xFF AND PUSH1 0x4 DUP2 GT ISZERO PUSH2 0x1191 JUMPI PUSH2 0x1191 PUSH2 0x39A8 JUMP JUMPDEST PUSH1 0x4 DUP2 GT ISZERO PUSH2 0x11A2 JUMPI PUSH2 0x11A2 PUSH2 0x39A8 JUMP JUMPDEST DUP2 MSTORE PUSH1 0x1 DUP3 ADD SLOAD PUSH2 0x100 SWAP1 DIV PUSH1 0x1 PUSH1 0x1 PUSH1 0xA0 SHL SUB AND PUSH1 0x20 DUP3 ADD MSTORE PUSH1 0x2 DUP3 ADD SLOAD PUSH1 0x40 DUP3 ADD MSTORE PUSH1 0x3 DUP1 DUP4 ADD SLOAD PUSH1 0x60 SWAP1 SWAP3 ADD SWAP2 PUSH1 0xFF AND SWAP1 DUP2 GT ISZERO PUSH2 0x11E5 JUMPI PUSH2 0x11E5 PUSH2 0x39A8 JUMP JUMPDEST PUSH1 0x3 DUP2 GT ISZERO PUSH2 0x11F6 JUMPI PUSH2 0x11F6 PUSH2 0x39A8 JUMP JUMPDEST DUP2 MSTORE PUSH1 0x4 DUP3 ADD SLOAD PUSH1 0x20 DUP3 ADD MSTORE PUSH1 0x5 DUP3 ADD SLOAD PUSH1 0x40 DUP3 ADD MSTORE PUSH1 0x6 DUP3 ADD SLOAD PUSH1 0x60 DUP3 ADD MSTORE PUSH1 0x7 DUP3 ADD SLOAD PUSH1 0x80 DUP3 ADD MSTORE PUSH1 0x8 SWAP1 SWAP2 ADD SLOAD PUSH1 0xFF DUP1 DUP3 AND ISZERO ISZERO PUSH1 0xA0 DUP5 ADD MSTORE PUSH2 0x100 SWAP1 SWAP2 DIV AND ISZERO ISZERO PUSH1 0xC0 SWAP1 SWAP2 ADD MSTORE SWAP3 SWAP2 POP POP JUMP JUMPDEST PUSH2 0x124F PUSH2 0x37D9 JUMP JUMPDEST PUSH1 0x1 PUSH1 0x1 PUSH1 0xA0 SHL SUB DUP2 AND PUSH2 0x12A5 JUMPI PUSH1 0x40 MLOAD PUSH3 0x461BCD PUSH1 0xE5 SHL DUP2 MSTORE PUSH1 0x20 PUSH1 0x4 DUP3 ADD MSTORE PUSH1 0x17 PUSH1 0x24 DUP3 ADD MSTORE PUSH32 0x496E76616C6964206D616E616765722061646472657373000000000000000000 PUSH1 0x44 DUP3 ADD MSTORE PUSH1 0x64 ADD PUSH2 0xAFA JUMP JUMPDEST PUSH1 0x1 PUSH1 0x1 PUSH1 0xA0 SHL SUB AND PUSH1 0x0 SWAP1 DUP2 MSTORE PUSH1 0x11 PUSH1 0x20 MSTORE PUSH1 0x40 SWAP1 KECCAK256 DUP1 SLOAD PUSH1 0xFF NOT AND PUSH1 0x1 OR SWAP1 SSTORE JUMP JUMPDEST PUSH2 0x12D1 PUSH2 0x37D9 JUMP JUMPDEST PUSH1 0x1 PUSH1 0x1 PUSH1 0xA0 SHL SUB DUP3 AND PUSH2 0x12F7 JUMPI PUSH1 0x40 MLOAD PUSH3 0x461BCD PUSH1 0xE5 SHL DUP2 MSTORE PUSH1 0x4 ADD PUSH2 0xAFA SWAP1 PUSH2 0x421E JUMP JUMPDEST PUSH1 0x0 DUP2 MLOAD GT PUSH2 0x133F JUMPI PUSH1 0x40 MLOAD PUSH3 0x461BCD PUSH1 0xE5 SHL DUP2 MSTORE PUSH1 0x20 PUSH1 0x4 DUP3 ADD MSTORE PUSH1 0x14 PUSH1 0x24 DUP3 ADD MSTORE PUSH20 0x4E616D652063616E6E6F7420626520656D707479 PUSH1 0x60 SHL PUSH1 0x44 DUP3 ADD MSTORE PUSH1 0x64 ADD PUSH2 0xAFA JUMP JUMPDEST PUSH1 0x1 PUSH1 0x1 PUSH1 0xA0 SHL SUB DUP3 AND PUSH1 0x0 SWAP1 DUP2 MSTORE PUSH1 0xE PUSH1 0x20 SWAP1 DUP2 MSTORE PUSH1 0x40 DUP1 DUP4 KECCAK256 DUP1 SLOAD PUSH1 0xFF NOT AND PUSH1 0x1 OR SWAP1 SSTORE PUSH1 0x12 SWAP1 SWAP2 MSTORE SWAP1 KECCAK256 PUSH2 0x1376 DUP3 DUP3 PUSH2 0x43BB JUMP JUMPDEST POP PUSH1 0x1 PUSH1 0x1 PUSH1 0xA0 SHL SUB DUP3 AND PUSH1 0x0 DUP2 DUP2 MSTORE PUSH1 0x13 PUSH1 0x20 MSTORE PUSH1 0x40 SWAP1 DUP2 SWAP1 KECCAK256 PUSH1 0x32 SWAP1 SSTORE MLOAD PUSH32 0xFD19732D9DF8F811AE6E9119C35D8EF4965A50D8C3C31993CF463F860208B980 SWAP1 PUSH2 0x13C3 SWAP1 DUP5 SWAP1 PUSH2 0x3F71 JUMP JUMPDEST PUSH1 0x40 MLOAD DUP1 SWAP2 SUB SWAP1 LOG2 POP POP JUMP JUMPDEST PUSH2 0x13D7 PUSH2 0x37D9 JUMP JUMPDEST PUSH1 0x1 PUSH1 0x1 PUSH1 0xA0 SHL SUB AND PUSH1 0x0 SWAP1 DUP2 MSTORE PUSH1 0x11 PUSH1 0x20 MSTORE PUSH1 0x40 SWAP1 KECCAK256 DUP1 SLOAD PUSH1 0xFF NOT AND SWAP1 SSTORE JUMP JUMPDEST PUSH2 0x1400 PUSH2 0x37D9 JUMP JUMPDEST PUSH1 0x0 DUP3 DUP2 MSTORE PUSH1 0xC PUSH1 0x20 MSTORE PUSH1 0x40 DUP2 KECCAK256 SLOAD SWAP1 SUB PUSH2 0x145D JUMPI PUSH1 0x40 MLOAD PUSH3 0x461BCD PUSH1 0xE5 SHL DUP2 MSTORE PUSH1 0x20 PUSH1 0x4 DUP3 ADD MSTORE PUSH1 0x19 PUSH1 0x24 DUP3 ADD MSTORE PUSH32 0x496E766573746D656E7420646F6573206E6F7420657869737400000000000000 PUSH1 0x44 DUP3 ADD MSTORE PUSH1 0x64 ADD PUSH2 0xAFA JUMP JUMPDEST PUSH1 0x0 DUP3 DUP2 MSTORE PUSH1 0xC PUSH1 0x20 MSTORE PUSH1 0x40 SWAP1 KECCAK256 PUSH1 0x8 ADD SLOAD PUSH1 0xFF AND PUSH2 0x14B6 JUMPI PUSH1 0x40 MLOAD PUSH3 0x461BCD PUSH1 0xE5 SHL DUP2 MSTORE PUSH1 0x20 PUSH1 0x4 DUP3 ADD MSTORE PUSH1 0x15 PUSH1 0x24 DUP3 ADD MSTORE PUSH21 0x496E766573746D656E74206E6F7420616374697665 PUSH1 0x58 SHL PUSH1 0x44 DUP3 ADD MSTORE PUSH1 0x64 ADD PUSH2 0xAFA JUMP JUMPDEST PUSH1 0x0 DUP2 MLOAD GT PUSH2 0x14F9 JUMPI PUSH1 0x40 MLOAD PUSH3 0x461BCD PUSH1 0xE5 SHL DUP2 MSTORE PUSH1 0x20 PUSH1 0x4 DUP3 ADD MSTORE PUSH1 0xF PUSH1 0x24 DUP3 ADD MSTORE PUSH15 0x1499585CDBDB881C995C5D5A5C9959 PUSH1 0x8A SHL PUSH1 0x44 DUP3 ADD MSTORE PUSH1 0x64 ADD PUSH2 0xAFA JUMP JUMPDEST PUSH1 0x0 DUP3 DUP2 MSTORE PUSH1 0xC PUSH1 0x20 SWAP1 DUP2 MSTORE PUSH1 0x40 DUP1 DUP4 KECCAK256 PUSH1 0x8 DUP2 ADD DUP1 SLOAD PUSH1 0xFF NOT AND SWAP1 SSTORE TIMESTAMP PUSH1 0x7 DUP3 ADD SSTORE PUSH1 0x2 DUP2 ADD SLOAD PUSH1 0x1 SWAP1 SWAP2 ADD SLOAD PUSH2 0x100 SWAP1 DIV PUSH1 0x1 PUSH1 0x1 PUSH1 0xA0 SHL SUB AND DUP1 DUP6 MSTORE PUSH1 0xF SWAP1 SWAP4 MSTORE SWAP1 DUP4 KECCAK256 DUP1 SLOAD SWAP2 SWAP4 DUP5 SWAP3 PUSH2 0x1551 SWAP1 DUP5 SWAP1 PUSH2 0x42CF JUMP JUMPDEST SWAP1 SWAP2 SSTORE POP POP POP POP POP POP JUMP JUMPDEST PUSH1 0x1 PUSH1 0x1 PUSH1 0xA0 SHL SUB DUP3 AND PUSH2 0x1582 JUMPI PUSH1 0x40 MLOAD PUSH3 0x461BCD PUSH1 0xE5 SHL DUP2 MSTORE PUSH1 0x4 ADD PUSH2 0xAFA SWAP1 PUSH2 0x4255 JUMP JUMPDEST PUSH1 0x0 DUP2 GT PUSH2 0x15A2 JUMPI PUSH1 0x40 MLOAD PUSH3 0x461BCD PUSH1 0xE5 SHL DUP2 MSTORE PUSH1 0x4 ADD PUSH2 0xAFA SWAP1 PUSH2 0x4284 JUMP JUMPDEST PUSH1 0x1 PUSH1 0x1 PUSH1 0xA0 SHL SUB DUP3 AND PUSH1 0x0 SWAP1 DUP2 MSTORE PUSH1 0x5 PUSH1 0x20 MSTORE PUSH1 0x40 SWAP1 KECCAK256 SLOAD PUSH1 0xFF AND PUSH2 0x15DA JUMPI PUSH1 0x40 MLOAD PUSH3 0x461BCD PUSH1 0xE5 SHL DUP2 MSTORE PUSH1 0x4 ADD PUSH2 0xAFA SWAP1 PUSH2 0x447B JUMP JUMPDEST CALLER PUSH1 0x0 SWAP1 DUP2 MSTORE PUSH1 0x9 PUSH1 0x20 MSTORE PUSH1 0x40 SWAP1 KECCAK256 SLOAD PUSH1 0xFF AND PUSH2 0x1609 JUMPI PUSH1 0x40 MLOAD PUSH3 0x461BCD PUSH1 0xE5 SHL DUP2 MSTORE PUSH1 0x4 ADD PUSH2 0xAFA SWAP1 PUSH2 0x44AA JUMP JUMPDEST CALLER PUSH1 0x0 SWAP1 DUP2 MSTORE PUSH1 0x9 PUSH1 0x20 MSTORE PUSH1 0x40 SWAP1 KECCAK256 SLOAD PUSH2 0x100 SWAP1 DIV PUSH1 0xFF AND PUSH2 0x1669 JUMPI PUSH1 0x40 MLOAD PUSH3 0x461BCD PUSH1 0xE5 SHL DUP2 MSTORE PUSH1 0x20 PUSH1 0x4 DUP3 ADD MSTORE PUSH1 0x19 PUSH1 0x24 DUP3 ADD MSTORE PUSH25 0x496E766573746F72206163636F756E7420696E616374697665 PUSH1 0x38 SHL PUSH1 0x44 DUP3 ADD MSTORE PUSH1 0x64 ADD PUSH2 0xAFA JUMP JUMPDEST PUSH2 0x1694 CALLER DUP4 DUP4 PUSH1 0x40 MLOAD DUP1 PUSH1 0x40 ADD PUSH1 0x40 MSTORE DUP1 PUSH1 0x7 DUP2 MSTORE PUSH1 0x20 ADD PUSH7 0x11115413D4D255 PUSH1 0xCA SHL DUP2 MSTORE POP PUSH2 0x2621 JUMP JUMPDEST PUSH2 0x16B0 JUMPI PUSH1 0x40 MLOAD PUSH3 0x461BCD PUSH1 0xE5 SHL DUP2 MSTORE PUSH1 0x4 ADD PUSH2 0xAFA SWAP1 PUSH2 0x44E1 JUMP JUMPDEST PUSH1 0x1 PUSH1 0x1 PUSH1 0xA0 SHL SUB DUP3 AND PUSH1 0x0 SWAP1 DUP2 MSTORE PUSH1 0x4 PUSH1 0x20 MSTORE PUSH1 0x40 DUP2 KECCAK256 DUP1 SLOAD DUP4 SWAP3 SWAP1 PUSH2 0x16D8 SWAP1 DUP5 SWAP1 PUSH2 0x42F2 JUMP JUMPDEST SWAP1 SWAP2 SSTORE POP POP CALLER PUSH1 0x0 SWAP1 DUP2 MSTORE PUSH1 0x9 PUSH1 0x20 MSTORE PUSH1 0x40 DUP2 KECCAK256 PUSH1 0x3 ADD DUP1 SLOAD DUP4 SWAP3 SWAP1 PUSH2 0x16FF SWAP1 DUP5 SWAP1 PUSH2 0x42F2 JUMP JUMPDEST SWAP1 SWAP2 SSTORE POP POP CALLER PUSH1 0x0 DUP2 DUP2 MSTORE PUSH1 0x9 PUSH1 0x20 MSTORE PUSH1 0x40 SWAP1 KECCAK256 TIMESTAMP PUSH1 0x5 SWAP1 SWAP2 ADD SSTORE PUSH2 0x1730 SWAP1 PUSH1 0x1 PUSH1 0x1 PUSH1 0xA0 SHL SUB DUP5 AND SWAP1 ADDRESS DUP5 PUSH2 0x3830 JUMP JUMPDEST PUSH1 0x40 MLOAD DUP2 DUP2 MSTORE PUSH1 0x1 PUSH1 0x1 PUSH1 0xA0 SHL SUB DUP4 AND SWAP1 CALLER SWAP1 PUSH32 0xF0D0E99CAE184D0187B093B48894117462462379674A6E11D89C3FBB618E96B0 SWAP1 PUSH1 0x20 ADD PUSH1 0x40 MLOAD DUP1 SWAP2 SUB SWAP1 LOG3 POP POP JUMP JUMPDEST PUSH2 0x177C PUSH2 0x37D9 JUMP JUMPDEST PUSH1 0x1 PUSH1 0x1 PUSH1 0xA0 SHL SUB DUP3 AND PUSH2 0x17CD JUMPI PUSH1 0x40 MLOAD PUSH3 0x461BCD PUSH1 0xE5 SHL DUP2 MSTORE PUSH1 0x20 PUSH1 0x4 DUP3 ADD MSTORE PUSH1 0x18 PUSH1 0x24 DUP3 ADD MSTORE PUSH24 0x496E76616C696420696E766573746F722061646472657373 PUSH1 0x40 SHL PUSH1 0x44 DUP3 ADD MSTORE PUSH1 0x64 ADD PUSH2 0xAFA JUMP JUMPDEST PUSH1 0x1 PUSH1 0x1 PUSH1 0xA0 SHL SUB DUP3 AND PUSH1 0x0 SWAP1 DUP2 MSTORE PUSH1 0x9 PUSH1 0x20 MSTORE PUSH1 0x40 SWAP1 KECCAK256 SLOAD PUSH1 0xFF AND PUSH2 0x1805 JUMPI PUSH1 0x40 MLOAD PUSH3 0x461BCD PUSH1 0xE5 SHL DUP2 MSTORE PUSH1 0x4 ADD PUSH2 0xAFA SWAP1 PUSH2 0x44AA JUMP JUMPDEST PUSH1 0x0 DUP2 MLOAD GT PUSH2 0x184F JUMPI PUSH1 0x40 MLOAD PUSH3 0x461BCD PUSH1 0xE5 SHL DUP2 MSTORE PUSH1 0x20 PUSH1 0x4 DUP3 ADD MSTORE PUSH1 0x16 PUSH1 0x24 DUP3 ADD MSTORE PUSH22 0x526561736F6E2063616E6E6F7420626520656D707479 PUSH1 0x50 SHL PUSH1 0x44 DUP3 ADD MSTORE PUSH1 0x64 ADD PUSH2 0xAFA JUMP JUMPDEST PUSH1 0x1 PUSH1 0x1 PUSH1 0xA0 SHL SUB DUP3 AND PUSH1 0x0 DUP2 DUP2 MSTORE PUSH1 0x9 PUSH1 0x20 MSTORE PUSH1 0x40 SWAP1 DUP2 SWAP1 KECCAK256 DUP1 SLOAD PUSH2 0xFFFF NOT AND SWAP1 SSTORE MLOAD PUSH32 0x410DA6C1CEA5CBE0CCF5771AC0E8D6101D870CB84FE2847C49D7A40E18D348FD SWAP1 PUSH2 0x13C3 SWAP1 DUP5 SWAP1 PUSH2 0x3F71 JUMP JUMPDEST PUSH2 0x18A8 PUSH2 0x37D9 JUMP JUMPDEST PUSH2 0x18B0 PUSH2 0x3806 JUMP JUMPDEST PUSH1 0x1 PUSH1 0x1 PUSH1 0xA0 SHL SUB DUP6 AND PUSH2 0x18D6 JUMPI PUSH1 0x40 MLOAD PUSH3 0x461BCD PUSH1 0xE5 SHL DUP2 MSTORE PUSH1 0x4 ADD PUSH2 0xAFA SWAP1 PUSH2 0x421E JUMP JUMPDEST PUSH1 0x1 PUSH1 0x1 PUSH1 0xA0 SHL SUB DUP5 AND PUSH2 0x18FC JUMPI PUSH1 0x40 MLOAD PUSH3 0x461BCD PUSH1 0xE5 SHL DUP2 MSTORE PUSH1 0x4 ADD PUSH2 0xAFA SWAP1 PUSH2 0x4255 JUMP JUMPDEST PUSH1 0x0 DUP4 GT PUSH2 0x191C JUMPI PUSH1 0x40 MLOAD PUSH3 0x461BCD PUSH1 0xE5 SHL DUP2 MSTORE PUSH1 0x4 ADD PUSH2 0xAFA SWAP1 PUSH2 0x4284 JUMP JUMPDEST PUSH1 0x1 PUSH1 0x1 PUSH1 0xA0 SHL SUB DUP6 AND PUSH1 0x0 SWAP1 DUP2 MSTORE PUSH1 0x7 PUSH1 0x20 MSTORE PUSH1 0x40 SWAP1 KECCAK256 SLOAD PUSH1 0xFF AND PUSH2 0x197F JUMPI PUSH1 0x40 MLOAD PUSH3 0x461BCD PUSH1 0xE5 SHL DUP2 MSTORE PUSH1 0x20 PUSH1 0x4 DUP3 ADD MSTORE PUSH1 0x18 PUSH1 0x24 DUP3 ADD MSTORE PUSH24 0x141C9BDD1BD8DBDB081B9BDD081DDA1A5D195B1A5CDD1959 PUSH1 0x42 SHL PUSH1 0x44 DUP3 ADD MSTORE PUSH1 0x64 ADD PUSH2 0xAFA JUMP JUMPDEST PUSH1 0x1 PUSH1 0x1 PUSH1 0xA0 SHL SUB DUP5 AND PUSH1 0x0 SWAP1 DUP2 MSTORE PUSH1 0x5 PUSH1 0x20 MSTORE PUSH1 0x40 SWAP1 KECCAK256 SLOAD PUSH1 0xFF AND PUSH2 0x19B7 JUMPI PUSH1 0x40 MLOAD PUSH3 0x461BCD PUSH1 0xE5 SHL DUP2 MSTORE PUSH1 0x4 ADD PUSH2 0xAFA SWAP1 PUSH2 0x447B JUMP JUMPDEST PUSH1 0x1 PUSH1 0x1 PUSH1 0xA0 SHL SUB DUP5 AND PUSH1 0x0 SWAP1 DUP2 MSTORE PUSH1 0x4 PUSH1 0x20 MSTORE PUSH1 0x40 SWAP1 KECCAK256 SLOAD DUP4 GT ISZERO PUSH2 0x19EF JUMPI PUSH1 0x40 MLOAD PUSH3 0x461BCD PUSH1 0xE5 SHL DUP2 MSTORE PUSH1 0x4 ADD PUSH2 0xAFA SWAP1 PUSH2 0x4518 JUMP JUMPDEST PUSH2 0x1A19 ADDRESS DUP6 DUP6 PUSH1 0x40 MLOAD DUP1 PUSH1 0x40 ADD PUSH1 0x40 MSTORE DUP1 PUSH1 0x6 DUP2 MSTORE PUSH1 0x20 ADD PUSH6 0x1253959154D5 PUSH1 0xD2 SHL DUP2 MSTORE POP PUSH2 0x2621 JUMP JUMPDEST PUSH2 0x1A35 JUMPI PUSH1 0x40 MLOAD PUSH3 0x461BCD PUSH1 0xE5 SHL DUP2 MSTORE PUSH1 0x4 ADD PUSH2 0xAFA SWAP1 PUSH2 0x44E1 JUMP JUMPDEST PUSH1 0x1 PUSH1 0x1 PUSH1 0xA0 SHL SUB DUP1 DUP7 AND PUSH1 0x0 SWAP1 DUP2 MSTORE PUSH1 0x8 PUSH1 0x20 SWAP1 DUP2 MSTORE PUSH1 0x40 DUP1 DUP4 KECCAK256 SWAP4 DUP9 AND DUP4 MSTORE SWAP3 SWAP1 MSTORE SWAP1 DUP2 KECCAK256 DUP1 SLOAD DUP6 SWAP3 SWAP1 PUSH2 0x1A6C SWAP1 DUP5 SWAP1 PUSH2 0x42F2 JUMP JUMPDEST SWAP1 SWAP2 SSTORE POP POP PUSH1 0x1 PUSH1 0x1 PUSH1 0xA0 SHL SUB DUP5 AND PUSH1 0x0 SWAP1 DUP2 MSTORE PUSH1 0x4 PUSH1 0x20 MSTORE PUSH1 0x40 DUP2 KECCAK256 DUP1 SLOAD DUP6 SWAP3 SWAP1 PUSH2 0x1A99 SWAP1 DUP5 SWAP1 PUSH2 0x42CF JUMP JUMPDEST SWAP3 POP POP DUP2 SWAP1 SSTORE POP DUP3 PUSH1 0xB PUSH1 0x0 DUP3 DUP3 SLOAD PUSH2 0x1AB2 SWAP2 SWAP1 PUSH2 0x42F2 JUMP JUMPDEST SWAP1 SWAP2 SSTORE POP PUSH2 0x1ACC SWAP1 POP PUSH1 0x1 PUSH1 0x1 PUSH1 0xA0 SHL SUB DUP6 AND DUP7 DUP6 PUSH2 0x389D JUMP JUMPDEST DUP1 ISZERO PUSH2 0x1B7A JUMPI PUSH1 0x0 DUP6 PUSH1 0x1 PUSH1 0x1 PUSH1 0xA0 SHL SUB AND DUP4 DUP4 PUSH1 0x40 MLOAD PUSH2 0x1AEE SWAP3 SWAP2 SWAP1 PUSH2 0x42E2 JUMP JUMPDEST PUSH1 0x0 PUSH1 0x40 MLOAD DUP1 DUP4 SUB DUP2 PUSH1 0x0 DUP7 GAS CALL SWAP2 POP POP RETURNDATASIZE DUP1 PUSH1 0x0 DUP2 EQ PUSH2 0x1B2B JUMPI PUSH1 0x40 MLOAD SWAP2 POP PUSH1 0x1F NOT PUSH1 0x3F RETURNDATASIZE ADD AND DUP3 ADD PUSH1 0x40 MSTORE RETURNDATASIZE DUP3 MSTORE RETURNDATASIZE PUSH1 0x0 PUSH1 0x20 DUP5 ADD RETURNDATACOPY PUSH2 0x1B30 JUMP JUMPDEST PUSH1 0x60 SWAP2 POP JUMPDEST POP POP SWAP1 POP DUP1 PUSH2 0x1B78 JUMPI PUSH1 0x40 MLOAD PUSH3 0x461BCD PUSH1 0xE5 SHL DUP2 MSTORE PUSH1 0x20 PUSH1 0x4 DUP3 ADD MSTORE PUSH1 0x14 PUSH1 0x24 DUP3 ADD MSTORE PUSH20 0x141C9BDD1BD8DBDB0818D85B1B0819985A5B1959 PUSH1 0x62 SHL PUSH1 0x44 DUP3 ADD MSTORE PUSH1 0x64 ADD PUSH2 0xAFA JUMP JUMPDEST POP JUMPDEST DUP4 PUSH1 0x1 PUSH1 0x1 PUSH1 0xA0 SHL SUB AND DUP6 PUSH1 0x1 PUSH1 0x1 PUSH1 0xA0 SHL SUB AND PUSH32 0xB826C83E0C6778BF4E6ACCF36F92992CE435EB7EA7E4B214FDD77CC46E418BAA DUP6 PUSH1 0x40 MLOAD PUSH2 0xD88 SWAP2 DUP2 MSTORE PUSH1 0x20 ADD SWAP1 JUMP JUMPDEST PUSH1 0x0 PUSH2 0x1BC9 PUSH2 0x37D9 JUMP JUMPDEST PUSH2 0x1BD1 PUSH2 0x3806 JUMP JUMPDEST PUSH1 0x0 DUP3 DUP2 MSTORE PUSH1 0xD PUSH1 0x20 MSTORE PUSH1 0x40 DUP2 KECCAK256 SLOAD SWAP1 SUB PUSH2 0x1C28 JUMPI PUSH1 0x40 MLOAD PUSH3 0x461BCD PUSH1 0xE5 SHL DUP2 MSTORE PUSH1 0x20 PUSH1 0x4 DUP3 ADD MSTORE PUSH1 0x17 PUSH1 0x24 DUP3 ADD MSTORE PUSH23 0x141C9BDC1BDCD85B08191BD95CC81B9BDD08195E1A5CDD PUSH1 0x4A SHL PUSH1 0x44 DUP3 ADD MSTORE PUSH1 0x64 ADD PUSH2 0xAFA JUMP JUMPDEST PUSH1 0x1 PUSH1 0x0 DUP4 DUP2 MSTORE PUSH1 0xD PUSH1 0x20 MSTORE PUSH1 0x40 SWAP1 KECCAK256 PUSH1 0x5 ADD SLOAD PUSH1 0x1 PUSH1 0xA0 SHL SWAP1 DIV PUSH1 0xFF AND PUSH1 0x4 DUP2 GT ISZERO PUSH2 0x1C57 JUMPI PUSH2 0x1C57 PUSH2 0x39A8 JUMP JUMPDEST EQ PUSH2 0x1C9C JUMPI PUSH1 0x40 MLOAD PUSH3 0x461BCD PUSH1 0xE5 SHL DUP2 MSTORE PUSH1 0x20 PUSH1 0x4 DUP3 ADD MSTORE PUSH1 0x15 PUSH1 0x24 DUP3 ADD MSTORE PUSH21 0x141C9BDC1BDCD85B081B9BDD08185C1C1C9BDD9959 PUSH1 0x5A SHL PUSH1 0x44 DUP3 ADD MSTORE PUSH1 0x64 ADD PUSH2 0xAFA JUMP JUMPDEST PUSH1 0x0 DUP3 DUP2 MSTORE PUSH1 0xD PUSH1 0x20 SWAP1 DUP2 MSTORE PUSH1 0x40 DUP1 DUP4 KECCAK256 DUP2 MLOAD PUSH2 0x160 DUP2 ADD SWAP1 SWAP3 MSTORE DUP1 SLOAD DUP3 MSTORE PUSH1 0x1 DUP2 ADD SLOAD SWAP2 SWAP3 SWAP1 SWAP2 SWAP1 DUP4 ADD SWAP1 PUSH1 0xFF AND PUSH1 0x4 DUP2 GT ISZERO PUSH2 0x1CDC JUMPI PUSH2 0x1CDC PUSH2 0x39A8 JUMP JUMPDEST PUSH1 0x4 DUP2 GT ISZERO PUSH2 0x1CED JUMPI PUSH2 0x1CED PUSH2 0x39A8 JUMP JUMPDEST DUP2 MSTORE PUSH1 0x1 DUP3 ADD SLOAD PUSH2 0x100 SWAP1 DIV PUSH1 0x1 PUSH1 0x1 PUSH1 0xA0 SHL SUB AND PUSH1 0x20 DUP3 ADD MSTORE PUSH1 0x2 DUP3 ADD SLOAD PUSH1 0x40 DUP3 ADD MSTORE PUSH1 0x3 DUP1 DUP4 ADD SLOAD PUSH1 0x60 SWAP1 SWAP3 ADD SWAP2 PUSH1 0xFF AND SWAP1 DUP2 GT ISZERO PUSH2 0x1D30 JUMPI PUSH2 0x1D30 PUSH2 0x39A8 JUMP JUMPDEST PUSH1 0x3 DUP2 GT ISZERO PUSH2 0x1D41 JUMPI PUSH2 0x1D41 PUSH2 0x39A8 JUMP JUMPDEST DUP2 MSTORE PUSH1 0x4 DUP3 DUP2 ADD SLOAD PUSH1 0x20 DUP4 ADD MSTORE PUSH1 0x5 DUP4 ADD SLOAD PUSH1 0x1 PUSH1 0x1 PUSH1 0xA0 SHL SUB DUP2 AND PUSH1 0x40 DUP5 ADD MSTORE PUSH1 0x60 SWAP1 SWAP3 ADD SWAP2 PUSH1 0x1 PUSH1 0xA0 SHL SWAP1 DIV PUSH1 0xFF AND SWAP1 DUP2 GT ISZERO PUSH2 0x1D82 JUMPI PUSH2 0x1D82 PUSH2 0x39A8 JUMP JUMPDEST PUSH1 0x4 DUP2 GT ISZERO PUSH2 0x1D93 JUMPI PUSH2 0x1D93 PUSH2 0x39A8 JUMP JUMPDEST DUP2 MSTORE PUSH1 0x20 ADD PUSH1 0x6 DUP3 ADD SLOAD DUP2 MSTORE PUSH1 0x20 ADD PUSH1 0x7 DUP3 ADD DUP1 SLOAD PUSH2 0x1DB1 SWAP1 PUSH2 0x41E4 JUMP JUMPDEST DUP1 PUSH1 0x1F ADD PUSH1 0x20 DUP1 SWAP2 DIV MUL PUSH1 0x20 ADD PUSH1 0x40 MLOAD SWAP1 DUP2 ADD PUSH1 0x40 MSTORE DUP1 SWAP3 SWAP2 SWAP1 DUP2 DUP2 MSTORE PUSH1 0x20 ADD DUP3 DUP1 SLOAD PUSH2 0x1DDD SWAP1 PUSH2 0x41E4 JUMP JUMPDEST DUP1 ISZERO PUSH2 0x1E2A JUMPI DUP1 PUSH1 0x1F LT PUSH2 0x1DFF JUMPI PUSH2 0x100 DUP1 DUP4 SLOAD DIV MUL DUP4 MSTORE SWAP2 PUSH1 0x20 ADD SWAP2 PUSH2 0x1E2A JUMP JUMPDEST DUP3 ADD SWAP2 SWAP1 PUSH1 0x0 MSTORE PUSH1 0x20 PUSH1 0x0 KECCAK256 SWAP1 JUMPDEST DUP2 SLOAD DUP2 MSTORE SWAP1 PUSH1 0x1 ADD SWAP1 PUSH1 0x20 ADD DUP1 DUP4 GT PUSH2 0x1E0D JUMPI DUP3 SWAP1 SUB PUSH1 0x1F AND DUP3 ADD SWAP2 JUMPDEST POP POP POP SWAP2 DUP4 MSTORE POP POP PUSH1 0x8 SWAP2 SWAP1 SWAP2 ADD SLOAD PUSH1 0xFF AND ISZERO ISZERO PUSH1 0x20 SWAP1 SWAP2 ADD MSTORE PUSH1 0x2 DUP1 SLOAD SWAP2 SWAP3 POP PUSH1 0x0 PUSH2 0x1E56 DUP4 PUSH2 0x4354 JUMP JUMPDEST SWAP2 SWAP1 POP SSTORE POP PUSH1 0x0 PUSH1 0x2 SLOAD SWAP1 POP PUSH1 0x40 MLOAD DUP1 PUSH2 0x160 ADD PUSH1 0x40 MSTORE DUP1 DUP3 DUP2 MSTORE PUSH1 0x20 ADD DUP4 PUSH1 0x20 ADD MLOAD PUSH1 0x4 DUP2 GT ISZERO PUSH2 0x1E8A JUMPI PUSH2 0x1E8A PUSH2 0x39A8 JUMP JUMPDEST DUP2 MSTORE PUSH1 0x20 ADD DUP4 PUSH1 0x40 ADD MLOAD PUSH1 0x1 PUSH1 0x1 PUSH1 0xA0 SHL SUB AND DUP2 MSTORE PUSH1 0x20 ADD DUP4 PUSH1 0x60 ADD MLOAD DUP2 MSTORE PUSH1 0x20 ADD DUP4 PUSH1 0x80 ADD MLOAD PUSH1 0x3 DUP2 GT ISZERO PUSH2 0x1EC2 JUMPI PUSH2 0x1EC2 PUSH2 0x39A8 JUMP JUMPDEST DUP2 MSTORE PUSH1 0xA0 DUP1 DUP6 ADD MLOAD PUSH1 0x20 DUP1 DUP5 ADD SWAP2 SWAP1 SWAP2 MSTORE PUSH1 0x0 PUSH1 0x40 DUP1 DUP6 ADD DUP3 SWAP1 MSTORE TIMESTAMP PUSH1 0x60 DUP7 ADD MSTORE PUSH1 0x80 DUP6 ADD DUP3 SWAP1 MSTORE PUSH1 0x1 SWAP4 DUP6 ADD DUP5 SWAP1 MSTORE PUSH1 0xC0 SWAP1 SWAP5 ADD DUP4 SWAP1 MSTORE DUP6 DUP2 MSTORE PUSH1 0xC DUP3 MSTORE SWAP3 SWAP1 SWAP3 KECCAK256 DUP4 MLOAD DUP2 SSTORE SWAP2 DUP4 ADD MLOAD DUP3 DUP3 ADD DUP1 SLOAD SWAP2 SWAP3 SWAP1 SWAP2 PUSH1 0xFF NOT AND SWAP1 DUP4 PUSH1 0x4 DUP2 GT ISZERO PUSH2 0x1F2D JUMPI PUSH2 0x1F2D PUSH2 0x39A8 JUMP JUMPDEST MUL OR SWAP1 SSTORE POP PUSH1 0x40 DUP3 ADD MLOAD DUP2 PUSH1 0x1 ADD PUSH1 0x1 PUSH2 0x100 EXP DUP2 SLOAD DUP2 PUSH1 0x1 PUSH1 0x1 PUSH1 0xA0 SHL SUB MUL NOT AND SWAP1 DUP4 PUSH1 0x1 PUSH1 0x1 PUSH1 0xA0 SHL SUB AND MUL OR SWAP1 SSTORE POP PUSH1 0x60 DUP3 ADD MLOAD DUP2 PUSH1 0x2 ADD SSTORE PUSH1 0x80 DUP3 ADD MLOAD DUP2 PUSH1 0x3 ADD PUSH1 0x0 PUSH2 0x100 EXP DUP2 SLOAD DUP2 PUSH1 0xFF MUL NOT AND SWAP1 DUP4 PUSH1 0x3 DUP2 GT ISZERO PUSH2 0x1F93 JUMPI PUSH2 0x1F93 PUSH2 0x39A8 JUMP JUMPDEST MUL OR SWAP1 SSTORE POP PUSH1 0xA0 DUP3 ADD MLOAD PUSH1 0x4 DUP3 ADD SSTORE PUSH1 0xC0 DUP3 ADD MLOAD PUSH1 0x5 DUP1 DUP4 ADD SWAP2 SWAP1 SWAP2 SSTORE PUSH1 0xE0 DUP4 ADD MLOAD PUSH1 0x6 DUP4 ADD SSTORE PUSH2 0x100 DUP1 DUP5 ADD MLOAD PUSH1 0x7 DUP5 ADD SSTORE PUSH2 0x120 DUP5 ADD MLOAD PUSH1 0x8 SWAP1 SWAP4 ADD DUP1 SLOAD PUSH2 0x140 SWAP1 SWAP6 ADD MLOAD PUSH2 0xFFFF NOT SWAP1 SWAP6 AND SWAP4 ISZERO ISZERO PUSH2 0xFF00 NOT AND SWAP4 SWAP1 SWAP4 OR SWAP4 ISZERO ISZERO MUL SWAP3 SWAP1 SWAP3 OR SWAP1 SSTORE PUSH1 0x0 DUP6 DUP2 MSTORE PUSH1 0xD PUSH1 0x20 MSTORE PUSH1 0x40 SWAP1 KECCAK256 ADD DUP1 SLOAD PUSH1 0x3 SWAP2 SWAP1 PUSH1 0xFF PUSH1 0xA0 SHL NOT AND PUSH1 0x1 PUSH1 0xA0 SHL DUP4 MUL OR SWAP1 SSTORE POP PUSH1 0x60 DUP3 ADD MLOAD PUSH1 0x40 DUP1 DUP5 ADD MLOAD PUSH1 0x1 PUSH1 0x1 PUSH1 0xA0 SHL SUB AND PUSH1 0x0 SWAP1 DUP2 MSTORE PUSH1 0xF PUSH1 0x20 MSTORE SWAP1 DUP2 KECCAK256 DUP1 SLOAD SWAP1 SWAP2 SWAP1 PUSH2 0x204F SWAP1 DUP5 SWAP1 PUSH2 0x42F2 JUMP JUMPDEST SWAP1 SWAP2 SSTORE POP POP PUSH1 0x60 DUP3 ADD MLOAD PUSH1 0xB DUP1 SLOAD PUSH1 0x0 SWAP1 PUSH2 0x206B SWAP1 DUP5 SWAP1 PUSH2 0x42F2 JUMP JUMPDEST SWAP1 SWAP2 SSTORE POP POP PUSH1 0x0 DUP2 DUP2 MSTORE PUSH1 0x14 PUSH1 0x20 SWAP1 DUP2 MSTORE PUSH1 0x40 SWAP2 DUP3 SWAP1 KECCAK256 DUP7 SWAP1 SSTORE DUP4 DUP3 ADD MLOAD PUSH1 0x60 DUP6 ADD MLOAD DUP4 MLOAD PUSH1 0x1 PUSH1 0x1 PUSH1 0xA0 SHL SUB SWAP1 SWAP3 AND DUP3 MSTORE SWAP2 DUP2 ADD SWAP2 SWAP1 SWAP2 MSTORE DUP3 SWAP2 PUSH32 0x35DD29C496D368FFA400A4635C4E88793BDC538D9A23754D66AAD0E25534C70D SWAP2 ADD PUSH1 0x40 MLOAD DUP1 SWAP2 SUB SWAP1 LOG2 SWAP2 POP POP PUSH2 0x20DD PUSH1 0x1 DUP1 SSTORE JUMP JUMPDEST SWAP2 SWAP1 POP JUMP JUMPDEST CALLER PUSH1 0x0 SWAP1 DUP2 MSTORE PUSH1 0x11 PUSH1 0x20 MSTORE PUSH1 0x40 DUP2 KECCAK256 SLOAD PUSH1 0xFF AND DUP1 PUSH2 0x210A JUMPI POP PUSH1 0x0 SLOAD PUSH1 0x1 PUSH1 0x1 PUSH1 0xA0 SHL SUB AND CALLER EQ JUMPDEST PUSH2 0x2161 JUMPI PUSH1 0x40 MLOAD PUSH3 0x461BCD PUSH1 0xE5 SHL DUP2 MSTORE PUSH1 0x20 PUSH1 0x4 DUP3 ADD MSTORE PUSH1 0x22 PUSH1 0x24 DUP3 ADD MSTORE PUSH32 0x4E6F7420617574686F72697A656420746F206372656174652070726F706F7361 PUSH1 0x44 DUP3 ADD MSTORE PUSH2 0x6C73 PUSH1 0xF0 SHL PUSH1 0x64 DUP3 ADD MSTORE PUSH1 0x84 ADD PUSH2 0xAFA JUMP JUMPDEST PUSH1 0x1 PUSH1 0x1 PUSH1 0xA0 SHL SUB DUP7 AND PUSH2 0x2187 JUMPI PUSH1 0x40 MLOAD PUSH3 0x461BCD PUSH1 0xE5 SHL DUP2 MSTORE PUSH1 0x4 ADD PUSH2 0xAFA SWAP1 PUSH2 0x421E JUMP JUMPDEST PUSH1 0x0 DUP6 GT PUSH2 0x21A7 JUMPI PUSH1 0x40 MLOAD PUSH3 0x461BCD PUSH1 0xE5 SHL DUP2 MSTORE PUSH1 0x4 ADD PUSH2 0xAFA SWAP1 PUSH2 0x4284 JUMP JUMPDEST PUSH1 0x1 PUSH1 0x1 PUSH1 0xA0 SHL SUB DUP7 AND PUSH1 0x0 SWAP1 DUP2 MSTORE PUSH1 0xE PUSH1 0x20 MSTORE PUSH1 0x40 SWAP1 KECCAK256 SLOAD PUSH1 0xFF AND PUSH2 0x2207 JUMPI PUSH1 0x40 MLOAD PUSH3 0x461BCD PUSH1 0xE5 SHL DUP2 MSTORE PUSH1 0x20 PUSH1 0x4 DUP3 ADD MSTORE PUSH1 0x15 PUSH1 0x24 DUP3 ADD MSTORE PUSH21 0x141C9BDD1BD8DBDB081B9BDD08185C1C1C9BDD9959 PUSH1 0x5A SHL PUSH1 0x44 DUP3 ADD MSTORE PUSH1 0x64 ADD PUSH2 0xAFA JUMP JUMPDEST PUSH1 0x0 DUP3 MLOAD GT PUSH2 0x2258 JUMPI PUSH1 0x40 MLOAD PUSH3 0x461BCD PUSH1 0xE5 SHL DUP2 MSTORE PUSH1 0x20 PUSH1 0x4 DUP3 ADD MSTORE PUSH1 0x18 PUSH1 0x24 DUP3 ADD MSTORE PUSH32 0x5269736B206173736573736D656E742072657175697265640000000000000000 PUSH1 0x44 DUP3 ADD MSTORE PUSH1 0x64 ADD PUSH2 0xAFA JUMP JUMPDEST PUSH1 0x10 PUSH1 0x0 DUP6 PUSH1 0x3 DUP2 GT ISZERO PUSH2 0x226E JUMPI PUSH2 0x226E PUSH2 0x39A8 JUMP JUMPDEST PUSH1 0x3 DUP2 GT ISZERO PUSH2 0x227F JUMPI PUSH2 0x227F PUSH2 0x39A8 JUMP JUMPDEST DUP2 MSTORE PUSH1 0x20 ADD SWAP1 DUP2 MSTORE PUSH1 0x20 ADD PUSH1 0x0 KECCAK256 SLOAD DUP6 GT ISZERO PUSH2 0x22DD JUMPI PUSH1 0x40 MLOAD PUSH3 0x461BCD PUSH1 0xE5 SHL DUP2 MSTORE PUSH1 0x20 PUSH1 0x4 DUP3 ADD MSTORE PUSH1 0x19 PUSH1 0x24 DUP3 ADD MSTORE PUSH32 0x416D6F756E742065786365656473207269736B206C696D697400000000000000 PUSH1 0x44 DUP3 ADD MSTORE PUSH1 0x64 ADD PUSH2 0xAFA JUMP JUMPDEST PUSH1 0x3 DUP1 SLOAD SWAP1 PUSH1 0x0 PUSH2 0x22ED DUP4 PUSH2 0x4354 JUMP JUMPDEST SWAP1 SWAP2 SSTORE POP POP PUSH1 0x3 SLOAD PUSH1 0x40 DUP1 MLOAD PUSH2 0x160 DUP2 ADD SWAP1 SWAP2 MSTORE DUP2 DUP2 MSTORE PUSH1 0x20 DUP2 ADD DUP10 PUSH1 0x4 DUP2 GT ISZERO PUSH2 0x231A JUMPI PUSH2 0x231A PUSH2 0x39A8 JUMP JUMPDEST DUP2 MSTORE PUSH1 0x20 ADD DUP9 PUSH1 0x1 PUSH1 0x1 PUSH1 0xA0 SHL SUB AND DUP2 MSTORE PUSH1 0x20 ADD DUP8 DUP2 MSTORE PUSH1 0x20 ADD DUP7 PUSH1 0x3 DUP2 GT ISZERO PUSH2 0x2346 JUMPI PUSH2 0x2346 PUSH2 0x39A8 JUMP JUMPDEST DUP2 MSTORE PUSH1 0x20 DUP2 ADD DUP7 SWAP1 MSTORE CALLER PUSH1 0x40 DUP3 ADD MSTORE PUSH1 0x60 ADD PUSH1 0x0 DUP2 MSTORE PUSH1 0x20 ADD TIMESTAMP DUP2 MSTORE PUSH1 0x20 ADD DUP5 DUP2 MSTORE PUSH1 0x20 ADD PUSH5 0xE8D4A51000 DUP9 GT DUP1 PUSH2 0x2390 JUMPI POP PUSH1 0x2 DUP8 PUSH1 0x3 DUP2 GT ISZERO PUSH2 0x238D JUMPI PUSH2 0x238D PUSH2 0x39A8 JUMP JUMPDEST LT ISZERO JUMPDEST ISZERO ISZERO SWAP1 MSTORE PUSH1 0x0 DUP3 DUP2 MSTORE PUSH1 0xD PUSH1 0x20 SWAP1 DUP2 MSTORE PUSH1 0x40 SWAP1 SWAP2 KECCAK256 DUP3 MLOAD DUP2 SSTORE SWAP1 DUP3 ADD MLOAD PUSH1 0x1 DUP1 DUP4 ADD DUP1 SLOAD SWAP1 SWAP2 PUSH1 0xFF NOT SWAP1 SWAP2 AND SWAP1 DUP4 PUSH1 0x4 DUP2 GT ISZERO PUSH2 0x23CF JUMPI PUSH2 0x23CF PUSH2 0x39A8 JUMP JUMPDEST MUL OR SWAP1 SSTORE POP PUSH1 0x40 DUP3 ADD MLOAD DUP2 PUSH1 0x1 ADD PUSH1 0x1 PUSH2 0x100 EXP DUP2 SLOAD DUP2 PUSH1 0x1 PUSH1 0x1 PUSH1 0xA0 SHL SUB MUL NOT AND SWAP1 DUP4 PUSH1 0x1 PUSH1 0x1 PUSH1 0xA0 SHL SUB AND MUL OR SWAP1 SSTORE POP PUSH1 0x60 DUP3 ADD MLOAD DUP2 PUSH1 0x2 ADD SSTORE PUSH1 0x80 DUP3 ADD MLOAD DUP2 PUSH1 0x3 ADD PUSH1 0x0 PUSH2 0x100 EXP DUP2 SLOAD DUP2 PUSH1 0xFF MUL NOT AND SWAP1 DUP4 PUSH1 0x3 DUP2 GT ISZERO PUSH2 0x2435 JUMPI PUSH2 0x2435 PUSH2 0x39A8 JUMP JUMPDEST MUL OR SWAP1 SSTORE POP PUSH1 0xA0 DUP3 ADD MLOAD PUSH1 0x4 DUP1 DUP4 ADD SWAP2 SWAP1 SWAP2 SSTORE PUSH1 0xC0 DUP4 ADD MLOAD PUSH1 0x5 DUP4 ADD DUP1 SLOAD PUSH1 0x1 PUSH1 0x1 PUSH1 0xA0 SHL SUB SWAP1 SWAP3 AND PUSH1 0x1 PUSH1 0x1 PUSH1 0xA0 SHL SUB NOT DUP4 AND DUP2 OR DUP3 SSTORE PUSH1 0xE0 DUP7 ADD MLOAD SWAP4 SWAP2 SWAP3 PUSH1 0x1 PUSH1 0x1 PUSH1 0xA8 SHL SUB NOT AND OR SWAP1 PUSH1 0x1 PUSH1 0xA0 SHL SWAP1 DUP5 SWAP1 DUP2 GT ISZERO PUSH2 0x2498 JUMPI PUSH2 0x2498 PUSH2 0x39A8 JUMP JUMPDEST MUL OR SWAP1 SSTORE POP PUSH2 0x100 DUP3 ADD MLOAD PUSH1 0x6 DUP3 ADD SSTORE PUSH2 0x120 DUP3 ADD MLOAD PUSH1 0x7 DUP3 ADD SWAP1 PUSH2 0x24BD SWAP1 DUP3 PUSH2 0x43BB JUMP JUMPDEST POP PUSH2 0x140 SWAP2 SWAP1 SWAP2 ADD MLOAD PUSH1 0x8 SWAP1 SWAP2 ADD DUP1 SLOAD PUSH1 0xFF NOT AND SWAP2 ISZERO ISZERO SWAP2 SWAP1 SWAP2 OR SWAP1 SSTORE CALLER PUSH1 0x0 SWAP1 DUP2 MSTORE PUSH1 0x15 PUSH1 0x20 SWAP1 DUP2 MSTORE PUSH1 0x40 DUP1 DUP4 KECCAK256 DUP1 SLOAD PUSH1 0x1 DUP2 ADD DUP3 SSTORE SWAP1 DUP5 MSTORE SWAP2 SWAP1 SWAP3 KECCAK256 ADD DUP3 SWAP1 SSTORE MLOAD DUP2 SWAP1 PUSH32 0x28DCEB9730B2C28F69E60F580EB1C4FA31AA52C182A114044AA1459FE17F3D0B SWAP1 PUSH2 0x2531 SWAP1 DUP12 SWAP1 DUP11 SWAP1 PUSH2 0x4546 JUMP JUMPDEST PUSH1 0x40 MLOAD DUP1 SWAP2 SUB SWAP1 LOG2 SWAP8 SWAP7 POP POP POP POP POP POP POP JUMP JUMPDEST PUSH1 0x9 PUSH1 0x20 MSTORE PUSH1 0x0 SWAP1 DUP2 MSTORE PUSH1 0x40 SWAP1 KECCAK256 DUP1 SLOAD PUSH1 0x1 DUP3 ADD SLOAD PUSH1 0x2 DUP4 ADD DUP1 SLOAD PUSH1 0xFF DUP1 DUP6 AND SWAP6 PUSH2 0x100 SWAP1 SWAP6 DIV AND SWAP4 SWAP2 SWAP1 PUSH2 0x2578 SWAP1 PUSH2 0x41E4 JUMP JUMPDEST DUP1 PUSH1 0x1F ADD PUSH1 0x20 DUP1 SWAP2 DIV MUL PUSH1 0x20 ADD PUSH1 0x40 MLOAD SWAP1 DUP2 ADD PUSH1 0x40 MSTORE DUP1 SWAP3 SWAP2 SWAP1 DUP2 DUP2 MSTORE PUSH1 0x20 ADD DUP3 DUP1 SLOAD PUSH2 0x25A4 SWAP1 PUSH2 0x41E4 JUMP JUMPDEST DUP1 ISZERO PUSH2 0x25F1 JUMPI DUP1 PUSH1 0x1F LT PUSH2 0x25C6 JUMPI PUSH2 0x100 DUP1 DUP4 SLOAD DIV MUL DUP4 MSTORE SWAP2 PUSH1 0x20 ADD SWAP2 PUSH2 0x25F1 JUMP JUMPDEST DUP3 ADD SWAP2 SWAP1 PUSH1 0x0 MSTORE PUSH1 0x20 PUSH1 0x0 KECCAK256 SWAP1 JUMPDEST DUP2 SLOAD DUP2 MSTORE SWAP1 PUSH1 0x1 ADD SWAP1 PUSH1 0x20 ADD DUP1 DUP4 GT PUSH2 0x25D4 JUMPI DUP3 SWAP1 SUB PUSH1 0x1F AND DUP3 ADD SWAP2 JUMPDEST POP POP POP POP POP SWAP1 DUP1 PUSH1 0x3 ADD SLOAD SWAP1 DUP1 PUSH1 0x4 ADD SLOAD SWAP1 DUP1 PUSH1 0x5 ADD SLOAD SWAP1 POP DUP8 JUMP JUMPDEST PUSH2 0x2615 PUSH2 0x37D9 JUMP JUMPDEST PUSH2 0x261F PUSH1 0x0 PUSH2 0x38CE JUMP JUMPDEST JUMP JUMPDEST PUSH1 0xA SLOAD PUSH1 0x0 SWAP1 PUSH1 0x1 PUSH1 0x1 PUSH1 0xA0 SHL SUB AND PUSH2 0x263C JUMPI POP PUSH1 0x1 PUSH2 0x26E1 JUMP JUMPDEST PUSH1 0x0 DUP6 DUP6 DUP6 DUP6 TIMESTAMP PUSH1 0x40 MLOAD PUSH1 0x20 ADD PUSH2 0x2657 SWAP6 SWAP5 SWAP4 SWAP3 SWAP2 SWAP1 PUSH2 0x455D JUMP JUMPDEST PUSH1 0x40 DUP1 MLOAD PUSH1 0x1F NOT DUP2 DUP5 SUB ADD DUP2 MSTORE SWAP1 DUP3 SWAP1 MSTORE PUSH1 0xA SLOAD PUSH4 0x67A34F83 PUSH1 0xE0 SHL DUP4 MSTORE SWAP1 SWAP3 POP PUSH1 0x1 PUSH1 0x1 PUSH1 0xA0 SHL SUB AND SWAP1 PUSH4 0x67A34F83 SWAP1 PUSH2 0x269C SWAP1 DUP10 SWAP1 ADDRESS SWAP1 DUP10 SWAP1 DUP8 SWAP1 PUSH1 0x4 ADD PUSH2 0x45A2 JUMP JUMPDEST PUSH1 0x20 PUSH1 0x40 MLOAD DUP1 DUP4 SUB DUP2 DUP7 GAS STATICCALL ISZERO DUP1 ISZERO PUSH2 0x26B9 JUMPI RETURNDATASIZE PUSH1 0x0 DUP1 RETURNDATACOPY RETURNDATASIZE PUSH1 0x0 REVERT JUMPDEST POP POP POP POP PUSH1 0x40 MLOAD RETURNDATASIZE PUSH1 0x1F NOT PUSH1 0x1F DUP3 ADD AND DUP3 ADD DUP1 PUSH1 0x40 MSTORE POP DUP2 ADD SWAP1 PUSH2 0x26DD SWAP2 SWAP1 PUSH2 0x45DF JUMP JUMPDEST SWAP2 POP POP JUMPDEST SWAP5 SWAP4 POP POP POP POP JUMP JUMPDEST PUSH2 0x26F1 PUSH2 0x37D9 JUMP JUMPDEST PUSH1 0x0 DUP2 DUP2 MSTORE PUSH1 0xD PUSH1 0x20 MSTORE PUSH1 0x40 DUP2 KECCAK256 SLOAD SWAP1 SUB PUSH2 0x2748 JUMPI PUSH1 0x40 MLOAD PUSH3 0x461BCD PUSH1 0xE5 SHL DUP2 MSTORE PUSH1 0x20 PUSH1 0x4 DUP3 ADD MSTORE PUSH1 0x17 PUSH1 0x24 DUP3 ADD MSTORE PUSH23 0x141C9BDC1BDCD85B08191BD95CC81B9BDD08195E1A5CDD PUSH1 0x4A SHL PUSH1 0x44 DUP3 ADD MSTORE PUSH1 0x64 ADD PUSH2 0xAFA JUMP JUMPDEST PUSH1 0x0 DUP1 DUP3 DUP2 MSTORE PUSH1 0xD PUSH1 0x20 MSTORE PUSH1 0x40 SWAP1 KECCAK256 PUSH1 0x5 ADD SLOAD PUSH1 0x1 PUSH1 0xA0 SHL SWAP1 DIV PUSH1 0xFF AND PUSH1 0x4 DUP2 GT ISZERO PUSH2 0x2776 JUMPI PUSH2 0x2776 PUSH2 0x39A8 JUMP JUMPDEST EQ PUSH2 0x27BA JUMPI PUSH1 0x40 MLOAD PUSH3 0x461BCD PUSH1 0xE5 SHL DUP2 MSTORE PUSH1 0x20 PUSH1 0x4 DUP3 ADD MSTORE PUSH1 0x14 PUSH1 0x24 DUP3 ADD MSTORE PUSH20 0x50726F706F73616C206E6F742070656E64696E67 PUSH1 0x60 SHL PUSH1 0x44 DUP3 ADD MSTORE PUSH1 0x64 ADD PUSH2 0xAFA JUMP JUMPDEST PUSH1 0x0 DUP2 DUP2 MSTORE PUSH1 0xD PUSH1 0x20 SWAP1 DUP2 MSTORE PUSH1 0x40 DUP1 DUP4 KECCAK256 PUSH1 0x1 DUP2 ADD SLOAD PUSH1 0x2 SWAP1 SWAP2 ADD SLOAD SWAP2 MLOAD PUSH2 0x27F6 SWAP4 PUSH1 0x1 PUSH1 0x1 PUSH1 0xA0 SHL SUB PUSH2 0x100 DUP5 DIV AND SWAP4 SWAP3 PUSH1 0xFF AND SWAP2 ADD PUSH2 0x4601 JUMP JUMPDEST PUSH1 0x40 DUP1 MLOAD PUSH1 0x1F NOT DUP2 DUP5 SUB ADD DUP2 MSTORE SWAP2 SWAP1 MSTORE PUSH1 0xA SLOAD SWAP1 SWAP2 POP PUSH1 0x1 SWAP1 PUSH1 0x1 PUSH1 0x1 PUSH1 0xA0 SHL SUB AND ISZERO PUSH2 0x28B7 JUMPI PUSH1 0xA SLOAD PUSH1 0x0 DUP5 DUP2 MSTORE PUSH1 0xD PUSH1 0x20 MSTORE PUSH1 0x40 SWAP1 DUP2 SWAP1 KECCAK256 PUSH1 0x1 DUP2 ADD SLOAD PUSH1 0x2 SWAP1 SWAP2 ADD SLOAD SWAP2 MLOAD PUSH4 0x67A34F83 PUSH1 0xE0 SHL DUP2 MSTORE PUSH1 0x1 PUSH1 0x1 PUSH1 0xA0 SHL SUB SWAP4 DUP5 AND SWAP4 PUSH4 0x67A34F83 SWAP4 PUSH2 0x2873 SWAP4 ADDRESS SWAP4 PUSH2 0x100 SWAP1 SWAP2 DIV SWAP1 SWAP3 AND SWAP2 DUP9 SWAP1 PUSH1 0x4 ADD PUSH2 0x45A2 JUMP JUMPDEST PUSH1 0x20 PUSH1 0x40 MLOAD DUP1 DUP4 SUB DUP2 DUP7 GAS STATICCALL ISZERO DUP1 ISZERO PUSH2 0x2890 JUMPI RETURNDATASIZE PUSH1 0x0 DUP1 RETURNDATACOPY RETURNDATASIZE PUSH1 0x0 REVERT JUMPDEST POP POP POP POP PUSH1 0x40 MLOAD RETURNDATASIZE PUSH1 0x1F NOT PUSH1 0x1F DUP3 ADD AND DUP3 ADD DUP1 PUSH1 0x40 MSTORE POP DUP2 ADD SWAP1 PUSH2 0x28B4 SWAP2 SWAP1 PUSH2 0x45DF JUMP JUMPDEST SWAP1 POP JUMPDEST DUP1 ISZERO PUSH2 0x28E3 JUMPI POP POP PUSH1 0x0 SWAP1 DUP2 MSTORE PUSH1 0xD PUSH1 0x20 MSTORE PUSH1 0x40 SWAP1 KECCAK256 PUSH1 0x5 ADD DUP1 SLOAD PUSH1 0xFF PUSH1 0xA0 SHL NOT AND PUSH1 0x1 PUSH1 0xA0 SHL OR SWAP1 SSTORE JUMP JUMPDEST PUSH1 0x0 DUP4 DUP2 MSTORE PUSH1 0xD PUSH1 0x20 MSTORE PUSH1 0x40 SWAP1 DUP2 SWAP1 KECCAK256 PUSH1 0x5 ADD DUP1 SLOAD PUSH1 0xFF PUSH1 0xA0 SHL NOT AND PUSH1 0x1 PUSH1 0xA1 SHL OR SWAP1 SSTORE MLOAD PUSH3 0x461BCD PUSH1 0xE5 SHL DUP2 MSTORE PUSH2 0xAFA SWAP1 PUSH1 0x4 ADD PUSH2 0x44E1 JUMP JUMPDEST POP POP POP JUMP JUMPDEST PUSH2 0x292A PUSH2 0x37D9 JUMP JUMPDEST PUSH1 0x1 PUSH1 0x1 PUSH1 0xA0 SHL SUB DUP3 AND PUSH2 0x2950 JUMPI PUSH1 0x40 MLOAD PUSH3 0x461BCD PUSH1 0xE5 SHL DUP2 MSTORE PUSH1 0x4 ADD PUSH2 0xAFA SWAP1 PUSH2 0x421E JUMP JUMPDEST PUSH1 0x0 DUP2 MLOAD GT PUSH2 0x2998 JUMPI PUSH1 0x40 MLOAD PUSH3 0x461BCD PUSH1 0xE5 SHL DUP2 MSTORE PUSH1 0x20 PUSH1 0x4 DUP3 ADD MSTORE PUSH1 0x14 PUSH1 0x24 DUP3 ADD MSTORE PUSH20 0x4E616D652063616E6E6F7420626520656D707479 PUSH1 0x60 SHL PUSH1 0x44 DUP3 ADD MSTORE PUSH1 0x64 ADD PUSH2 0xAFA JUMP JUMPDEST PUSH1 0x1 PUSH1 0x1 PUSH1 0xA0 SHL SUB DUP3 AND PUSH1 0x0 DUP2 DUP2 MSTORE PUSH1 0x7 PUSH1 0x20 MSTORE PUSH1 0x40 SWAP1 DUP2 SWAP1 KECCAK256 DUP1 SLOAD PUSH1 0xFF NOT AND PUSH1 0x1 OR SWAP1 SSTORE MLOAD PUSH32 0x73BDF89E59EDFB29506FABA5617B5A05784F35F90F1652BDC33BE18659EEBFAF SWAP1 PUSH2 0x13C3 SWAP1 DUP5 SWAP1 PUSH2 0x3F71 JUMP JUMPDEST PUSH1 0x12 PUSH1 0x20 MSTORE PUSH1 0x0 SWAP1 DUP2 MSTORE PUSH1 0x40 SWAP1 KECCAK256 DUP1 SLOAD PUSH2 0x2A04 SWAP1 PUSH2 0x41E4 JUMP JUMPDEST DUP1 PUSH1 0x1F ADD PUSH1 0x20 DUP1 SWAP2 DIV MUL PUSH1 0x20 ADD PUSH1 0x40 MLOAD SWAP1 DUP2 ADD PUSH1 0x40 MSTORE DUP1 SWAP3 SWAP2 SWAP1 DUP2 DUP2 MSTORE PUSH1 0x20 ADD DUP3 DUP1 SLOAD PUSH2 0x2A30 SWAP1 PUSH2 0x41E4 JUMP JUMPDEST DUP1 ISZERO PUSH2 0x2A7D JUMPI DUP1 PUSH1 0x1F LT PUSH2 0x2A52 JUMPI PUSH2 0x100 DUP1 DUP4 SLOAD DIV MUL DUP4 MSTORE SWAP2 PUSH1 0x20 ADD SWAP2 PUSH2 0x2A7D JUMP JUMPDEST DUP3 ADD SWAP2 SWAP1 PUSH1 0x0 MSTORE PUSH1 0x20 PUSH1 0x0 KECCAK256 SWAP1 JUMPDEST DUP2 SLOAD DUP2 MSTORE SWAP1 PUSH1 0x1 ADD SWAP1 PUSH1 0x20 ADD DUP1 DUP4 GT PUSH2 0x2A60 JUMPI DUP3 SWAP1 SUB PUSH1 0x1F AND DUP3 ADD SWAP2 JUMPDEST POP POP POP POP POP DUP2 JUMP JUMPDEST PUSH1 0x0 DUP1 PUSH1 0x0 DUP1 DUP6 DUP6 GT PUSH2 0x2ADA JUMPI PUSH1 0x40 MLOAD PUSH3 0x461BCD PUSH1 0xE5 SHL DUP2 MSTORE PUSH1 0x20 PUSH1 0x4 DUP3 ADD MSTORE PUSH1 0x17 PUSH1 0x24 DUP3 ADD MSTORE PUSH32 0x496E76616C69642074696D657374616D702072616E6765000000000000000000 PUSH1 0x44 DUP3 ADD MSTORE PUSH1 0x64 ADD PUSH2 0xAFA JUMP JUMPDEST PUSH1 0x0 DUP1 DUP1 PUSH1 0x1 JUMPDEST PUSH1 0x2 SLOAD DUP2 GT PUSH2 0x2C6C JUMPI PUSH1 0x0 DUP2 DUP2 MSTORE PUSH1 0xC PUSH1 0x20 SWAP1 DUP2 MSTORE PUSH1 0x40 DUP1 DUP4 KECCAK256 DUP2 MLOAD PUSH2 0x160 DUP2 ADD SWAP1 SWAP3 MSTORE DUP1 SLOAD DUP3 MSTORE PUSH1 0x1 DUP2 ADD SLOAD SWAP2 SWAP3 SWAP1 SWAP2 SWAP1 DUP4 ADD SWAP1 PUSH1 0xFF AND PUSH1 0x4 DUP2 GT ISZERO PUSH2 0x2B2A JUMPI PUSH2 0x2B2A PUSH2 0x39A8 JUMP JUMPDEST PUSH1 0x4 DUP2 GT ISZERO PUSH2 0x2B3B JUMPI PUSH2 0x2B3B PUSH2 0x39A8 JUMP JUMPDEST DUP2 MSTORE PUSH1 0x1 DUP3 ADD SLOAD PUSH2 0x100 SWAP1 DIV PUSH1 0x1 PUSH1 0x1 PUSH1 0xA0 SHL SUB AND PUSH1 0x20 DUP3 ADD MSTORE PUSH1 0x2 DUP3 ADD SLOAD PUSH1 0x40 DUP3 ADD MSTORE PUSH1 0x3 DUP1 DUP4 ADD SLOAD PUSH1 0x60 SWAP1 SWAP3 ADD SWAP2 PUSH1 0xFF AND SWAP1 DUP2 GT ISZERO PUSH2 0x2B7E JUMPI PUSH2 0x2B7E PUSH2 0x39A8 JUMP JUMPDEST PUSH1 0x3 DUP2 GT ISZERO PUSH2 0x2B8F JUMPI PUSH2 0x2B8F PUSH2 0x39A8 JUMP JUMPDEST DUP2 MSTORE PUSH1 0x4 DUP3 ADD SLOAD PUSH1 0x20 DUP3 ADD MSTORE PUSH1 0x5 DUP3 ADD SLOAD PUSH1 0x40 DUP3 ADD MSTORE PUSH1 0x6 DUP3 ADD SLOAD PUSH1 0x60 DUP3 ADD MSTORE PUSH1 0x7 DUP3 ADD SLOAD PUSH1 0x80 DUP3 ADD MSTORE PUSH1 0x8 SWAP1 SWAP2 ADD SLOAD PUSH1 0xFF DUP1 DUP3 AND ISZERO ISZERO PUSH1 0xA0 DUP5 ADD MSTORE PUSH2 0x100 SWAP1 SWAP2 DIV AND ISZERO ISZERO PUSH1 0xC0 SWAP1 SWAP2 ADD MSTORE PUSH1 0xE0 DUP2 ADD MLOAD SWAP1 SWAP2 POP DUP12 GT DUP1 ISZERO SWAP1 PUSH2 0x2C10 JUMPI POP DUP10 DUP2 PUSH2 0x100 ADD MLOAD GT ISZERO DUP1 PUSH2 0x2C10 JUMPI POP PUSH2 0x100 DUP2 ADD MLOAD ISZERO DUP1 ISZERO PUSH2 0x2C10 JUMPI POP DUP1 PUSH2 0x120 ADD MLOAD JUMPDEST ISZERO PUSH2 0x2C59 JUMPI PUSH1 0xC0 DUP2 ADD MLOAD PUSH2 0x2C24 SWAP1 DUP7 PUSH2 0x42F2 JUMP JUMPDEST SWAP5 POP DUP1 PUSH2 0x120 ADD MLOAD ISZERO PUSH2 0x2C47 JUMPI PUSH1 0xC0 DUP2 ADD MLOAD PUSH2 0x2C40 SWAP1 DUP5 PUSH2 0x42F2 JUMP JUMPDEST SWAP3 POP PUSH2 0x2C59 JUMP JUMPDEST PUSH1 0xC0 DUP2 ADD MLOAD PUSH2 0x2C56 SWAP1 DUP6 PUSH2 0x42F2 JUMP JUMPDEST SWAP4 POP JUMPDEST POP DUP1 PUSH2 0x2C64 DUP2 PUSH2 0x4354 JUMP JUMPDEST SWAP2 POP POP PUSH2 0x2AE1 JUMP JUMPDEST POP PUSH1 0x0 PUSH2 0x2C79 DUP11 DUP11 PUSH2 0x42CF JUMP JUMPDEST SWAP1 POP PUSH1 0x0 PUSH4 0xBBF81E00 DUP3 PUSH1 0xB SLOAD PUSH1 0x2 PUSH2 0x2C92 SWAP2 SWAP1 PUSH2 0x4305 JUMP JUMPDEST PUSH2 0x2C9C SWAP2 SWAP1 PUSH2 0x4305 JUMP JUMPDEST PUSH2 0x2CA6 SWAP2 SWAP1 PUSH2 0x431C JUMP JUMPDEST SWAP5 SWAP12 SWAP4 SWAP11 POP SWAP2 SWAP9 POP SWAP3 SWAP7 POP SWAP1 SWAP5 POP POP POP POP POP JUMP JUMPDEST PUSH2 0x2CC2 PUSH2 0x37D9 JUMP JUMPDEST PUSH1 0x1 PUSH1 0x1 PUSH1 0xA0 SHL SUB DUP4 AND PUSH2 0x2D13 JUMPI PUSH1 0x40 MLOAD PUSH3 0x461BCD PUSH1 0xE5 SHL DUP2 MSTORE PUSH1 0x20 PUSH1 0x4 DUP3 ADD MSTORE PUSH1 0x18 PUSH1 0x24 DUP3 ADD MSTORE PUSH24 0x496E76616C696420696E766573746F722061646472657373 PUSH1 0x40 SHL PUSH1 0x44 DUP3 ADD MSTORE PUSH1 0x64 ADD PUSH2 0xAFA JUMP JUMPDEST PUSH1 0x0 DUP3 GT DUP1 ISZERO PUSH2 0x2D24 JUMPI POP PUSH1 0x3 DUP3 GT ISZERO JUMPDEST PUSH2 0x2D64 JUMPI PUSH1 0x40 MLOAD PUSH3 0x461BCD PUSH1 0xE5 SHL DUP2 MSTORE PUSH1 0x20 PUSH1 0x4 DUP3 ADD MSTORE PUSH1 0x11 PUSH1 0x24 DUP3 ADD MSTORE PUSH17 0x125B9D985B1A590812D650C81B195D995B PUSH1 0x7A SHL PUSH1 0x44 DUP3 ADD MSTORE PUSH1 0x64 ADD PUSH2 0xAFA JUMP JUMPDEST PUSH1 0x0 DUP2 MLOAD GT PUSH2 0x2DB5 JUMPI PUSH1 0x40 MLOAD PUSH3 0x461BCD PUSH1 0xE5 SHL DUP2 MSTORE PUSH1 0x20 PUSH1 0x4 DUP3 ADD MSTORE PUSH1 0x1C PUSH1 0x24 DUP3 ADD MSTORE PUSH32 0x4A7572697364696374696F6E2063616E6E6F7420626520656D70747900000000 PUSH1 0x44 DUP3 ADD MSTORE PUSH1 0x64 ADD PUSH2 0xAFA JUMP JUMPDEST PUSH1 0x40 DUP1 MLOAD PUSH1 0xE0 DUP2 ADD DUP3 MSTORE PUSH1 0x1 DUP1 DUP3 MSTORE PUSH1 0x20 DUP1 DUP4 ADD DUP3 DUP2 MSTORE DUP4 DUP6 ADD DUP8 DUP2 MSTORE PUSH1 0x60 DUP6 ADD DUP8 DUP2 MSTORE PUSH1 0x0 PUSH1 0x80 DUP8 ADD DUP2 SWAP1 MSTORE PUSH1 0xA0 DUP8 ADD DUP2 SWAP1 MSTORE TIMESTAMP PUSH1 0xC0 DUP9 ADD MSTORE PUSH1 0x1 PUSH1 0x1 PUSH1 0xA0 SHL SUB DUP12 AND DUP2 MSTORE PUSH1 0x9 SWAP1 SWAP5 MSTORE SWAP6 SWAP1 SWAP3 KECCAK256 DUP5 MLOAD DUP2 SLOAD SWAP3 MLOAD PUSH2 0xFFFF NOT SWAP1 SWAP4 AND SWAP1 ISZERO ISZERO PUSH2 0xFF00 NOT AND OR PUSH2 0x100 SWAP3 ISZERO ISZERO SWAP3 SWAP1 SWAP3 MUL SWAP2 SWAP1 SWAP2 OR DUP2 SSTORE SWAP1 MLOAD SWAP2 DUP2 ADD SWAP2 SWAP1 SWAP2 SSTORE SWAP2 MLOAD SWAP1 SWAP2 SWAP1 PUSH1 0x2 DUP3 ADD SWAP1 PUSH2 0x2E47 SWAP1 DUP3 PUSH2 0x43BB JUMP JUMPDEST POP PUSH1 0x80 DUP3 ADD MLOAD DUP2 PUSH1 0x3 ADD SSTORE PUSH1 0xA0 DUP3 ADD MLOAD DUP2 PUSH1 0x4 ADD SSTORE PUSH1 0xC0 DUP3 ADD MLOAD DUP2 PUSH1 0x5 ADD SSTORE SWAP1 POP POP DUP3 PUSH1 0x1 PUSH1 0x1 PUSH1 0xA0 SHL SUB AND PUSH32 0x2AAE2CB11A8581BFE1AD55FFECCE1AF2D43A998B73E2F3A6AEC6FEB4153C025 DUP4 DUP4 PUSH1 0x40 MLOAD PUSH2 0x2EA4 SWAP3 SWAP2 SWAP1 PUSH2 0x462F JUMP JUMPDEST PUSH1 0x40 MLOAD DUP1 SWAP2 SUB SWAP1 LOG2 POP POP POP JUMP JUMPDEST PUSH2 0x2EB9 PUSH2 0x37D9 JUMP JUMPDEST PUSH1 0x1 PUSH1 0x1 PUSH1 0xA0 SHL SUB DUP3 AND PUSH2 0x2EDF JUMPI PUSH1 0x40 MLOAD PUSH3 0x461BCD PUSH1 0xE5 SHL DUP2 MSTORE PUSH1 0x4 ADD PUSH2 0xAFA SWAP1 PUSH2 0x4255 JUMP JUMPDEST PUSH1 0x0 DUP2 GT PUSH2 0x2F39 JUMPI PUSH1 0x40 MLOAD PUSH3 0x461BCD PUSH1 0xE5 SHL DUP2 MSTORE PUSH1 0x20 PUSH1 0x4 DUP3 ADD MSTORE PUSH1 0x21 PUSH1 0x24 DUP3 ADD MSTORE PUSH32 0x5769746864726177616C206C696D6974206D75737420626520706F7369746976 PUSH1 0x44 DUP3 ADD MSTORE PUSH1 0x65 PUSH1 0xF8 SHL PUSH1 0x64 DUP3 ADD MSTORE PUSH1 0x84 ADD PUSH2 0xAFA JUMP JUMPDEST PUSH1 0x1 PUSH1 0x1 PUSH1 0xA0 SHL SUB DUP3 AND PUSH1 0x0 DUP2 DUP2 MSTORE PUSH1 0x5 PUSH1 0x20 SWAP1 DUP2 MSTORE PUSH1 0x40 DUP1 DUP4 KECCAK256 DUP1 SLOAD PUSH1 0xFF NOT AND PUSH1 0x1 OR SWAP1 SSTORE PUSH1 0x6 DUP3 MSTORE SWAP2 DUP3 SWAP1 KECCAK256 DUP5 SWAP1 SSTORE SWAP1 MLOAD DUP4 DUP2 MSTORE PUSH32 0xE184914670D9E097E90729E2A9159866B30B1203952F0586BEDCA1D6FCF130A8 SWAP2 ADD PUSH2 0x13C3 JUMP JUMPDEST PUSH1 0x40 DUP1 MLOAD PUSH2 0x160 DUP2 ADD DUP3 MSTORE PUSH1 0x0 DUP1 DUP3 MSTORE PUSH1 0x20 DUP3 ADD DUP2 SWAP1 MSTORE SWAP2 DUP2 ADD DUP3 SWAP1 MSTORE PUSH1 0x60 DUP1 DUP3 ADD DUP4 SWAP1 MSTORE PUSH1 0x80 DUP3 ADD DUP4 SWAP1 MSTORE PUSH1 0xA0 DUP3 ADD DUP4 SWAP1 MSTORE PUSH1 0xC0 DUP3 ADD DUP4 SWAP1 MSTORE PUSH1 0xE0 DUP3 ADD DUP4 SWAP1 MSTORE PUSH2 0x100 DUP3 ADD DUP4 SWAP1 MSTORE PUSH2 0x120 DUP3 ADD MSTORE PUSH2 0x140 DUP2 ADD SWAP2 SWAP1 SWAP2 MSTORE PUSH1 0x0 DUP3 DUP2 MSTORE PUSH1 0xD PUSH1 0x20 SWAP1 DUP2 MSTORE PUSH1 0x40 SWAP2 DUP3 SWAP1 KECCAK256 DUP3 MLOAD PUSH2 0x160 DUP2 ADD SWAP1 SWAP4 MSTORE DUP1 SLOAD DUP4 MSTORE PUSH1 0x1 DUP2 ADD SLOAD SWAP1 SWAP2 DUP4 ADD SWAP1 PUSH1 0xFF AND PUSH1 0x4 DUP2 GT ISZERO PUSH2 0x302D JUMPI PUSH2 0x302D PUSH2 0x39A8 JUMP JUMPDEST PUSH1 0x4 DUP2 GT ISZERO PUSH2 0x303E JUMPI PUSH2 0x303E PUSH2 0x39A8 JUMP JUMPDEST DUP2 MSTORE PUSH1 0x1 DUP3 ADD SLOAD PUSH2 0x100 SWAP1 DIV PUSH1 0x1 PUSH1 0x1 PUSH1 0xA0 SHL SUB AND PUSH1 0x20 DUP3 ADD MSTORE PUSH1 0x2 DUP3 ADD SLOAD PUSH1 0x40 DUP3 ADD MSTORE PUSH1 0x3 DUP1 DUP4 ADD SLOAD PUSH1 0x60 SWAP1 SWAP3 ADD SWAP2 PUSH1 0xFF AND SWAP1 DUP2 GT ISZERO PUSH2 0x3081 JUMPI PUSH2 0x3081 PUSH2 0x39A8 JUMP JUMPDEST PUSH1 0x3 DUP2 GT ISZERO PUSH2 0x3092 JUMPI PUSH2 0x3092 PUSH2 0x39A8 JUMP JUMPDEST DUP2 MSTORE PUSH1 0x4 DUP3 DUP2 ADD SLOAD PUSH1 0x20 DUP4 ADD MSTORE PUSH1 0x5 DUP4 ADD SLOAD PUSH1 0x1 PUSH1 0x1 PUSH1 0xA0 SHL SUB DUP2 AND PUSH1 0x40 DUP5 ADD MSTORE PUSH1 0x60 SWAP1 SWAP3 ADD SWAP2 PUSH1 0x1 PUSH1 0xA0 SHL SWAP1 DIV PUSH1 0xFF AND SWAP1 DUP2 GT ISZERO PUSH2 0x30D3 JUMPI PUSH2 0x30D3 PUSH2 0x39A8 JUMP JUMPDEST PUSH1 0x4 DUP2 GT ISZERO PUSH2 0x30E4 JUMPI PUSH2 0x30E4 PUSH2 0x39A8 JUMP JUMPDEST DUP2 MSTORE PUSH1 0x20 ADD PUSH1 0x6 DUP3 ADD SLOAD DUP2 MSTORE PUSH1 0x20 ADD PUSH1 0x7 DUP3 ADD DUP1 SLOAD PUSH2 0x3102 SWAP1 PUSH2 0x41E4 JUMP JUMPDEST DUP1 PUSH1 0x1F ADD PUSH1 0x20 DUP1 SWAP2 DIV MUL PUSH1 0x20 ADD PUSH1 0x40 MLOAD SWAP1 DUP2 ADD PUSH1 0x40 MSTORE DUP1 SWAP3 SWAP2 SWAP1 DUP2 DUP2 MSTORE PUSH1 0x20 ADD DUP3 DUP1 SLOAD PUSH2 0x312E SWAP1 PUSH2 0x41E4 JUMP JUMPDEST DUP1 ISZERO PUSH2 0x317B JUMPI DUP1 PUSH1 0x1F LT PUSH2 0x3150 JUMPI PUSH2 0x100 DUP1 DUP4 SLOAD DIV MUL DUP4 MSTORE SWAP2 PUSH1 0x20 ADD SWAP2 PUSH2 0x317B JUMP JUMPDEST DUP3 ADD SWAP2 SWAP1 PUSH1 0x0 MSTORE PUSH1 0x20 PUSH1 0x0 KECCAK256 SWAP1 JUMPDEST DUP2 SLOAD DUP2 MSTORE SWAP1 PUSH1 0x1 ADD SWAP1 PUSH1 0x20 ADD DUP1 DUP4 GT PUSH2 0x315E JUMPI DUP3 SWAP1 SUB PUSH1 0x1F AND DUP3 ADD SWAP2 JUMPDEST POP POP POP SWAP2 DUP4 MSTORE POP POP PUSH1 0x8 SWAP2 SWAP1 SWAP2 ADD SLOAD PUSH1 0xFF AND ISZERO ISZERO PUSH1 0x20 SWAP1 SWAP2 ADD MSTORE SWAP3 SWAP2 POP POP JUMP JUMPDEST PUSH1 0x1 PUSH1 0x1 PUSH1 0xA0 SHL SUB DUP1 DUP4 AND PUSH1 0x0 SWAP1 DUP2 MSTORE PUSH1 0x8 PUSH1 0x20 SWAP1 DUP2 MSTORE PUSH1 0x40 DUP1 DUP4 KECCAK256 SWAP4 DUP6 AND DUP4 MSTORE SWAP3 SWAP1 MSTORE KECCAK256 SLOAD JUMPDEST SWAP3 SWAP2 POP POP JUMP JUMPDEST PUSH2 0x31D0 PUSH2 0x37D9 JUMP JUMPDEST PUSH1 0x1 PUSH1 0x1 PUSH1 0xA0 SHL SUB DUP2 AND PUSH2 0x321F JUMPI PUSH1 0x40 MLOAD PUSH3 0x461BCD PUSH1 0xE5 SHL DUP2 MSTORE PUSH1 0x20 PUSH1 0x4 DUP3 ADD MSTORE PUSH1 0x16 PUSH1 0x24 DUP3 ADD MSTORE PUSH22 0x496E76616C6964206F7261636C652061646472657373 PUSH1 0x50 SHL PUSH1 0x44 DUP3 ADD MSTORE PUSH1 0x64 ADD PUSH2 0xAFA JUMP JUMPDEST PUSH1 0xA DUP1 SLOAD PUSH1 0x1 PUSH1 0x1 PUSH1 0xA0 SHL SUB NOT AND PUSH1 0x1 PUSH1 0x1 PUSH1 0xA0 SHL SUB DUP4 AND SWAP1 DUP2 OR SWAP1 SWAP2 SSTORE PUSH1 0x40 MLOAD PUSH32 0x240019488A3687C988F12B52D1923202D7C5619914C6D60850F76DC5482F7FF3 SWAP1 PUSH1 0x0 SWAP1 LOG2 POP JUMP JUMPDEST PUSH1 0x15 PUSH1 0x20 MSTORE DUP2 PUSH1 0x0 MSTORE PUSH1 0x40 PUSH1 0x0 KECCAK256 DUP2 DUP2 SLOAD DUP2 LT PUSH2 0x3285 JUMPI PUSH1 0x0 DUP1 REVERT JUMPDEST SWAP1 PUSH1 0x0 MSTORE PUSH1 0x20 PUSH1 0x0 KECCAK256 ADD PUSH1 0x0 SWAP2 POP SWAP2 POP POP SLOAD DUP2 JUMP JUMPDEST PUSH2 0x32A2 PUSH2 0x37D9 JUMP JUMPDEST PUSH1 0x1 PUSH1 0x1 PUSH1 0xA0 SHL SUB DUP2 AND PUSH2 0x32CC JUMPI PUSH1 0x40 MLOAD PUSH4 0x1E4FBDF7 PUSH1 0xE0 SHL DUP2 MSTORE PUSH1 0x0 PUSH1 0x4 DUP3 ADD MSTORE PUSH1 0x24 ADD PUSH2 0xAFA JUMP JUMPDEST PUSH2 0x32D5 DUP2 PUSH2 0x38CE JUMP JUMPDEST POP JUMP JUMPDEST PUSH2 0x32E0 PUSH2 0x3806 JUMP JUMPDEST PUSH1 0x1 PUSH1 0x1 PUSH1 0xA0 SHL SUB DUP3 AND PUSH2 0x3306 JUMPI PUSH1 0x40 MLOAD PUSH3 0x461BCD PUSH1 0xE5 SHL DUP2 MSTORE PUSH1 0x4 ADD PUSH2 0xAFA SWAP1 PUSH2 0x4255 JUMP JUMPDEST PUSH1 0x0 DUP2 GT PUSH2 0x3326 JUMPI PUSH1 0x40 MLOAD PUSH3 0x461BCD PUSH1 0xE5 SHL DUP2 MSTORE PUSH1 0x4 ADD PUSH2 0xAFA SWAP1 PUSH2 0x4284 JUMP JUMPDEST PUSH1 0x1 PUSH1 0x1 PUSH1 0xA0 SHL SUB DUP3 AND PUSH1 0x0 SWAP1 DUP2 MSTORE PUSH1 0x5 PUSH1 0x20 MSTORE PUSH1 0x40 SWAP1 KECCAK256 SLOAD PUSH1 0xFF AND PUSH2 0x335E JUMPI PUSH1 0x40 MLOAD PUSH3 0x461BCD PUSH1 0xE5 SHL DUP2 MSTORE PUSH1 0x4 ADD PUSH2 0xAFA SWAP1 PUSH2 0x447B JUMP JUMPDEST PUSH1 0x1 PUSH1 0x1 PUSH1 0xA0 SHL SUB DUP3 AND PUSH1 0x0 SWAP1 DUP2 MSTORE PUSH1 0x4 PUSH1 0x20 MSTORE PUSH1 0x40 SWAP1 KECCAK256 SLOAD DUP2 GT ISZERO PUSH2 0x3396 JUMPI PUSH1 0x40 MLOAD PUSH3 0x461BCD PUSH1 0xE5 SHL DUP2 MSTORE PUSH1 0x4 ADD PUSH2 0xAFA SWAP1 PUSH2 0x4518 JUMP JUMPDEST CALLER PUSH1 0x0 SWAP1 DUP2 MSTORE PUSH1 0x9 PUSH1 0x20 MSTORE PUSH1 0x40 SWAP1 KECCAK256 SLOAD PUSH1 0xFF AND PUSH2 0x33C5 JUMPI PUSH1 0x40 MLOAD PUSH3 0x461BCD PUSH1 0xE5 SHL DUP2 MSTORE PUSH1 0x4 ADD PUSH2 0xAFA SWAP1 PUSH2 0x44AA JUMP JUMPDEST CALLER PUSH1 0x0 SWAP1 DUP2 MSTORE PUSH1 0x9 PUSH1 0x20 MSTORE PUSH1 0x40 SWAP1 KECCAK256 SLOAD PUSH2 0x100 SWAP1 DIV PUSH1 0xFF AND PUSH2 0x3425 JUMPI PUSH1 0x40 MLOAD PUSH3 0x461BCD PUSH1 0xE5 SHL DUP2 MSTORE PUSH1 0x20 PUSH1 0x4 DUP3 ADD MSTORE PUSH1 0x19 PUSH1 0x24 DUP3 ADD MSTORE PUSH25 0x496E766573746F72206163636F756E7420696E616374697665 PUSH1 0x38 SHL PUSH1 0x44 DUP3 ADD MSTORE PUSH1 0x64 ADD PUSH2 0xAFA JUMP JUMPDEST PUSH2 0x3451 CALLER DUP4 DUP4 PUSH1 0x40 MLOAD DUP1 PUSH1 0x40 ADD PUSH1 0x40 MSTORE DUP1 PUSH1 0x8 DUP2 MSTORE PUSH1 0x20 ADD PUSH8 0x5749544844524157 PUSH1 0xC0 SHL DUP2 MSTORE POP PUSH2 0x2621 JUMP JUMPDEST PUSH2 0x346D JUMPI PUSH1 0x40 MLOAD PUSH3 0x461BCD PUSH1 0xE5 SHL DUP2 MSTORE PUSH1 0x4 ADD PUSH2 0xAFA SWAP1 PUSH2 0x44E1 JUMP JUMPDEST PUSH1 0x1 PUSH1 0x1 PUSH1 0xA0 SHL SUB DUP3 AND PUSH1 0x0 SWAP1 DUP2 MSTORE PUSH1 0x6 PUSH1 0x20 MSTORE PUSH1 0x40 SWAP1 KECCAK256 SLOAD DUP2 GT ISZERO PUSH2 0x34D5 JUMPI PUSH1 0x40 MLOAD PUSH3 0x461BCD PUSH1 0xE5 SHL DUP2 MSTORE PUSH1 0x20 PUSH1 0x4 DUP3 ADD MSTORE PUSH1 0x18 PUSH1 0x24 DUP3 ADD MSTORE PUSH32 0x45786365656473207769746864726177616C206C696D69740000000000000000 PUSH1 0x44 DUP3 ADD MSTORE PUSH1 0x64 ADD PUSH2 0xAFA JUMP JUMPDEST PUSH1 0x1 PUSH1 0x1 PUSH1 0xA0 SHL SUB DUP3 AND PUSH1 0x0 SWAP1 DUP2 MSTORE PUSH1 0x4 PUSH1 0x20 MSTORE PUSH1 0x40 DUP2 KECCAK256 DUP1 SLOAD DUP4 SWAP3 SWAP1 PUSH2 0x34FD SWAP1 DUP5 SWAP1 PUSH2 0x42CF JUMP JUMPDEST SWAP1 SWAP2 SSTORE POP POP CALLER PUSH1 0x0 SWAP1 DUP2 MSTORE PUSH1 0x9 PUSH1 0x20 MSTORE PUSH1 0x40 DUP2 KECCAK256 PUSH1 0x4 ADD DUP1 SLOAD DUP4 SWAP3 SWAP1 PUSH2 0x3524 SWAP1 DUP5 SWAP1 PUSH2 0x42F2 JUMP JUMPDEST SWAP1 SWAP2 SSTORE POP POP CALLER PUSH1 0x0 DUP2 DUP2 MSTORE PUSH1 0x9 PUSH1 0x20 MSTORE PUSH1 0x40 SWAP1 KECCAK256 TIMESTAMP PUSH1 0x5 SWAP1 SWAP2 ADD SSTORE PUSH2 0x3554 SWAP1 PUSH1 0x1 PUSH1 0x1 PUSH1 0xA0 SHL SUB DUP5 AND SWAP1 DUP4 PUSH2 0x389D JUMP JUMPDEST PUSH1 0x40 MLOAD DUP2 DUP2 MSTORE PUSH1 0x1 PUSH1 0x1 PUSH1 0xA0 SHL SUB DUP4 AND SWAP1 CALLER SWAP1 PUSH32 0xA92FF919B850E4909AB2261D907EF955F11BC1716733A6CBECE38D163A69AF8A SWAP1 PUSH1 0x20 ADD PUSH1 0x40 MLOAD DUP1 SWAP2 SUB SWAP1 LOG3 PUSH2 0x359D PUSH1 0x1 DUP1 SSTORE JUMP JUMPDEST POP POP JUMP JUMPDEST PUSH2 0x35A9 PUSH2 0x37D9 JUMP JUMPDEST PUSH1 0x0 DUP2 GT PUSH2 0x35F2 JUMPI PUSH1 0x40 MLOAD PUSH3 0x461BCD PUSH1 0xE5 SHL DUP2 MSTORE PUSH1 0x20 PUSH1 0x4 DUP3 ADD MSTORE PUSH1 0x16 PUSH1 0x24 DUP3 ADD MSTORE PUSH22 0x4C696D6974206D75737420626520706F736974697665 PUSH1 0x50 SHL PUSH1 0x44 DUP3 ADD MSTORE PUSH1 0x64 ADD PUSH2 0xAFA JUMP JUMPDEST DUP1 PUSH1 0x10 PUSH1 0x0 DUP5 PUSH1 0x3 DUP2 GT ISZERO PUSH2 0x3609 JUMPI PUSH2 0x3609 PUSH2 0x39A8 JUMP JUMPDEST PUSH1 0x3 DUP2 GT ISZERO PUSH2 0x361A JUMPI PUSH2 0x361A PUSH2 0x39A8 JUMP JUMPDEST DUP2 MSTORE PUSH1 0x20 ADD SWAP1 DUP2 MSTORE PUSH1 0x20 ADD PUSH1 0x0 KECCAK256 DUP2 SWAP1 SSTORE POP PUSH32 0x64FFA65079A2DE6E488576D53B97AF2BD9B94BF6EE853152E0CFF78D3BB4DF1C DUP3 DUP3 PUSH1 0x40 MLOAD PUSH2 0x365D SWAP3 SWAP2 SWAP1 PUSH2 0x4648 JUMP JUMPDEST PUSH1 0x40 MLOAD DUP1 SWAP2 SUB SWAP1 LOG1 POP POP JUMP JUMPDEST PUSH2 0x3671 PUSH2 0x37D9 JUMP JUMPDEST PUSH1 0x1 PUSH1 0x1 PUSH1 0xA0 SHL SUB DUP4 AND PUSH2 0x3697 JUMPI PUSH1 0x40 MLOAD PUSH3 0x461BCD PUSH1 0xE5 SHL DUP2 MSTORE PUSH1 0x4 ADD PUSH2 0xAFA SWAP1 PUSH2 0x4255 JUMP JUMPDEST PUSH1 0x1 PUSH1 0x1 PUSH1 0xA0 SHL SUB DUP3 AND PUSH2 0x36ED JUMPI PUSH1 0x40 MLOAD PUSH3 0x461BCD PUSH1 0xE5 SHL DUP2 MSTORE PUSH1 0x20 PUSH1 0x4 DUP3 ADD MSTORE PUSH1 0x19 PUSH1 0x24 DUP3 ADD MSTORE PUSH32 0x496E76616C696420726563697069656E74206164647265737300000000000000 PUSH1 0x44 DUP3 ADD MSTORE PUSH1 0x64 ADD PUSH2 0xAFA JUMP JUMPDEST PUSH1 0x0 DUP2 GT PUSH2 0x370D JUMPI PUSH1 0x40 MLOAD PUSH3 0x461BCD PUSH1 0xE5 SHL DUP2 MSTORE PUSH1 0x4 ADD PUSH2 0xAFA SWAP1 PUSH2 0x4284 JUMP JUMPDEST PUSH1 0x1 PUSH1 0x1 PUSH1 0xA0 SHL SUB DUP4 AND PUSH1 0x0 SWAP1 DUP2 MSTORE PUSH1 0x4 PUSH1 0x20 MSTORE PUSH1 0x40 SWAP1 KECCAK256 SLOAD DUP2 GT ISZERO PUSH2 0x3745 JUMPI PUSH1 0x40 MLOAD PUSH3 0x461BCD PUSH1 0xE5 SHL DUP2 MSTORE PUSH1 0x4 ADD PUSH2 0xAFA SWAP1 PUSH2 0x4518 JUMP JUMPDEST PUSH1 0x1 PUSH1 0x1 PUSH1 0xA0 SHL SUB DUP4 AND PUSH1 0x0 SWAP1 DUP2 MSTORE PUSH1 0x4 PUSH1 0x20 MSTORE PUSH1 0x40 DUP2 KECCAK256 DUP1 SLOAD DUP4 SWAP3 SWAP1 PUSH2 0x376D SWAP1 DUP5 SWAP1 PUSH2 0x42CF JUMP JUMPDEST SWAP1 SWAP2 SSTORE POP PUSH2 0x3787 SWAP1 POP PUSH1 0x1 PUSH1 0x1 PUSH1 0xA0 SHL SUB DUP5 AND DUP4 DUP4 PUSH2 0x389D JUMP JUMPDEST DUP2 PUSH1 0x1 PUSH1 0x1 PUSH1 0xA0 SHL SUB AND DUP4 PUSH1 0x1 PUSH1 0x1 PUSH1 0xA0 SHL SUB AND PUSH32 0x9495D03190A79A43E534C9E328FF322F6283261383F5F19C809564F6AD5A57B3 DUP4 PUSH1 0x40 MLOAD PUSH2 0x37CC SWAP2 DUP2 MSTORE PUSH1 0x20 ADD SWAP1 JUMP JUMPDEST PUSH1 0x40 MLOAD DUP1 SWAP2 SUB SWAP1 LOG3 POP POP POP JUMP JUMPDEST PUSH1 0x0 SLOAD PUSH1 0x1 PUSH1 0x1 PUSH1 0xA0 SHL SUB AND CALLER EQ PUSH2 0x261F JUMPI PUSH1 0x40 MLOAD PUSH4 0x118CDAA7 PUSH1 0xE0 SHL DUP2 MSTORE CALLER PUSH1 0x4 DUP3 ADD MSTORE PUSH1 0x24 ADD PUSH2 0xAFA JUMP JUMPDEST PUSH1 0x2 PUSH1 0x1 SLOAD SUB PUSH2 0x3829 JUMPI PUSH1 0x40 MLOAD PUSH4 0x3EE5AEB5 PUSH1 0xE0 SHL DUP2 MSTORE PUSH1 0x4 ADD PUSH1 0x40 MLOAD DUP1 SWAP2 SUB SWAP1 REVERT JUMPDEST PUSH1 0x2 PUSH1 0x1 SSTORE JUMP JUMPDEST PUSH1 0x40 MLOAD PUSH1 0x1 PUSH1 0x1 PUSH1 0xA0 SHL SUB DUP5 DUP2 AND PUSH1 0x24 DUP4 ADD MSTORE DUP4 DUP2 AND PUSH1 0x44 DUP4 ADD MSTORE PUSH1 0x64 DUP3 ADD DUP4 SWAP1 MSTORE PUSH2 0x3897 SWAP2 DUP7 SWAP2 DUP3 AND SWAP1 PUSH4 0x23B872DD SWAP1 PUSH1 0x84 ADD JUMPDEST PUSH1 0x40 MLOAD PUSH1 0x20 DUP2 DUP4 SUB SUB DUP2 MSTORE SWAP1 PUSH1 0x40 MSTORE SWAP2 POP PUSH1 0xE0 SHL PUSH1 0x20 DUP3 ADD DUP1 MLOAD PUSH1 0x1 PUSH1 0x1 PUSH1 0xE0 SHL SUB DUP4 DUP2 DUP4 AND OR DUP4 MSTORE POP POP POP POP PUSH2 0x391E JUMP JUMPDEST POP POP POP POP JUMP JUMPDEST PUSH1 0x40 MLOAD PUSH1 0x1 PUSH1 0x1 PUSH1 0xA0 SHL SUB DUP4 DUP2 AND PUSH1 0x24 DUP4 ADD MSTORE PUSH1 0x44 DUP3 ADD DUP4 SWAP1 MSTORE PUSH2 0x291D SWAP2 DUP6 SWAP2 DUP3 AND SWAP1 PUSH4 0xA9059CBB SWAP1 PUSH1 0x64 ADD PUSH2 0x3865 JUMP JUMPDEST PUSH1 0x0 DUP1 SLOAD PUSH1 0x1 PUSH1 0x1 PUSH1 0xA0 SHL SUB DUP4 DUP2 AND PUSH1 0x1 PUSH1 0x1 PUSH1 0xA0 SHL SUB NOT DUP4 AND DUP2 OR DUP5 SSTORE PUSH1 0x40 MLOAD SWAP2 SWAP1 SWAP3 AND SWAP3 DUP4 SWAP2 PUSH32 0x8BE0079C531659141344CD1FD0A4F28419497F9722A3DAAFE3B4186F6B6457E0 SWAP2 SWAP1 LOG3 POP POP JUMP JUMPDEST PUSH1 0x0 DUP1 PUSH1 0x20 PUSH1 0x0 DUP5 MLOAD PUSH1 0x20 DUP7 ADD PUSH1 0x0 DUP9 GAS CALL DUP1 PUSH2 0x3941 JUMPI PUSH1 0x40 MLOAD RETURNDATASIZE PUSH1 0x0 DUP3 RETURNDATACOPY RETURNDATASIZE DUP2 REVERT JUMPDEST POP POP PUSH1 0x0 MLOAD RETURNDATASIZE SWAP2 POP DUP2 ISZERO PUSH2 0x3959 JUMPI DUP1 PUSH1 0x1 EQ ISZERO PUSH2 0x3966 JUMP JUMPDEST PUSH1 0x1 PUSH1 0x1 PUSH1 0xA0 SHL SUB DUP5 AND EXTCODESIZE ISZERO JUMPDEST ISZERO PUSH2 0x3897 JUMPI PUSH1 0x40 MLOAD PUSH4 0x5274AFE7 PUSH1 0xE0 SHL DUP2 MSTORE PUSH1 0x1 PUSH1 0x1 PUSH1 0xA0 SHL SUB DUP6 AND PUSH1 0x4 DUP3 ADD MSTORE PUSH1 0x24 ADD PUSH2 0xAFA JUMP JUMPDEST PUSH1 0x0 PUSH1 0x20 DUP3 DUP5 SUB SLT ISZERO PUSH2 0x39A1 JUMPI PUSH1 0x0 DUP1 REVERT JUMPDEST POP CALLDATALOAD SWAP2 SWAP1 POP JUMP JUMPDEST PUSH4 0x4E487B71 PUSH1 0xE0 SHL PUSH1 0x0 MSTORE PUSH1 0x21 PUSH1 0x4 MSTORE PUSH1 0x24 PUSH1 0x0 REVERT JUMPDEST PUSH1 0x5 DUP2 LT PUSH2 0x32D5 JUMPI PUSH2 0x32D5 PUSH2 0x39A8 JUMP JUMPDEST PUSH2 0x39D7 DUP2 PUSH2 0x39BE JUMP JUMPDEST SWAP1 MSTORE JUMP JUMPDEST PUSH1 0x4 DUP2 LT PUSH2 0x39D7 JUMPI PUSH2 0x39D7 PUSH2 0x39A8 JUMP JUMPDEST PUSH1 0x0 DUP2 MLOAD DUP1 DUP5 MSTORE PUSH1 0x0 JUMPDEST DUP2 DUP2 LT ISZERO PUSH2 0x3A11 JUMPI PUSH1 0x20 DUP2 DUP6 ADD DUP2 ADD MLOAD DUP7 DUP4 ADD DUP3 ADD MSTORE ADD PUSH2 0x39F5 JUMP JUMPDEST POP PUSH1 0x0 PUSH1 0x20 DUP3 DUP7 ADD ADD MSTORE PUSH1 0x20 PUSH1 0x1F NOT PUSH1 0x1F DUP4 ADD AND DUP6 ADD ADD SWAP2 POP POP SWAP3 SWAP2 POP POP JUMP JUMPDEST PUSH1 0x0 PUSH2 0x160 DUP14 DUP4 MSTORE PUSH2 0x3A42 DUP14 PUSH2 0x39BE JUMP JUMPDEST PUSH1 0x20 DUP4 ADD DUP14 SWAP1 MSTORE PUSH1 0x1 PUSH1 0x1 PUSH1 0xA0 SHL SUB DUP13 DUP2 AND PUSH1 0x40 DUP6 ADD MSTORE PUSH1 0x60 DUP5 ADD DUP13 SWAP1 MSTORE PUSH2 0x3A6D PUSH1 0x80 DUP6 ADD DUP13 PUSH2 0x39DB JUMP JUMPDEST PUSH1 0xA0 DUP5 ADD DUP11 SWAP1 MSTORE DUP9 AND PUSH1 0xC0 DUP5 ADD MSTORE PUSH2 0x3A84 DUP8 PUSH2 0x39BE JUMP JUMPDEST DUP7 PUSH1 0xE0 DUP5 ADD MSTORE DUP6 PUSH2 0x100 DUP5 ADD MSTORE DUP1 PUSH2 0x120 DUP5 ADD MSTORE PUSH2 0x3AA4 DUP2 DUP5 ADD DUP7 PUSH2 0x39EB JUMP JUMPDEST SWAP2 POP POP DUP3 ISZERO ISZERO PUSH2 0x140 DUP4 ADD MSTORE SWAP13 SWAP12 POP POP POP POP POP POP POP POP POP POP POP POP JUMP JUMPDEST DUP1 CALLDATALOAD PUSH1 0x1 PUSH1 0x1 PUSH1 0xA0 SHL SUB DUP2 AND DUP2 EQ PUSH2 0x20DD JUMPI PUSH1 0x0 DUP1 REVERT JUMPDEST PUSH1 0x0 PUSH1 0x20 DUP3 DUP5 SUB SLT ISZERO PUSH2 0x3AE9 JUMPI PUSH1 0x0 DUP1 REVERT JUMPDEST PUSH2 0x3AF2 DUP3 PUSH2 0x3AC0 JUMP JUMPDEST SWAP4 SWAP3 POP POP POP JUMP JUMPDEST DUP7 ISZERO ISZERO DUP2 MSTORE DUP6 ISZERO ISZERO PUSH1 0x20 DUP3 ADD MSTORE DUP5 PUSH1 0x40 DUP3 ADD MSTORE PUSH1 0xC0 PUSH1 0x60 DUP3 ADD MSTORE PUSH1 0x0 PUSH2 0x3B22 PUSH1 0xC0 DUP4 ADD DUP7 PUSH2 0x39EB JUMP JUMPDEST PUSH1 0x80 DUP4 ADD SWAP5 SWAP1 SWAP5 MSTORE POP PUSH1 0xA0 ADD MSTORE SWAP5 SWAP4 POP POP POP POP JUMP JUMPDEST PUSH1 0x0 DUP1 PUSH1 0x0 DUP1 PUSH1 0x0 PUSH1 0x80 DUP7 DUP9 SUB SLT ISZERO PUSH2 0x3B4F JUMPI PUSH1 0x0 DUP1 REVERT JUMPDEST PUSH2 0x3B58 DUP7 PUSH2 0x3AC0 JUMP JUMPDEST SWAP5 POP PUSH2 0x3B66 PUSH1 0x20 DUP8 ADD PUSH2 0x3AC0 JUMP JUMPDEST SWAP4 POP PUSH1 0x40 DUP7 ADD CALLDATALOAD SWAP3 POP PUSH1 0x60 DUP7 ADD CALLDATALOAD PUSH8 0xFFFFFFFFFFFFFFFF DUP1 DUP3 GT ISZERO PUSH2 0x3B8A JUMPI PUSH1 0x0 DUP1 REVERT JUMPDEST DUP2 DUP9 ADD SWAP2 POP DUP9 PUSH1 0x1F DUP4 ADD SLT PUSH2 0x3B9E JUMPI PUSH1 0x0 DUP1 REVERT JUMPDEST DUP2 CALLDATALOAD DUP2 DUP2 GT ISZERO PUSH2 0x3BAD JUMPI PUSH1 0x0 DUP1 REVERT JUMPDEST DUP10 PUSH1 0x20 DUP3 DUP6 ADD ADD GT ISZERO PUSH2 0x3BBF JUMPI PUSH1 0x0 DUP1 REVERT JUMPDEST SWAP7 SWAP10 SWAP6 SWAP9 POP SWAP4 SWAP7 POP PUSH1 0x20 ADD SWAP5 SWAP4 SWAP3 POP POP POP JUMP JUMPDEST PUSH1 0x0 DUP2 MLOAD DUP1 DUP5 MSTORE PUSH1 0x20 DUP1 DUP6 ADD SWAP5 POP DUP1 DUP5 ADD PUSH1 0x0 JUMPDEST DUP4 DUP2 LT ISZERO PUSH2 0x3C02 JUMPI DUP2 MLOAD DUP8 MSTORE SWAP6 DUP3 ADD SWAP6 SWAP1 DUP3 ADD SWAP1 PUSH1 0x1 ADD PUSH2 0x3BE6 JUMP JUMPDEST POP SWAP5 SWAP6 SWAP5 POP POP POP POP POP JUMP JUMPDEST PUSH1 0x20 DUP2 MSTORE PUSH1 0x0 PUSH2 0x3AF2 PUSH1 0x20 DUP4 ADD DUP5 PUSH2 0x3BD2 JUMP JUMPDEST DUP3 DUP2 MSTORE PUSH1 0x40 PUSH1 0x20 DUP3 ADD MSTORE PUSH1 0x0 PUSH2 0x26E1 PUSH1 0x40 DUP4 ADD DUP5 PUSH2 0x3BD2 JUMP JUMPDEST PUSH1 0x0 DUP1 PUSH1 0x40 DUP4 DUP6 SUB SLT ISZERO PUSH2 0x3C4C JUMPI PUSH1 0x0 DUP1 REVERT JUMPDEST PUSH2 0x3C55 DUP4 PUSH2 0x3AC0 JUMP JUMPDEST SWAP5 PUSH1 0x20 SWAP4 SWAP1 SWAP4 ADD CALLDATALOAD SWAP4 POP POP POP JUMP JUMPDEST DUP2 MLOAD DUP2 MSTORE PUSH1 0x20 DUP1 DUP4 ADD MLOAD PUSH2 0x160 DUP4 ADD SWAP2 PUSH2 0x3C7F SWAP1 DUP5 ADD DUP3 PUSH2 0x39CE JUMP JUMPDEST POP PUSH1 0x40 DUP4 ADD MLOAD PUSH2 0x3C9A PUSH1 0x40 DUP5 ADD DUP3 PUSH1 0x1 PUSH1 0x1 PUSH1 0xA0 SHL SUB AND SWAP1 MSTORE JUMP JUMPDEST POP PUSH1 0x60 DUP4 ADD MLOAD PUSH1 0x60 DUP4 ADD MSTORE PUSH1 0x80 DUP4 ADD MLOAD PUSH2 0x3CB7 PUSH1 0x80 DUP5 ADD DUP3 PUSH2 0x39DB JUMP JUMPDEST POP PUSH1 0xA0 DUP4 ADD MLOAD PUSH1 0xA0 DUP4 ADD MSTORE PUSH1 0xC0 DUP4 ADD MLOAD PUSH1 0xC0 DUP4 ADD MSTORE PUSH1 0xE0 DUP4 ADD MLOAD PUSH1 0xE0 DUP4 ADD MSTORE PUSH2 0x100 DUP1 DUP5 ADD MLOAD DUP2 DUP5 ADD MSTORE POP PUSH2 0x120 DUP1 DUP5 ADD MLOAD PUSH2 0x3CF6 DUP3 DUP6 ADD DUP3 ISZERO ISZERO SWAP1 MSTORE JUMP JUMPDEST POP POP PUSH2 0x140 SWAP3 DUP4 ADD MLOAD ISZERO ISZERO SWAP2 SWAP1 SWAP3 ADD MSTORE SWAP1 JUMP JUMPDEST PUSH4 0x4E487B71 PUSH1 0xE0 SHL PUSH1 0x0 MSTORE PUSH1 0x41 PUSH1 0x4 MSTORE PUSH1 0x24 PUSH1 0x0 REVERT JUMPDEST PUSH1 0x0 DUP3 PUSH1 0x1F DUP4 ADD SLT PUSH2 0x3D30 JUMPI PUSH1 0x0 DUP1 REVERT JUMPDEST DUP2 CALLDATALOAD PUSH8 0xFFFFFFFFFFFFFFFF DUP1 DUP3 GT ISZERO PUSH2 0x3D4B JUMPI PUSH2 0x3D4B PUSH2 0x3D09 JUMP JUMPDEST PUSH1 0x40 MLOAD PUSH1 0x1F DUP4 ADD PUSH1 0x1F NOT SWAP1 DUP2 AND PUSH1 0x3F ADD AND DUP2 ADD SWAP1 DUP3 DUP3 GT DUP2 DUP4 LT OR ISZERO PUSH2 0x3D73 JUMPI PUSH2 0x3D73 PUSH2 0x3D09 JUMP JUMPDEST DUP2 PUSH1 0x40 MSTORE DUP4 DUP2 MSTORE DUP7 PUSH1 0x20 DUP6 DUP9 ADD ADD GT ISZERO PUSH2 0x3D8C JUMPI PUSH1 0x0 DUP1 REVERT JUMPDEST DUP4 PUSH1 0x20 DUP8 ADD PUSH1 0x20 DUP4 ADD CALLDATACOPY PUSH1 0x0 PUSH1 0x20 DUP6 DUP4 ADD ADD MSTORE DUP1 SWAP5 POP POP POP POP POP SWAP3 SWAP2 POP POP JUMP JUMPDEST PUSH1 0x0 DUP1 PUSH1 0x40 DUP4 DUP6 SUB SLT ISZERO PUSH2 0x3DBF JUMPI PUSH1 0x0 DUP1 REVERT JUMPDEST PUSH2 0x3DC8 DUP4 PUSH2 0x3AC0 JUMP JUMPDEST SWAP2 POP PUSH1 0x20 DUP4 ADD CALLDATALOAD PUSH8 0xFFFFFFFFFFFFFFFF DUP2 GT ISZERO PUSH2 0x3DE4 JUMPI PUSH1 0x0 DUP1 REVERT JUMPDEST PUSH2 0x3DF0 DUP6 DUP3 DUP7 ADD PUSH2 0x3D1F JUMP JUMPDEST SWAP2 POP POP SWAP3 POP SWAP3 SWAP1 POP JUMP JUMPDEST PUSH1 0x0 DUP1 PUSH1 0x40 DUP4 DUP6 SUB SLT ISZERO PUSH2 0x3E0D JUMPI PUSH1 0x0 DUP1 REVERT JUMPDEST DUP3 CALLDATALOAD SWAP2 POP PUSH1 0x20 DUP4 ADD CALLDATALOAD PUSH8 0xFFFFFFFFFFFFFFFF DUP2 GT ISZERO PUSH2 0x3DE4 JUMPI PUSH1 0x0 DUP1 REVERT JUMPDEST DUP1 CALLDATALOAD PUSH1 0x4 DUP2 LT PUSH2 0x20DD JUMPI PUSH1 0x0 DUP1 REVERT JUMPDEST PUSH1 0x0 DUP1 PUSH1 0x0 DUP1 PUSH1 0x0 DUP1 PUSH1 0xC0 DUP8 DUP10 SUB SLT ISZERO PUSH2 0x3E53 JUMPI PUSH1 0x0 DUP1 REVERT JUMPDEST DUP7 CALLDATALOAD PUSH1 0x5 DUP2 LT PUSH2 0x3E62 JUMPI PUSH1 0x0 DUP1 REVERT JUMPDEST SWAP6 POP PUSH2 0x3E70 PUSH1 0x20 DUP9 ADD PUSH2 0x3AC0 JUMP JUMPDEST SWAP5 POP PUSH1 0x40 DUP8 ADD CALLDATALOAD SWAP4 POP PUSH2 0x3E85 PUSH1 0x60 DUP9 ADD PUSH2 0x3E2B JUMP JUMPDEST SWAP3 POP PUSH1 0x80 DUP8 ADD CALLDATALOAD SWAP2 POP PUSH1 0xA0 DUP8 ADD CALLDATALOAD PUSH8 0xFFFFFFFFFFFFFFFF DUP2 GT ISZERO PUSH2 0x3EA8 JUMPI PUSH1 0x0 DUP1 REVERT JUMPDEST PUSH2 0x3EB4 DUP10 DUP3 DUP11 ADD PUSH2 0x3D1F JUMP JUMPDEST SWAP2 POP POP SWAP3 SWAP6 POP SWAP3 SWAP6 POP SWAP3 SWAP6 JUMP JUMPDEST DUP8 ISZERO ISZERO DUP2 MSTORE DUP7 ISZERO ISZERO PUSH1 0x20 DUP3 ADD MSTORE DUP6 PUSH1 0x40 DUP3 ADD MSTORE PUSH1 0xE0 PUSH1 0x60 DUP3 ADD MSTORE PUSH1 0x0 PUSH2 0x3EEA PUSH1 0xE0 DUP4 ADD DUP8 PUSH2 0x39EB JUMP JUMPDEST PUSH1 0x80 DUP4 ADD SWAP6 SWAP1 SWAP6 MSTORE POP PUSH1 0xA0 DUP2 ADD SWAP3 SWAP1 SWAP3 MSTORE PUSH1 0xC0 SWAP1 SWAP2 ADD MSTORE SWAP5 SWAP4 POP POP POP POP JUMP JUMPDEST PUSH1 0x0 DUP1 PUSH1 0x0 DUP1 PUSH1 0x80 DUP6 DUP8 SUB SLT ISZERO PUSH2 0x3F1F JUMPI PUSH1 0x0 DUP1 REVERT JUMPDEST PUSH2 0x3F28 DUP6 PUSH2 0x3AC0 JUMP JUMPDEST SWAP4 POP PUSH2 0x3F36 PUSH1 0x20 DUP7 ADD PUSH2 0x3AC0 JUMP JUMPDEST SWAP3 POP PUSH1 0x40 DUP6 ADD CALLDATALOAD SWAP2 POP PUSH1 0x60 DUP6 ADD CALLDATALOAD PUSH8 0xFFFFFFFFFFFFFFFF DUP2 GT ISZERO PUSH2 0x3F59 JUMPI PUSH1 0x0 DUP1 REVERT JUMPDEST PUSH2 0x3F65 DUP8 DUP3 DUP9 ADD PUSH2 0x3D1F JUMP JUMPDEST SWAP2 POP POP SWAP3 SWAP6 SWAP2 SWAP5 POP SWAP3 POP JUMP JUMPDEST PUSH1 0x20 DUP2 MSTORE PUSH1 0x0 PUSH2 0x3AF2 PUSH1 0x20 DUP4 ADD DUP5 PUSH2 0x39EB JUMP JUMPDEST PUSH1 0x0 DUP1 PUSH1 0x40 DUP4 DUP6 SUB SLT ISZERO PUSH2 0x3F97 JUMPI PUSH1 0x0 DUP1 REVERT JUMPDEST POP POP DUP1 CALLDATALOAD SWAP3 PUSH1 0x20 SWAP1 SWAP2 ADD CALLDATALOAD SWAP2 POP JUMP JUMPDEST PUSH1 0x0 DUP1 PUSH1 0x0 PUSH1 0x60 DUP5 DUP7 SUB SLT ISZERO PUSH2 0x3FBB JUMPI PUSH1 0x0 DUP1 REVERT JUMPDEST PUSH2 0x3FC4 DUP5 PUSH2 0x3AC0 JUMP JUMPDEST SWAP3 POP PUSH1 0x20 DUP5 ADD CALLDATALOAD SWAP2 POP PUSH1 0x40 DUP5 ADD CALLDATALOAD PUSH8 0xFFFFFFFFFFFFFFFF DUP2 GT ISZERO PUSH2 0x3FE7 JUMPI PUSH1 0x0 DUP1 REVERT JUMPDEST PUSH2 0x3FF3 DUP7 DUP3 DUP8 ADD PUSH2 0x3D1F JUMP JUMPDEST SWAP2 POP POP SWAP3 POP SWAP3 POP SWAP3 JUMP JUMPDEST PUSH1 0x20 DUP2 MSTORE DUP2 MLOAD PUSH1 0x20 DUP3 ADD MSTORE PUSH1 0x0 PUSH1 0x20 DUP4 ADD MLOAD PUSH2 0x401C PUSH1 0x40 DUP5 ADD DUP3 PUSH2 0x39CE JUMP JUMPDEST POP PUSH1 0x40 DUP4 ADD MLOAD PUSH1 0x1 PUSH1 0x1 PUSH1 0xA0 SHL SUB DUP2 AND PUSH1 0x60 DUP5 ADD MSTORE POP PUSH1 0x60 DUP4 ADD MLOAD PUSH1 0x80 DUP4 ADD MSTORE PUSH1 0x80 DUP4 ADD MLOAD PUSH2 0x404E PUSH1 0xA0 DUP5 ADD DUP3 PUSH2 0x39DB JUMP JUMPDEST POP PUSH1 0xA0 DUP4 ADD MLOAD PUSH1 0xC0 DUP4 ADD MSTORE PUSH1 0xC0 DUP4 ADD MLOAD PUSH2 0x4073 PUSH1 0xE0 DUP5 ADD DUP3 PUSH1 0x1 PUSH1 0x1 PUSH1 0xA0 SHL SUB AND SWAP1 MSTORE JUMP JUMPDEST POP PUSH1 0xE0 DUP4 ADD MLOAD PUSH2 0x100 PUSH2 0x4088 DUP2 DUP6 ADD DUP4 PUSH2 0x39CE JUMP JUMPDEST DUP5 ADD MLOAD PUSH2 0x120 DUP5 DUP2 ADD SWAP2 SWAP1 SWAP2 MSTORE DUP5 ADD MLOAD PUSH2 0x160 PUSH2 0x140 DUP1 DUP7 ADD DUP3 SWAP1 MSTORE SWAP2 SWAP3 POP SWAP1 PUSH2 0x40B6 PUSH2 0x180 DUP7 ADD DUP5 PUSH2 0x39EB JUMP JUMPDEST SWAP6 ADD MLOAD ISZERO ISZERO SWAP4 ADD SWAP3 SWAP1 SWAP3 MSTORE POP SWAP1 SWAP2 SWAP1 POP JUMP JUMPDEST PUSH1 0x0 DUP1 PUSH1 0x40 DUP4 DUP6 SUB SLT ISZERO PUSH2 0x40DB JUMPI PUSH1 0x0 DUP1 REVERT JUMPDEST PUSH2 0x40E4 DUP4 PUSH2 0x3AC0 JUMP JUMPDEST SWAP2 POP PUSH2 0x40F2 PUSH1 0x20 DUP5 ADD PUSH2 0x3AC0 JUMP JUMPDEST SWAP1 POP SWAP3 POP SWAP3 SWAP1 POP JUMP JUMPDEST PUSH1 0x0 PUSH1 0x20 DUP3 DUP5 SUB SLT ISZERO PUSH2 0x410D JUMPI PUSH1 0x0 DUP1 REVERT JUMPDEST PUSH2 0x3AF2 DUP3 PUSH2 0x3E2B JUMP JUMPDEST PUSH1 0x0 DUP1 PUSH1 0x40 DUP4 DUP6 SUB SLT ISZERO PUSH2 0x4129 JUMPI PUSH1 0x0 DUP1 REVERT JUMPDEST PUSH2 0x3C55 DUP4 PUSH2 0x3E2B JUMP JUMPDEST DUP12 DUP2 MSTORE PUSH2 0x160 DUP2 ADD PUSH2 0x4143 DUP13 PUSH2 0x39BE JUMP JUMPDEST PUSH1 0x20 DUP3 ADD DUP13 SWAP1 MSTORE PUSH1 0x1 PUSH1 0x1 PUSH1 0xA0 SHL SUB DUP12 AND PUSH1 0x40 DUP4 ADD MSTORE PUSH1 0x60 DUP3 ADD DUP11 SWAP1 MSTORE PUSH2 0x416D PUSH1 0x80 DUP4 ADD DUP11 PUSH2 0x39DB JUMP JUMPDEST DUP8 PUSH1 0xA0 DUP4 ADD MSTORE DUP7 PUSH1 0xC0 DUP4 ADD MSTORE DUP6 PUSH1 0xE0 DUP4 ADD MSTORE DUP5 PUSH2 0x100 DUP4 ADD MSTORE DUP4 ISZERO ISZERO PUSH2 0x120 DUP4 ADD MSTORE DUP3 ISZERO ISZERO PUSH2 0x140 DUP4 ADD MSTORE SWAP13 SWAP12 POP POP POP POP POP POP POP POP POP POP POP POP JUMP JUMPDEST PUSH1 0x0 DUP1 PUSH1 0x0 PUSH1 0x60 DUP5 DUP7 SUB SLT ISZERO PUSH2 0x41BD JUMPI PUSH1 0x0 DUP1 REVERT JUMPDEST PUSH2 0x41C6 DUP5 PUSH2 0x3AC0 JUMP JUMPDEST SWAP3 POP PUSH2 0x41D4 PUSH1 0x20 DUP6 ADD PUSH2 0x3AC0 JUMP JUMPDEST SWAP2 POP PUSH1 0x40 DUP5 ADD CALLDATALOAD SWAP1 POP SWAP3 POP SWAP3 POP SWAP3 JUMP JUMPDEST PUSH1 0x1 DUP2 DUP2 SHR SWAP1 DUP3 AND DUP1 PUSH2 0x41F8 JUMPI PUSH1 0x7F DUP3 AND SWAP2 POP JUMPDEST PUSH1 0x20 DUP3 LT DUP2 SUB PUSH2 0x4218 JUMPI PUSH4 0x4E487B71 PUSH1 0xE0 SHL PUSH1 0x0 MSTORE PUSH1 0x22 PUSH1 0x4 MSTORE PUSH1 0x24 PUSH1 0x0 REVERT JUMPDEST POP SWAP2 SWAP1 POP JUMP JUMPDEST PUSH1 0x20 DUP1 DUP3 MSTORE PUSH1 0x18 SWAP1 DUP3 ADD MSTORE PUSH32 0x496E76616C69642070726F746F636F6C20616464726573730000000000000000 PUSH1 0x40 DUP3 ADD MSTORE PUSH1 0x60 ADD SWAP1 JUMP JUMPDEST PUSH1 0x20 DUP1 DUP3 MSTORE PUSH1 0x15 SWAP1 DUP3 ADD MSTORE PUSH21 0x496E76616C696420746F6B656E2061646472657373 PUSH1 0x58 SHL PUSH1 0x40 DUP3 ADD MSTORE PUSH1 0x60 ADD SWAP1 JUMP JUMPDEST PUSH1 0x20 DUP1 DUP3 MSTORE DUP2 DUP2 ADD MSTORE PUSH32 0x416D6F756E74206D7573742062652067726561746572207468616E207A65726F PUSH1 0x40 DUP3 ADD MSTORE PUSH1 0x60 ADD SWAP1 JUMP JUMPDEST PUSH4 0x4E487B71 PUSH1 0xE0 SHL PUSH1 0x0 MSTORE PUSH1 0x11 PUSH1 0x4 MSTORE PUSH1 0x24 PUSH1 0x0 REVERT JUMPDEST DUP2 DUP2 SUB DUP2 DUP2 GT ISZERO PUSH2 0x31C2 JUMPI PUSH2 0x31C2 PUSH2 0x42B9 JUMP JUMPDEST DUP2 DUP4 DUP3 CALLDATACOPY PUSH1 0x0 SWAP2 ADD SWAP1 DUP2 MSTORE SWAP2 SWAP1 POP JUMP JUMPDEST DUP1 DUP3 ADD DUP1 DUP3 GT ISZERO PUSH2 0x31C2 JUMPI PUSH2 0x31C2 PUSH2 0x42B9 JUMP JUMPDEST DUP1 DUP3 MUL DUP2 ISZERO DUP3 DUP3 DIV DUP5 EQ OR PUSH2 0x31C2 JUMPI PUSH2 0x31C2 PUSH2 0x42B9 JUMP JUMPDEST PUSH1 0x0 DUP3 PUSH2 0x4339 JUMPI PUSH4 0x4E487B71 PUSH1 0xE0 SHL PUSH1 0x0 MSTORE PUSH1 0x12 PUSH1 0x4 MSTORE PUSH1 0x24 PUSH1 0x0 REVERT JUMPDEST POP DIV SWAP1 JUMP JUMPDEST PUSH4 0x4E487B71 PUSH1 0xE0 SHL PUSH1 0x0 MSTORE PUSH1 0x32 PUSH1 0x4 MSTORE PUSH1 0x24 PUSH1 0x0 REVERT JUMPDEST PUSH1 0x0 PUSH1 0x1 DUP3 ADD PUSH2 0x4366 JUMPI PUSH2 0x4366 PUSH2 0x42B9 JUMP JUMPDEST POP PUSH1 0x1 ADD SWAP1 JUMP JUMPDEST PUSH1 0x1F DUP3 GT ISZERO PUSH2 0x291D JUMPI PUSH1 0x0 DUP2 DUP2 MSTORE PUSH1 0x20 DUP2 KECCAK256 PUSH1 0x1F DUP6 ADD PUSH1 0x5 SHR DUP2 ADD PUSH1 0x20 DUP7 LT ISZERO PUSH2 0x4394 JUMPI POP DUP1 JUMPDEST PUSH1 0x1F DUP6 ADD PUSH1 0x5 SHR DUP3 ADD SWAP2 POP JUMPDEST DUP2 DUP2 LT ISZERO PUSH2 0x43B3 JUMPI DUP3 DUP2 SSTORE PUSH1 0x1 ADD PUSH2 0x43A0 JUMP JUMPDEST POP POP POP POP POP POP JUMP JUMPDEST DUP2 MLOAD PUSH8 0xFFFFFFFFFFFFFFFF DUP2 GT ISZERO PUSH2 0x43D5 JUMPI PUSH2 0x43D5 PUSH2 0x3D09 JUMP JUMPDEST PUSH2 0x43E9 DUP2 PUSH2 0x43E3 DUP5 SLOAD PUSH2 0x41E4 JUMP JUMPDEST DUP5 PUSH2 0x436D JUMP JUMPDEST PUSH1 0x20 DUP1 PUSH1 0x1F DUP4 GT PUSH1 0x1 DUP2 EQ PUSH2 0x441E JUMPI PUSH1 0x0 DUP5 ISZERO PUSH2 0x4406 JUMPI POP DUP6 DUP4 ADD MLOAD JUMPDEST PUSH1 0x0 NOT PUSH1 0x3 DUP7 SWAP1 SHL SHR NOT AND PUSH1 0x1 DUP6 SWAP1 SHL OR DUP6 SSTORE PUSH2 0x43B3 JUMP JUMPDEST PUSH1 0x0 DUP6 DUP2 MSTORE PUSH1 0x20 DUP2 KECCAK256 PUSH1 0x1F NOT DUP7 AND SWAP2 JUMPDEST DUP3 DUP2 LT ISZERO PUSH2 0x444D JUMPI DUP9 DUP7 ADD MLOAD DUP3 SSTORE SWAP5 DUP5 ADD SWAP5 PUSH1 0x1 SWAP1 SWAP2 ADD SWAP1 DUP5 ADD PUSH2 0x442E JUMP JUMPDEST POP DUP6 DUP3 LT ISZERO PUSH2 0x446B JUMPI DUP8 DUP6 ADD MLOAD PUSH1 0x0 NOT PUSH1 0x3 DUP9 SWAP1 SHL PUSH1 0xF8 AND SHR NOT AND DUP2 SSTORE JUMPDEST POP POP POP POP POP PUSH1 0x1 SWAP1 DUP2 SHL ADD SWAP1 SSTORE POP JUMP JUMPDEST PUSH1 0x20 DUP1 DUP3 MSTORE PUSH1 0x15 SWAP1 DUP3 ADD MSTORE PUSH21 0x151BDAD95B881B9BDD081DDA1A5D195B1A5CDD1959 PUSH1 0x5A SHL PUSH1 0x40 DUP3 ADD MSTORE PUSH1 0x60 ADD SWAP1 JUMP JUMPDEST PUSH1 0x20 DUP1 DUP3 MSTORE PUSH1 0x17 SWAP1 DUP3 ADD MSTORE PUSH32 0x496E766573746F72206E6F7420617574686F72697A6564000000000000000000 PUSH1 0x40 DUP3 ADD MSTORE PUSH1 0x60 ADD SWAP1 JUMP JUMPDEST PUSH1 0x20 DUP1 DUP3 MSTORE PUSH1 0x17 SWAP1 DUP3 ADD MSTORE PUSH32 0x436F6D706C69616E636520636865636B206661696C6564000000000000000000 PUSH1 0x40 DUP3 ADD MSTORE PUSH1 0x60 ADD SWAP1 JUMP JUMPDEST PUSH1 0x20 DUP1 DUP3 MSTORE PUSH1 0x14 SWAP1 DUP3 ADD MSTORE PUSH20 0x496E73756666696369656E742062616C616E6365 PUSH1 0x60 SHL PUSH1 0x40 DUP3 ADD MSTORE PUSH1 0x60 ADD SWAP1 JUMP JUMPDEST PUSH1 0x40 DUP2 ADD PUSH2 0x4553 DUP5 PUSH2 0x39BE JUMP JUMPDEST SWAP3 DUP2 MSTORE PUSH1 0x20 ADD MSTORE SWAP1 JUMP JUMPDEST PUSH1 0x1 PUSH1 0x1 PUSH1 0xA0 SHL SUB DUP7 DUP2 AND DUP3 MSTORE DUP6 AND PUSH1 0x20 DUP3 ADD MSTORE PUSH1 0x40 DUP2 ADD DUP5 SWAP1 MSTORE PUSH1 0xA0 PUSH1 0x60 DUP3 ADD DUP2 SWAP1 MSTORE PUSH1 0x0 SWAP1 PUSH2 0x4590 SWAP1 DUP4 ADD DUP6 PUSH2 0x39EB JUMP JUMPDEST SWAP1 POP DUP3 PUSH1 0x80 DUP4 ADD MSTORE SWAP7 SWAP6 POP POP POP POP POP POP JUMP JUMPDEST PUSH1 0x1 PUSH1 0x1 PUSH1 0xA0 SHL SUB DUP6 DUP2 AND DUP3 MSTORE DUP5 AND PUSH1 0x20 DUP3 ADD MSTORE PUSH1 0x40 DUP2 ADD DUP4 SWAP1 MSTORE PUSH1 0x80 PUSH1 0x60 DUP3 ADD DUP2 SWAP1 MSTORE PUSH1 0x0 SWAP1 PUSH2 0x45D5 SWAP1 DUP4 ADD DUP5 PUSH2 0x39EB JUMP JUMPDEST SWAP7 SWAP6 POP POP POP POP POP POP JUMP JUMPDEST PUSH1 0x0 PUSH1 0x20 DUP3 DUP5 SUB SLT ISZERO PUSH2 0x45F1 JUMPI PUSH1 0x0 DUP1 REVERT JUMPDEST DUP2 MLOAD DUP1 ISZERO ISZERO DUP2 EQ PUSH2 0x3AF2 JUMPI PUSH1 0x0 DUP1 REVERT JUMPDEST PUSH1 0x1 PUSH1 0x1 PUSH1 0xA0 SHL SUB DUP5 AND DUP2 MSTORE PUSH1 0x20 DUP2 ADD DUP4 SWAP1 MSTORE PUSH1 0x60 DUP2 ADD PUSH2 0x4621 DUP4 PUSH2 0x39BE JUMP JUMPDEST DUP3 PUSH1 0x40 DUP4 ADD MSTORE SWAP5 SWAP4 POP POP POP POP JUMP JUMPDEST DUP3 DUP2 MSTORE PUSH1 0x40 PUSH1 0x20 DUP3 ADD MSTORE PUSH1 0x0 PUSH2 0x26E1 PUSH1 0x40 DUP4 ADD DUP5 PUSH2 0x39EB JUMP JUMPDEST PUSH1 0x40 DUP2 ADD PUSH2 0x4656 DUP3 DUP6 PUSH2 0x39DB JUMP JUMPDEST DUP3 PUSH1 0x20 DUP4 ADD MSTORE SWAP4 SWAP3 POP POP POP JUMP INVALID LOG2 PUSH5 0x6970667358 0x22 SLT KECCAK256 0x5C SWAP13 0xDE 0xFC 0x4D GASPRICE 0xC8 0xE5 SLOAD PUSH6 0xEB97BD68F271 STATICCALL 0xDD 0xC0 RETURN 0xD0 PUSH20 0x1419404E19D9022B3ED64736F6C634300081400 CALLER "},"methodIdentifiers":{"approveProposal(uint256)":"98951b56","approveProtocol(address,string)":"33ee4628","approvedProtocols(address)":"a8c22675","authorizeInvestor(address,uint256,string)":"ade0d01d","authorizeManager(address)":"267c8507","authorizedManagers(address)":"0a3cb21b","calculatePortfolioRisk()":"1ca55e70","checkCompliance(address,address,uint256,string)":"93e36b25","complianceOracle()":"410239bf","createProposal(uint8,address,uint256,uint8,uint256,string)":"6bef2289","deposit(address,uint256)":"47e7ef24","emergencyTokenWithdraw(address,address,uint256)":"fef860b8","emergencyWithdraw(uint256,string)":"3cbb4668","executeInvestment(uint256)":"69d9479c","generateYieldReport(uint256,uint256)":"a5e5d1c9","getInvestment(uint256)":"22ae634f","getInvestorInfo(address)":"0707873c","getManagerProposals(address)":"1131bd60","getProposal(uint256)":"c7f758a8","getProtocolInvestment(address,address)":"c895a942","getTokenBalance(address)":"3aecd0e3","getTreasuryStats()":"c8692e3f","investInProtocol(address,address,uint256,bytes)":"687dda08","investmentToProposal(uint256)":"c470d7a0","investments(uint256)":"fd345c8a","investors(address)":"6f7bc9be","managerProposals(address,uint256)":"dc9e81f3","owner()":"8da5cb5b","proposals(uint256)":"013cf08b","protocolAllocations(address)":"5cde857d","protocolInvestments(address,address)":"d6e2cf19","protocolNames(address)":"a0f24fb1","protocolRiskScores(address)":"a19cc5f2","renounceOwnership()":"715018a6","revokeInvestor(address,string)":"5bfcdf68","revokeManager(address)":"377e32e6","riskLimits(uint8)":"f08ab472","setComplianceOracle(address)":"d777e425","setProtocolRiskScore(address,uint256)":"1fc6dbff","setRiskLimit(uint8,uint256)":"fbee5b85","tokenBalances(address)":"523fba7f","totalInvested()":"5216aeec","transferOwnership(address)":"f2fde38b","whitelistProtocol(address,string)":"9cf110e2","whitelistToken(address,uint256)":"c4e16b7d","whitelistedProtocols(address)":"84361c07","whitelistedTokens(address)":"daf9c210","withdraw(address,uint256)":"f3fef3a3","withdrawFromProtocol(address,address,uint256,bytes)":"092807c0","withdrawalLimits(address)":"e0959a59"}}}}}