{
  "_format": "hh-sol-artifact-1",
  "contractName": "InstitutionalTreasury",
  "sourceName": "contracts/InstitutionalTreasury.sol",
  "abi": [
    {
      "inputs": [
        {
          "internalType": "address",
          "name": "initialOwner",
          "type": "address"
        }
      ],
      "stateMutability": "nonpayable",
      "type": "constructor"
    },
    {
      "inputs": [
        {
          "internalType": "address",
          "name": "owner",
          "type": "address"
        }
      ],
      "name": "OwnableInvalidOwner",
      "type": "error"
    },
    {
      "inputs": [
        {
          "internalType": "address",
          "name": "account",
          "type": "address"
        }
      ],
      "name": "OwnableUnauthorizedAccount",
      "type": "error"
    },
    {
      "inputs": [],
      "name": "ReentrancyGuardReentrantCall",
      "type": "error"
    },
    {
      "inputs": [
        {
          "internalType": "address",
          "name": "token",
          "type": "address"
        }
      ],
      "name": "SafeERC20FailedOperation",
      "type": "error"
    },
    {
      "anonymous": false,
      "inputs": [
        {
          "indexed": true,
          "internalType": "address",
          "name": "newOracle",
          "type": "address"
        }
      ],
      "name": "ComplianceOracleUpdated",
      "type": "event"
    },
    {
      "anonymous": false,
      "inputs": [
        {
          "indexed": true,
          "internalType": "address",
          "name": "token",
          "type": "address"
        },
        {
          "indexed": true,
          "internalType": "address",
          "name": "to",
          "type": "address"
        },
        {
          "indexed": false,
          "internalType": "uint256",
          "name": "amount",
          "type": "uint256"
        }
      ],
      "name": "EmergencyWithdrawal",
      "type": "event"
    },
    {
      "anonymous": false,
      "inputs": [
        {
          "indexed": true,
          "internalType": "address",
          "name": "investor",
          "type": "address"
        },
        {
          "indexed": true,
          "internalType": "address",
          "name": "token",
          "type": "address"
        },
        {
          "indexed": false,
          "internalType": "uint256",
          "name": "amount",
          "type": "uint256"
        }
      ],
      "name": "FundsDeposited",
      "type": "event"
    },
    {
      "anonymous": false,
      "inputs": [
        {
          "indexed": true,
          "internalType": "address",
          "name": "investor",
          "type": "address"
        },
        {
          "indexed": true,
          "internalType": "address",
          "name": "token",
          "type": "address"
        },
        {
          "indexed": false,
          "internalType": "uint256",
          "name": "amount",
          "type": "uint256"
        }
      ],
      "name": "FundsWithdrawn",
      "type": "event"
    },
    {
      "anonymous": false,
      "inputs": [
        {
          "indexed": true,
          "internalType": "uint256",
          "name": "investmentId",
          "type": "uint256"
        },
        {
          "indexed": false,
          "internalType": "address",
          "name": "protocol",
          "type": "address"
        },
        {
          "indexed": false,
          "internalType": "uint256",
          "name": "amount",
          "type": "uint256"
        }
      ],
      "name": "InvestmentExecuted",
      "type": "event"
    },
    {
      "anonymous": false,
      "inputs": [
        {
          "indexed": true,
          "internalType": "address",
          "name": "protocol",
          "type": "address"
        },
        {
          "indexed": true,
          "internalType": "address",
          "name": "token",
          "type": "address"
        },
        {
          "indexed": false,
          "internalType": "uint256",
          "name": "amount",
          "type": "uint256"
        }
      ],
      "name": "InvestmentMade",
      "type": "event"
    },
    {
      "anonymous": false,
      "inputs": [
        {
          "indexed": true,
          "internalType": "address",
          "name": "protocol",
          "type": "address"
        },
        {
          "indexed": true,
          "internalType": "address",
          "name": "token",
          "type": "address"
        },
        {
          "indexed": false,
          "internalType": "uint256",
          "name": "amount",
          "type": "uint256"
        }
      ],
      "name": "InvestmentWithdrawn",
      "type": "event"
    },
    {
      "anonymous": false,
      "inputs": [
        {
          "indexed": true,
          "internalType": "address",
          "name": "investor",
          "type": "address"
        },
        {
          "indexed": false,
          "internalType": "uint256",
          "name": "kycLevel",
          "type": "uint256"
        },
        {
          "indexed": false,
          "internalType": "string",
          "name": "jurisdiction",
          "type": "string"
        }
      ],
      "name": "InvestorAuthorized",
      "type": "event"
    },
    {
      "anonymous": false,
      "inputs": [
        {
          "indexed": true,
          "internalType": "address",
          "name": "investor",
          "type": "address"
        },
        {
          "indexed": false,
          "internalType": "string",
          "name": "reason",
          "type": "string"
        }
      ],
      "name": "InvestorRevoked",
      "type": "event"
    },
    {
      "anonymous": false,
      "inputs": [
        {
          "indexed": true,
          "internalType": "address",
          "name": "previousOwner",
          "type": "address"
        },
        {
          "indexed": true,
          "internalType": "address",
          "name": "newOwner",
          "type": "address"
        }
      ],
      "name": "OwnershipTransferred",
      "type": "event"
    },
    {
      "anonymous": false,
      "inputs": [
        {
          "indexed": true,
          "internalType": "uint256",
          "name": "proposalId",
          "type": "uint256"
        },
        {
          "indexed": false,
          "internalType": "enum InstitutionalTreasury.InvestmentType",
          "name": "investmentType",
          "type": "uint8"
        },
        {
          "indexed": false,
          "internalType": "uint256",
          "name": "amount",
          "type": "uint256"
        }
      ],
      "name": "ProposalCreated",
      "type": "event"
    },
    {
      "anonymous": false,
      "inputs": [
        {
          "indexed": true,
          "internalType": "address",
          "name": "protocol",
          "type": "address"
        },
        {
          "indexed": false,
          "internalType": "string",
          "name": "name",
          "type": "string"
        }
      ],
      "name": "ProtocolApproved",
      "type": "event"
    },
    {
      "anonymous": false,
      "inputs": [
        {
          "indexed": true,
          "internalType": "address",
          "name": "protocol",
          "type": "address"
        },
        {
          "indexed": false,
          "internalType": "string",
          "name": "name",
          "type": "string"
        }
      ],
      "name": "ProtocolWhitelisted",
      "type": "event"
    },
    {
      "anonymous": false,
      "inputs": [
        {
          "indexed": false,
          "internalType": "enum InstitutionalTreasury.RiskTier",
          "name": "tier",
          "type": "uint8"
        },
        {
          "indexed": false,
          "internalType": "uint256",
          "name": "newLimit",
          "type": "uint256"
        }
      ],
      "name": "RiskLimitUpdated",
      "type": "event"
    },
    {
      "anonymous": false,
      "inputs": [
        {
          "indexed": true,
          "internalType": "address",
          "name": "token",
          "type": "address"
        },
        {
          "indexed": false,
          "internalType": "uint256",
          "name": "withdrawalLimit",
          "type": "uint256"
        }
      ],
      "name": "TokenWhitelisted",
      "type": "event"
    },
    {
      "inputs": [
        {
          "internalType": "uint256",
          "name": "proposalId",
          "type": "uint256"
        }
      ],
      "name": "approveProposal",
      "outputs": [],
      "stateMutability": "nonpayable",
      "type": "function"
    },
    {
      "inputs": [
        {
          "internalType": "address",
          "name": "protocol",
          "type": "address"
        },
        {
          "internalType": "string",
          "name": "name",
          "type": "string"
        }
      ],
      "name": "approveProtocol",
      "outputs": [],
      "stateMutability": "nonpayable",
      "type": "function"
    },
    {
      "inputs": [
        {
          "internalType": "address",
          "name": "",
          "type": "address"
        }
      ],
      "name": "approvedProtocols",
      "outputs": [
        {
          "internalType": "bool",
          "name": "",
          "type": "bool"
        }
      ],
      "stateMutability": "view",
      "type": "function"
    },
    {
      "inputs": [
        {
          "internalType": "address",
          "name": "investor",
          "type": "address"
        },
        {
          "internalType": "uint256",
          "name": "kycLevel",
          "type": "uint256"
        },
        {
          "internalType": "string",
          "name": "jurisdiction",
          "type": "string"
        }
      ],
      "name": "authorizeInvestor",
      "outputs": [],
      "stateMutability": "nonpayable",
      "type": "function"
    },
    {
      "inputs": [
        {
          "internalType": "address",
          "name": "manager",
          "type": "address"
        }
      ],
      "name": "authorizeManager",
      "outputs": [],
      "stateMutability": "nonpayable",
      "type": "function"
    },
    {
      "inputs": [
        {
          "internalType": "address",
          "name": "",
          "type": "address"
        }
      ],
      "name": "authorizedManagers",
      "outputs": [
        {
          "internalType": "bool",
          "name": "",
          "type": "bool"
        }
      ],
      "stateMutability": "view",
      "type": "function"
    },
    {
      "inputs": [],
      "name": "calculatePortfolioRisk",
      "outputs": [
        {
          "internalType": "uint256",
          "name": "totalRisk",
          "type": "uint256"
        },
        {
          "internalType": "uint256[]",
          "name": "riskBreakdown",
          "type": "uint256[]"
        }
      ],
      "stateMutability": "view",
      "type": "function"
    },
    {
      "inputs": [
        {
          "internalType": "address",
          "name": "investor",
          "type": "address"
        },
        {
          "internalType": "address",
          "name": "token",
          "type": "address"
        },
        {
          "internalType": "uint256",
          "name": "amount",
          "type": "uint256"
        },
        {
          "internalType": "string",
          "name": "operation",
          "type": "string"
        }
      ],
      "name": "checkCompliance",
      "outputs": [
        {
          "internalType": "bool",
          "name": "",
          "type": "bool"
        }
      ],
      "stateMutability": "view",
      "type": "function"
    },
    {
      "inputs": [],
      "name": "complianceOracle",
      "outputs": [
        {
          "internalType": "contract IRegulatoryOracle",
          "name": "",
          "type": "address"
        }
      ],
      "stateMutability": "view",
      "type": "function"
    },
    {
      "inputs": [
        {
          "internalType": "enum InstitutionalTreasury.InvestmentType",
          "name": "investmentType",
          "type": "uint8"
        },
        {
          "internalType": "address",
          "name": "protocol",
          "type": "address"
        },
        {
          "internalType": "uint256",
          "name": "amount",
          "type": "uint256"
        },
        {
          "internalType": "enum InstitutionalTreasury.RiskTier",
          "name": "riskTier",
          "type": "uint8"
        },
        {
          "internalType": "uint256",
          "name": "expectedYield",
          "type": "uint256"
        },
        {
          "internalType": "string",
          "name": "riskAssessment",
          "type": "string"
        }
      ],
      "name": "createProposal",
      "outputs": [
        {
          "internalType": "uint256",
          "name": "",
          "type": "uint256"
        }
      ],
      "stateMutability": "nonpayable",
      "type": "function"
    },
    {
      "inputs": [
        {
          "internalType": "address",
          "name": "token",
          "type": "address"
        },
        {
          "internalType": "uint256",
          "name": "amount",
          "type": "uint256"
        }
      ],
      "name": "deposit",
      "outputs": [],
      "stateMutability": "nonpayable",
      "type": "function"
    },
    {
      "inputs": [
        {
          "internalType": "address",
          "name": "token",
          "type": "address"
        },
        {
          "internalType": "address",
          "name": "to",
          "type": "address"
        },
        {
          "internalType": "uint256",
          "name": "amount",
          "type": "uint256"
        }
      ],
      "name": "emergencyTokenWithdraw",
      "outputs": [],
      "stateMutability": "nonpayable",
      "type": "function"
    },
    {
      "inputs": [
        {
          "internalType": "uint256",
          "name": "investmentId",
          "type": "uint256"
        },
        {
          "internalType": "string",
          "name": "reason",
          "type": "string"
        }
      ],
      "name": "emergencyWithdraw",
      "outputs": [],
      "stateMutability": "nonpayable",
      "type": "function"
    },
    {
      "inputs": [
        {
          "internalType": "uint256",
          "name": "proposalId",
          "type": "uint256"
        }
      ],
      "name": "executeInvestment",
      "outputs": [
        {
          "internalType": "uint256",
          "name": "",
          "type": "uint256"
        }
      ],
      "stateMutability": "nonpayable",
      "type": "function"
    },
    {
      "inputs": [
        {
          "internalType": "uint256",
          "name": "startTimestamp",
          "type": "uint256"
        },
        {
          "internalType": "uint256",
          "name": "endTimestamp",
          "type": "uint256"
        }
      ],
      "name": "generateYieldReport",
      "outputs": [
        {
          "internalType": "uint256",
          "name": "totalYield",
          "type": "uint256"
        },
        {
          "internalType": "uint256",
          "name": "realizedGains",
          "type": "uint256"
        },
        {
          "internalType": "uint256",
          "name": "unrealizedGains",
          "type": "uint256"
        },
        {
          "internalType": "uint256",
          "name": "fees",
          "type": "uint256"
        }
      ],
      "stateMutability": "view",
      "type": "function"
    },
    {
      "inputs": [
        {
          "internalType": "uint256",
          "name": "investmentId",
          "type": "uint256"
        }
      ],
      "name": "getInvestment",
      "outputs": [
        {
          "components": [
            {
              "internalType": "uint256",
              "name": "investmentId",
              "type": "uint256"
            },
            {
              "internalType": "enum InstitutionalTreasury.InvestmentType",
              "name": "investmentType",
              "type": "uint8"
            },
            {
              "internalType": "address",
              "name": "protocol",
              "type": "address"
            },
            {
              "internalType": "uint256",
              "name": "amount",
              "type": "uint256"
            },
            {
              "internalType": "enum InstitutionalTreasury.RiskTier",
              "name": "riskTier",
              "type": "uint8"
            },
            {
              "internalType": "uint256",
              "name": "expectedYield",
              "type": "uint256"
            },
            {
              "internalType": "uint256",
              "name": "actualYield",
              "type": "uint256"
            },
            {
              "internalType": "uint256",
              "name": "startTime",
              "type": "uint256"
            },
            {
              "internalType": "uint256",
              "name": "endTime",
              "type": "uint256"
            },
            {
              "internalType": "bool",
              "name": "isActive",
              "type": "bool"
            },
            {
              "internalType": "bool",
              "name": "complianceApproved",
              "type": "bool"
            }
          ],
          "internalType": "struct InstitutionalTreasury.Investment",
          "name": "",
          "type": "tuple"
        }
      ],
      "stateMutability": "view",
      "type": "function"
    },
    {
      "inputs": [
        {
          "internalType": "address",
          "name": "investor",
          "type": "address"
        }
      ],
      "name": "getInvestorInfo",
      "outputs": [
        {
          "internalType": "bool",
          "name": "authorized",
          "type": "bool"
        },
        {
          "internalType": "bool",
          "name": "isActive",
          "type": "bool"
        },
        {
          "internalType": "uint256",
          "name": "kycLevel",
          "type": "uint256"
        },
        {
          "internalType": "string",
          "name": "jurisdiction",
          "type": "string"
        },
        {
          "internalType": "uint256",
          "name": "investorTotalInvested",
          "type": "uint256"
        },
        {
          "internalType": "uint256",
          "name": "totalWithdrawn",
          "type": "uint256"
        }
      ],
      "stateMutability": "view",
      "type": "function"
    },
    {
      "inputs": [
        {
          "internalType": "address",
          "name": "manager",
          "type": "address"
        }
      ],
      "name": "getManagerProposals",
      "outputs": [
        {
          "internalType": "uint256[]",
          "name": "",
          "type": "uint256[]"
        }
      ],
      "stateMutability": "view",
      "type": "function"
    },
    {
      "inputs": [
        {
          "internalType": "uint256",
          "name": "proposalId",
          "type": "uint256"
        }
      ],
      "name": "getProposal",
      "outputs": [
        {
          "components": [
            {
              "internalType": "uint256",
              "name": "proposalId",
              "type": "uint256"
            },
            {
              "internalType": "enum InstitutionalTreasury.InvestmentType",
              "name": "investmentType",
              "type": "uint8"
            },
            {
              "internalType": "address",
              "name": "protocol",
              "type": "address"
            },
            {
              "internalType": "uint256",
              "name": "amount",
              "type": "uint256"
            },
            {
              "internalType": "enum InstitutionalTreasury.RiskTier",
              "name": "riskTier",
              "type": "uint8"
            },
            {
              "internalType": "uint256",
              "name": "expectedYield",
              "type": "uint256"
            },
            {
              "internalType": "address",
              "name": "proposer",
              "type": "address"
            },
            {
              "internalType": "enum InstitutionalTreasury.ProposalStatus",
              "name": "status",
              "type": "uint8"
            },
            {
              "internalType": "uint256",
              "name": "createdAt",
              "type": "uint256"
            },
            {
              "internalType": "string",
              "name": "riskAssessment",
              "type": "string"
            },
            {
              "internalType": "bool",
              "name": "requiresBoard",
              "type": "bool"
            }
          ],
          "internalType": "struct InstitutionalTreasury.InvestmentProposal",
          "name": "",
          "type": "tuple"
        }
      ],
      "stateMutability": "view",
      "type": "function"
    },
    {
      "inputs": [
        {
          "internalType": "address",
          "name": "protocol",
          "type": "address"
        },
        {
          "internalType": "address",
          "name": "token",
          "type": "address"
        }
      ],
      "name": "getProtocolInvestment",
      "outputs": [
        {
          "internalType": "uint256",
          "name": "",
          "type": "uint256"
        }
      ],
      "stateMutability": "view",
      "type": "function"
    },
    {
      "inputs": [
        {
          "internalType": "address",
          "name": "token",
          "type": "address"
        }
      ],
      "name": "getTokenBalance",
      "outputs": [
        {
          "internalType": "uint256",
          "name": "",
          "type": "uint256"
        }
      ],
      "stateMutability": "view",
      "type": "function"
    },
    {
      "inputs": [],
      "name": "getTreasuryStats",
      "outputs": [
        {
          "internalType": "uint256",
          "name": "totalValue",
          "type": "uint256"
        },
        {
          "internalType": "uint256",
          "name": "totalInvestedAmount",
          "type": "uint256"
        },
        {
          "internalType": "uint256",
          "name": "numberOfInvestors",
          "type": "uint256"
        }
      ],
      "stateMutability": "view",
      "type": "function"
    },
    {
      "inputs": [
        {
          "internalType": "address",
          "name": "protocol",
          "type": "address"
        },
        {
          "internalType": "address",
          "name": "token",
          "type": "address"
        },
        {
          "internalType": "uint256",
          "name": "amount",
          "type": "uint256"
        },
        {
          "internalType": "bytes",
          "name": "data",
          "type": "bytes"
        }
      ],
      "name": "investInProtocol",
      "outputs": [],
      "stateMutability": "nonpayable",
      "type": "function"
    },
    {
      "inputs": [
        {
          "internalType": "uint256",
          "name": "",
          "type": "uint256"
        }
      ],
      "name": "investmentToProposal",
      "outputs": [
        {
          "internalType": "uint256",
          "name": "",
          "type": "uint256"
        }
      ],
      "stateMutability": "view",
      "type": "function"
    },
    {
      "inputs": [
        {
          "internalType": "uint256",
          "name": "",
          "type": "uint256"
        }
      ],
      "name": "investments",
      "outputs": [
        {
          "internalType": "uint256",
          "name": "investmentId",
          "type": "uint256"
        },
        {
          "internalType": "enum InstitutionalTreasury.InvestmentType",
          "name": "investmentType",
          "type": "uint8"
        },
        {
          "internalType": "address",
          "name": "protocol",
          "type": "address"
        },
        {
          "internalType": "uint256",
          "name": "amount",
          "type": "uint256"
        },
        {
          "internalType": "enum InstitutionalTreasury.RiskTier",
          "name": "riskTier",
          "type": "uint8"
        },
        {
          "internalType": "uint256",
          "name": "expectedYield",
          "type": "uint256"
        },
        {
          "internalType": "uint256",
          "name": "actualYield",
          "type": "uint256"
        },
        {
          "internalType": "uint256",
          "name": "startTime",
          "type": "uint256"
        },
        {
          "internalType": "uint256",
          "name": "endTime",
          "type": "uint256"
        },
        {
          "internalType": "bool",
          "name": "isActive",
          "type": "bool"
        },
        {
          "internalType": "bool",
          "name": "complianceApproved",
          "type": "bool"
        }
      ],
      "stateMutability": "view",
      "type": "function"
    },
    {
      "inputs": [
        {
          "internalType": "address",
          "name": "",
          "type": "address"
        }
      ],
      "name": "investors",
      "outputs": [
        {
          "internalType": "bool",
          "name": "authorized",
          "type": "bool"
        },
        {
          "internalType": "bool",
          "name": "isActive",
          "type": "bool"
        },
        {
          "internalType": "uint256",
          "name": "kycLevel",
          "type": "uint256"
        },
        {
          "internalType": "string",
          "name": "jurisdiction",
          "type": "string"
        },
        {
          "internalType": "uint256",
          "name": "totalInvested",
          "type": "uint256"
        },
        {
          "internalType": "uint256",
          "name": "totalWithdrawn",
          "type": "uint256"
        },
        {
          "internalType": "uint256",
          "name": "lastActivity",
          "type": "uint256"
        }
      ],
      "stateMutability": "view",
      "type": "function"
    },
    {
      "inputs": [
        {
          "internalType": "address",
          "name": "",
          "type": "address"
        },
        {
          "internalType": "uint256",
          "name": "",
          "type": "uint256"
        }
      ],
      "name": "managerProposals",
      "outputs": [
        {
          "internalType": "uint256",
          "name": "",
          "type": "uint256"
        }
      ],
      "stateMutability": "view",
      "type": "function"
    },
    {
      "inputs": [],
      "name": "owner",
      "outputs": [
        {
          "internalType": "address",
          "name": "",
          "type": "address"
        }
      ],
      "stateMutability": "view",
      "type": "function"
    },
    {
      "inputs": [
        {
          "internalType": "uint256",
          "name": "",
          "type": "uint256"
        }
      ],
      "name": "proposals",
      "outputs": [
        {
          "internalType": "uint256",
          "name": "proposalId",
          "type": "uint256"
        },
        {
          "internalType": "enum InstitutionalTreasury.InvestmentType",
          "name": "investmentType",
          "type": "uint8"
        },
        {
          "internalType": "address",
          "name": "protocol",
          "type": "address"
        },
        {
          "internalType": "uint256",
          "name": "amount",
          "type": "uint256"
        },
        {
          "internalType": "enum InstitutionalTreasury.RiskTier",
          "name": "riskTier",
          "type": "uint8"
        },
        {
          "internalType": "uint256",
          "name": "expectedYield",
          "type": "uint256"
        },
        {
          "internalType": "address",
          "name": "proposer",
          "type": "address"
        },
        {
          "internalType": "enum InstitutionalTreasury.ProposalStatus",
          "name": "status",
          "type": "uint8"
        },
        {
          "internalType": "uint256",
          "name": "createdAt",
          "type": "uint256"
        },
        {
          "internalType": "string",
          "name": "riskAssessment",
          "type": "string"
        },
        {
          "internalType": "bool",
          "name": "requiresBoard",
          "type": "bool"
        }
      ],
      "stateMutability": "view",
      "type": "function"
    },
    {
      "inputs": [
        {
          "internalType": "address",
          "name": "",
          "type": "address"
        }
      ],
      "name": "protocolAllocations",
      "outputs": [
        {
          "internalType": "uint256",
          "name": "",
          "type": "uint256"
        }
      ],
      "stateMutability": "view",
      "type": "function"
    },
    {
      "inputs": [
        {
          "internalType": "address",
          "name": "",
          "type": "address"
        },
        {
          "internalType": "address",
          "name": "",
          "type": "address"
        }
      ],
      "name": "protocolInvestments",
      "outputs": [
        {
          "internalType": "uint256",
          "name": "",
          "type": "uint256"
        }
      ],
      "stateMutability": "view",
      "type": "function"
    },
    {
      "inputs": [
        {
          "internalType": "address",
          "name": "",
          "type": "address"
        }
      ],
      "name": "protocolNames",
      "outputs": [
        {
          "internalType": "string",
          "name": "",
          "type": "string"
        }
      ],
      "stateMutability": "view",
      "type": "function"
    },
    {
      "inputs": [
        {
          "internalType": "address",
          "name": "",
          "type": "address"
        }
      ],
      "name": "protocolRiskScores",
      "outputs": [
        {
          "internalType": "uint256",
          "name": "",
          "type": "uint256"
        }
      ],
      "stateMutability": "view",
      "type": "function"
    },
    {
      "inputs": [],
      "name": "renounceOwnership",
      "outputs": [],
      "stateMutability": "nonpayable",
      "type": "function"
    },
    {
      "inputs": [
        {
          "internalType": "address",
          "name": "investor",
          "type": "address"
        },
        {
          "internalType": "string",
          "name": "reason",
          "type": "string"
        }
      ],
      "name": "revokeInvestor",
      "outputs": [],
      "stateMutability": "nonpayable",
      "type": "function"
    },
    {
      "inputs": [
        {
          "internalType": "address",
          "name": "manager",
          "type": "address"
        }
      ],
      "name": "revokeManager",
      "outputs": [],
      "stateMutability": "nonpayable",
      "type": "function"
    },
    {
      "inputs": [
        {
          "internalType": "enum InstitutionalTreasury.RiskTier",
          "name": "",
          "type": "uint8"
        }
      ],
      "name": "riskLimits",
      "outputs": [
        {
          "internalType": "uint256",
          "name": "",
          "type": "uint256"
        }
      ],
      "stateMutability": "view",
      "type": "function"
    },
    {
      "inputs": [
        {
          "internalType": "address",
          "name": "newOracle",
          "type": "address"
        }
      ],
      "name": "setComplianceOracle",
      "outputs": [],
      "stateMutability": "nonpayable",
      "type": "function"
    },
    {
      "inputs": [
        {
          "internalType": "address",
          "name": "protocol",
          "type": "address"
        },
        {
          "internalType": "uint256",
          "name": "riskScore",
          "type": "uint256"
        }
      ],
      "name": "setProtocolRiskScore",
      "outputs": [],
      "stateMutability": "nonpayable",
      "type": "function"
    },
    {
      "inputs": [
        {
          "internalType": "enum InstitutionalTreasury.RiskTier",
          "name": "tier",
          "type": "uint8"
        },
        {
          "internalType": "uint256",
          "name": "limit",
          "type": "uint256"
        }
      ],
      "name": "setRiskLimit",
      "outputs": [],
      "stateMutability": "nonpayable",
      "type": "function"
    },
    {
      "inputs": [
        {
          "internalType": "address",
          "name": "",
          "type": "address"
        }
      ],
      "name": "tokenBalances",
      "outputs": [
        {
          "internalType": "uint256",
          "name": "",
          "type": "uint256"
        }
      ],
      "stateMutability": "view",
      "type": "function"
    },
    {
      "inputs": [],
      "name": "totalInvested",
      "outputs": [
        {
          "internalType": "uint256",
          "name": "",
          "type": "uint256"
        }
      ],
      "stateMutability": "view",
      "type": "function"
    },
    {
      "inputs": [
        {
          "internalType": "address",
          "name": "newOwner",
          "type": "address"
        }
      ],
      "name": "transferOwnership",
      "outputs": [],
      "stateMutability": "nonpayable",
      "type": "function"
    },
    {
      "inputs": [
        {
          "internalType": "address",
          "name": "protocol",
          "type": "address"
        },
        {
          "internalType": "string",
          "name": "name",
          "type": "string"
        }
      ],
      "name": "whitelistProtocol",
      "outputs": [],
      "stateMutability": "nonpayable",
      "type": "function"
    },
    {
      "inputs": [
        {
          "internalType": "address",
          "name": "token",
          "type": "address"
        },
        {
          "internalType": "uint256",
          "name": "withdrawalLimit",
          "type": "uint256"
        }
      ],
      "name": "whitelistToken",
      "outputs": [],
      "stateMutability": "nonpayable",
      "type": "function"
    },
    {
      "inputs": [
        {
          "internalType": "address",
          "name": "",
          "type": "address"
        }
      ],
      "name": "whitelistedProtocols",
      "outputs": [
        {
          "internalType": "bool",
          "name": "",
          "type": "bool"
        }
      ],
      "stateMutability": "view",
      "type": "function"
    },
    {
      "inputs": [
        {
          "internalType": "address",
          "name": "",
          "type": "address"
        }
      ],
      "name": "whitelistedTokens",
      "outputs": [
        {
          "internalType": "bool",
          "name": "",
          "type": "bool"
        }
      ],
      "stateMutability": "view",
      "type": "function"
    },
    {
      "inputs": [
        {
          "internalType": "address",
          "name": "token",
          "type": "address"
        },
        {
          "internalType": "uint256",
          "name": "amount",
          "type": "uint256"
        }
      ],
      "name": "withdraw",
      "outputs": [],
      "stateMutability": "nonpayable",
      "type": "function"
    },
    {
      "inputs": [
        {
          "internalType": "address",
          "name": "protocol",
          "type": "address"
        },
        {
          "internalType": "address",
          "name": "token",
          "type": "address"
        },
        {
          "internalType": "uint256",
          "name": "amount",
          "type": "uint256"
        },
        {
          "internalType": "bytes",
          "name": "data",
          "type": "bytes"
        }
      ],
      "name": "withdrawFromProtocol",
      "outputs": [],
      "stateMutability": "nonpayable",
      "type": "function"
    },
    {
      "inputs": [
        {
          "internalType": "address",
          "name": "",
          "type": "address"
        }
      ],
      "name": "withdrawalLimits",
      "outputs": [
        {
          "internalType": "uint256",
          "name": "",
          "type": "uint256"
        }
      ],
      "stateMutability": "view",
      "type": "function"
    }
  ],
  "bytecode": "0x60806040523480156200001157600080fd5b50604051620047b0380380620047b08339810160408190526200003491620000d5565b806001600160a01b0381166200006457604051631e4fbdf760e01b81526000600482015260240160405180910390fd5b6200006f8162000085565b5050600180556000600281905560035562000107565b600080546001600160a01b038381166001600160a01b0319831681178455604051919092169283917f8be0079c531659141344cd1fd0a4f28419497f9722a3daafe3b4186f6b6457e09190a35050565b600060208284031215620000e857600080fd5b81516001600160a01b03811681146200010057600080fd5b9392505050565b61469980620001176000396000f3fe608060405234801561001057600080fd5b50600436106102d65760003560e01c80638da5cb5b11610182578063c8692e3f116100e9578063e0959a59116100a2578063f3fef3a31161007c578063f3fef3a3146107cb578063fbee5b85146107de578063fd345c8a146107f1578063fef860b81461087657600080fd5b8063e0959a5914610778578063f08ab47214610798578063f2fde38b146107b857600080fd5b8063c8692e3f146106d1578063c895a942146106f1578063d6e2cf1914610704578063d777e4251461072f578063daf9c21014610742578063dc9e81f31461076557600080fd5b8063a5e5d1c91161013b578063a5e5d1c914610615578063a8c2267514610648578063ade0d01d1461066b578063c470d7a01461067e578063c4e16b7d1461069e578063c7f758a8146106b157600080fd5b80638da5cb5b1461058b57806393e36b251461059c57806398951b56146105af5780639cf110e2146105c2578063a0f24fb1146105d5578063a19cc5f2146105f557600080fd5b80633cbb4668116102415780635cde857d116101fa5780636bef2289116101d45780636bef2289146105275780636f7bc9be1461053a578063715018a61461056057806384361c071461056857600080fd5b80635cde857d146104e1578063687dda081461050157806369d9479c1461051457600080fd5b80633cbb466814610454578063410239bf1461046757806347e7ef24146104925780635216aeec146104a5578063523fba7f146104ae5780635bfcdf68146104ce57600080fd5b80631fc6dbff116102935780631fc6dbff146103b157806322ae634f146103c4578063267c8507146103e457806333ee4628146103f7578063377e32e61461040a5780633aecd0e31461041d57600080fd5b8063013cf08b146102db5780630707873c1461030e578063092807c0146103335780630a3cb21b146103485780631131bd601461037b5780631ca55e701461039b575b600080fd5b6102ee6102e936600461398f565b610889565b6040516103059b9a99989796959493929190613a31565b60405180910390f35b61032161031c366004613ad7565b61097f565b60405161030596959493929190613af9565b610346610341366004613b37565b610ac4565b005b61036b610356366004613ad7565b60116020526000908152604090205460ff1681565b6040519015158152602001610305565b61038e610389366004613ad7565b610da0565b6040516103059190613c0d565b6103a3610e0c565b604051610305929190613c20565b6103466103bf366004613c39565b610fff565b6103d76103d236600461398f565b6110fa565b6040516103059190613c63565b6103466103f2366004613ad7565b611247565b610346610405366004613dac565b6112c9565b610346610418366004613ad7565b6113cf565b61044661042b366004613ad7565b6001600160a01b031660009081526004602052604090205490565b604051908152602001610305565b610346610462366004613dfa565b6113f8565b600a5461047a906001600160a01b031681565b6040516001600160a01b039091168152602001610305565b6103466104a0366004613c39565b61155c565b610446600b5481565b6104466104bc366004613ad7565b60046020526000908152604090205481565b6103466104dc366004613dac565b611774565b6104466104ef366004613ad7565b600f6020526000908152604090205481565b61034661050f366004613b37565b6118a0565b61044661052236600461398f565b611bbf565b610446610535366004613e3a565b6120e2565b61054d610548366004613ad7565b612544565b6040516103059796959493929190613ec1565b61034661260d565b61036b610576366004613ad7565b60076020526000908152604090205460ff1681565b6000546001600160a01b031661047a565b61036b6105aa366004613f09565b612621565b6103466105bd36600461398f565b6126e9565b6103466105d0366004613dac565b612922565b6105e86105e3366004613ad7565b6129eb565b6040516103059190613f71565b610446610603366004613ad7565b60136020526000908152604090205481565b610628610623366004613f84565b612a85565b604080519485526020850193909352918301526060820152608001610305565b61036b610656366004613ad7565b600e6020526000908152604090205460ff1681565b610346610679366004613fa6565b612cba565b61044661068c36600461398f565b60146020526000908152604090205481565b6103466106ac366004613c39565b612eb1565b6106c46106bf36600461398f565b612f97565b6040516103059190613ffd565b600b54604080518281526020810192909252600090820152606001610305565b6104466106ff3660046140c8565b61319b565b6104466107123660046140c8565b600860209081526000928352604080842090915290825290205481565b61034661073d366004613ad7565b6131c8565b61036b610750366004613ad7565b60056020526000908152604090205460ff1681565b610446610773366004613c39565b613269565b610446610786366004613ad7565b60066020526000908152604090205481565b6104466107a63660046140fb565b60106020526000908152604090205481565b6103466107c6366004613ad7565b61329a565b6103466107d9366004613c39565b6132d8565b6103466107ec366004614116565b6135a1565b61085f6107ff36600461398f565b600c60205260009081526040902080546001820154600283015460038401546004850154600586015460068701546007880154600890980154969760ff808816986001600160a01b03610100998a9004169896821696818316929104168b565b6040516103059b9a99989796959493929190614132565b6103466108843660046141a8565b613669565b600d6020526000908152604090208054600182015460028301546003840154600485015460058601546006870154600788018054979860ff808916996001600160a01b03610100909a048a169997821697861695600160a01b90049091169392906108f3906141e4565b80601f016020809104026020016040519081016040528092919081815260200182805461091f906141e4565b801561096c5780601f106109415761010080835404028352916020019161096c565b820191906000526020600020905b81548152906001019060200180831161094f57829003601f168201915b5050506008909301549192505060ff168b565b6001600160a01b0381166000908152600960209081526040808320815160e081018352815460ff8082161515835261010090910416151593810193909352600181015491830191909152600281018054849384936060938593849384939092909183880191906109ee906141e4565b80601f0160208091040260200160405190810160405280929190818152602001828054610a1a906141e4565b8015610a675780601f10610a3c57610100808354040283529160200191610a67565b820191906000526020600020905b815481529060010190602001808311610a4a57829003601f168201915b5050505050815260200160038201548152602001600482015481526020016005820154815250509050806000015181602001518260400151836060015184608001518560a001519650965096509650965096505091939550919395565b610acc6137d9565b610ad4613806565b6001600160a01b038516610b035760405162461bcd60e51b8152600401610afa9061421e565b60405180910390fd5b6001600160a01b038416610b295760405162461bcd60e51b8152600401610afa90614255565b60008311610b495760405162461bcd60e51b8152600401610afa90614284565b6001600160a01b03851660009081526007602052604090205460ff16610bac5760405162461bcd60e51b8152602060048201526018602482015277141c9bdd1bd8dbdb081b9bdd081dda1a5d195b1a5cdd195960421b6044820152606401610afa565b6001600160a01b03808616600090815260086020908152604080832093881683529290522054831115610c215760405162461bcd60e51b815260206004820152601760248201527f496e73756666696369656e7420696e766573746d656e740000000000000000006044820152606401610afa565b6001600160a01b03808616600090815260086020908152604080832093881683529290529081208054859290610c589084906142cf565b90915550508015610d14576000856001600160a01b03168383604051610c7f9291906142e2565b6000604051808303816000865af19150503d8060008114610cbc576040519150601f19603f3d011682016040523d82523d6000602084013e610cc1565b606091505b5050905080610d125760405162461bcd60e51b815260206004820152601a60248201527f50726f746f636f6c207769746864726177616c206661696c65640000000000006044820152606401610afa565b505b6001600160a01b03841660009081526004602052604081208054859290610d3c9084906142f2565b92505081905550836001600160a01b0316856001600160a01b03167f501556786c1d2fd567ef1688c69826c95d16dfb216c158eb0e72f297331304dc85604051610d8891815260200190565b60405180910390a3610d9960018055565b5050505050565b6001600160a01b038116600090815260156020908152604091829020805483518184028101840190945280845260609392830182828015610e0057602002820191906000526020600020905b815481526020019060010190808311610dec575b50505050509050919050565b60408051600480825260a082019092526000916060918391602082016080803683375050600b54919250506000819003610e4b57506000939092509050565b600060015b6002548111610ff4576000818152600c602052604090206008015460ff1615610fe2576000818152600c60205260408120600201548490610e92906064614305565b610e9c919061431c565b90506000806000848152600c6020526040902060039081015460ff1690811115610ec857610ec86139a8565b03610f0157601490508186600081518110610ee557610ee561433e565b60200260200101818151610ef991906142f2565b905250610fbd565b60016000848152600c6020526040902060039081015460ff1690811115610f2a57610f2a6139a8565b03610f4757602890508186600181518110610ee557610ee561433e565b60026000848152600c6020526040902060039081015460ff1690811115610f7057610f706139a8565b03610f8d57604690508186600281518110610ee557610ee561433e565b605a90508186600381518110610fa557610fa561433e565b60200260200101818151610fb991906142f2565b9052505b6064610fc98383614305565b610fd3919061431c565b610fdd90856142f2565b935050505b80610fec81614354565b915050610e50565b509491935090915050565b6110076137d9565b6001600160a01b03821661102d5760405162461bcd60e51b8152600401610afa9061421e565b6001600160a01b0382166000908152600e602052604090205460ff1661108d5760405162461bcd60e51b8152602060048201526015602482015274141c9bdd1bd8dbdb081b9bdd08185c1c1c9bdd9959605a1b6044820152606401610afa565b60648111156110de5760405162461bcd60e51b815260206004820152601c60248201527f5269736b2073636f72652063616e6e6f742065786365656420313030000000006044820152606401610afa565b6001600160a01b03909116600090815260136020526040902055565b6040805161016081018252600080825260208201819052918101829052606081018290526080810182905260a0810182905260c0810182905260e08101829052610100810182905261012081018290526101408101919091526000828152600c602090815260409182902082516101608101909352805483526001810154909183019060ff166004811115611191576111916139a8565b60048111156111a2576111a26139a8565b8152600182015461010090046001600160a01b031660208201526002820154604082015260038083015460609092019160ff16908111156111e5576111e56139a8565b60038111156111f6576111f66139a8565b81526004820154602082015260058201546040820152600682015460608201526007820154608082015260089091015460ff808216151560a084015261010090910416151560c09091015292915050565b61124f6137d9565b6001600160a01b0381166112a55760405162461bcd60e51b815260206004820152601760248201527f496e76616c6964206d616e6167657220616464726573730000000000000000006044820152606401610afa565b6001600160a01b03166000908152601160205260409020805460ff19166001179055565b6112d16137d9565b6001600160a01b0382166112f75760405162461bcd60e51b8152600401610afa9061421e565b600081511161133f5760405162461bcd60e51b81526020600482015260146024820152734e616d652063616e6e6f7420626520656d70747960601b6044820152606401610afa565b6001600160a01b0382166000908152600e60209081526040808320805460ff191660011790556012909152902061137682826143bb565b506001600160a01b0382166000818152601360205260409081902060329055517ffd19732d9df8f811ae6e9119c35d8ef4965a50d8c3c31993cf463f860208b980906113c3908490613f71565b60405180910390a25050565b6113d76137d9565b6001600160a01b03166000908152601160205260409020805460ff19169055565b6114006137d9565b6000828152600c6020526040812054900361145d5760405162461bcd60e51b815260206004820152601960248201527f496e766573746d656e7420646f6573206e6f74206578697374000000000000006044820152606401610afa565b6000828152600c602052604090206008015460ff166114b65760405162461bcd60e51b8152602060048201526015602482015274496e766573746d656e74206e6f742061637469766560581b6044820152606401610afa565b60008151116114f95760405162461bcd60e51b815260206004820152600f60248201526e1499585cdbdb881c995c5d5a5c9959608a1b6044820152606401610afa565b6000828152600c6020908152604080832060088101805460ff19169055426007820155600281015460019091015461010090046001600160a01b0316808552600f9093529083208054919384926115519084906142cf565b909155505050505050565b6001600160a01b0382166115825760405162461bcd60e51b8152600401610afa90614255565b600081116115a25760405162461bcd60e51b8152600401610afa90614284565b6001600160a01b03821660009081526005602052604090205460ff166115da5760405162461bcd60e51b8152600401610afa9061447b565b3360009081526009602052604090205460ff166116095760405162461bcd60e51b8152600401610afa906144aa565b33600090815260096020526040902054610100900460ff166116695760405162461bcd60e51b8152602060048201526019602482015278496e766573746f72206163636f756e7420696e61637469766560381b6044820152606401610afa565b6116943383836040518060400160405280600781526020016611115413d4d25560ca1b815250612621565b6116b05760405162461bcd60e51b8152600401610afa906144e1565b6001600160a01b038216600090815260046020526040812080548392906116d89084906142f2565b909155505033600090815260096020526040812060030180548392906116ff9084906142f2565b909155505033600081815260096020526040902042600590910155611730906001600160a01b038416903084613830565b6040518181526001600160a01b0383169033907ff0d0e99cae184d0187b093b48894117462462379674a6e11d89c3fbb618e96b09060200160405180910390a35050565b61177c6137d9565b6001600160a01b0382166117cd5760405162461bcd60e51b8152602060048201526018602482015277496e76616c696420696e766573746f72206164647265737360401b6044820152606401610afa565b6001600160a01b03821660009081526009602052604090205460ff166118055760405162461bcd60e51b8152600401610afa906144aa565b600081511161184f5760405162461bcd60e51b8152602060048201526016602482015275526561736f6e2063616e6e6f7420626520656d70747960501b6044820152606401610afa565b6001600160a01b03821660008181526009602052604090819020805461ffff19169055517f410da6c1cea5cbe0ccf5771ac0e8d6101d870cb84fe2847c49d7a40e18d348fd906113c3908490613f71565b6118a86137d9565b6118b0613806565b6001600160a01b0385166118d65760405162461bcd60e51b8152600401610afa9061421e565b6001600160a01b0384166118fc5760405162461bcd60e51b8152600401610afa90614255565b6000831161191c5760405162461bcd60e51b8152600401610afa90614284565b6001600160a01b03851660009081526007602052604090205460ff1661197f5760405162461bcd60e51b8152602060048201526018602482015277141c9bdd1bd8dbdb081b9bdd081dda1a5d195b1a5cdd195960421b6044820152606401610afa565b6001600160a01b03841660009081526005602052604090205460ff166119b75760405162461bcd60e51b8152600401610afa9061447b565b6001600160a01b0384166000908152600460205260409020548311156119ef5760405162461bcd60e51b8152600401610afa90614518565b611a19308585604051806040016040528060068152602001651253959154d560d21b815250612621565b611a355760405162461bcd60e51b8152600401610afa906144e1565b6001600160a01b03808616600090815260086020908152604080832093881683529290529081208054859290611a6c9084906142f2565b90915550506001600160a01b03841660009081526004602052604081208054859290611a999084906142cf565b9250508190555082600b6000828254611ab291906142f2565b90915550611acc90506001600160a01b038516868561389d565b8015611b7a576000856001600160a01b03168383604051611aee9291906142e2565b6000604051808303816000865af19150503d8060008114611b2b576040519150601f19603f3d011682016040523d82523d6000602084013e611b30565b606091505b5050905080611b785760405162461bcd60e51b8152602060048201526014602482015273141c9bdd1bd8dbdb0818d85b1b0819985a5b195960621b6044820152606401610afa565b505b836001600160a01b0316856001600160a01b03167fb826c83e0c6778bf4e6accf36f92992ce435eb7ea7e4b214fdd77cc46e418baa85604051610d8891815260200190565b6000611bc96137d9565b611bd1613806565b6000828152600d60205260408120549003611c285760405162461bcd60e51b8152602060048201526017602482015276141c9bdc1bdcd85b08191bd95cc81b9bdd08195e1a5cdd604a1b6044820152606401610afa565b60016000838152600d6020526040902060050154600160a01b900460ff166004811115611c5757611c576139a8565b14611c9c5760405162461bcd60e51b8152602060048201526015602482015274141c9bdc1bdcd85b081b9bdd08185c1c1c9bdd9959605a1b6044820152606401610afa565b6000828152600d6020908152604080832081516101608101909252805482526001810154919290919083019060ff166004811115611cdc57611cdc6139a8565b6004811115611ced57611ced6139a8565b8152600182015461010090046001600160a01b031660208201526002820154604082015260038083015460609092019160ff1690811115611d3057611d306139a8565b6003811115611d4157611d416139a8565b8152600482810154602083015260058301546001600160a01b0381166040840152606090920191600160a01b900460ff1690811115611d8257611d826139a8565b6004811115611d9357611d936139a8565b815260200160068201548152602001600782018054611db1906141e4565b80601f0160208091040260200160405190810160405280929190818152602001828054611ddd906141e4565b8015611e2a5780601f10611dff57610100808354040283529160200191611e2a565b820191906000526020600020905b815481529060010190602001808311611e0d57829003601f168201915b50505091835250506008919091015460ff161515602090910152600280549192506000611e5683614354565b91905055506000600254905060405180610160016040528082815260200183602001516004811115611e8a57611e8a6139a8565b815260200183604001516001600160a01b031681526020018360600151815260200183608001516003811115611ec257611ec26139a8565b815260a0808501516020808401919091526000604080850182905242606086015260808501829052600193850184905260c0909401839052858152600c825292909220835181559183015182820180549192909160ff191690836004811115611f2d57611f2d6139a8565b021790555060408201518160010160016101000a8154816001600160a01b0302191690836001600160a01b031602179055506060820151816002015560808201518160030160006101000a81548160ff02191690836003811115611f9357611f936139a8565b021790555060a0820151600482015560c082015160058083019190915560e08301516006830155610100808401516007840155610120840151600890930180546101409095015161ffff1990951693151561ff00191693909317931515029290921790556000858152600d602052604090200180546003919060ff60a01b1916600160a01b83021790555060608201516040808401516001600160a01b03166000908152600f602052908120805490919061204f9084906142f2565b90915550506060820151600b805460009061206b9084906142f2565b909155505060008181526014602090815260409182902086905583820151606085015183516001600160a01b0390921682529181019190915282917f35dd29c496d368ffa400a4635c4e88793bdc538d9a23754d66aad0e25534c70d910160405180910390a29150506120dd60018055565b919050565b3360009081526011602052604081205460ff168061210a57506000546001600160a01b031633145b6121615760405162461bcd60e51b815260206004820152602260248201527f4e6f7420617574686f72697a656420746f206372656174652070726f706f73616044820152616c7360f01b6064820152608401610afa565b6001600160a01b0386166121875760405162461bcd60e51b8152600401610afa9061421e565b600085116121a75760405162461bcd60e51b8152600401610afa90614284565b6001600160a01b0386166000908152600e602052604090205460ff166122075760405162461bcd60e51b8152602060048201526015602482015274141c9bdd1bd8dbdb081b9bdd08185c1c1c9bdd9959605a1b6044820152606401610afa565b60008251116122585760405162461bcd60e51b815260206004820152601860248201527f5269736b206173736573736d656e7420726571756972656400000000000000006044820152606401610afa565b6010600085600381111561226e5761226e6139a8565b600381111561227f5761227f6139a8565b8152602001908152602001600020548511156122dd5760405162461bcd60e51b815260206004820152601960248201527f416d6f756e742065786365656473207269736b206c696d6974000000000000006044820152606401610afa565b600380549060006122ed83614354565b90915550506003546040805161016081019091528181526020810189600481111561231a5761231a6139a8565b8152602001886001600160a01b03168152602001878152602001866003811115612346576123466139a8565b8152602081018690523360408201526060016000815260200142815260200184815260200164e8d4a510008811806123905750600287600381111561238d5761238d6139a8565b10155b151590526000828152600d60209081526040909120825181559082015160018083018054909160ff19909116908360048111156123cf576123cf6139a8565b021790555060408201518160010160016101000a8154816001600160a01b0302191690836001600160a01b031602179055506060820151816002015560808201518160030160006101000a81548160ff02191690836003811115612435576124356139a8565b021790555060a082015160048083019190915560c08301516005830180546001600160a01b039092166001600160a01b031983168117825560e08601519391926001600160a81b0319161790600160a01b908490811115612498576124986139a8565b0217905550610100820151600682015561012082015160078201906124bd90826143bb565b5061014091909101516008909101805460ff1916911515919091179055336000908152601560209081526040808320805460018101825590845291909220018290555181907f28dceb9730b2c28f69e60f580eb1c4fa31aa52c182a114044aa1459fe17f3d0b90612531908b908a90614546565b60405180910390a2979650505050505050565b60096020526000908152604090208054600182015460028301805460ff8085169561010090950416939190612578906141e4565b80601f01602080910402602001604051908101604052809291908181526020018280546125a4906141e4565b80156125f15780601f106125c6576101008083540402835291602001916125f1565b820191906000526020600020905b8154815290600101906020018083116125d457829003601f168201915b5050505050908060030154908060040154908060050154905087565b6126156137d9565b61261f60006138ce565b565b600a546000906001600160a01b031661263c575060016126e1565b6000858585854260405160200161265795949392919061455d565b60408051601f1981840301815290829052600a546367a34f8360e01b83529092506001600160a01b0316906367a34f839061269c9089903090899087906004016145a2565b602060405180830381865afa1580156126b9573d6000803e3d6000fd5b505050506040513d601f19601f820116820180604052508101906126dd91906145df565b9150505b949350505050565b6126f16137d9565b6000818152600d602052604081205490036127485760405162461bcd60e51b8152602060048201526017602482015276141c9bdc1bdcd85b08191bd95cc81b9bdd08195e1a5cdd604a1b6044820152606401610afa565b600080828152600d6020526040902060050154600160a01b900460ff166004811115612776576127766139a8565b146127ba5760405162461bcd60e51b815260206004820152601460248201527350726f706f73616c206e6f742070656e64696e6760601b6044820152606401610afa565b6000818152600d60209081526040808320600181015460029091015491516127f6936001600160a01b03610100840416939260ff169101614601565b60408051601f19818403018152919052600a549091506001906001600160a01b0316156128b757600a546000848152600d602052604090819020600181015460029091015491516367a34f8360e01b81526001600160a01b03938416936367a34f83936128739330936101009091049092169188906004016145a2565b602060405180830381865afa158015612890573d6000803e3d6000fd5b505050506040513d601f19601f820116820180604052508101906128b491906145df565b90505b80156128e35750506000908152600d60205260409020600501805460ff60a01b1916600160a01b179055565b6000838152600d602052604090819020600501805460ff60a01b1916600160a11b1790555162461bcd60e51b8152610afa906004016144e1565b505050565b61292a6137d9565b6001600160a01b0382166129505760405162461bcd60e51b8152600401610afa9061421e565b60008151116129985760405162461bcd60e51b81526020600482015260146024820152734e616d652063616e6e6f7420626520656d70747960601b6044820152606401610afa565b6001600160a01b03821660008181526007602052604090819020805460ff19166001179055517f73bdf89e59edfb29506faba5617b5a05784f35f90f1652bdc33be18659eebfaf906113c3908490613f71565b60126020526000908152604090208054612a04906141e4565b80601f0160208091040260200160405190810160405280929190818152602001828054612a30906141e4565b8015612a7d5780601f10612a5257610100808354040283529160200191612a7d565b820191906000526020600020905b815481529060010190602001808311612a6057829003601f168201915b505050505081565b600080600080858511612ada5760405162461bcd60e51b815260206004820152601760248201527f496e76616c69642074696d657374616d702072616e67650000000000000000006044820152606401610afa565b6000808060015b6002548111612c6c576000818152600c6020908152604080832081516101608101909252805482526001810154919290919083019060ff166004811115612b2a57612b2a6139a8565b6004811115612b3b57612b3b6139a8565b8152600182015461010090046001600160a01b031660208201526002820154604082015260038083015460609092019160ff1690811115612b7e57612b7e6139a8565b6003811115612b8f57612b8f6139a8565b81526004820154602082015260058201546040820152600682015460608201526007820154608082015260089091015460ff808216151560a084015261010090910416151560c09091015260e08101519091508b11801590612c10575089816101000151111580612c105750610100810151158015612c1057508061012001515b15612c595760c0810151612c2490866142f2565b945080610120015115612c475760c0810151612c4090846142f2565b9250612c59565b60c0810151612c5690856142f2565b93505b5080612c6481614354565b915050612ae1565b506000612c798a8a6142cf565b9050600063bbf81e0082600b546002612c929190614305565b612c9c9190614305565b612ca6919061431c565b949b939a5091985092965090945050505050565b612cc26137d9565b6001600160a01b038316612d135760405162461bcd60e51b8152602060048201526018602482015277496e76616c696420696e766573746f72206164647265737360401b6044820152606401610afa565b600082118015612d24575060038211155b612d645760405162461bcd60e51b8152602060048201526011602482015270125b9d985b1a590812d650c81b195d995b607a1b6044820152606401610afa565b6000815111612db55760405162461bcd60e51b815260206004820152601c60248201527f4a7572697364696374696f6e2063616e6e6f7420626520656d707479000000006044820152606401610afa565b6040805160e081018252600180825260208083018281528385018781526060850187815260006080870181905260a087018190524260c08801526001600160a01b038b16815260099094529590922084518154925161ffff1990931690151561ff001916176101009215159290920291909117815590519181019190915591519091906002820190612e4790826143bb565b506080820151816003015560a0820151816004015560c08201518160050155905050826001600160a01b03167f02aae2cb11a8581bfe1ad55ffecce1af2d43a998b73e2f3a6aec6feb4153c0258383604051612ea492919061462f565b60405180910390a2505050565b612eb96137d9565b6001600160a01b038216612edf5760405162461bcd60e51b8152600401610afa90614255565b60008111612f395760405162461bcd60e51b815260206004820152602160248201527f5769746864726177616c206c696d6974206d75737420626520706f73697469766044820152606560f81b6064820152608401610afa565b6001600160a01b0382166000818152600560209081526040808320805460ff19166001179055600682529182902084905590518381527fe184914670d9e097e90729e2a9159866b30b1203952f0586bedca1d6fcf130a891016113c3565b604080516101608101825260008082526020820181905291810182905260608082018390526080820183905260a0820183905260c0820183905260e0820183905261010082018390526101208201526101408101919091526000828152600d602090815260409182902082516101608101909352805483526001810154909183019060ff16600481111561302d5761302d6139a8565b600481111561303e5761303e6139a8565b8152600182015461010090046001600160a01b031660208201526002820154604082015260038083015460609092019160ff1690811115613081576130816139a8565b6003811115613092576130926139a8565b8152600482810154602083015260058301546001600160a01b0381166040840152606090920191600160a01b900460ff16908111156130d3576130d36139a8565b60048111156130e4576130e46139a8565b815260200160068201548152602001600782018054613102906141e4565b80601f016020809104026020016040519081016040528092919081815260200182805461312e906141e4565b801561317b5780601f106131505761010080835404028352916020019161317b565b820191906000526020600020905b81548152906001019060200180831161315e57829003601f168201915b50505091835250506008919091015460ff16151560209091015292915050565b6001600160a01b038083166000908152600860209081526040808320938516835292905220545b92915050565b6131d06137d9565b6001600160a01b03811661321f5760405162461bcd60e51b8152602060048201526016602482015275496e76616c6964206f7261636c65206164647265737360501b6044820152606401610afa565b600a80546001600160a01b0319166001600160a01b0383169081179091556040517f240019488a3687c988f12b52d1923202d7c5619914c6d60850f76dc5482f7ff390600090a250565b6015602052816000526040600020818154811061328557600080fd5b90600052602060002001600091509150505481565b6132a26137d9565b6001600160a01b0381166132cc57604051631e4fbdf760e01b815260006004820152602401610afa565b6132d5816138ce565b50565b6132e0613806565b6001600160a01b0382166133065760405162461bcd60e51b8152600401610afa90614255565b600081116133265760405162461bcd60e51b8152600401610afa90614284565b6001600160a01b03821660009081526005602052604090205460ff1661335e5760405162461bcd60e51b8152600401610afa9061447b565b6001600160a01b0382166000908152600460205260409020548111156133965760405162461bcd60e51b8152600401610afa90614518565b3360009081526009602052604090205460ff166133c55760405162461bcd60e51b8152600401610afa906144aa565b33600090815260096020526040902054610100900460ff166134255760405162461bcd60e51b8152602060048201526019602482015278496e766573746f72206163636f756e7420696e61637469766560381b6044820152606401610afa565b61345133838360405180604001604052806008815260200167574954484452415760c01b815250612621565b61346d5760405162461bcd60e51b8152600401610afa906144e1565b6001600160a01b0382166000908152600660205260409020548111156134d55760405162461bcd60e51b815260206004820152601860248201527f45786365656473207769746864726177616c206c696d697400000000000000006044820152606401610afa565b6001600160a01b038216600090815260046020526040812080548392906134fd9084906142cf565b909155505033600090815260096020526040812060040180548392906135249084906142f2565b909155505033600081815260096020526040902042600590910155613554906001600160a01b038416908361389d565b6040518181526001600160a01b0383169033907fa92ff919b850e4909ab2261d907ef955f11bc1716733a6cbece38d163a69af8a9060200160405180910390a361359d60018055565b5050565b6135a96137d9565b600081116135f25760405162461bcd60e51b81526020600482015260166024820152754c696d6974206d75737420626520706f73697469766560501b6044820152606401610afa565b8060106000846003811115613609576136096139a8565b600381111561361a5761361a6139a8565b8152602001908152602001600020819055507f64ffa65079a2de6e488576d53b97af2bd9b94bf6ee853152e0cff78d3bb4df1c828260405161365d929190614648565b60405180910390a15050565b6136716137d9565b6001600160a01b0383166136975760405162461bcd60e51b8152600401610afa90614255565b6001600160a01b0382166136ed5760405162461bcd60e51b815260206004820152601960248201527f496e76616c696420726563697069656e742061646472657373000000000000006044820152606401610afa565b6000811161370d5760405162461bcd60e51b8152600401610afa90614284565b6001600160a01b0383166000908152600460205260409020548111156137455760405162461bcd60e51b8152600401610afa90614518565b6001600160a01b0383166000908152600460205260408120805483929061376d9084906142cf565b9091555061378790506001600160a01b038416838361389d565b816001600160a01b0316836001600160a01b03167f9495d03190a79a43e534c9e328ff322f6283261383f5f19c809564f6ad5a57b3836040516137cc91815260200190565b60405180910390a3505050565b6000546001600160a01b0316331461261f5760405163118cdaa760e01b8152336004820152602401610afa565b60026001540361382957604051633ee5aeb560e01b815260040160405180910390fd5b6002600155565b6040516001600160a01b0384811660248301528381166044830152606482018390526138979186918216906323b872dd906084015b604051602081830303815290604052915060e01b6020820180516001600160e01b03838183161783525050505061391e565b50505050565b6040516001600160a01b0383811660248301526044820183905261291d91859182169063a9059cbb90606401613865565b600080546001600160a01b038381166001600160a01b0319831681178455604051919092169283917f8be0079c531659141344cd1fd0a4f28419497f9722a3daafe3b4186f6b6457e09190a35050565b600080602060008451602086016000885af180613941576040513d6000823e3d81fd5b50506000513d91508115613959578060011415613966565b6001600160a01b0384163b155b1561389757604051635274afe760e01b81526001600160a01b0385166004820152602401610afa565b6000602082840312156139a157600080fd5b5035919050565b634e487b7160e01b600052602160045260246000fd5b600581106132d5576132d56139a8565b6139d7816139be565b9052565b600481106139d7576139d76139a8565b6000815180845260005b81811015613a11576020818501810151868301820152016139f5565b506000602082860101526020601f19601f83011685010191505092915050565b60006101608d8352613a428d6139be565b602083018d90526001600160a01b038c81166040850152606084018c9052613a6d608085018c6139db565b60a084018a9052881660c0840152613a84876139be565b8660e08401528561010084015280610120840152613aa4818401866139eb565b9150508215156101408301529c9b505050505050505050505050565b80356001600160a01b03811681146120dd57600080fd5b600060208284031215613ae957600080fd5b613af282613ac0565b9392505050565b8615158152851515602082015284604082015260c060608201526000613b2260c08301866139eb565b60808301949094525060a00152949350505050565b600080600080600060808688031215613b4f57600080fd5b613b5886613ac0565b9450613b6660208701613ac0565b935060408601359250606086013567ffffffffffffffff80821115613b8a57600080fd5b818801915088601f830112613b9e57600080fd5b813581811115613bad57600080fd5b896020828501011115613bbf57600080fd5b9699959850939650602001949392505050565b600081518084526020808501945080840160005b83811015613c0257815187529582019590820190600101613be6565b509495945050505050565b602081526000613af26020830184613bd2565b8281526040602082015260006126e16040830184613bd2565b60008060408385031215613c4c57600080fd5b613c5583613ac0565b946020939093013593505050565b81518152602080830151610160830191613c7f908401826139ce565b506040830151613c9a60408401826001600160a01b03169052565b50606083015160608301526080830151613cb760808401826139db565b5060a083015160a083015260c083015160c083015260e083015160e083015261010080840151818401525061012080840151613cf68285018215159052565b5050610140928301511515919092015290565b634e487b7160e01b600052604160045260246000fd5b600082601f830112613d3057600080fd5b813567ffffffffffffffff80821115613d4b57613d4b613d09565b604051601f8301601f19908116603f01168101908282118183101715613d7357613d73613d09565b81604052838152866020858801011115613d8c57600080fd5b836020870160208301376000602085830101528094505050505092915050565b60008060408385031215613dbf57600080fd5b613dc883613ac0565b9150602083013567ffffffffffffffff811115613de457600080fd5b613df085828601613d1f565b9150509250929050565b60008060408385031215613e0d57600080fd5b82359150602083013567ffffffffffffffff811115613de457600080fd5b8035600481106120dd57600080fd5b60008060008060008060c08789031215613e5357600080fd5b863560058110613e6257600080fd5b9550613e7060208801613ac0565b945060408701359350613e8560608801613e2b565b92506080870135915060a087013567ffffffffffffffff811115613ea857600080fd5b613eb489828a01613d1f565b9150509295509295509295565b8715158152861515602082015285604082015260e060608201526000613eea60e08301876139eb565b60808301959095525060a081019290925260c090910152949350505050565b60008060008060808587031215613f1f57600080fd5b613f2885613ac0565b9350613f3660208601613ac0565b925060408501359150606085013567ffffffffffffffff811115613f5957600080fd5b613f6587828801613d1f565b91505092959194509250565b602081526000613af260208301846139eb565b60008060408385031215613f9757600080fd5b50508035926020909101359150565b600080600060608486031215613fbb57600080fd5b613fc484613ac0565b925060208401359150604084013567ffffffffffffffff811115613fe757600080fd5b613ff386828701613d1f565b9150509250925092565b60208152815160208201526000602083015161401c60408401826139ce565b5060408301516001600160a01b03811660608401525060608301516080830152608083015161404e60a08401826139db565b5060a083015160c083015260c083015161407360e08401826001600160a01b03169052565b5060e0830151610100614088818501836139ce565b84015161012084810191909152840151610160610140808601829052919250906140b66101808601846139eb565b95015115159301929092525090919050565b600080604083850312156140db57600080fd5b6140e483613ac0565b91506140f260208401613ac0565b90509250929050565b60006020828403121561410d57600080fd5b613af282613e2b565b6000806040838503121561412957600080fd5b613c5583613e2b565b8b815261016081016141438c6139be565b602082018c90526001600160a01b038b166040830152606082018a905261416d608083018a6139db565b8760a08301528660c08301528560e0830152846101008301528315156101208301528215156101408301529c9b505050505050505050505050565b6000806000606084860312156141bd57600080fd5b6141c684613ac0565b92506141d460208501613ac0565b9150604084013590509250925092565b600181811c908216806141f857607f821691505b60208210810361421857634e487b7160e01b600052602260045260246000fd5b50919050565b60208082526018908201527f496e76616c69642070726f746f636f6c20616464726573730000000000000000604082015260600190565b602080825260159082015274496e76616c696420746f6b656e206164647265737360581b604082015260600190565b6020808252818101527f416d6f756e74206d7573742062652067726561746572207468616e207a65726f604082015260600190565b634e487b7160e01b600052601160045260246000fd5b818103818111156131c2576131c26142b9565b8183823760009101908152919050565b808201808211156131c2576131c26142b9565b80820281158282048414176131c2576131c26142b9565b60008261433957634e487b7160e01b600052601260045260246000fd5b500490565b634e487b7160e01b600052603260045260246000fd5b600060018201614366576143666142b9565b5060010190565b601f82111561291d57600081815260208120601f850160051c810160208610156143945750805b601f850160051c820191505b818110156143b3578281556001016143a0565b505050505050565b815167ffffffffffffffff8111156143d5576143d5613d09565b6143e9816143e384546141e4565b8461436d565b602080601f83116001811461441e57600084156144065750858301515b600019600386901b1c1916600185901b1785556143b3565b600085815260208120601f198616915b8281101561444d5788860151825594840194600190910190840161442e565b508582101561446b5787850151600019600388901b60f8161c191681555b5050505050600190811b01905550565b602080825260159082015274151bdad95b881b9bdd081dda1a5d195b1a5cdd1959605a1b604082015260600190565b60208082526017908201527f496e766573746f72206e6f7420617574686f72697a6564000000000000000000604082015260600190565b60208082526017908201527f436f6d706c69616e636520636865636b206661696c6564000000000000000000604082015260600190565b602080825260149082015273496e73756666696369656e742062616c616e636560601b604082015260600190565b60408101614553846139be565b9281526020015290565b6001600160a01b038681168252851660208201526040810184905260a060608201819052600090614590908301856139eb565b90508260808301529695505050505050565b6001600160a01b03858116825284166020820152604081018390526080606082018190526000906145d5908301846139eb565b9695505050505050565b6000602082840312156145f157600080fd5b81518015158114613af257600080fd5b6001600160a01b03841681526020810183905260608101614621836139be565b826040830152949350505050565b8281526040602082015260006126e160408301846139eb565b6040810161465682856139db565b826020830152939250505056fea26469706673582212205c9cdefc4d3ac8e55465eb97bd68f271faddc0f3d07301419404e19d9022b3ed64736f6c63430008140033",
  "linkReferences": {},
  "deployedLinkReferences": {}
}