{
  "_format": "hh-sol-artifact-1",
  "contractName": "TransactionMonitor",
  "sourceName": "contracts/TransactionMonitor.sol",
  "abi": [
    {
      "inputs": [
        {
          "internalType": "address",
          "name": "initialOwner",
          "type": "address"
        }
      ],
      "stateMutability": "nonpayable",
      "type": "constructor"
    },
    {
      "inputs": [
        {
          "internalType": "address",
          "name": "owner",
          "type": "address"
        }
      ],
      "name": "OwnableInvalidOwner",
      "type": "error"
    },
    {
      "inputs": [
        {
          "internalType": "address",
          "name": "account",
          "type": "address"
        }
      ],
      "name": "OwnableUnauthorizedAccount",
      "type": "error"
    },
    {
      "anonymous": false,
      "inputs": [
        {
          "indexed": true,
          "internalType": "address",
          "name": "account",
          "type": "address"
        },
        {
          "indexed": false,
          "internalType": "string",
          "name": "reason",
          "type": "string"
        }
      ],
      "name": "AddressBlacklisted",
      "type": "event"
    },
    {
      "anonymous": false,
      "inputs": [
        {
          "indexed": true,
          "internalType": "address",
          "name": "previousOwner",
          "type": "address"
        },
        {
          "indexed": true,
          "internalType": "address",
          "name": "newOwner",
          "type": "address"
        }
      ],
      "name": "OwnershipTransferred",
      "type": "event"
    },
    {
      "anonymous": false,
      "inputs": [
        {
          "indexed": true,
          "internalType": "address",
          "name": "protocol",
          "type": "address"
        },
        {
          "indexed": false,
          "internalType": "string",
          "name": "name",
          "type": "string"
        }
      ],
      "name": "ProtocolWhitelisted",
      "type": "event"
    },
    {
      "anonymous": false,
      "inputs": [
        {
          "indexed": true,
          "internalType": "uint256",
          "name": "alertId",
          "type": "uint256"
        },
        {
          "indexed": true,
          "internalType": "address",
          "name": "fromAddress",
          "type": "address"
        },
        {
          "indexed": false,
          "internalType": "enum TransactionMonitor.AlertType",
          "name": "alertType",
          "type": "uint8"
        }
      ],
      "name": "TransactionFlagged",
      "type": "event"
    },
    {
      "inputs": [
        {
          "internalType": "uint256",
          "name": "",
          "type": "uint256"
        }
      ],
      "name": "alerts",
      "outputs": [
        {
          "internalType": "uint256",
          "name": "alertId",
          "type": "uint256"
        },
        {
          "internalType": "address",
          "name": "fromAddress",
          "type": "address"
        },
        {
          "internalType": "address",
          "name": "toAddress",
          "type": "address"
        },
        {
          "internalType": "uint256",
          "name": "amount",
          "type": "uint256"
        },
        {
          "internalType": "address",
          "name": "protocol",
          "type": "address"
        },
        {
          "internalType": "enum TransactionMonitor.AlertType",
          "name": "alertType",
          "type": "uint8"
        },
        {
          "internalType": "enum TransactionMonitor.AlertSeverity",
          "name": "severity",
          "type": "uint8"
        },
        {
          "internalType": "uint256",
          "name": "timestamp",
          "type": "uint256"
        },
        {
          "internalType": "bool",
          "name": "investigated",
          "type": "bool"
        },
        {
          "internalType": "string",
          "name": "notes",
          "type": "string"
        }
      ],
      "stateMutability": "view",
      "type": "function"
    },
    {
      "inputs": [
        {
          "internalType": "address",
          "name": "from",
          "type": "address"
        },
        {
          "internalType": "address",
          "name": "to",
          "type": "address"
        },
        {
          "internalType": "uint256",
          "name": "amount",
          "type": "uint256"
        },
        {
          "internalType": "address",
          "name": "protocol",
          "type": "address"
        }
      ],
      "name": "analyzeTransaction",
      "outputs": [
        {
          "internalType": "uint256",
          "name": "riskScore",
          "type": "uint256"
        },
        {
          "internalType": "bool",
          "name": "requiresKYC",
          "type": "bool"
        },
        {
          "internalType": "bool",
          "name": "isCompliant",
          "type": "bool"
        },
        {
          "internalType": "string",
          "name": "analysis",
          "type": "string"
        }
      ],
      "stateMutability": "view",
      "type": "function"
    },
    {
      "inputs": [
        {
          "internalType": "address",
          "name": "account",
          "type": "address"
        },
        {
          "internalType": "string",
          "name": "reason",
          "type": "string"
        }
      ],
      "name": "blacklistAddress",
      "outputs": [],
      "stateMutability": "nonpayable",
      "type": "function"
    },
    {
      "inputs": [
        {
          "internalType": "address",
          "name": "",
          "type": "address"
        }
      ],
      "name": "blacklistedAddresses",
      "outputs": [
        {
          "internalType": "bool",
          "name": "",
          "type": "bool"
        }
      ],
      "stateMutability": "view",
      "type": "function"
    },
    {
      "inputs": [
        {
          "internalType": "address",
          "name": "fromAddress",
          "type": "address"
        },
        {
          "internalType": "address",
          "name": "toAddress",
          "type": "address"
        },
        {
          "internalType": "uint256",
          "name": "amount",
          "type": "uint256"
        },
        {
          "internalType": "address",
          "name": "protocol",
          "type": "address"
        },
        {
          "internalType": "enum TransactionMonitor.AlertType",
          "name": "alertType",
          "type": "uint8"
        },
        {
          "internalType": "enum TransactionMonitor.AlertSeverity",
          "name": "severity",
          "type": "uint8"
        }
      ],
      "name": "createAlert",
      "outputs": [
        {
          "internalType": "uint256",
          "name": "",
          "type": "uint256"
        }
      ],
      "stateMutability": "nonpayable",
      "type": "function"
    },
    {
      "inputs": [
        {
          "internalType": "address",
          "name": "",
          "type": "address"
        }
      ],
      "name": "dailyTransactionVolume",
      "outputs": [
        {
          "internalType": "uint256",
          "name": "",
          "type": "uint256"
        }
      ],
      "stateMutability": "view",
      "type": "function"
    },
    {
      "inputs": [
        {
          "internalType": "address",
          "name": "account",
          "type": "address"
        }
      ],
      "name": "getAlertsForAddress",
      "outputs": [
        {
          "internalType": "uint256[]",
          "name": "alertIds",
          "type": "uint256[]"
        }
      ],
      "stateMutability": "view",
      "type": "function"
    },
    {
      "inputs": [
        {
          "internalType": "address",
          "name": "",
          "type": "address"
        }
      ],
      "name": "lastResetTime",
      "outputs": [
        {
          "internalType": "uint256",
          "name": "",
          "type": "uint256"
        }
      ],
      "stateMutability": "view",
      "type": "function"
    },
    {
      "inputs": [
        {
          "internalType": "uint256",
          "name": "alertId",
          "type": "uint256"
        },
        {
          "internalType": "string",
          "name": "notes",
          "type": "string"
        }
      ],
      "name": "markAlertInvestigated",
      "outputs": [],
      "stateMutability": "nonpayable",
      "type": "function"
    },
    {
      "inputs": [
        {
          "internalType": "address",
          "name": "from",
          "type": "address"
        },
        {
          "internalType": "address",
          "name": "to",
          "type": "address"
        },
        {
          "internalType": "uint256",
          "name": "amount",
          "type": "uint256"
        },
        {
          "internalType": "address",
          "name": "protocol",
          "type": "address"
        },
        {
          "internalType": "bytes",
          "name": "",
          "type": "bytes"
        }
      ],
      "name": "monitorTransaction",
      "outputs": [
        {
          "internalType": "bool",
          "name": "shouldFlag",
          "type": "bool"
        },
        {
          "internalType": "enum TransactionMonitor.AlertType",
          "name": "alertType",
          "type": "uint8"
        }
      ],
      "stateMutability": "nonpayable",
      "type": "function"
    },
    {
      "inputs": [],
      "name": "owner",
      "outputs": [
        {
          "internalType": "address",
          "name": "",
          "type": "address"
        }
      ],
      "stateMutability": "view",
      "type": "function"
    },
    {
      "inputs": [
        {
          "internalType": "address",
          "name": "",
          "type": "address"
        },
        {
          "internalType": "address",
          "name": "",
          "type": "address"
        }
      ],
      "name": "pairTransactionCount",
      "outputs": [
        {
          "internalType": "uint256",
          "name": "",
          "type": "uint256"
        }
      ],
      "stateMutability": "view",
      "type": "function"
    },
    {
      "inputs": [],
      "name": "renounceOwnership",
      "outputs": [],
      "stateMutability": "nonpayable",
      "type": "function"
    },
    {
      "inputs": [
        {
          "internalType": "address",
          "name": "",
          "type": "address"
        }
      ],
      "name": "riskScores",
      "outputs": [
        {
          "internalType": "uint256",
          "name": "",
          "type": "uint256"
        }
      ],
      "stateMutability": "view",
      "type": "function"
    },
    {
      "inputs": [
        {
          "internalType": "address",
          "name": "",
          "type": "address"
        }
      ],
      "name": "totalTransactionCount",
      "outputs": [
        {
          "internalType": "uint256",
          "name": "",
          "type": "uint256"
        }
      ],
      "stateMutability": "view",
      "type": "function"
    },
    {
      "inputs": [
        {
          "internalType": "address",
          "name": "newOwner",
          "type": "address"
        }
      ],
      "name": "transferOwnership",
      "outputs": [],
      "stateMutability": "nonpayable",
      "type": "function"
    },
    {
      "inputs": [
        {
          "internalType": "address",
          "name": "account",
          "type": "address"
        },
        {
          "internalType": "uint256",
          "name": "newScore",
          "type": "uint256"
        }
      ],
      "name": "updateRiskScore",
      "outputs": [],
      "stateMutability": "nonpayable",
      "type": "function"
    },
    {
      "inputs": [
        {
          "internalType": "address",
          "name": "protocol",
          "type": "address"
        },
        {
          "internalType": "string",
          "name": "name",
          "type": "string"
        }
      ],
      "name": "whitelistProtocol",
      "outputs": [],
      "stateMutability": "nonpayable",
      "type": "function"
    },
    {
      "inputs": [
        {
          "internalType": "address",
          "name": "",
          "type": "address"
        }
      ],
      "name": "whitelistedProtocols",
      "outputs": [
        {
          "internalType": "bool",
          "name": "",
          "type": "bool"
        }
      ],
      "stateMutability": "view",
      "type": "function"
    }
  ],
  "bytecode": "0x608060405234801561001057600080fd5b50604051620019fc380380620019fc833981016040819052610031916100c5565b806001600160a01b03811661006057604051631e4fbdf760e01b81526000600482015260240160405180910390fd5b61006981610075565b505060006001556100f5565b600080546001600160a01b038381166001600160a01b0319831681178455604051919092169283917f8be0079c531659141344cd1fd0a4f28419497f9722a3daafe3b4186f6b6457e09190a35050565b6000602082840312156100d757600080fd5b81516001600160a01b03811681146100ee57600080fd5b9392505050565b6118f780620001056000396000f3fe608060405234801561001057600080fd5b50600436106101215760003560e01c806384361c07116100ad578063d5749d4211610071578063d5749d42146102d8578063dda5f1ed146102fb578063f2fde38b1461031b578063f353741e1461032e578063f560155e1461034f57600080fd5b806384361c07146102445780638da5cb5b14610277578063959e90ff146102925780639cf110e2146102b25780639ff1192d146102c557600080fd5b80635e5b8752116100f45780635e5b8752146101c45780635f0d14ae146101e4578063715018a61461020757806371f8fa04146102115780637780f6c81461022457600080fd5b8063171d073a1461012657806320b0ce6a146101585780633e92ef2614610178578063476ee471146101b1575b600080fd5b6101396101343660046111ea565b610362565b60405161014f9a99989796959493929190611273565b60405180910390f35b61016b610166366004611313565b610456565b60405161014f9190611335565b6101a3610186366004611379565b600960209081526000928352604080842090915290825290205481565b60405190815260200161014f565b6101a36101bf3660046113ac565b6105dc565b6101a36101d2366004611313565b60066020526000908152604090205481565b6101f76101f2366004611427565b6105ff565b60405161014f9493929190611474565b61020f6107bd565b005b61020f61021f36600461154a565b6107d1565b6101a3610232366004611313565b60076020526000908152604090205481565b610267610252366004611313565b60046020526000908152604090205460ff1681565b604051901515815260200161014f565b6000546040516001600160a01b03909116815260200161014f565b6101a36102a0366004611313565b60086020526000908152604090205481565b61020f6102c036600461154a565b6108dd565b61020f6102d3366004611598565b6109c9565b6102676102e6366004611313565b60036020526000908152604090205460ff1681565b6101a3610309366004611313565b60056020526000908152604090205481565b61020f610329366004611313565b610aa4565b61034161033c3660046115c2565b610ae2565b60405161014f92919061166f565b61020f61035d366004611685565b610d98565b60026020819052600091825260409091208054600182015492820154600383015460048401546005850154600686015460078701805496986001600160a01b03908116989681169795969085169560ff600160a01b8704811696600160a81b9004811695941692906103d3906116b6565b80601f01602080910402602001604051908101604052809291908181526020018280546103ff906116b6565b801561044c5780601f106104215761010080835404028352916020019161044c565b820191906000526020600020905b81548152906001019060200180831161042f57829003601f168201915b505050505090508a565b6060600060015467ffffffffffffffff811115610475576104756114a7565b60405190808252806020026020018201604052801561049e578160200160208202803683370190505b509050600060015b600154811161053a576000818152600260205260409020600101546001600160a01b03868116911614806104f75750600081815260026020819052604090912001546001600160a01b038681169116145b15610528578083838151811061050f5761050f6116f0565b6020908102919091010152816105248161171c565b9250505b806105328161171c565b9150506104a6565b508067ffffffffffffffff811115610554576105546114a7565b60405190808252806020026020018201604052801561057d578160200160208202803683370190505b50925060005b818110156105d45782818151811061059d5761059d6116f0565b60200260200101518482815181106105b7576105b76116f0565b6020908102919091010152806105cc8161171c565b915050610583565b505050919050565b60006105e6610e80565b6105f4878787878787610ead565b979650505050505050565b6001600160a01b03808516600090815260066020908152604080832054878516845281842054948616845260049092528220549192839283926060929091849060ff1661064d576032610650565b600a5b60ff169050600064174876e8008a1161066a57600a61066d565b601e5b60ff1690506000600482846106828789611735565b61068c9190611735565b6106969190611735565b6106a0919061174e565b6001600160a01b038e166000908152600360205260408120549192509060ff161580156106e657506001600160a01b038d1660009081526003602052604090205460ff16155b80156106f25750604682105b9050600060328311806107095750640ba43b74008d115b90506060601e84101561074757506040805180820190915260148152732637bb903934b9b5903a3930b739b0b1ba34b7b760611b60208201526107a6565b604684101561078a575060408051808201909152601d81527f4d656469756d207269736b202d206d6f6e69746f7220636c6f73656c7900000060208201526107a6565b6040518060600160405280602281526020016118a06022913990505b929f909e50909c50909a5098505050505050505050565b6107c5610e80565b6107cf600061119a565b565b6107d9610e80565b6001600160a01b0382166108265760405162461bcd60e51b815260206004820152600f60248201526e125b9d985b1a59081858d8dbdd5b9d608a1b60448201526064015b60405180910390fd5b60008151116108705760405162461bcd60e51b8152602060048201526016602482015275526561736f6e2063616e6e6f7420626520656d70747960501b604482015260640161081d565b6001600160a01b0382166000818152600360209081526040808320805460ff1916600117905560069091529081902060649055517fddbfcbca8a6ec25cc3e99e3a7ddc04420eaa6749c91bffcd405e0c3ecc42d9f4906108d1908490611770565b60405180910390a25050565b6108e5610e80565b6001600160a01b03821661092e5760405162461bcd60e51b815260206004820152601060248201526f125b9d985b1a59081c1c9bdd1bd8dbdb60821b604482015260640161081d565b60008151116109765760405162461bcd60e51b81526020600482015260146024820152734e616d652063616e6e6f7420626520656d70747960601b604482015260640161081d565b6001600160a01b03821660008181526004602052604090819020805460ff19166001179055517f73bdf89e59edfb29506faba5617b5a05784f35f90f1652bdc33be18659eebfaf906108d1908490611770565b6109d1610e80565b6001600160a01b038216610a195760405162461bcd60e51b815260206004820152600f60248201526e125b9d985b1a59081858d8dbdd5b9d608a1b604482015260640161081d565b6064811115610a6a5760405162461bcd60e51b815260206004820152601c60248201527f5269736b2073636f72652063616e6e6f74206578636565642031303000000000604482015260640161081d565b6001600160a01b038216600090815260066020526040902081905560508110610aa057610a9e826000806000600180610ead565b505b5050565b610aac610e80565b6001600160a01b038116610ad657604051631e4fbdf760e01b81526000600482015260240161081d565b610adf8161119a565b50565b6000806001600160a01b03881615801590610b0557506001600160a01b03871615155b610b455760405162461bcd60e51b8152602060048201526011602482015270496e76616c69642061646472657373657360781b604482015260640161081d565b60008611610b955760405162461bcd60e51b815260206004820181905260248201527f416d6f756e74206d7573742062652067726561746572207468616e207a65726f604482015260640161081d565b64174876e800861115610bc057610bb28888888860006001610ead565b506001600091509150610d8d565b6001600160a01b03881660009081526003602052604090205460ff1680610bff57506001600160a01b03871660009081526003602052604090205460ff165b15610c2157610c1388888888600280610ead565b506001600291509150610d8d565b6001600160a01b03851660009081526004602052604090205460ff16610c5d57610c5088888888600180610ead565b5060018091509150610d8d565b6001600160a01b038816600090815260056020526040812054610c81908890611735565b905064e8d4a51000811115610cae57610ca08989898960016002610ead565b506001809250925050610d8d565b6001600160a01b03808a166000908152600960209081526040808320938c168352929052908120805491610ce18361171c565b90915550506001600160a01b03808a166000908152600960209081526040808320938c1683529290522054600a1015610d2557610d2389898989600180610ead565b505b6001600160a01b038916600090815260056020908152604080832084905560089091528120805491610d568361171c565b90915550506001600160a01b0388166000908152600860205260408120805491610d7f8361171c565b919050555060008092509250505b965096945050505050565b610da0610e80565b6000828152600260205260408120549003610df45760405162461bcd60e51b8152602060048201526014602482015273105b195c9d08191bd95cc81b9bdd08195e1a5cdd60621b604482015260640161081d565b60008281526002602052604090206006015460ff1615610e565760405162461bcd60e51b815260206004820152601a60248201527f416c65727420616c726561647920696e76657374696761746564000000000000604482015260640161081d565b600082815260026020526040902060068101805460ff19166001179055600701610a9e82826117d1565b6000546001600160a01b031633146107cf5760405163118cdaa760e01b815233600482015260240161081d565b60006001600160a01b038716610efc5760405162461bcd60e51b8152602060048201526014602482015273496e76616c69642066726f6d206164647265737360601b604482015260640161081d565b6001600160a01b038616610f475760405162461bcd60e51b8152602060048201526012602482015271496e76616c696420746f206164647265737360701b604482015260640161081d565b60008511610f975760405162461bcd60e51b815260206004820181905260248201527f416d6f756e74206d7573742062652067726561746572207468616e207a65726f604482015260640161081d565b60018054906000610fa78361171c565b919050555060006001549050604051806101400160405280828152602001896001600160a01b03168152602001886001600160a01b03168152602001878152602001866001600160a01b0316815260200185600481111561100a5761100a611203565b815260200184600381111561102157611021611203565b815242602080830191909152600060408084018290528051808401825282815260609485015285825260028084529181902085518155928501516001840180546001600160a01b03199081166001600160a01b039384161790915591860151928401805483169382169390931790925592840151600383015560808401516004808401805495861692909316918217835560a086015193946001600160a81b03191690911790600160a01b9084908111156110de576110de611203565b021790555060c082015160048201805460ff60a81b1916600160a81b83600381111561110c5761110c611203565b021790555060e0820151600582015561010082015160068201805460ff1916911515919091179055610120820151600782019061114990826117d1565b50905050876001600160a01b0316817f9d5843466e04e379601c7ea25c8794d2e6df6346b5469097be76f0c709b09602866040516111879190611891565b60405180910390a3979650505050505050565b600080546001600160a01b038381166001600160a01b0319831681178455604051919092169283917f8be0079c531659141344cd1fd0a4f28419497f9722a3daafe3b4186f6b6457e09190a35050565b6000602082840312156111fc57600080fd5b5035919050565b634e487b7160e01b600052602160045260246000fd5b6005811061122957611229611203565b9052565b6000815180845260005b8181101561125357602081850181015186830182015201611237565b506000602082860101526020601f19601f83011685010191505092915050565b8a81526001600160a01b038a811660208301528981166040830152606082018990528716608082015260006101406112ae60a0840189611219565b600487106112be576112be611203565b8660c08401528560e0840152841515610100840152806101208401526112e68184018561122d565b9d9c50505050505050505050505050565b80356001600160a01b038116811461130e57600080fd5b919050565b60006020828403121561132557600080fd5b61132e826112f7565b9392505050565b6020808252825182820181905260009190848201906040850190845b8181101561136d57835183529284019291840191600101611351565b50909695505050505050565b6000806040838503121561138c57600080fd5b611395836112f7565b91506113a3602084016112f7565b90509250929050565b60008060008060008060c087890312156113c557600080fd5b6113ce876112f7565b95506113dc602088016112f7565b9450604087013593506113f1606088016112f7565b925060808701356005811061140557600080fd5b915060a08701356004811061141957600080fd5b809150509295509295509295565b6000806000806080858703121561143d57600080fd5b611446856112f7565b9350611454602086016112f7565b925060408501359150611469606086016112f7565b905092959194509250565b8481528315156020820152821515604082015260806060820152600061149d608083018461122d565b9695505050505050565b634e487b7160e01b600052604160045260246000fd5b600082601f8301126114ce57600080fd5b813567ffffffffffffffff808211156114e9576114e96114a7565b604051601f8301601f19908116603f01168101908282118183101715611511576115116114a7565b8160405283815286602085880101111561152a57600080fd5b836020870160208301376000602085830101528094505050505092915050565b6000806040838503121561155d57600080fd5b611566836112f7565b9150602083013567ffffffffffffffff81111561158257600080fd5b61158e858286016114bd565b9150509250929050565b600080604083850312156115ab57600080fd5b6115b4836112f7565b946020939093013593505050565b60008060008060008060a087890312156115db57600080fd5b6115e4876112f7565b95506115f2602088016112f7565b945060408701359350611607606088016112f7565b9250608087013567ffffffffffffffff8082111561162457600080fd5b818901915089601f83011261163857600080fd5b81358181111561164757600080fd5b8a602082850101111561165957600080fd5b6020830194508093505050509295509295509295565b82151581526040810161132e6020830184611219565b6000806040838503121561169857600080fd5b82359150602083013567ffffffffffffffff81111561158257600080fd5b600181811c908216806116ca57607f821691505b6020821081036116ea57634e487b7160e01b600052602260045260246000fd5b50919050565b634e487b7160e01b600052603260045260246000fd5b634e487b7160e01b600052601160045260246000fd5b60006001820161172e5761172e611706565b5060010190565b8082018082111561174857611748611706565b92915050565b60008261176b57634e487b7160e01b600052601260045260246000fd5b500490565b60208152600061132e602083018461122d565b601f821115610a9e57600081815260208120601f850160051c810160208610156117aa5750805b601f850160051c820191505b818110156117c9578281556001016117b6565b505050505050565b815167ffffffffffffffff8111156117eb576117eb6114a7565b6117ff816117f984546116b6565b84611783565b602080601f831160018114611834576000841561181c5750858301515b600019600386901b1c1916600185901b1785556117c9565b600085815260208120601f198616915b8281101561186357888601518255948401946001909101908401611844565b50858210156118815787850151600019600388901b60f8161c191681555b5050505050600190811b01905550565b60208101611748828461121956fe48696768207269736b202d20726571756972657320696e7665737469676174696f6ea26469706673582212207abf7cda78745ff9b3c115a60f1620e5982573d052e14b71ee3e5b23b3d0025b64736f6c63430008140033",
  "linkReferences": {},
  "deployedLinkReferences": {}
}